:020000040800F2
:100000000000032039B10008ED220008EF220008AB
:10001000F1220008F3220008F52200080000000089
:10002000000000000000000000000000319A0008FD
:10003000F722000800000000C19A0008F922000819
:1000400089B1000889B1000889B1000889B10008A8
:1000500089B1000889B10008A1230008892300089C
:1000600071230008592300084123000889B10008C2
:1000700089B1000889B1000889B1000889B1000878
:1000800089B1000889B1000889B1000889B1000868
:1000900089B1000889B1000889B100083923000836
:1000A00089B10008FD22000889B1000889B1000863
:1000B00089B1000889B1000889B10008212300082E
:1000C0002D23000889B1000889B1000889B1000812
:1000D00089B10008B923000889B1000889B1000876
:1000E00089B1000889B1000889B1000889B1000808
:1000F00089B1000889B1000889B1000889B10008F8
:1001000089B1000889B100086128000889B1000898
:1001100089B1000889B10008F527000815230008F7
:1001200089B1000889B1000889B1000889B10008C7
:1001300089B1000889B1000889B1000889B10008B7
:1001400089B1000889B1000889B1000809230008B5
:1001500089B1000889B1000889B1000889B1000897
:1001600089B1000889B1000889B1000889B1000887
:1001700089B1000889B1000889B1000800000000B9
:1001800089B1000889B1000889B1000889B1000867
:1001900089B1000889B1000889B1000889B1000857
:0C01A00089B1000889B1000889B100088D
:1001B00010B5054C237833B9044B13B10448AFF3A1
:1001C00000800123237010BD4003002000000000C8
:1001D00040DE000808B5034B1BB103490348AFF3E9
:1001E000008008BD000000004403002040DE00083D
:1001F000034613F8012B002AFBD1181A0138704767
:1002000001F0FF01102A2BDB10F0070F08D010F8C7
:10021000013B013A8B422DD010F0070F42B3F6D1CB
:10022000F0B441EA012141EA014122F007047FF0E4
:1002300000070023F0E80256083C85EA010586EA3B
:10024000010685FA47F5A3FA87F586FA47F6A5FA77
:1002500087F68EB9EED1F0BC01F0FF0102F0070283
:1002600032B110F8013B013A83EA010313B1F8D12E
:100270000020704701387047002D06BF354603380F
:10028000073815F0010F07D1013015F4807F02BF48
:10029000013015F4C03F0130F0BC0138704700BF99
:1002A00081F0004102E000BF83F0004330B54FEA27
:1002B00041044FEA430594EA050F08BF90EA020F94
:1002C0001FBF54EA000C55EA020C7FEA645C7FEA27
:1002D000655C00F0E2804FEA5454D4EB5555B8BF4A
:1002E0006D420CDD2C4480EA020281EA030382EABB
:1002F000000083EA010180EA020281EA0303362D4D
:1003000088BF30BD11F0004F4FEA01314FF4801C1F
:100310004CEA113102D0404261EB410113F0004F31
:100320004FEA03334CEA133302D0524263EB4303E8
:1003300094EA050F00F0A780A4F10104D5F1200E86
:100340000DDB02FA0EFC22FA05F2801841F10001E1
:1003500003FA0EF2801843FA05F359410EE0A5F1B5
:1003600020050EF1200E012A03FA0EFC28BF4CF0E6
:10037000020C43FA05F3C01851EBE37101F000459C
:1003800007D54FF0000EDCF1000C7EEB00006EEBA9
:100390000101B1F5801F1BD3B1F5001F0CD3490833
:1003A0005FEA30004FEA3C0C04F101044FEA44528A
:1003B00012F5800F80F09A80BCF1004F08BF5FEA11
:1003C000500C50F1000041EB045141EA050130BDF1
:1003D0005FEA4C0C404141EB010111F4801FA4F194
:1003E0000104E9D191F0000F04BF01460020B1FAE9
:1003F00081F308BF2033A3F10B03B3F120020CDA21
:100400000C3208DD02F1140CC2F10C0201FA0CF0FE
:1004100021FA02F10CE002F11402D8BFC2F1200C63
:1004200001FA02F120FA0CFCDCBF41EA0C01904019
:10043000E41AA2BF01EB0451294330BD6FEA040462
:100440001F3C1CDA0C340EDC04F11404C4F120024D
:1004500020FA04F001FA02F340EA030021FA04F35F
:1004600045EA030130BDC4F10C04C4F1200220FAB6
:1004700002F001FA04F340EA0300294630BD21FAF4
:1004800004F0294630BD94F0000F83F4801306BFBA
:1004900081F480110134013D4EE77FEA645C18BFAE
:1004A0007FEA655C29D094EA050F08BF90EA020F45
:1004B00005D054EA000C04BF1946104630BD91EA3D
:1004C000030F1EBF0021002030BD5FEA545C05D140
:1004D0004000494128BF41F0004130BD14F580047F
:1004E0003CBF01F5801130BD01F0004545F0FE41F3
:1004F00041F470014FF0000030BD7FEA645C1ABF28
:10050000194610467FEA655C1CBF0B46024650EA5E
:10051000013406BF52EA033591EA030F41F400218A
:1005200030BD00BF90F0000F04BF0021704730B510
:100530004FF4806404F132044FF000054FF00001E5
:1005400050E700BF90F0000F04BF0021704730B5A6
:100550004FF4806404F1320410F0004548BF40427B
:100560004FF000013EE700BF42004FEAE2014FEAD0
:1005700031014FEA02701FBF12F07F4393F07F4FAB
:1005800081F06051704792F0000F14BF93F07F4FDD
:10059000704730B54FF4607401F0004521F0004120
:1005A00020E700BF50EA010208BF704730B54FF0A6
:1005B00000050AE050EA010208BF704730B511F0AB
:1005C000004502D5404261EB41014FF4806404F1E3
:1005D00032045FEA915C3FF4DCAE4FF003025FEA65
:1005E000DC0C18BF03325FEADC0C18BF033202EBED
:1005F000DC02C2F1200300FA03FC20FA02F001FA47
:1006000003FE40EA0E0021FA02F11444C1E600BFE5
:1006100070B54FF0FF0C4CF4E06C1CEA11541DBF98
:100620001CEA135594EA0C0F95EA0C0F00F0DEF863
:100630002C4481EA030621EA4C5123EA4C5350EA48
:10064000013518BF52EA033541F4801143F4801399
:1006500038D0A0FB02CE4FF00005E1FB02E506F02A
:100660000042E0FB03E54FF00006E1FB03569CF07F
:10067000000F18BF4EF0010EA4F1FF04B6F5007F85
:1006800064F5407404D25FEA4E0E6D4146EB0606F7
:1006900042EAC62141EA55514FEAC52040EA5E5080
:1006A0004FEACE2EB4F1FD0C88BFBCF5E06F1ED82A
:1006B000BEF1004F08BF5FEA500E50F1000041EB61
:1006C000045170BD06F0004646EA010140EA02000E
:1006D00081EA0301B4EB5C04C2BFD4EB0C0541EA30
:1006E000045170BD41F480114FF0000E013C00F345
:1006F000AB8014F1360FDEBF002001F0004170BD69
:10070000C4F10004203C35DA0C341BDC04F1140481
:10071000C4F1200500FA05F320FA04F001FA05F20D
:1007200040EA020001F0004221F0004110EBD370DA
:1007300021FA04F642EB06015EEA430E08BF20EA06
:10074000D37070BDC4F10C04C4F1200500FA04F3A9
:1007500020FA05F001FA04F240EA020001F000413B
:1007600010EBD37041F100015EEA430E08BF20EAAE
:10077000D37070BDC4F1200500FA05F24EEA020EF6
:1007800020FA04F301FA05F243EA020321FA04F025
:1007900001F0004121FA04F220EA020000EBD370DC
:1007A0005EEA430E08BF20EAD37070BD94F0000FDC
:1007B0000FD101F00046400041EB010111F4801F10
:1007C00008BF013CF7D041EA060195F0000F18BFC1
:1007D000704703F00046520043EB030313F4801FFD
:1007E00008BF013DF7D043EA0603704794EA0C0FB7
:1007F0000CEA135518BF95EA0C0F0CD050EA4106CD
:1008000018BF52EA4306D1D181EA030101F0004149
:100810004FF0000070BD50EA410606BF1046194671
:1008200052EA430619D094EA0C0F02D150EA01367D
:1008300013D195EA0C0F05D152EA03361CBF1046BE
:1008400019460AD181EA030101F0004141F0FE415D
:1008500041F470014FF0000070BD41F0FE4141F4E1
:10086000780170BD70B54FF0FF0C4CF4E06C1CEAE1
:1008700011541DBF1CEA135594EA0C0F95EA0C0F96
:1008800000F0A7F8A4EB050481EA030E52EA033551
:100890004FEA013100F088804FEA03334FF0805572
:1008A00045EA131343EA12634FEA022245EA11159F
:1008B00045EA10654FEA00260EF000419D4208BF50
:1008C000964244F1FD0404F5407402D25B084FEAFD
:1008D0003202B61A65EB03055B084FEA32024FF4A9
:1008E00080104FF4002CB6EB020E75EB030E22BF06
:1008F000B61A754640EA0C005B084FEA3202B6EBC6
:10090000020E75EB030E22BFB61A754640EA5C0074
:100910005B084FEA3202B6EB020E75EB030E22BF04
:10092000B61A754640EA9C005B084FEA3202B6EB05
:10093000020E75EB030E22BFB61A754640EADC00C4
:1009400055EA060E18D04FEA051545EA16754FEA26
:1009500006164FEAC30343EA52734FEAC2025FEA44
:100960001C1CC0D111F4801F0BD141EA00014FF0D3
:1009700000004FF0004CB6E711F4801F04BF0143A4
:100980000020B4F1FD0C88BFBCF5E06F3FF6AFAEC0
:10099000B5EB030C04BFB6EB020C5FEA500C50F150
:1009A000000041EB045170BD0EF0004E4EEA1131D3
:1009B00014EB5C04C2BFD4EB0C0541EA045170BDDA
:1009C00041F480114FF0000E013C90E645EA060E1E
:1009D0008DE60CEA135594EA0C0F08BF95EA0C0F4C
:1009E0003FF43BAF94EA0C0F0AD150EA01347FF494
:1009F00034AF95EA0C0F7FF425AF104619462CE76B
:100A000095EA0C0F06D152EA03353FF4FDAE1046CD
:100A1000194622E750EA410618BF52EA43067FF41E
:100A2000C5AE50EA41047FF40DAF52EA43057FF4AE
:100A3000EBAE12E74FF0FF3C06E000BF4FF0010CB9
:100A400002E000BF4FF0010C4DF804CD4FEA410C1D
:100A50007FEA6C5C4FEA430C18BF7FEA6C5C1BD0EA
:100A600001B050EA410C0CBF52EA430C91EA030F6B
:100A700002BF90EA020F0020704710F1000F91EAC8
:100A8000030F58BF994208BF90422CBFD8176FEA96
:100A9000E37040F0010070474FEA410C7FEA6C5C64
:100AA00002D150EA013C07D14FEA430C7FEA6C5C6B
:100AB000D6D152EA033CD3D05DF8040B704700BF97
:100AC0008446104662468C461946634600E000BFE5
:100AD00001B5FFF7B7FF002848BF10F1000F01BDB7
:100AE0004DF808EDFFF7F4FF0CBF012000205DF882
:100AF00008FB00BF4DF808EDFFF7EAFF34BF012007
:100B000000205DF808FB00BF4DF808EDFFF7E0FF9F
:100B100094BF012000205DF808FB00BF4DF808EDF0
:100B2000FFF7CEFF94BF012000205DF808FB00BF57
:100B30004DF808EDFFF7C4FF34BF012000205DF839
:100B400008FB00BF4FEA410C7FEA6C5C02D150EA1F
:100B5000013C0AD14FEA430C7FEA6C5C02D152EAB5
:100B6000033C02D14FF0000070474FF00100704786
:100B70004FEA410212F5001215D211D56FF47873C5
:100B8000B3EB625212D94FEAC12343F0004343EA68
:100B9000505311F0004F23FA02F018BF4042704743
:100BA0004FF00000704750EA013005D111F00040CD
:100BB00008BF6FF0004070474FF00000704700BF63
:100BC0004FEA4102B2F1E04324BFB3F5001CDCF16F
:100BD000FE5C0DD901F0004C4FEAC0024CEA5070A7
:100BE000B2F1004F40EB830008BF20F001007047D6
:100BF00011F0804F21D113F13872BCBF01F00040D9
:100C0000704741F480114FEA5252C2F11802C2F10A
:100C1000200C10FA0CF320FA02F018BF40F001008B
:100C20004FEAC1234FEAD32303FA0CFC40EA0C003D
:100C300023FA02F34FEA4303CCE77FEA625307D17A
:100C400050EA01331EBF4FF0FE4040F440007047B1
:100C500001F0004040F0FE4040F40000704700BF4B
:100C600053B94AB9002908BF00281CBF4FF0FF3113
:100C70004FF0FF3000F07AB9ADF1080C6DE904CE09
:100C800000F006F8DDF804E0DDE9022304B0704767
:100C90002DE9F0478C460D460446089E002B51D1A5
:100CA0008A4217466DD9B2FA82FEBEF1000F0BD010
:100CB000CEF1200C01FA0EF520FA0CFC02FA0EF728
:100CC0004CEA050C00FA0EF44FEA174A250CBCFB5F
:100CD000FAF81FFA87F90AFB18CC45EA0C4508FB1D
:100CE00009F3AB420AD9ED1908F1FF3280F02381F4
:100CF000AB4240F22081A8F102083D44ED1AA4B2B3
:100D0000B5FBFAF00AFB105544EA054400FB09F96B
:100D1000A14509D9E41900F1FF3380F00A81A1450A
:100D200040F2078102383C44A4EB090440EA084041
:100D30000021002E61D024FA0EF400233460736089
:100D4000BDE8F0878B4207D9002E54D0002186E8F9
:100D500021000846BDE8F087B3FA83F1002940F08E
:100D60008E80AB4202D3824200F2FA80841A65EB95
:100D700003050120AC46002E3FD086E81010BDE8E8
:100D8000F08712B90127B7FBF2F7B7FA87FEBEF179
:100D9000000F34D1EB1B3A0C1FFA87FC0121B3FB87
:100DA000F2F8250C02FB183345EA03450CFB08F367
:100DB000AB4207D9ED1908F1FF3002D2AB4200F285
:100DC000D1808046ED1AA3B2B5FBF2F002FB1055BC
:100DD00043EA05440CFB00FCA44507D9E41900F1E3
:100DE000FF3302D2A44500F2B8801846A4EB0C04ED
:100DF00040EA08409DE731463046BDE8F087CEF135
:100E0000200405FA0EF307FA0EF720FA04F83A0C5C
:100E100025FA04F448EA0308B4FBF2F14FEA184556
:100E200002FB11441FFA87FC45EA044501FB0CF361
:100E3000AB4200FA0EF409D9ED1901F1FF3080F050
:100E40008A80AB4240F2878002393D44EB1A1FFA98
:100E500088F5B3FBF2F002FB103345EA034500FBD3
:100E60000CF3AB4207D9ED1900F1FF386FD2AB425A
:100E70006DD902383D44EB1A40EA01418FE7C1F1D8
:100E8000200722FA07F88B4005FA01F448EA030329
:100E900020FA07FE4FEA134CFD404EEA040EB5FB64
:100EA000FCF94FEA1E440CFB19551FFA83F844EA7B
:100EB000054509FB08F4AC4202FA01F200FA01FA16
:100EC00008D9ED1809F1FF3043D2AC4241D9A9F15C
:100ED00002091D442D1B1FFA8EFEB5FBFCF00CFB16
:100EE00010554EEA054400FB08F8A04507D9E41860
:100EF00000F1FF3529D2A04527D902381C4440EA29
:100F00000940A4EB0804A0FB02894C45C6464D46A7
:100F100015D312D056B1BAEB0E0364EB050404FAF4
:100F200007F7CB401F43CC40376074600021BDE819
:100F3000F0871846F8E69046E0E6C245EAD2B8EBFC
:100F4000020E69EB03050138E4E72846D7E740467F
:100F500091E78146BEE7014678E702383C4445E721
:100F6000084608E7A8F102083D442BE7704700BF98
:100F700030B50F4D0FCD87B001AC0FC42B68236087
:100F8000002101A808F047FB0A4B0322186000214A
:100F9000012008F055FF084A106020B100231A46CE
:100FA000194608F071FF054B00221A8007B030BDCA
:100FB00058DE000898280220E0280220C003002004
:100FC0008F4B2DE9F04793ED002A8E4BDFF86C92A2
:100FD000D3ED001A8C4B8D4C93ED001A8C4B8D4E3B
:100FE000D3ED000A8C4BDFF858A28C4DD9ED002AC6
:100FF00093ED000A8A4FDFF84C822DED048B82B00E
:1010000000F0C2FA96ED009ADAED008A94ED008ABB
:10101000D5ED009AD5ED004A95ED005A94ED004AC1
:10102000D4ED007ADAED005A9AED006AD6ED006A46
:1010300096ED007A67EEC47AE4EE857AE5EEC67A3C
:10104000E6EE877A17EE900AFFF78EFA68EE297AB5
:10105000CDE90001E9EE287A77EEA77A17EE900A3B
:10106000FFF782FA9DED001B41EC100B0CF07CF9B0
:1010700051EC100BFFF7A4FDDAED006A95ED007A54
:1010800096ED006AD4ED007A386067EEC67AE6EE37
:10109000877A77EEA77A17EE900AFFF765FA41ECA8
:1010A000100B0CF009F951EC100BFFF789FD96EDD0
:1010B000009AD5ED008A9AED008AD4ED009ADAED17
:1010C000004A9AED005AD6ED007A96ED004AD5ED29
:1010D000005A95ED006AD4ED006A94ED007AC8F8E4
:1010E000000067EE847AE4EE857AE5EEC67AE6EEF5
:1010F000C77A17EE900AFFF737FA68EE297ACDE93A
:101100000001E9EE287A77EEA77A17EE900AFFF74A
:101110002BFA9DED001B41EC100B0CF025F951EC66
:10112000100BFFF74DFDFFF71FFA33A3D3E90023A0
:10113000FFF76EFAFFF744FD3A4B1860D8F800004D
:10114000FFF712FA2CA3D3E90023FFF761FAFFF7A8
:1011500037FDC8F800003868FFF706FA26A3D3E980
:101160000023FFF755FAFFF72BFD2F4B38601A8845
:10117000C72A1C462ED800F02FFC25882B4B02686E
:101180002821694301F1020E03EB0E0643F80E20FD
:10119000426872608268B2600B44D9F800201A611C
:1011A000D8F800205A613A689A61642D4FF0000225
:1011B000DA611A625A6201D100F050FE23880133CD
:1011C00023801B4A13880133138002B0BDEC048BCB
:1011D000BDE8F087174D184C00221A800FCD0FC4C0
:1011E0000FCD0FC495E8030084E8030000F036FE3D
:1011F00001F0B4FCE5E700BFF8C1631ADCA54C4080
:10120000CC280220D828022010290220C803002060
:10121000D0280220040000209C280220CC030020BB
:1012200004290220FC280220C00300200000001036
:10123000C2030020181F001018290220E8280220ED
:10124000C40300200029022010B501F05BF900F072
:10125000BDFC0A2008F0F7F900F0B0FC0A2008F005
:10126000F2F900226B21682001F09EF975216820B7
:1012700001F06AF9732834D106221A21682001F09E
:1012800093F90A2008F0DFF900221B21682001F001
:101290008BF90A2008F0D7F900221C21682001F000
:1012A00083F90A2008F0CFF901221921682001F002
:1012B0007BF90A2008F0C7F901223821682001F0E3
:1012C00073F90A2008F0BFF900F0BAFA074C206859
:1012D00000234FF0FF32194608F0E0FEFFF770FEE2
:1012E000F5E74F21024800F01DFEEDE7E02802205F
:1012F000C1DE0008000000002DE9F0418AB00E2395
:101300004FF48074019306AB0093029401233B22B7
:10131000D0217F4802F014FC78B17E4B7C495422E6
:10132000184609F067FF4022A0F85C207A4A02665E
:10133000A0F85440826501F04FF99DF818309DF8EF
:1013400019009DF81B809DF81D709DF821609DF887
:1013500023509DF8254040EA0320704B00B21880CE
:101360009DF81A3048EA03286D4B0FFA88F8A3F865
:1013700000809DF81C3047EA03276A4B3FB21F806C
:101380009DF8203046EA0326674B36B21E809DF852
:10139000223045EA0325654B2DB21D8007EE900AE9
:1013A0009DF82430F8EEE77A44EA0324604B24B237
:1013B00017EE900A1C80FFF7D7F802460B46FEF79F
:1013C00075FF00224FF07C53FFF722F9FFF7F8FB7F
:1013D00007EE908A574BF8EEE77A186017EE900AFE
:1013E000FFF7C2F802460B46FEF760FF00224FF0FF
:1013F0007C53FFF70DF9FFF7E3FB07EE907A4E4BB6
:10140000F8EEE77A186017EE900AFFF7ADF802469B
:101410000B46FEF74BFF00224FF07C53FFF7F8F826
:10142000FFF7CEFB07EE906A444BF8EEE77A1860C0
:1014300017EE900AFFF798F80022414BFFF7E8F803
:1014400000224FF07C53FFF7E3F82FA3D3E90023EA
:10145000FFF7DEF800223B4BFFF704FAFFF7B0FB83
:1014600007EE905A384BF8EEE77A186017EE900ABC
:10147000FFF77AF80022324BFFF7CAF800224FF04C
:101480007C53FFF7C5F820A3D3E90023FFF7C0F88A
:1014900000222C4BFFF7E6F9FFF792FB07EE904A8C
:1014A0002A4BF8EEE77A186017EE900AFFF75CF81F
:1014B0000022234BFFF7ACF800224FF07C53FFF7DC
:1014C000A7F811A3D3E90023FFF7A2F800221D4BD0
:1014D000FFF7C8F9FFF774FB1D4B18601D4B05A9FA
:1014E000186808F087FD059B012B07D11A4B4FF0B8
:1014F00080521A60BFF34F8FBFF36F8F0AB0BDE801
:10150000F08100BFAFF30080182D4454FB21094047
:101510007C2A02205C03002000040240D428022020
:101520000C290220BC28022008290220B828022009
:10153000E4280220D8280220CC280220E828022013
:1015400000406F40008066409C280220D028022086
:1015500010290220E028022004ED00E010EE102AFD
:10156000084BF6EE007AA3EB620307EE103A60EE4A
:10157000277AB7EE080A67EE877AA7EE670A20EEA9
:10158000070A7047DF59375F38B5A748A749A84C05
:10159000A84D90ED007A91ED004AD4ED007AD5ED9A
:1015A000006AD1ED004A20EEC44A61EE244AA7EE5B
:1015B000404AE0EE264A94ED007AD5ED006A90EDBF
:1015C000005A25EE415AE0EEC74AA0EEA65A94ED25
:1015D000007AD5ED006A90ED006A60EE860AA0EE12
:1015E000075AE1EE260A91ED007AA7EEC14AE0EE35
:1015F000470AF5EE401AF6EE007AF1EE10FA2DEDFC
:10160000088B24EE274A64EEA74A25EE275A60EE9F
:10161000A70A0AD1B5EE402AF1EE10FA05D1F5EE8F
:10162000402AF1EE10FA00F0AF8022EE020AB1EE8D
:10163000008AA1EEA10AA2EEA20AFFF78FFFD5ED64
:10164000007A90ED007A91ED003AD4ED009A95ED94
:10165000006AD0ED00AAD1ED008A90ED00BA91EDBC
:10166000009AF2EE006A2BEE26BA29EE269AD5ED04
:10167000006AD5ED00BA90ED001AD0ED005AD1ED18
:10168000003A21EE251AD1ED005A94ED00AA61EE40
:10169000801A63EEA53A33EE033AD4ED005A26EEF3
:1016A000086A2AEE25AA61EE835A79EEA99AE6EE37
:1016B000235A6AEE88AAE6EE015A29EEE16A62EE42
:1016C000802AAAEE8A6A20EE420A26EEAB2AD0EDE4
:1016D000006A22EE082A77EEA77AA2EE266A61EE69
:1016E000A76AA0EE276A68EE888A36EE6A6A37EE45
:1016F000077AABEE016A67EE611AABEE236AE0EEA1
:10170000075AA2EEAA6AD1ED00AAE2EE2A6AE8EE32
:101710008A6AE0EE296A76EEE86AE9EE016A21EE6D
:10172000081AE9EE236A63EE883AE2EEA86AD4ED7D
:10173000002AD4ED007AE1EE221AE3EEA71AE0EED9
:10174000031A26EE060AA5EEA50AA6EEA60AA1EE43
:10175000A10AFFF703FF384B60EE655AD3ED007A1C
:1017600020EE466AA5EEA74AD3ED007A60EE666ADF
:10177000E6EE274AD3ED007A20EE610AA6EEA75ADC
:10178000D3ED007AE0EE270A95ED007ADFED2B7AB3
:10179000A4EE277A85ED007A90ED007AA4EEA77A80
:1017A00080ED007A91ED007AA5EE277A81ED007A3E
:1017B00094ED007AA0EEA77A84ED007A95ED005AB8
:1017C000D5ED005A90ED000AD0ED004A91ED006A87
:1017D000D1ED006A94ED007AD4ED007A20EE240A6F
:1017E000A5EE250AA6EE260AA7EE270AFFF7B6FE03
:1017F000D5ED007A60EE277ABDEC088BC5ED007A56
:10180000D0ED007A60EE277AC0ED007AD1ED007A53
:1018100060EE277AC1ED007AD4ED007A20EE270A37
:1018200084ED000A38BD00BFC4030020C8030020B7
:10183000CC0300200400002000000020610BB63B18
:1018400010B5D021772000F07FFE552840F08D8024
:10185000AA21772000F078FEAB210446772000F023
:1018600073FE454B40EA042000B21880AC2177207B
:1018700000F06AFEAD210446772000F065FE3F4B84
:1018800040EA042000B21880AE21772000F05CFE10
:10189000AF210446772000F057FE394B40EA042080
:1018A00000B21880B021772000F04EFEB12104462E
:1018B000772000F049FE334B40EA042080B21880C4
:1018C000B221772000F040FEB5210446772000F0D9
:1018D0003BFE2D4B40EA042080B21880B4217720D3
:1018E00000F032FEB5210446772000F02DFE274B94
:1018F00040EA042080B21880B621772000F024FE50
:10190000B7210446772000F01FFE214B40EA042057
:1019100000B21880B821772000F016FEB9210446E5
:10192000772000F011FE1B4B40EA042000B2188023
:10193000BC21772000F008FEBD210446772000F08E
:1019400003FE154B40EA042000B21880BE21772028
:1019500000F0FAFDBF210446772000F0F5FD0F4BA3
:1019600040EA042000B2188010BD39210C48BDE8BF
:10197000104000F0D7BA00BFD0030020D2030020EF
:10198000D4030020D6030020D8030020DA0300206F
:10199000DC030020DE030020E0030020E20300203F
:1019A000DBDE000808B50B4B00221A605A609A6013
:1019B00001F0B4F901F01CF901F0E0F901F04AF985
:1019C00001F07AF901F00CFA00F02CFDBDE80840B6
:1019D000FFF7CEBA48290220044A0548136803607D
:1019E0005368436093688360704700BF6829022092
:1019F0004829022072B60C4B1A6912F001024FF00E
:101A0000804305D01A6842F001021A6062B670473E
:101A1000196821F001011960596A0A20B1FBF0F13F
:101A2000024801815A62F1E7002002406829022041
:101A300072B60C4B1A6912F00202A3F5053305D0F9
:101A40001A6842F001021A6062B67047196821F004
:101A500001011960596A0A20B1FBF0F10248818046
:101A60005A62F1E7002002406829022072B60C4B4E
:101A70001A6912F00402A3F5043305D01A6842F083
:101A800001021A6062B67047196821F001011960FD
:101A9000596A0A20B1FBF0F10248C1805A62F1E7AD
:101AA000002002406829022072B60C4B1A6912F01D
:101AB0000802A3F5063305D01A6842F001021A6045
:101AC00062B67047196821F001011960596A3A201D
:101AD000B1FBF0F1024841815A62F1E70020024077
:101AE0006829022072B60C4B1A6912F01002A3F595
:101AF000073305D01A6842F001021A6062B67047D7
:101B0000196821F001011960596A0A20B1FBF0F14E
:101B1000024841805A62F1E7002002406829022011
:101B20001B4BAA2810B518601A4B07D11A4A117816
:101B300001290ABF19700121002111701978174C71
:101B4000012906D10C284FF0000206BF21701A703F
:101B500022702378012B19D11149124A0B78506851
:101B6000114AD0540133DBB2052B0B7013460DD94B
:101B70001079527902EB00220C48028000221046B4
:101B800098540132142AFBD10870207010BD00BF98
:101B900074290220E5030020E4030020E60300206E
:101BA00078290220001001405429022068290220CF
:101BB0001021014801F081BB000C024000224FF4CB
:101BC0008061014801F074BB0018024001224FF40B
:101BD0008061014801F06CBB001802402DE980488B
:101BE0008DB000F079FEFFF7DDFE01F06BF900F03B
:101BF0005DFF01F021F9DFF87C801B4D4FF0000AFA
:101C00004FF0000B194CD8F8000000234FF0FF32C2
:101C1000194608F043FAA069E788A688CDE90AAB1F
:101C2000FEF7A2FCCDE908016069FEF79DFCCDE955
:101C300006012069FEF798FCA38903936388029349
:101C40006389019323890093CDE904013B46324621
:101C5000074928460AF00AF82846FEF7C9FA81B271
:101C6000284601F009F9CDE7C029022018290220F1
:101C7000F0DE00087C29022030B595B0274B00210A
:101C800001911A6C42F080521A641B6C03F080536D
:101C90000193019B224B02911A6842F440421A6060
:101CA0001B6803F440430293029B012308934FF403
:101CB000803309934FF480030F93082310934FF45C
:101CC000A8730224119308A807230E941294139367
:101CD00003F064F900B1FEE74FF4A05305900F251F
:101CE000052103A8049403950693079303F006FBCC
:101CF000044600B1FEE703F09BFB4FF47A73B0FBA0
:101D0000F3F001F0AFF9042001F0C2F922462946B0
:101D10004FF0FF3001F066F915B030BD00380240D9
:101D2000007000402DE9F0418AB0324B324E33480A
:101D3000002400941A6B42F080021A631A6B02F0BE
:101D400080020092009A01941A6B42F004021A6316
:101D50001A6B02F004020192019A02941A6B42F08B
:101D600001021A631A6B02F001020292029A0394B2
:101D70001A6B42F008021A631A6B02F0080203920F
:101D8000039A04941A6B42F040021A631B6B03F02F
:101D9000400304930225049B05A94FF48053059347
:101DA000102706940795089501F090F9012305A9DD
:101DB0003046069307950895059701F087F9089531
:101DC0000F4D079411234FF4806805A92846069308
:101DD000CDF8148001F07AF922464146284601F0F8
:101DE00067FA22463946304601F062FA0AB0BDE889
:101DF000F08100BF00380240000C0240001C02408D
:101E00000018024030B5124D87B001F099F8FFF785
:101E100033FFFFF787FF0FCD01AC0FC42B682360A2
:101E2000002101A807F0F7FB0A4B032218600021EC
:101E3000012008F005F8084A106020B100231A4676
:101E4000194608F021F807F0E1FB002007B030BD8B
:101E50006CDE0008802902207C2902200348002330
:101E60001A461946006808F00FB800BF7C29022006
:101E70000268084B9A4210B5044601D101F07AF885
:101E80002268054B9A4201BF044A1368013313606C
:101E900010BD00BF0000014000140040E803002016
:101EA000014B1868704700BFE803002030B50022DE
:101EB00089B00721372001F095F8372001F0C6F8E6
:101EC0000025144B02951A6C134C42F020021A6440
:101ED0001B6C03F02003029301A903A8029B03F0EB
:101EE000CDFA03F0BBFA0D4B236042F20F73E360AF
:101EF00040000B4BB0FBF3F00138606020462561D9
:101F0000A56004F009F810B9204603F0F0FE09B00E
:101F100030BD00BF00380240842902200014004078
:101F200080969800FEE708B5032001F049F80022EA
:101F300011466FF00B0001F055F8002211466FF0CA
:101F40000A0001F04FF8002211466FF0090001F07D
:101F500049F8002211466FF0040001F043F8002216
:101F600011466FF0030001F03DF800220F216FF0E1
:101F7000010001F037F800220F214FF0FF30BDE8DB
:101F8000084001F02FB8000010B502681F4B9A42BC
:101F900088B038D103F58233002101915A6C1C4876
:101FA00042F400525A645A6C02F400520192019AAF
:101FB00002911A6B42F010021A631B6B03F01003BC
:101FC0000293029B042301220524039303A9022305
:101FD000059204930693079401F078F8202303A94F
:101FE0000B480393079401F071F8402303A90848B4
:101FF0000393079401F06AF8102303A9044803939C
:10200000079401F063F808B010BD00BF0034014030
:102010000010024070B50268204B9A4288B03AD155
:102020001F4C204800250195236B43F002032363D6
:10203000236B03F002030193019B402303931223BC
:102040000493012305930426032303A9069307960B
:1020500001F03CF8802303A912480393079601F08E
:1020600035F80295236C43F400132364236C03F4C6
:1020700000132A46092102932020029B00F0B2FFA0
:10208000202000F0E3FF1F202A460A2100F0AAFFCB
:102090001F2000F0DBFF08B070BD00BF00540040FF
:1020A000003802400004024000B599B00C230093B0
:1020B00001220023684606930592029302F06EFF08
:1020C00020B140F203110B48FFF72CFF20230C93A3
:1020D0000CA84FF40073169303F0EEF920B14FF4FF
:1020E00085710448FFF71EFF034B01221A6019B0E7
:1020F0005DF804FB48DF00083C0E474270B50268FB
:10210000544B9A428EB0044632D103F594330025E5
:1021100001955A6C504842F010025A645A6C02F011
:1021200010020192019A02951A6B42F001021A63A1
:102130001B6B03F001030293029B4FF4007309939E
:102140000726022309A90A930C930D9600F0BEFFFF
:102150004FF4806309A9404809930D9600F0B6FF3B
:1021600025202A46082100F03DFF252000F06EFFC3
:1021700022683A4B9A4233D103F5F433002203929A
:10218000196C374841F480111964196C01F48011FD
:10219000039103990492196B41F004011963196BBF
:1021A00001F004010491049905921A6B42F00802AF
:1021B0001A631B6B03F008030593059B0423099323
:1021C0000825022309A90A930C930D9500F07EFFC0
:1021D0004FF4805309A9234809930D9500F076FF29
:1021E0002268214B9A4232D103F5E0330022069255
:1021F000196C1E4841F080411964196C01F080414E
:10220000069106990792196B41F020011963196B29
:1022100001F020010791079908921A6B42F400120D
:102220001A631B6B03F400130893089B4023099364
:102230000724022309A90A930C930D9400F046FF8A
:10224000802309A9094809930D9400F03FFF0EB0BF
:1022500070BD00BF0010014000000240005000406F
:10226000000C0240000802400078004000140240C8
:1022700030B5014689B00022192000F0B3FE1920C4
:1022800000F0E4FE0025154B02955A6C144C42F008
:1022900001025A645B6C03F00103029301A903A8D5
:1022A000029B03F0EBF803F0D9F80E4B236040F2E9
:1022B000E733E36040000C4BB0FBF3F001386060A3
:1022C00020462561A56003F027FE20B9204603F0D3
:1022D0000EFD09B030BD0120FBE700BF0038024011
:1022E000402A02200000014040420F007047FEE7F4
:1022F000FEE7FEE7FEE7704707F00CBA014803F07F
:1023000005BD00BF402A0220014802F075BA00BF97
:102310008C340220014803F0F9BC00BF842902205C
:10232000014801F0BBBD00BF7C2A0220014802F039
:102330001FB900BF7C2A0220202000F0C3BF00008C
:1023400008B5FFF7CFFB034A536943F0100353610D
:1023500008BD00BF003C014008B5FFF7A5FB034ADC
:10236000536943F00803536108BD00BF003C0140BE
:1023700008B5FFF77BFB034A536943F0040353613D
:1023800008BD00BF003C014008B5FFF751FB034A00
:10239000536943F00203536108BD00BF003C014094
:1023A00008B5FFF727FB034A536943F00103536164
:1023B00008BD00BF003C014008B5064B1A689206F4
:1023C00007D51A6822F020021A605868C0B2FFF7D9
:1023D000A7FB08BD001001400F49D1F8883043F435
:1023E0007003C1F888300D4B1A68002042F00102DA
:1023F0001A6098601A6822F0847222F480321A609F
:10240000074A5A601A6822F480221A60D8604FF096
:1024100000638B60704700BF00ED00E000380240B1
:102420001030002470B588B000242E4B01941A6B34
:102430002D4842F002021A631A6B02F00202019266
:10244000019A02941A6B42F480721A631B6B059412
:1024500003F48073029308AD029B244B0493202362
:1024600045F8143D294600F031FE22460921172087
:1024700000F0B8FD172000F0E9FD1D4B0493022683
:102480001F2329461B480393059600F01FFE224692
:102490000721062000F0A6FD062000F0D7FD072149
:1024A0000846012200F09EFD072000F0CFFD3246D5
:1024B0000721082000F096FD082000F0C7FD032248
:1024C0000721092000F08EFD092000F0BFFD042245
:1024D00007210A2000F086FD0A2000F0B7FD08B0B1
:1024E00070BD00BF0038024000040240000011101F
:1024F0000000311000200240202808B501D1FEF76D
:10250000FBFE08BD0C4808B50C4B03600C4B436048
:102510004FF480420023026143618260C361036221
:10252000C360836101F052F828B11D210548BDE860
:102530000840FFF7F7BC08BD7C2A02200054004089
:10254000801A060080DF000830B587B00023154DE3
:102550008DF80F1004468DF81730284602F0C8F8A1
:102560002028FAD16423640000930DF10F020123A7
:1025700021460C4801F098F888B90A4D284602F027
:10258000B7F82028FAD1642300930DF11702012334
:102590002146044801F05EF908B99DF8170007B01C
:1025A00030BD00BF7C2A02201FB504468DF80C10F8
:1025B0008DF80D20074802F09BF82028FAD16423FB
:1025C000009303AA02236100024801F06DF804B0F1
:1025D00010BD00BF7C2A022070B50268136886B067
:1025E00023F00103136011230293042306AD059326
:1025F00002230493B0F85C3045F8143D04460126EC
:102600002946006E039600F061FD3246B4F85C1076
:10261000206E00F04DFEB4F85430A06D01932946B1
:1026200000F054FD3246B4F85410A06D00F040FEA6
:10263000B4F85C10206E00F035FE012860D1B4F8CB
:102640005410A06D00F02EFE01285BD10022B4F8DA
:102650005410A06D00F02CFEB4F85410A06D00F0E2
:1026600021FE024600284FD1B4F85C10206E00F025
:102670001FFEB4F85C10206E00F014FE002845D157
:102680000122B4F85C10206E00F012FEB4F85C1069
:10269000206E00F007FE0128024639D1B4F854102C
:1026A000A06D00F005FEB4F85410A06D00F0FAFD26
:1026B00001282FD112230293042305932946B4F84D
:1026C0005C30206E019300F001FDB4F85430A06D31
:1026D0000193294600F0FAFC23681A6842F400428C
:1026E0001A6000BF1A6822F400421A6000BF1A681C
:1026F00042F001021A60204600F068FF06B070BD8B
:1027000000BF95E700BF9AE700BFA5E700BFB0E7AD
:1027100000BFBBE700BFC6E7064A5378D9075FBFD3
:1027200003F0820343F055031070537054BF01202F
:1027300000207047FA0300200A4A0B4912780B78F0
:10274000013A93420CDA0133DBB20B704FF4A04232
:1027500000BF013AFCD1054A1268D05CFFF7DCBF2C
:10276000704700BFFC030020FD030020EC030020A5
:10277000002330B519460224012540FA03F212F075
:10278000010F4FEA430203F1010314BF05FA02F2FD
:1027900004FA02F2082B41EA0201EED1084630BDEC
:1027A000002310B51A460124590020FA01F1C90787
:1027B00044BF04FA03F10A4303F1010348BFD2B254
:1027C000082BF1D1104610BD13B5074C6368019377
:1027D0000198FFF7E5FF054AE0701378591C117066
:1027E000034AD05402B010BDF0030020F8030020CB
:1027F000D02A0220174A38B51369174C23F0010379
:1028000013616378D80723D503F07C027C2A134D2B
:1028100008D16FF300036370AB6943F00073AB61E1
:10282000FFF78AFF2078FFF7A3FF6378AA69C3F355
:10283000840340F46010D840C1074CBF42F40072DA
:1028400042F00072AA6162781F3363F386026270FD
:1028500038BD00BF00100040FA0300200004024011
:1028600038B51A4B1A4C1A6922F001021A61194A3A
:10287000126912F0010F04D0227812B901212170DF
:102880005A626378032B01BF002363701523A37082
:10289000104B1B6913F0010315D06378A278013344
:1028A000637001239340626813436360A5784DB160
:1028B000013DEDB2A5702DB96368DB086360FFF7D9
:1028C00083FF656038BD6370F0E700BF000C004017
:1028D000F00300200000024010B52648264B03609C
:1028E0007F22002386B08260FF224360C2600361C2
:1028F00043618361437702F029FF18B114211F4817
:10290000FFF710FB00211B4803F04EF843F2F223BF
:1029100098422DD006A902230024012201F8183D77
:1029200014488DF803408DF801208DF8024002F024
:1029300066FF18B123211148FFF7F4FA012201A91B
:102940000C488DF804408DF805408DF806408DF850
:1029500007400494059402F0B2FF18B130210748F3
:10296000FFF7E0FA43F2F2220121024803F017F8E0
:1029700006B010BDD02B0220002800409DDF0008CB
:102980002DE9F04F3C493D48ADF51D7D06F0A6F917
:1029900006F0C4FA00223A493A4805F0AFFD18B1F2
:1029A0009D213948FFF7BEFA384806F07DFB3222F8
:1029B000374910A805F0ECFD30B9364910A806F0EB
:1029C00072F810A806F056F8334DDFF8C480286876
:1029D000324F334E00234FF0FF32194607F05EFBB3
:1029E00000234FF0FF321946286807F057FB3222C8
:1029F000414610A805F0CCFD0028F1D1294CDFF8A4
:102A0000A8A0FFF7D5F804F5FA59E388606A0F9398
:102A1000FDF7AAFDCDE90C01206AB4F804B0FDF77A
:102A2000A3FDCDE90A01E069FDF79EFDCDE90801AE
:102A3000A069FDF799FDCDE906016069FDF794FDF8
:102A4000A28903926288029262890192228900928D
:102A5000CDE904010F9B5A463946304609F006F984
:102A600028343246514610A806F01DF8A145CCD1B5
:102A700010A805F0FFFFB3E77D3A0220D8E1000877
:102A800017E0000800040020BADF00083406002028
:102A9000DADF0008E6DF0008F02B022018E000086B
:102AA000740600200000001046E0000830B5002247
:102AB00087B02821102007F0C3F9104B03221860BB
:102AC0000021012007F0BCF90D4A106020B100235D
:102AD0001A46194607F0D8F90A4D0FCD01AC0FC4BC
:102AE0002B682360002101A806F095FD064B1860B5
:102AF000064B00221A6007B030BD00BFF82B022041
:102B0000F02B022080DE0008542C0220F42B02203F
:102B100008B50F4B0F4A1A6007210022D8619A604E
:102B20005A611A619A62D962DA601A624FF480219E
:102B30005A6218464FF4827299615A6002F090FF0F
:102B400028B14A210448BDE80840FFF7EBB908BDA9
:102B5000FC2B022000340140BADF000803480023A8
:102B60001A461946006807F08FB900BFF02B022003
:102B7000024600B101221021014800F099BB00BFBC
:102B80000010024007B541F28833009313460A460D
:102B90000146034802F0A1FF03B05DF804FB00BF4B
:102BA000FC2B02207FB541F288338DF80F00009393
:102BB0000DF1170201230DF10F01044802F08DFF02
:102BC0009DF8170007B05DF804FB00BFFC2B022046
:102BD00010B53820FFF79CFF0A24FF20FFF7E2FF23
:102BE000013CFAD11020BDE81040FFF791BF000072
:102BF00007B50023134A0193116C134841F00201F9
:102C00001164126C1149036102F002020192019AEF
:102C10008360532280E806004CF25032C26003F019
:102C20007BF918B117210A48FFF77CF9064803F031
:102C300051F818B11A210648FFF774F903B05DF88E
:102C400004FB00BF003802400C2D022000040040AD
:102C500054E0000807B50023134A0193116C134890
:102C600041F008011164126C1149036102F008027D
:102C70000192019A8360532280E806004CF25032A0
:102C8000C26003F049F918B12A210A48FFF74AF94E
:102C9000064803F01FF818B12D210648FFF742F946
:102CA00003B05DF804FB00BF00380240942C022002
:102CB000000C004054E0000807B50023134A0193BC
:102CC000116C134841F010011164126C1149036139
:102CD00002F010020192019A8360532280E80600FC
:102CE0004CF25032C26003F017F918B13D210A4886
:102CF000FFF718F9064802F0EDFF18B14021064829
:102D0000FFF710F903B05DF804FB00BF0038024084
:102D1000D02C02200010004054E0000807B500232A
:102D2000134A0193116C134841F001011164126CB4
:102D3000036102F001020192019A836053224FF075
:102D4000804180E806004CF25032C26003F0E4F8A3
:102D500018B150210848FFF7E5F8064802F0BAFF1D
:102D600018B153210448FFF7DDF803B05DF804FB08
:102D700000380240482D022054E0000807B5002327
:102D8000134A0193116C134841F004011164126C51
:102D90001149036102F004020192019A83605322F7
:102DA00080E806004CF25032C26003F0B5F818B16A
:102DB00064210A48FFF7B6F8064802F08BFF18B105
:102DC00067210648FFF7AEF803B05DF804FB00BFCB
:102DD00000380240582C02200008004054E000084F
:102DE00008B51148114B4FF4E13E80E80840042239
:102DF00000238360C360036142618361C36103F0A8
:102E0000E9F918B117210A48FFF78CF80E22094991
:102E1000054803F06AFA28B11A210548BDE80840C0
:102E2000FFF780B808BD00BFC42D0220001001408C
:102E300074E00008442E022008B50C480C4B4FF4F7
:102E4000614E80E808400C2200238360C360036168
:102E500042618361C36103F0BDF928B12A210548AD
:102E6000BDE80840FFF75EB808BD00BF842D022012
:102E70000050004074E000080A4641F288330146E1
:102E8000014803F0D5B900BF842D0220FEE7000001
:102E900070B50A4D0A4E0949306800234FF0FF32E1
:102EA00007F0FCF801280446F5D1A988286803F04A
:102EB000BBFF204606F0C7FBEDE700BFF40600208D
:102EC0005C2E022070B500228AB00821102006F086
:102ED000B7FF154C002220600121202006F0B0FF32
:102EE000124B134918602068124C264607F0EAF985
:102EF0000FCE6D460FC533682B600021684606F083
:102F00008AFB0D4B143418600FCC05AD0FC5236838
:102F10002B60002105A806F07EFB084B186003F02B
:102F200041FF0AB070BD00BF5C2E0220582E022067
:102F300093E0000894DE0008602E0220542E022048
:102F400008B50B4B1A6842F400721A601A6842F412
:102F500080621A601A6842F480721A60032000F0DE
:102F60002FF80020FFF784F9FEF7DDFF002008BDF1
:102F7000003C0240034A044B11681B780B44136069
:102F8000704700BF642E02200C000020014B18681F
:102F9000704700BF642E022038B50446FFF7F6FFE5
:102FA000631C1CBF054B1B78054618BFE418FFF7D0
:102FB000EDFF401B8442FAD838BD00BF0C00002052
:102FC000074AD36823F4E0631B041B0C43F0BF6380
:102FD000000243F4003300F4E0600343D360704721
:102FE00000ED00E0174B30B5DC68C4F30224C4F1F7
:102FF0000703251D042B28BF0423062D4FF00105D0
:1030000005FA03F303F1FF338CBF033C002419409E
:10301000A14005FA04F4013C2240002842EA0102E2
:103020004FEA0212AFBF00F1604000F00F00064B04
:10303000D2B2A5BF00F56140D2B21A5480F8002385
:1030400030BD00BF00ED00E014ED00E042090123B7
:1030500000F01F0003FA00F0014B43F82200704714
:1030600000E100E00138B0F1807F0AD2064B074A48
:103070005860F02182F823100020072298601A601F
:1030800070470120704700BF10E000E000ED00E055
:10309000044B1A6804280CBF42F0040222F0040218
:1030A0001A60704710E000E090F83530022B03D032
:1030B00080234365012070470268052380F835307E
:1030C000136823F001031360002070472DE9F04FCF
:1030D00085B00B68DFF8C4816E4ADFF8C4910193B4
:1030E00000234FF0010E019C0EFA03FE0EEA0406C7
:1030F000B64540F0B6804C6824F01007022F16D178
:103100004FEAD30A00EB8A0A03F0070BDAF82050E3
:103110004FEA8B0B4FF00F0C0CFA0BFC25EA0C0C52
:103120000D6905FA0BF545EA0C05CAF820504FEA7F
:10313000430A0325D0F800B005FA0AF5ED4304F080
:10314000030C0BEA050B0CFA0AFC013F4CEA0B0CD2
:10315000012FC0F800C011D8876807EA050BCF68B7
:1031600007FA0AFC4CEA0B078760476827EA0E0E4D
:10317000C4F300179F4047EA0E074760C7683D4009
:103180008F6807FA0AF73D43C560E50069D54FF03F
:10319000000BCDF80CB0D8F844703F4D47F4804791
:1031A000C8F84470D8F8447007F480470397039F29
:1031B00023F0030707F1804707F59C3703F0030C62
:1031C000D7F808A04FEA8C0C4FF00F0E0EFA0CFE49
:1031D000A8422AEA0E0E4BD005F58065A84249D0D8
:1031E00005F58065A84247D005F58065A84245D021
:1031F00005F58065A84243D0484543D005F50065F4
:10320000A84241D005F58065A8423FD005F580650C
:10321000A8423DD005F58065A84214BF0A250925BE
:1032200005FA0CF545EA0E05BD601568F74314F480
:10323000803F0CBF3D4035431560556814F4003F96
:103240000CBF3D4035435560956814F4801F0CBF9A
:103250003D4035439560D568A40254BF3D40354399
:10326000D5600133102B7FF43CAF05B0BDE8F08F83
:103270005D46D5E70125D3E70225D1E70325CFE752
:103280000425CDE70525CBE70625C9E70725C7E7D0
:103290000825C5E7003C014000000240003802401C
:1032A000001402400369194214BF01200020704736
:1032B0000AB1816170470904FBE7436959404161E4
:1032C0007047000008B5044B5969014202D05861AB
:1032D000FFF712F908BD00BF003C014002685369C6
:1032E00013F480630DD06FF480635361042303648F
:1032F00020220023036380F83C3080F83D20012029
:103300007047184670472DE9F8430446174699461A
:10331000C1F307488EB22568B8F1010F0CBF6B6985
:10332000AB6936EA030314BF0120002008B9BDE8E9
:10333000F8836B695A0512D52B6843F400732B6030
:103340006FF480636B6104232364202200232363D2
:1033500084F83C3084F83D200120BDE8F8837B1CD4
:10336000D9D04FB900232022236384F83C3084F85D
:103370003D200320BDE8F883FFF708FEA0EB09001D
:103380008742C8D2EEE72DE9F843089E04469046EE
:103390001F46C1F307498DB22368B9F1010F0CBF75
:1033A0005B699B6935EA03030CBF01230023434596
:1033B00002D00020BDE8F8837B1CEDD05FB900236C
:1033C0002022236384F83C3084F83D20032084F8D5
:1033D0003E30BDE8F883FFF7D9FD801B8742DBD282
:1033E000EDE770B504460D46164623685B691B067B
:1033F00001D5002070BD2046FFF770FFA8B96A1CF8
:10340000F3D065B9236C43F020032364202200230A
:10341000236384F83C3084F83D20032070BDFFF71F
:10342000B5FD801B8542E0D2ECE7012070BD0000B5
:103430002DE9FF41984603680B9D16461A6842F431
:1034400080621A601A6842F480721A600F46009512
:103450000A9B00224FF001110446FFF794FF80B948
:1034600023682F49FFB207F0FE021A6120462B465F
:103470000A9AFFF748FF40B1236C042B01D10120C9
:1034800000E0032004B0BDE8F081236803905A698E
:1034900003929B6903932A460A99039B2046FFF7F0
:1034A000A0FF40B1236C042BEBD12268136843F4D6
:1034B00000731360E3E7B8F1010F236824D1F6B27B
:1034C0001E612A460A992046FFF78BFF0246002814
:1034D000E8D121680B6843F480730B6020460095A7
:1034E0000A9B4FF00111FFF74EFF0028C9D1236856
:1034F0000A9A0B4947F001071F6120462B46FFF748
:1035000002FF0028B8D1BDE7320A1A610A992A469B
:103510002046FFF766FF0028C4D12368CFE700BF2D
:103520000200010070B504460D4616462068436946
:1035300013F0400301D0002070BD4269D2060BD5C4
:103540006FF0100242612022236484F83C30236330
:10355000012084F83D2070BD5DB9236C43F0200349
:103560002364202384F83D30002384F83C3003207A
:1035700070BDFFF70BFD801B8542D7D2EDE770B51C
:1035800004460D46164623685B695B0701D500209B
:1035900070BD2046FFF7A2FEA8B96A1CF3D065B93A
:1035A000236C43F02003236420220023236384F848
:1035B0003C3084F83D20032070BDFFF7E7FC801B02
:1035C0008542E0D2ECE7012070BD000070B50446F2
:1035D000002862D090F83D3003F0FF021BB980F85C
:1035E0003C20FEF717FD22682D4E2E4D242384F833
:1035F0003D30136823F00103136001F01FFF63687F
:103600002268B0FBF5F5B34284BF4FF4967169436D
:10361000556091BF691C4FF47A75B1FBF5F101312A
:10362000B342116221D85B00B0FBF3F0C0F30B038F
:10363000032B98BF0420216AE369D0610B43136018
:10364000E16823690B439360A16963690B43D3600D
:10365000136843F00103136000202023206484F8E2
:103660003D30206384F83E0070BDA16849B903EB8A
:103670004303B0FBF3F0C0F30B0363B140F400402D
:10368000D9E719214B43B0FBF3F0C0F30B0313B19F
:1036900040F44040CFE70120CDE7012070BD00BFDE
:1036A000A086010040420F002DE9FF4104461F465D
:1036B0000D469046FFF76AFC94F83D30202B0646F5
:1036C00004D00225284604B0BDE8F08100901923FB
:1036D00001225D492046FFF756FE0028F1D194F8FB
:1036E0003C30012BEDD0012384F83C3023681A686C
:1036F000D2075EBF1A6842F001021A601A6822F40B
:1037000000621A60212284F83D20102284F83E20B5
:1037100000222264A2F580326785E262628D2285F2
:10372000E26AC4F82480042A04D0012A02D012F5E7
:10373000803F04D11A6842F480721A6002E0226B62
:10374000122AF7D000960A9B00224FF00111204662
:10375000FFF719FE28BB23692268B3F5804F12D109
:1037600005F0FE05156133460A9A38492046FFF7F1
:10377000CAFD0546A0B9236803905A6903929B6964
:103780000393039B50E0EB1103F0060343F0F003B7
:1037900013612F490A9A33462046FFF7B4FD48B11A
:1037A000236C236C042B4FF0000307D184F83C30CA
:1037B000012587E72368EDB21D61D4E784F83C302A
:1037C00003257FE732460A992046FFF70AFE40B1FB
:1037D000236C042BF4D12268136843F40073136044
:1037E000E6E7616A2068228D4B1C63620B780361F7
:1037F000638D013B9BB263854769531E9BB27F0774
:1038000023850AD54BB18B1C63624B780361638DB2
:10381000013B9BB2023A6385228532460A992046D3
:10382000FFF7ADFE0028D3D1238D002BCAD121682C
:103830000A6842F400720A60202284F83D2084F86D
:103840003C3084F83E303DE70200100002000100E9
:10385000080001002DE9F043044689B098460D4662
:103860009146109FFFF792FB94F83D30202B0646BF
:1038700004D00225284609B0BDE8F0830090192342
:1038800001229C492046FFF77EFD0028F1D194F8E3
:103890003C30012BEDD0012384F83C3023681A68BA
:1038A000D2075EBF1A6842F001021A601A6822F459
:1038B00000621A60222284F83D20102284F83E2003
:1038C00000222264A2F58032A4F82A80E262628D8E
:1038D0002285E26A1968C4F8249041F48061042AC0
:1038E000196004D0012A02D012F5803F04D11A6871
:1038F00042F480721A6002E0226B112AF7D000961F
:103900003B4600224FF001112046FFF73CFD002806
:103910004AD12369B3F5804F236836D145F00105BC
:10392000EDB21D6133463A4673492046FFF7EBFC82
:103930000546002837D1228D2368002A66D0012A47
:1039400077D11A6822F480621A6004955A69049249
:103950009A690492049A1A6842F400721A60DFF8B5
:10396000A081238D002B5BD0032B00F2CB80012B99
:103970007AD1324639462046FFF7D4FD002800F0C0
:103980009080236C202B16D13EE04FEAE51808F01A
:10399000060848F0F0021A61584933463A46204674
:1039A000FFF7B1FC48B1236C236C042B4FF00003EC
:1039B00028D184F83C3001255CE723684E49EDB2FC
:1039C0001D613A4633462046FFF79DFC024600281B
:1039D000E9D1236807905969079199690791079977
:1039E000196841F480711960204600963B464FF0FB
:1039F0000111FFF7C8FC0028D6D1226848F0F10376
:103A000013618FE784F83C30032533E703955A6947
:103A100003929A690392039A1A6842F400721A6038
:103A2000202384F83D30002384F83E3084F83C3075
:103A300020E7022A1A680DD122F480621A601A68FF
:103A400042F400621A6005955A6905929B690593D4
:103A5000059B84E742F480621A6006955A690692D3
:103A60009B690693069B7AE7022B00963B464FF034
:103A700000024146204622D1FFF785FC0028C3D131
:103A800023681A6842F400721A60626A1B69511C4A
:103A900061621370238D013B2385638D013B9BB2D3
:103AA0006385636A5A1C6262226812691A70238DE8
:103AB000013B2385638D013B9BB2638551E7FFF793
:103AC00062FC024600289FD12368196821F48061B6
:103AD0001960616A1B69481C60620B70238D009637
:103AE000013B2385638D013B9BB2638541463B4689
:103AF0002046C1E70200100002000100080001009A
:103B000004000100324639462046FFF70BFD00282D
:103B10007FF437AF636A5A1C6262226812691A70B6
:103B2000238D2268013B2385638D013B9BB2638516
:103B300053695B077FF515AF636A591C6162B4E78F
:103B40002DE9F047044686B09A460D469146109FEF
:103B5000FFF71CFA94F83D30202B064604D00225CE
:103B6000284606B0BDE8F087009019230122794964
:103B70002046FFF708FC0028F1D194F83C30012BD7
:103B8000EDD0012384F83C3023681A68D2075EBF69
:103B90001A6842F001021A601A6822F400621A6080
:103BA000222384F83D30402384F83E300E9B63622C
:103BB0004FF00008BDF83C30C4F840806385664B88
:103BC000E362638D238529460196009753464A4652
:103BD0002046FFF72DFC054630B1236C84F83C806D
:103BE000042B3AD10125BBE7228D236892B90290BC
:103BF0005A6902929A690292029A1A6842F4007211
:103C00001A60202384F83D30002384F83E3084F885
:103C10003C30A5E7012A22D11A6822F480621A609A
:103C200003905A6903929A690392039A1A6842F4BC
:103C300000721A60DFF82481238D002BE1D0032B62
:103C40006BD8012B23D1324639462046FFF76AFC58
:103C5000002839D0236C202BC4D1032580E7022A09
:103C60000ED11A6822F480621A601A6842F4006267
:103C70001A6004905A6904929B690493049BD9E7E3
:103C800005905A6905929B690593059BD2E7022B23
:103C900000963B464FF000024146204622D1FFF7F6
:103CA00072FB0028D9D123681A6842F400721A60A6
:103CB000626A1B69511C61621370238D013B23856D
:103CC000638D013B9BB26385636A5A1C6262226802
:103CD00012691A70238D013B2385638D013B9BB2D2
:103CE0006385A9E7FFF74FFB02460028B5D123689B
:103CF000196821F480611960616A1B69481C60625F
:103D00000B70238D0096013B2385638D013B9BB295
:103D1000638541463B462046C1E732463946204648
:103D2000FFF700FC002895D1636A5A1C6262226882
:103D300012691A70238D2268013B2385638D013B34
:103D40009BB2638553695B077FF576AF636A591C45
:103D50006162BDE7020010000000FFFF04000100E7
:103D6000704770477047704770477047704770479B
:103D70007047704790F83D30293B012B10B5036820
:103D8000044639D800220263282280F83D201A68B0
:103D900022F400621A605A6812F4006254D05A6821
:103DA000606B22F400625A6090F83530012B394B79
:103DB00031D00365FFF778F950B12268606B136862
:103DC00023F001031360202384F83D30036D9847EE
:103DD00094F83D30282B0ED1236C5B070BD52E4B6E
:103DE000E362202200232363204684F83D2084F8E8
:103DF0003E30FFF7BAFF10BD90F83D20602A05D095
:103E00005A6812055CBF202280F83D200022226300
:103E100084F83E20BBE7A06B0365FFF745F9002857
:103E2000D6D022685369580604D5636A1269591CB2
:103E300061621A702268A06B136823F0010313609B
:103E4000202384F83D30C1E794F83D10602914D157
:103E5000202184F83D1022645A69510604D5626A13
:103E60001B69511C616213702268136823F00103FF
:103E700013602046FFF77DFFAAE75A69520604D572
:103E8000626A1B69511C616213702046FFF770FF64
:103E90009EE700BFA54600080000FFFF0368F0B5DD
:103EA0009D6959695A6890F83E40E4B2102C8DB073
:103EB00002D0402C40F0558211F0011F66D09705CA
:103EC00064D590F83E40402C43D1046D002C3BD18A
:103ED000446C04F0FE041C61984E994C2E400C403A
:103EE000002E00F09F81974D0D40002D00F066815F
:103EF000550540F16381002C40F0608190F83D2031
:103F0000058D90F83E10C46AD2B2C9B2002D40F0BF
:103F10000581212A40F00481042C00F06C81082CDA
:103F200000F0698114F5803F00F065815A6822F441
:103F3000E0625A601123036380F83E50202380F82A
:103F40003D30FFF70DFFF6E0446C44F00104E4B2AD
:103F5000C1E70469B4F5804F05D190F83D40212CAC
:103F6000446CF2D1B5E7046D34B9446CE41104F04B
:103F7000060444F0F004AEE7046D012CACD1446CAF
:103F8000E41104F0060444F0F104A4E76E4C0C4084
:103F90001CB1960501D5446CD9E76C4C0C40002C43
:103FA0009AD0940598D590F83E40C66AD0F830E093
:103FB00090F83D70222FE4B240F0A880076D47B919
:103FC000402C06D101975C6901949C690194019C85
:103FD00082E7046D8CB90769B7F5404F0DD10294A3
:103FE0005C6902949C690294029C1C6844F480748D
:103FF0001C60046D013404656EE7448DA4B254B9AD
:1040000003945C6903949C690394039C1C6844F4C6
:1040100000741C6019E0448DA4B2012C42D116F545
:10402000803F1BD11C6824F480641C605C6814F41D
:1040300000640CD01C6824F480641C600024049488
:104040005C6904949C690494049C0024D3E705945F
:104050005C6905949C690594059CD7E7042E15D0EE
:10406000082E13D0BEF1120F10D0C46A022C1C68A7
:1040700014BF24F4806444F480641C60002406941B
:104080005C6906949C690694069CDEE71C6824F42F
:1040900080641C60002407945C6907949C69079401
:1040A000079CB3E7448DA4B2022C1CD1C46A022C35
:1040B0001C681DBF24F480641C601C6844F4806488
:1040C00018BF44F400641C605C68270542BF5C684C
:1040D00044F480545C60002408945C6908949C69F2
:1040E0000894089CB1E71C6844F480641C605C6818
:1040F000260542BF5C6844F480545C600024099447
:104100005C6909949C690994099C9EE700240A94BF
:104110005C690A949C690A940A9CDDE6212A03D012
:10412000402908D1222A06D1428D92B282B95A681A
:1041300022F480625A600DB0F0BD00BF0400100090
:1041400004000100800001000800010002000100DD
:1041500090F83E20402A27D1026D7AB9C26C012A1C
:10416000826C05D1D2B21A61036D02330365E2E7B6
:10417000C2F307221A61036D0133F7E7026D012ACA
:1041800002D1826CD2B2F5E7026D022AD3D190F847
:104190003D20222A04D11A6842F480721A60CAE7CC
:1041A00090F83D20212AC6D1426A511C4162127802
:1041B0001A61438D013B9BB24385BCE7002CBAD00A
:1041C0009405B8D5C16A90F83D20212AB3D1428D1B
:1041D00092B2002AE8D104290DD008290BD011F59C
:1041E000803F08D0596821F4E061596011230363CE
:1041F00080F83E20A2E65A6822F4E0625A601A680B
:1042000042F400721A6000232022036380F83D20EC
:1042100090F83E2080F83E30402A7FF492AEFFF7BF
:10422000A5FD88E7904D0D40002D41D051053FD5AB
:10423000002C3DD190F83D20222A7FF47CAF428DA6
:1042400092B2032A13D9426A1B69511C416213704E
:10425000438D013B9BB24385438D9BB2032B7FF47F
:104260006AAF0268536823F48063536063E7012AEE
:104270003FF661AF1A6822F480621A605A6822F42D
:10428000E0625A60426A1B69511C41621370438D9F
:10429000013B9BB24385202380F83D30046390F8B6
:1042A0003E3080F83E40402B58D1FFF760FD42E79A
:1042B000002C3FF440AF97057FF53DAFC16A428DBA
:1042C00092B2042A426A08D1596821F48061596087
:1042D000511C1B69416213706BE7448DA4B2032C1F
:1042E00008D1596821F480615960196821F480610E
:1042F0001960EDE7448DA4B2022CE9D101390129FE
:1043000019689DBF21F480611960196841F400713A
:1043100098BF41F4807119601B69511C4162137090
:10432000438D013B9BB24385436A5A1C426202683B
:1043300012691A70438D0268013B9BB24385536832
:1043400023F440735360202380F83D30002303633F
:1043500090F83E2080F83E30402AA5E7FFF701FDA7
:10436000E9E6424C0C4074B196050CD599699B69FD
:1043700081F004011D06C1F3800154BF8289028BC4
:10438000FFF7F2FCD7E63A4C0C40002C74D09405B1
:1043900072D590F83D20596821F4E0615960002100
:1043A0000B9159690B91196841F0010119600B9942
:1043B000196821F48061196059680905D2B20CD5D9
:1043C00090F83D10222903D090F83D102A2929D1D8
:1043D000816B0968496889B24185418D89B2E1B133
:1043E00059694F0708D5416A1B694C1C44620B7020
:1043F000438D013B9BB2438501684B695E0608D53E
:10440000436A09695C1C44621970438D013B9BB28D
:104410004385036C43F004030364036C23B1FFF78B
:10442000A9FC88E6416BD4E7A2F1280102290AD849
:10443000104AC2622022036380F83D2080F83E309B
:10444000FFF793FC77E6036B222B02D0222A7FF43E
:1044500072AE00232022036380F83D2080F83E30B6
:10446000FFF781FC67E600BF400001000200010089
:10447000100001000000FFFF394E3A4C2E400C4066
:10448000002E36D0384D0D403DB3550525D524BB03
:1044900090F83D10428D92B2C9B2002A3FF44BAE63
:1044A000426A541C446212781A61428D013A92B2F7
:1044B0004285428D92B2002A7FF43DAE29297FF4D5
:1044C0003AAE5A6822F480625A602123036328239B
:1044D00080F83D30FFF746FC2DE6002C3FF42BAE74
:1044E00094057FF528AE428D92B2002A7FF45CAE2F
:1044F00021E61E4D0D4035B3510524D51CBB90F867
:104500003D20418D89B2D2B200293FF414AE416AF8
:104510001B694C1C44620B70438D013B9BB243856D
:10452000438D9BB2002B7FF406AE2A2A7FF403AEA4
:104530000268536823F480635360222303632823B3
:1045400080F83D308CE7002C3FF4F5AD92057FF507
:10455000F2AD428D92B2002A3FF4EDAD426AB7E669
:104560000400100004000100800001004000010070
:10457000F8B50368494A5E695D681642044608D08A
:10458000E80506D5226C42F0010222646FF48072C5
:104590005A6116F4813F08D0E90506D5226C42F035
:1045A000020222646FF400725A6116F4823F36D020
:1045B000EA0534D594F83E70618D94F83D20206B67
:1045C000202F89B2D2B258D1002956D102F0F7017A
:1045D000212903D0282A50D121284ED194F83D20FA
:1045E000E16A0429D2B201D008292CD1282A2AD183
:1045F0002B4AE2625A6822F4E0625A606FF48062E9
:104600005A611A6822F480621A6000232022236310
:10461000204684F83D2084F83E30FFF7A6FB16F4D0
:10462000843F09D0EB0507D5236C43F008032364CE
:1046300023686FF400625A61236C73B32046BDE8AF
:10464000F840FFF797BB212A23D11549E162226385
:10465000202284F83D20002284F83E205A6822F46B
:10466000E0625A606FF480625A611A6822F48062D4
:104670001A602046FFF776FBD1E7226C42F0040275
:10468000226494F83E20102A02BF1A6842F4007295
:104690001A606FF480625A61C1E7F8BD0001010041
:1046A0000000FFFF806B08B50368416B1A6822F4B5
:1046B00080621A60002242850A65816B0A6590F863
:1046C0003D1060294FF0200180F83D1080F83E2019
:1046D00007D102641A6822F001021A60FFF749FB51
:1046E00008BD1A6822F001021A60FFF741FB08BDFD
:1046F00090F83D007047F0B506468BB0002864D0B6
:104700000323344680F8B93302F0A4FB54F8100BAD
:1047100001F04EFE0FCC6D460FC50FCC0FC594E8CF
:10472000030085E80300371D97E80E00306801F0AC
:10473000FFFD0021306801F041FE00213346324682
:1047400006F110040125084682F83810D18701319E
:104750000F2982F8395082F83B0010645064D0640D
:1047600002F11C02F0D10022D6F800E0114602F15D
:10477000400083F8F821DA870EEB800001320F2A1F
:1047800083F8F91183F8FB11C3F80012C3F804127F
:10479000C3F80C12416003F11C03E8D10FCC6D4645
:1047A0000FC50FCC0FC594E8030085E803007046E1
:1047B00097E80E0001F01AFE012386F8B93330683D
:1047C00002F037F900200BB0F0BD0120FBE790F8B4
:1047D000B833012B10B504460CD0012380F8B83350
:1047E000006802F01AF9206801F0DCFD002084F86E
:1047F000B80310BD022010BD2DE9F04FD0F8009095
:1048000087B00446484602F04EF90290002840F076
:104810002E81206802F019F9002800F02881206814
:1048200002F013F9850748BF2268206842BF536928
:1048300003F00203536102F008F910F400250AD0D6
:10484000206802F006F909F530660746A246002501
:10485000002F40F00F81206802F0F7F841030BD5DC
:10486000206802F0FEF82646039009F5106800253E
:10487000039B002B40F03F81206802F0E6F80028FF
:104880000DDAD9F8043823F00103C9F804382046BA
:1048900002F056FB2268536903F00043536120681D
:1048A00002F0D3F806050BD5D9F80838D80702D599
:1048B000204602F02DFB2268536903F40063536124
:1048C000206802F0C2F8C10437D509F500667368A4
:1048D000206823F001037360102101F023FE61685A
:1048E00009F51063FF220298884240F092814FF050
:1048F000FF33B361F36943F00113F361236B002BC2
:1049000000F08F81D6F8843043F00B03C6F8843072
:10491000736C43F00B037364D9F80038217C206872
:1049200023F4FE63C9F8003804F56F7202F0DAF878
:104930002268536903F480535361206802F085F8BC
:1049400082041DD5206802F0B2F82068C36823F401
:104950007053C36001F00FFE002840F06B812268A5
:10496000E0604FF400736361D36843F41053D36085
:10497000204602F0BCFA2268536903F400535361E5
:10498000206802F062F8C3062BD52268936923F0F1
:1049900010039361D9F82060C6F34343022B06F05D
:1049A0000F0840F0A88147F6F0731E4214D01C2770
:1049B00007FB0847C6F30A163246D7F804124846E2
:1049C00001F0D5FFD7F804323344C7F80432D7F8E2
:1049D00010321E44C7F810622268936943F0100336
:1049E0009361206802F031F8070707D5204602F0EE
:1049F0007AFA2268536903F008035361206802F0D1
:104A000024F8C60208D5E9B2204602F0A1FA2268CD
:104A1000536903F480135361206802F016F8800292
:104A200008D5E9B2204602F08FFA2268536903F4F0
:104A300000135361206802F008F8410007D52046B2
:104A400002F08AFA2268536903F0804353612068B8
:104A500001F0FBFF42070AD523685D686B0702D5AA
:104A6000204602F07DFA23685A6815435D6007B05E
:104A7000BDE8F08FF80738D55FFA85FB5946206806
:104A800001F0F7FF10F0010F804621D021690123CA
:104A90009942B3600CD13169DAF80002C1F3120116
:104AA000411ACAF81012DAF804120844CAF80402CB
:104AB0005946204602F006FA2169012908D13DB97C
:104AC000D4F80C2222B904F56F72206802F00AF8BB
:104AD00018F0080F04D0204602F0EEF90823B36066
:104AE00018F0100F1CBF1023B36001357F0820366B
:104AF0000AF11C0AACE6039BDA0758D55FFA85FB7E
:104B00005946206801F0BFFFC307074620D5D9F8F2
:104B100034380121A94023EA0103C9F834380123BC
:104B2000C8F808302369012B01BF736C326C9B18E5
:104B300073645946204602F0CEF92169012907D154
:104B400035B9E36C23B904F56F72206801F0CAFF30
:104B5000380744BF0823C8F80830F90644BF1023BB
:104B6000C8F808307A0644BF4023C8F80830BB07AD
:104B700044BF0223C8F808303F0618D523680493C1
:104B8000F76C336DFF1A336C9F4228BF1F46049B9E
:104B900003F5106307F1030A03EB45134FEA9A0A82
:104BA0000593059B9B699BB2534508D82FB3039B84
:104BB0005B08013503931C3608F1200858E6326D76
:104BC000F36C9342F2D9002BF0D0376C04989B1A07
:104BD0009F4228BF1F46237C00935A46BBB2716C8C
:104BE00001F0B1FE736C3B447364336D07F1030A4B
:104BF0003B444FEA9A0A3365D3E7049B012203F54D
:104C0000006BD3F83438AA4023EA0203CBF83430DF
:104C1000CDE702989A600130C3F808220290203351
:104C200061E6736943F00B037361336943F00B036F
:104C3000336171E60323E3604023636100F0F8FB16
:104C4000344B354A03449342236804D8DA6842F46B
:104C50007052DA608CE6314A314902448A4203D804
:104C6000DA6842F46052F4E7A0F574022D49A2F527
:104C700010528A4203D8DA6842F45052E9E7A0F1B0
:104C800083722949A2F5E7428A4203D8DA6842F4DE
:104C90004052DEE7254A264902448A4203D8DA68B0
:104CA00042F43052D5E7234A234902448A4203D8CA
:104CB000DA6842F42052CCE7204A214902448A4271
:104CC00003D8DA6842F41052C3E7A0F1B7721D4965
:104CD000A2F558528A4203D8DA6842F40052B8E783
:104CE000194A1A4902448A42DA6894BF42F4E052EF
:104CF00042F4C052ADE7062B7FF46EAE082204F5F5
:104D00006F7148461C2701F032FE07FB0847C6F3C7
:104D10000A165CE6405327FFFF340C00401E1BFFC1
:104D20003F420F007F4F12001FD6130060B6E5FE12
:104D30005FE3160000D3CEFE3F771B00C05BB3FEDF
:104D4000BF9121001F753800E05459FEDF9C4100DF
:104D500090F8B833012B10B5044609D0012380F830
:104D6000B833006801F049FE002084F8B80310BD94
:104D7000022010BD70B54EB2002E04464FF01C0547
:104D800001F07F00B5BF05FB004105FB0141383153
:104D900001F5FC71C0B2002EB8BFC880022BCB70E9
:104DA0004FEAD67504BF00230B7108704D7094F85C
:104DB000B8338A60012B09D0012384F8B833206806
:104DC00001F0F4FB002084F8B80370BD022070BD30
:104DD0004BB2002B10B54FF01C02044601F07F00CF
:104DE000B5BF02FB004102FB0141383101F5FC7106
:104DF000DB0F08704B7094F8B833012B09D00123F6
:104E000084F8B833206801F010FC002084F8B8035F
:104E100010BD022010BD38B501F07F051C2404FB35
:104E2000050104FB050401F5FC71C4F80C320023F4
:104E3000C4F80422C4F8103284F8F93184F8F85127
:104E400003690068012B08BFC4F80822DAB21DB953
:104E500001F00CFD002038BD01F042FCFAE71C23F4
:104E600001F00F0103FB0101B1F81002704738B5E2
:104E700001F07F051C2404FB050104FB0504383107
:104E8000E364002323650123626484F8393084F8E5
:104E9000385003690068012B08BFA264DAB21DB95B
:104EA00001F0E4FC002038BD01F01AFCFAE738B547
:104EB0004BB2002B01F07F054FF01C02B5BF02FB87
:104EC000050102FB0101383101F5FC710122DB0F04
:104ED000EDB28A700D704B7090F8B833934204466F
:104EE0000FD080F8B823006801F04FFD2DB904F50C
:104EF0006F72217C206801F0F5FD002084F8B80372
:104F000038BD022038BD38B54BB2002B05464FF0F6
:104F10001C0201F07F00B5BF02FB005102FB0151F2
:104F2000383101F5FC71DB0F00248C7008704B7078
:104F300095F8B833012B09D0012385F8B8332868D8
:104F400001F042FD85F8B843204638BD022038BD47
:104F5000006870B5436A21B943EA024383620020C6
:104F600070BD846A002503EB14434E1EECB2B442BC
:104F700005F1010506DB3F3100EB810043EA024306
:104F80004360ECE7403400EB8404646803EB1443B3
:104F9000ECE7036800205962704700002DE9F341F7
:104FA000044618B9012002B0BDE8F0810368DD07AE
:104FB00010D42368980758D423681A0700F19A8000
:104FC00023685B0700F1B880A269002A40F01981CC
:104FD0000020E8E7A64B9A6802F00C02042A07D0EA
:104FE0009A6802F00C02082A0AD15B68590207D5B8
:104FF0009F4B1B689A03DCD56368002BD9D1D1E79E
:1050000063689B4DB3F5803F11D12B6843F4803327
:105010002B60FDF7BBFF964D06462B689B03C8D45B
:10502000FDF7B4FF801B6428F7D90320BBE7B3F575
:10503000A02F04D12B6843F480232B60E5E72A6876
:1050400022F480322A602A6822F480222A60002B0F
:10505000DFD1FDF79BFF06462B689F03A9D5FDF71F
:1050600095FF801B6428F7D9DFE7814B9A6812F01F
:105070000C0F07D09A6802F00C02082A11D15B6865
:105080005E020ED47A4B1A68950702D5E268012AAF
:1050900088D11A68216922F0F80242EAC1021A6036
:1050A0008AE7E268734BB2B101221A60FDF76EFF26
:1050B0006F4D06462B68980707D52B68226923F0A9
:1050C000F80343EAC2032B6076E7FDF75FFF801B1E
:1050D0000228EFD9A9E71A60FDF758FF644D06468C
:1050E0002B6899077FF568AFFDF750FF801B0228FA
:1050F000F6D99AE76269604B7AB101221A60FDF72E
:1051000045FF5B4D06466B6F9F073FF559AFFDF7B7
:105110003DFF801B0228F6D987E71A60FDF736FFAE
:10512000534D06466B6F98077FF54AAFFDF72EFF8C
:10513000801B0228F6D978E74D4B1A6C12F080528A
:1051400028D101921A6C42F080521A641B6C03F051
:1051500080530193019B0126484D2B68D9051BD52F
:10516000A368434D012B27D12B6F43F001032B671D
:10517000FDF70CFF3E4D074641F288382B6F9B0729
:1051800039D5002E3FF420AF394A136C23F08053F9
:10519000136419E70026DFE72B6843F480732B6064
:1051A000FDF7F4FE07462B68DA05D9D4FDF7EEFECD
:1051B000C01B0228F7D938E7052B04D12B6F43F029
:1051C00004032B67D0E72A6F22F001022A672A6FB7
:1051D00022F004022A67002BCAD1FDF7D7FE41F264
:1051E000883807462B6F9807CBD5FDF7CFFEC01B3D
:1051F0004045F7D919E7FDF7C9FEC01B4045BDD9A9
:1052000013E71B4DAB6803F00C03082B3FF4CAAE49
:105210001B4E0023022A336034D1FDF7B7FE074648
:105220002B6899011ED4226AE3691343626A43EA38
:105230008213E26A43EA0263A26A0D4C5208013A01
:1052400043EA02436B6001233360FDF79FFE05468E
:1052500023689A013FF5BCAEFDF798FE401B02287B
:10526000F6D9E2E6FDF792FEC01B0228D8D9DCE6AB
:105270000038024000004742800E47420070004064
:1052800060004742FDF782FE04462B689B017FF5D4
:105290009FAEFDF77BFE001B0228F6D9C5E600BFD6
:1052A000134908B58B6803F00C03042B03D0082BBB
:1052B00003D0104808BD104808BD4A684B684968CB
:1052C00013F4800314BF0C480A48C1F3881118BFB7
:1052D000002302F03F02A1FB0001FBF7C1FC044BDD
:1052E0005B68C3F3014301335B00B0FBF3F008BD1F
:1052F000003802400024F40000127A002DE9F04149
:105300000D46044610B90120BDE8F081444B1A68EF
:1053100002F00F028A4228D321688F072DD4C807D4
:1053200040D43F4B1A6802F00F02954266D32268C0
:1053300051076CD4130707D53A4A2169936823F4BF
:10534000604343EAC1039360FFF7AAFF354B364A37
:105350009B68C3F30313D35CD840344B1860002020
:10536000FCF786FF0020BDE8F081CAB21A701B6806
:1053700003F00F039942C6D1CEE72A4B11F0040F78
:105380001EBF9A6842F4E0529A600E0742BF9A68C4
:1053900042F460429A609A68A06822F0F0020243E8
:1053A0009A60BCE762681F4B012A1DD11B6813F489
:1053B000003FA8D01B4EB36823F003031343B36030
:1053C000FDF7E4FD41F288380746B368626803F0F0
:1053D0000C03B3EB820FA4D0FDF7D8FDC01B4045F2
:1053E000F3D90320BDE8F081911E01291B6802D882
:1053F00013F0007FDDE713F0020FDAE7EAB21A706C
:105400001B6803F00F039D427FF47DAF8FE70549D2
:10541000E0688B6823F4E05303438B608AE700BFA6
:10542000003C02400038024068DF0008080000200D
:10543000014B1868704700BF08000020044B054A64
:105440009B68C3F38223D35C034A1068D84070473B
:105450000038024078DF000808000020044B054AAD
:105460009B68C3F34233D35C034A1068D84070474B
:105470000038024078DF0008080000200F23036096
:105480000B4B9A6802F0030242609A6802F0F00245
:1054900082609A6802F4E052C2609B68DB0803F401
:1054A000E0530361034B1B6803F00F030B6070476D
:1054B00000380240003C02400368F7B59A070446F2
:1054C00040F08880236813F00C0F44D0804D814E4B
:1054D00000232B60FDF75AFD074633689B0000F15F
:1054E000BD8021684F0715D56369D6F888202069EB
:1054F0001B0602F0E04243EA80131343C6F88830EB
:10550000D6F88C30226A23F4F853013A43EA022396
:10551000C6F88C300E0714D56E4AA369D2F88810ED
:1055200020691B0701F0706143EA80130B43C2F846
:105530008830D2F88C30616A23F440330B43C2F8D0
:105540008C3001232B60FDF721FD624D06462B6850
:10555000980040F18A8023689A0631D50023019390
:105560005C4B5D4D1A6C42F080521A641B6C03F068
:1055700080530193019B2B6843F480732B60FDF7EC
:1055800005FD06462B68D90576D5524D2B6F13F4D1
:10559000407377D1A36A03F44072B2F5407F4D4A5D
:1055A00040F09180916823F0704021F4F81120F4CC
:1055B000407001439160116FC3F30B030B431367FA
:1055C000206810F010001FBF444B94F82C201A6084
:1055D000002041E0424D3F4E00232B60FDF7D6FCFA
:1055E000074633681B0131D42268D70706D5A36864
:1055F00061681B0743EA8113C6F88430900715D50C
:10560000344AE368D2F8841060681B0601F0E04178
:1056100043EA80130B43C2F88430D2F88C10E3695C
:1056200021F01F01013B0B43C2F88C3001232B609A
:10563000FDF7ACFC274D06462B6819013FF542AF3C
:10564000FDF7A4FC801B0228F6D904E0FDF79EFCC0
:10565000C01B0228C5D9032003B0F0BDFDF796FC9E
:10566000C01B02287FF639AFF5E7FDF78FFC801BE2
:1056700002287FF66CAFEEE7FDF788FC801B02285E
:1056800080D9E8E7A26A02F44072934282D02B6F7D
:10569000144A0121116023F44073002111602B672B
:1056A0002B6FDA077FF576AFFDF770FC41F2883794
:1056B00006462B6F9B073FF56DAFFDF767FC801B20
:1056C000B842F6D9C7E7916821F4F81172E700BF34
:1056D000700047420038024000700040E01147422D
:1056E00068004742400E4742026838B5D36823F04D
:1056F000A003D3600446FDF749FC05462368DB6838
:105700009B0601D5002038BDFDF740FC401BB0F5DD
:105710007A7FF3D9032038BD38B50368DA685206BA
:10572000044601D5002038BD4FF0FF32DA60FDF7A6
:105730002DFC05462368DB685B06F3D4FDF726FCE9
:10574000401BB0F57A7FF5D9032038BD38B5044643
:10575000B8B1437F03F0FF0213B90277FCF7A4FC52
:10576000022363772368CA225A6253225A62204670
:10577000FFF7D2FF2368054628B1FF225A620423AF
:10578000637701252EE09A68206922F4E00222F076
:1057900040029A60626899680243606902430A4362
:1057A0009A60E2681A611A69A16842EA01421A61C4
:1057B000DA6822F08002DA609B689B0605D42046F6
:1057C000FFF792FF08B12368D7E72368A1691A6C35
:1057D00022F480221A641A6C0A431A64FF225A6265
:1057E00001236377284638BD0023092803D840EAFF
:1057F0000310C0B270470A380133C0B2F5E7F8B5FC
:10580000037F012B05464FF0020630D001230377BA
:1058100046774B78C8788E780C78002A48D1DA061B
:1058200003D523F010030A334B70FFF7DDFF074663
:105830004878FFF7D9FF02463046FFF7D5FF40EA28
:10584000443040EA074040EA02242B68CA225A62E8
:1058500053225A622846FFF75FFF2B68064640B185
:10586000FF225A6204236B7700232B7701263046F0
:10587000F8BD24F07F4424F0C0045C60DA6822F0B4
:105880008002DA609B689B060AD42846FFF72CFF4B
:1058900030B12B68FF225A6204236B772E77E5E73D
:1058A0002B68FF225A6201236B7700232B77DEE7F8
:1058B0001B0243EA0040304340EA4434C5E7F8B5F0
:1058C000037F012B06460F464FF002052FD0012320
:1058D00003770368457708784D788C789B6842BBDE
:1058E00013F0400308BFCB70FFF77EFF0146284648
:1058F000FFF77AFF02462046FFF776FFFB7840EA83
:10590000034040EA014040EA02243368CA225A6256
:1059100053225A623046FFF7FFFE33680546A8B1AE
:10592000FF225A6204237377002333770125284628
:10593000F8BD13F040034FEA052508BFCB7045EAD8
:1059400000402043CC7840EA0444DEE704F07F3492
:1059500024F0FE441C609A68386922F480229A6020
:10596000FA68996802430A439A60DA6822F0800272
:10597000DA609B689B060AD43046FFF7B5FE30B16B
:105980003368FF225A62042373773577CEE7336892
:10599000FF225A620123737700233377C7E7036836
:1059A000503343F8212070470368503353F82100E7
:1059B00070472DE9F041069E0446884617461D466D
:1059C0002268936838EA03030CBF012300239F4237
:1059D00002D10020BDE8F0816B1CF2D055BB2368DA
:1059E0005A6822F0E0025A606268B2F5827F0AD1FA
:1059F000A268B2F5004F02D0B2F5806F03D11A68E9
:105A000022F040021A60A26AB2F5005F09D11A685A
:105A100022F400521204120C1A601A6842F4005266
:105A20001A60012384F85130002384F85030032099
:105A3000BDE8F081FDF7AAFA801B8542C0D8CEE709
:105A400013B50B460092802100220446FFF7B1FFF8
:105A500020B1636D43F020036365032002B010BDE5
:105A600010B50446002836D00023836290F85130E8
:105A700003F0FF021BB980F85020FCF785FA21687B
:105A8000A068A269022384F851300B6823F0400318
:105A90000B6063680343E068034320690343606964
:105AA0000343E0690343206A0343A06A034302F40B
:105AB000007003430B60120C636A02F004021A4385
:105AC0004A60CB6923F40063CB6100200123606549
:105AD00084F8513010BD012010BD2DE9F0439946E6
