:020000040800F2
:1000000000000320499B0008891700088B1700088F
:100010008D1700088F1700089117000800000000D6
:100020000000000000000000000000004184000803
:100030009317000800000000D184000895170008FD
:10004000999B0008999B0008999B0008999B0008C0
:10005000999B0008999B0008999B0008999B0008B0
:10006000999B0008E1170008DB170008999B00081E
:10007000999B0008999B0008999B0008999B000890
:10008000999B0008999B0008999B0008999B000880
:10009000999B0008999B0008999B0008D5170008B8
:1000A000999B000899170008999B0008999B0008E4
:1000B000999B0008999B0008999B0008BD170008B0
:1000C000C9170008999B0008999B0008999B000894
:1000D000999B0008E9170008999B0008999B000864
:1000E000999B0008999B0008999B0008999B000820
:1000F000999B0008999B0008999B0008999B000810
:10010000999B0008999B0008611A0008999B0008B8
:10011000999B0008999B0008F5190008B117000881
:10012000999B0008999B0008999B0008999B0008DF
:10013000999B0008999B0008999B0008999B0008CF
:10014000999B0008999B0008999B0008A517000837
:10015000999B0008999B0008999B0008999B0008AF
:10016000999B0008999B0008999B0008999B00089F
:10017000999B0008999B0008999B000800000000CB
:10018000999B0008999B0008999B0008999B00087F
:10019000999B0008999B0008999B0008999B00086F
:0C01A000999B0008999B0008999B00089F
:1001B00010B5054C237833B9044B13B10448AFF3A1
:1001C00000800123237010BD980C00200000000067
:1001D000E4BC000808B5034B1BB103490348AFF367
:1001E000008008BD000000009C0C0020E4BC00085A
:1001F000034613F8012B002AFBD1181A0138704767
:1002000001F0FF01102A2BDB10F0070F08D010F8C7
:10021000013B013A8B422DD010F0070F42B3F6D1CB
:10022000F0B441EA012141EA014122F007047FF0E4
:1002300000070023F0E80256083C85EA010586EA3B
:10024000010685FA47F5A3FA87F586FA47F6A5FA77
:1002500087F68EB9EED1F0BC01F0FF0102F0070283
:1002600032B110F8013B013A83EA010313B1F8D12E
:100270000020704701387047002D06BF354603380F
:10028000073815F0010F07D1013015F4807F02BF48
:10029000013015F4C03F0130F0BC0138704700BF99
:1002A00081F0004102E000BF83F0004330B54FEA27
:1002B00041044FEA430594EA050F08BF90EA020F94
:1002C0001FBF54EA000C55EA020C7FEA645C7FEA27
:1002D000655C00F0E2804FEA5454D4EB5555B8BF4A
:1002E0006D420CDD2C4480EA020281EA030382EABB
:1002F000000083EA010180EA020281EA0303362D4D
:1003000088BF30BD11F0004F4FEA01314FF4801C1F
:100310004CEA113102D0404261EB410113F0004F31
:100320004FEA03334CEA133302D0524263EB4303E8
:1003300094EA050F00F0A780A4F10104D5F1200E86
:100340000DDB02FA0EFC22FA05F2801841F10001E1
:1003500003FA0EF2801843FA05F359410EE0A5F1B5
:1003600020050EF1200E012A03FA0EFC28BF4CF0E6
:10037000020C43FA05F3C01851EBE37101F000459C
:1003800007D54FF0000EDCF1000C7EEB00006EEBA9
:100390000101B1F5801F1BD3B1F5001F0CD3490833
:1003A0005FEA30004FEA3C0C04F101044FEA44528A
:1003B00012F5800F80F09A80BCF1004F08BF5FEA11
:1003C000500C50F1000041EB045141EA050130BDF1
:1003D0005FEA4C0C404141EB010111F4801FA4F194
:1003E0000104E9D191F0000F04BF01460020B1FAE9
:1003F00081F308BF2033A3F10B03B3F120020CDA21
:100400000C3208DD02F1140CC2F10C0201FA0CF0FE
:1004100021FA02F10CE002F11402D8BFC2F1200C63
:1004200001FA02F120FA0CFCDCBF41EA0C01904019
:10043000E41AA2BF01EB0451294330BD6FEA040462
:100440001F3C1CDA0C340EDC04F11404C4F120024D
:1004500020FA04F001FA02F340EA030021FA04F35F
:1004600045EA030130BDC4F10C04C4F1200220FAB6
:1004700002F001FA04F340EA0300294630BD21FAF4
:1004800004F0294630BD94F0000F83F4801306BFBA
:1004900081F480110134013D4EE77FEA645C18BFAE
:1004A0007FEA655C29D094EA050F08BF90EA020F45
:1004B00005D054EA000C04BF1946104630BD91EA3D
:1004C000030F1EBF0021002030BD5FEA545C05D140
:1004D0004000494128BF41F0004130BD14F580047F
:1004E0003CBF01F5801130BD01F0004545F0FE41F3
:1004F00041F470014FF0000030BD7FEA645C1ABF28
:10050000194610467FEA655C1CBF0B46024650EA5E
:10051000013406BF52EA033591EA030F41F400218A
:1005200030BD00BF90F0000F04BF0021704730B510
:100530004FF4806404F132044FF000054FF00001E5
:1005400050E700BF90F0000F04BF0021704730B5A6
:100550004FF4806404F1320410F0004548BF40427B
:100560004FF000013EE700BF42004FEAE2014FEAD0
:1005700031014FEA02701FBF12F07F4393F07F4FAB
:1005800081F06051704792F0000F14BF93F07F4FDD
:10059000704730B54FF4607401F0004521F0004120
:1005A00020E700BF50EA010208BF704730B54FF0A6
:1005B00000050AE050EA010208BF704730B511F0AB
:1005C000004502D5404261EB41014FF4806404F1E3
:1005D00032045FEA915C3FF4DCAE4FF003025FEA65
:1005E000DC0C18BF03325FEADC0C18BF033202EBED
:1005F000DC02C2F1200300FA03FC20FA02F001FA47
:1006000003FE40EA0E0021FA02F11444C1E600BFE5
:1006100070B54FF0FF0C4CF4E06C1CEA11541DBF98
:100620001CEA135594EA0C0F95EA0C0F00F0DEF863
:100630002C4481EA030621EA4C5123EA4C5350EA48
:10064000013518BF52EA033541F4801143F4801399
:1006500038D0A0FB02CE4FF00005E1FB02E506F02A
:100660000042E0FB03E54FF00006E1FB03569CF07F
:10067000000F18BF4EF0010EA4F1FF04B6F5007F85
:1006800064F5407404D25FEA4E0E6D4146EB0606F7
:1006900042EAC62141EA55514FEAC52040EA5E5080
:1006A0004FEACE2EB4F1FD0C88BFBCF5E06F1ED82A
:1006B000BEF1004F08BF5FEA500E50F1000041EB61
:1006C000045170BD06F0004646EA010140EA02000E
:1006D00081EA0301B4EB5C04C2BFD4EB0C0541EA30
:1006E000045170BD41F480114FF0000E013C00F345
:1006F000AB8014F1360FDEBF002001F0004170BD69
:10070000C4F10004203C35DA0C341BDC04F1140481
:10071000C4F1200500FA05F320FA04F001FA05F20D
:1007200040EA020001F0004221F0004110EBD370DA
:1007300021FA04F642EB06015EEA430E08BF20EA06
:10074000D37070BDC4F10C04C4F1200500FA04F3A9
:1007500020FA05F001FA04F240EA020001F000413B
:1007600010EBD37041F100015EEA430E08BF20EAAE
:10077000D37070BDC4F1200500FA05F24EEA020EF6
:1007800020FA04F301FA05F243EA020321FA04F025
:1007900001F0004121FA04F220EA020000EBD370DC
:1007A0005EEA430E08BF20EAD37070BD94F0000FDC
:1007B0000FD101F00046400041EB010111F4801F10
:1007C00008BF013CF7D041EA060195F0000F18BFC1
:1007D000704703F00046520043EB030313F4801FFD
:1007E00008BF013DF7D043EA0603704794EA0C0FB7
:1007F0000CEA135518BF95EA0C0F0CD050EA4106CD
:1008000018BF52EA4306D1D181EA030101F0004149
:100810004FF0000070BD50EA410606BF1046194671
:1008200052EA430619D094EA0C0F02D150EA01367D
:1008300013D195EA0C0F05D152EA03361CBF1046BE
:1008400019460AD181EA030101F0004141F0FE415D
:1008500041F470014FF0000070BD41F0FE4141F4E1
:10086000780170BD70B54FF0FF0C4CF4E06C1CEAE1
:1008700011541DBF1CEA135594EA0C0F95EA0C0F96
:1008800000F0A7F8A4EB050481EA030E52EA033551
:100890004FEA013100F088804FEA03334FF0805572
:1008A00045EA131343EA12634FEA022245EA11159F
:1008B00045EA10654FEA00260EF000419D4208BF50
:1008C000964244F1FD0404F5407402D25B084FEAFD
:1008D0003202B61A65EB03055B084FEA32024FF4A9
:1008E00080104FF4002CB6EB020E75EB030E22BF06
:1008F000B61A754640EA0C005B084FEA3202B6EBC6
:10090000020E75EB030E22BFB61A754640EA5C0074
:100910005B084FEA3202B6EB020E75EB030E22BF04
:10092000B61A754640EA9C005B084FEA3202B6EB05
:10093000020E75EB030E22BFB61A754640EADC00C4
:1009400055EA060E18D04FEA051545EA16754FEA26
:1009500006164FEAC30343EA52734FEAC2025FEA44
:100960001C1CC0D111F4801F0BD141EA00014FF0D3
:1009700000004FF0004CB6E711F4801F04BF0143A4
:100980000020B4F1FD0C88BFBCF5E06F3FF6AFAEC0
:10099000B5EB030C04BFB6EB020C5FEA500C50F150
:1009A000000041EB045170BD0EF0004E4EEA1131D3
:1009B00014EB5C04C2BFD4EB0C0541EA045170BDDA
:1009C00041F480114FF0000E013C90E645EA060E1E
:1009D0008DE60CEA135594EA0C0F08BF95EA0C0F4C
:1009E0003FF43BAF94EA0C0F0AD150EA01347FF494
:1009F00034AF95EA0C0F7FF425AF104619462CE76B
:100A000095EA0C0F06D152EA03353FF4FDAE1046CD
:100A1000194622E750EA410618BF52EA43067FF41E
:100A2000C5AE50EA41047FF40DAF52EA43057FF4AE
:100A3000EBAE12E74FF0FF3C06E000BF4FF0010CB9
:100A400002E000BF4FF0010C4DF804CD4FEA410C1D
:100A50007FEA6C5C4FEA430C18BF7FEA6C5C1BD0EA
:100A600001B050EA410C0CBF52EA430C91EA030F6B
:100A700002BF90EA020F0020704710F1000F91EAC8
:100A8000030F58BF994208BF90422CBFD8176FEA96
:100A9000E37040F0010070474FEA410C7FEA6C5C64
:100AA00002D150EA013C07D14FEA430C7FEA6C5C6B
:100AB000D6D152EA033CD3D05DF8040B704700BF97
:100AC0008446104662468C461946634600E000BFE5
:100AD00001B5FFF7B7FF002848BF10F1000F01BDB7
:100AE0004DF808EDFFF7F4FF0CBF012000205DF882
:100AF00008FB00BF4DF808EDFFF7EAFF34BF012007
:100B000000205DF808FB00BF4DF808EDFFF7E0FF9F
:100B100094BF012000205DF808FB00BF4DF808EDF0
:100B2000FFF7CEFF94BF012000205DF808FB00BF57
:100B30004DF808EDFFF7C4FF34BF012000205DF839
:100B400008FB00BF4FEA410C7FEA6C5C02D150EA1F
:100B5000013C0AD14FEA430C7FEA6C5C02D152EAB5
:100B6000033C02D14FF0000070474FF00100704786
:100B70004FEA410212F5001215D211D56FF47873C5
:100B8000B3EB625212D94FEAC12343F0004343EA68
:100B9000505311F0004F23FA02F018BF4042704743
:100BA0004FF00000704750EA013005D111F00040CD
:100BB00008BF6FF0004070474FF00000704700BF63
:100BC0004FEA4102B2F1E04324BFB3F5001CDCF16F
:100BD000FE5C0DD901F0004C4FEAC0024CEA5070A7
:100BE000B2F1004F40EB830008BF20F001007047D6
:100BF00011F0804F21D113F13872BCBF01F00040D9
:100C0000704741F480114FEA5252C2F11802C2F10A
:100C1000200C10FA0CF320FA02F018BF40F001008B
:100C20004FEAC1234FEAD32303FA0CFC40EA0C003D
:100C300023FA02F34FEA4303CCE77FEA625307D17A
:100C400050EA01331EBF4FF0FE4040F440007047B1
:100C500001F0004040F0FE4040F40000704700BF4B
:100C600053B94AB9002908BF00281CBF4FF0FF3113
:100C70004FF0FF3000F07AB9ADF1080C6DE904CE09
:100C800000F006F8DDF804E0DDE9022304B0704767
:100C90002DE9F0478C460D460446089E002B51D1A5
:100CA0008A4217466DD9B2FA82FEBEF1000F0BD010
:100CB000CEF1200C01FA0EF520FA0CFC02FA0EF728
:100CC0004CEA050C00FA0EF44FEA174A250CBCFB5F
:100CD000FAF81FFA87F90AFB18CC45EA0C4508FB1D
:100CE00009F3AB420AD9ED1908F1FF3280F02381F4
:100CF000AB4240F22081A8F102083D44ED1AA4B2B3
:100D0000B5FBFAF00AFB105544EA054400FB09F96B
:100D1000A14509D9E41900F1FF3380F00A81A1450A
:100D200040F2078102383C44A4EB090440EA084041
:100D30000021002E61D024FA0EF400233460736089
:100D4000BDE8F0878B4207D9002E54D0002186E8F9
:100D500021000846BDE8F087B3FA83F1002940F08E
:100D60008E80AB4202D3824200F2FA80841A65EB95
:100D700003050120AC46002E3FD086E81010BDE8E8
:100D8000F08712B90127B7FBF2F7B7FA87FEBEF179
:100D9000000F34D1EB1B3A0C1FFA87FC0121B3FB87
:100DA000F2F8250C02FB183345EA03450CFB08F367
:100DB000AB4207D9ED1908F1FF3002D2AB4200F285
:100DC000D1808046ED1AA3B2B5FBF2F002FB1055BC
:100DD00043EA05440CFB00FCA44507D9E41900F1E3
:100DE000FF3302D2A44500F2B8801846A4EB0C04ED
:100DF00040EA08409DE731463046BDE8F087CEF135
:100E0000200405FA0EF307FA0EF720FA04F83A0C5C
:100E100025FA04F448EA0308B4FBF2F14FEA184556
:100E200002FB11441FFA87FC45EA044501FB0CF361
:100E3000AB4200FA0EF409D9ED1901F1FF3080F050
:100E40008A80AB4240F2878002393D44EB1A1FFA98
:100E500088F5B3FBF2F002FB103345EA034500FBD3
:100E60000CF3AB4207D9ED1900F1FF386FD2AB425A
:100E70006DD902383D44EB1A40EA01418FE7C1F1D8
:100E8000200722FA07F88B4005FA01F448EA030329
:100E900020FA07FE4FEA134CFD404EEA040EB5FB64
:100EA000FCF94FEA1E440CFB19551FFA83F844EA7B
:100EB000054509FB08F4AC4202FA01F200FA01FA16
:100EC00008D9ED1809F1FF3043D2AC4241D9A9F15C
:100ED00002091D442D1B1FFA8EFEB5FBFCF00CFB16
:100EE00010554EEA054400FB08F8A04507D9E41860
:100EF00000F1FF3529D2A04527D902381C4440EA29
:100F00000940A4EB0804A0FB02894C45C6464D46A7
:100F100015D312D056B1BAEB0E0364EB050404FAF4
:100F200007F7CB401F43CC40376074600021BDE819
:100F3000F0871846F8E69046E0E6C245EAD2B8EBFC
:100F4000020E69EB03050138E4E72846D7E740467F
:100F500091E78146BEE7014678E702383C4445E721
:100F6000084608E7A8F102083D442BE7704700BF98
:100F70002DE9F04F8DB04FF6FF7302930E230193CE
:100F800008AB00933B220123D0217248DFF8FC819B
:100F900001F064FB9DF820309DF821609DF82350FE
:100FA0009DF825009DF829709DF82B409DF82C2078
:100FB00046EA0326684B36B21E809DF8223045EA89
:100FC0000325664B2DB21D809DF8243040EA032096
:100FD000634B00B218809DF8283047EA0327614B25
:100FE0003FB21F809DF82A3044EA03245E4B24B2AE
:100FF0001C809DF82D3007EE900A43EA02231BB2B5
:10100000F8EEE77A0593594BBDF814201A8017EED5
:10101000900AFFF7A9FA02460B46FFF747F90022AC
:101020004FF07C53FFF7F4FAFFF7CAFD07EE907A12
:101030004F4BF8EEE77A1860834617EE900AFFF7F9
:1010400093FA00224B4BFFF7E3FA00224FF07C5358
:10105000FFF7DEFAFFF7B4FD07EE904A464BF8EED5
:10106000E77A1860824617EE900AFFF77DFA0022B1
:10107000404BFFF7CDFA4FF07C530022FFF7C8FA40
:10108000FFF79EFD98F800703C4B632F8146186077
:1010900044464BD807EE906AF8EEE77A384B17EEE5
:1010A000900A182404FB0734FFF75EFA02460B4649
:1010B000FFF7FCF800224FF07C53FFF7A9FAFFF787
:1010C0007FFD07EE905AF8EEE77A206017EE900A5F
:1010D000FFF74AFA02460B46FFF7E8F800224FF006
:1010E0007C53FFF795FAFFF76BFDDDED057A606045
:1010F000F8EEE77AC4F808B017EE900AC4F80CA02E
:10110000C4F81090FFF730FA00221A4BFFF780FA6C
:1011100000224FF07C53FFF77BFAFFF751FD0137B8
:10112000606188F800700DB0BDE8F08F154B07A91D
:10113000186807F067FC079B012B07D1124B4FF093
:1011400080521A60BFF34F8FBFF36F8F002323705D
:10115000E9E700BF8033022020320220C83202209B
:1011600000320220C4320220FC31022094320220DC
:10117000B40C002000406F40B80C0020BC0C0020D4
:10118000340300209032022004ED00E0C00C002067
:1011900008B5074B00221A609A8000F03BFE00F071
:1011A0006BFE00F09BFEBDE8084000F053BB00BFA3
:1011B000E032022006480346012203F8022B054ACA
:1011C00011689288C0F802109A8000F0D7BD00BF65
:1011D000C40C0020E032022072B60C4B1A6912F0E7
:1011E0000802A3F5063305D01A6842F001021A601E
:1011F00062B67047196821F001011960596A3A20F6
:10120000B1FBF0F1024881805A62F1E70020024010
:10121000E032022072B60C4B1A6912F01002A3F5EC
:10122000073305D01A6842F001021A6062B67047AF
:10123000196821F001011960596A0A20B1FBF0F127
:10124000024801805A62F1E700200240E0320220A9
:101250001B4BAA2810B518601A4B07D11A4A1178EF
:1012600001290ABF19700121002111701978174C4A
:10127000012906D10C284FF0000206BF21701A7018
:1012800022702378012B19D11149124A0B7850682A
:10129000114AD0540133DBB2052B0B7013460DD924
:1012A0001079527902EB00220C484280002210464D
:1012B00098540132142AFBD10870207010BD00BF71
:1012C000FC320220C20C0020C10C0020C30C002004
:1012D0000033022000100140E6320220E0320220FA
:1012E0001021014801F057B8000C024008B500F089
:1012F000F3FBFFF74DFF00F039FE00F0EFFCFFF7C6
:1013000059FF642006F0A5FEF9E7000030B595B05E
:10131000274B002101911A6C42F080521A641B6C19
:1013200003F080530193019B224B02911A6842F40F
:1013300040421A601B6803F440430293029B01235E
:1013400008934FF4803309934FF480030F930823DD
:1013500010934FF4A8730224119308A807230E9446
:101360001294139302F0A6FB00B1FEE74FF4A053D2
:1013700005900F25052103A8049403950693079370
:1013800002F048FD044600B1FEE702F0DDFD4FF437
:101390007A73B0FBF3F000F0D9FE042000F0ECFE0D
:1013A000224629464FF0FF3000F090FE15B030BDC8
:1013B000003802400070004070B58AB0234B2448CA
:1013C000002401941A6B42F080021A631A6B02F037
:1013D00080020192019A02941A6B42F004021A638D
:1013E0001A6B02F004020292029A03941A6B42F002
:1013F00001021A631A6B02F001020392039A049429
:101400001A6B42F008021A631B6B069403F0080380
:1014100004930225049B07954FF4805305A9059377
:10142000089500F0C7FE079508950A4D0123102680
:1014300005A928460693059600F0BCFE22463146D3
:10144000284600F0A3FF0AB070BD00BF003802407C
:10145000001C0240000C024030B50C4D87B000F07B
:10146000E3FDFFF753FFFFF7A7FF0FCD01AC0FC45C
:101470002B682360002101A806F0D3FD044B1860FF
:1014800006F0CAFD002007B030BD00BF00BD000857
:10149000043302200268084B9A4210B5044601D179
:1014A00000F0DCFD2268054B9A4201BF044A136834
:1014B0000133136010BD00BF000001400014004064
:1014C000D80C0020014B1868704700BFD80C0020D2
:1014D00030B5002289B00721372000F0F7FD372012
:1014E00000F028FE0025144B02951A6C134C42F0B4
:1014F00020021A641B6C03F02003029301A903A8C5
:10150000029B02F047FD02F035FD0D4B236042F2D5
:101510000F73E36040000B4BB0FBF3F001386060E9
:1015200020462561A56003F083FA10B9204603F038
:101530006AF909B030BD00BF00380240083302200C
:101540000014004080969800FEE708B5032000F0E4
:10155000ABFD002211466FF00B0000F0B7FD00223A
:1015600011466FF00A0000F0B1FD002211466FF045
:10157000090000F0ABFD002211466FF0040000F0FE
:10158000A5FD002211466FF0030000F09FFD002230
:101590000F216FF0010000F099FD00220F214FF0A4
:1015A000FF30BDE8084000F091BD000010B50268B2
:1015B0001F4B9A4288B038D103F582330021019144
:1015C0005A6C1C4842F400525A645A6C02F400529D
:1015D0000192019A02911A6B42F010021A631B6B7E
:1015E00003F010030293029B0423012205240393BA
:1015F00003A90223059204930693079400F0DAFDF1
:10160000202303A90B480393079400F0D3FD402344
:1016100003A908480393079400F0CCFD102303A905
:1016200004480393079400F0C5FD08B010BD00BF47
:10163000003401400010024000B599B00C23009323
:1016400001220023684606930592029302F032FAC3
:1016500020B14FF480710B48FFF776FF20230C93E5
:101660000CA84FF40073169302F0B2FC20B140F2C4
:1016700007110448FFF768FF034B01221A6019B0F5
:101680005DF804FB61BD00083C0E474230B50268BE
:101690001C4B9A4289B032D103F594330024019453
:1016A0005A6C194842F010025A645A6C02F0100247
:1016B0000192019A02941A6B42F001021A631B6BA9
:1016C00003F001030293029B4FF400730393072579
:1016D000022303A904930693079500F06BFD4FF4D2
:1016E000806303A908480393079500F063FD252054
:1016F0002246082100F0EAFC252000F01BFD09B07D
:1017000030BD00BF001001400000024030B501466E
:1017100089B00022192000F0D9FC192000F00AFD40
:101720000025154B02955A6C144C42F001025A6484
:101730005B6C03F00103029301A903A8029B02F072
:1017400029FC02F017FC0E4B236040F2E733E36004
:1017500040000C4BB0FBF3F001386060204625617F
:10176000A56003F065F920B9204603F04CF809B0F4
:1017700030BD0120FBE700BF0038024044330220A7
:101780000000014040420F007047FEE7FEE7FEE721
:10179000FEE7704706F0C4BC014803F043B800BF41
:1017A00044330220014801F0B3BD00BF583C022081
:1017B000014803F037B800BF08330220014801F0A8
:1017C000FBB800BF80330220014801F05FBC00BFBE
:1017D00080330220202000F0E3BD102000F0E0BDA7
:1017E000082000F0DDBD000008B5064B1A6892061F
:1017F00007D51A6822F020021A605868C0B2FFF7B5
:1018000027FD08BD001001400F49D1F8883043F48E
:101810007003C1F888300D4B1A68002042F00102B5
:101820001A6098601A6822F0847222F480321A607A
:10183000074A5A601A6822F480221A60D8604FF072
:1018400000638B60704700BF00ED00E0003802408D
:101850001030002430B589B00024224B01941A6B5B
:10186000214842F002021A631A6B02F0020201924E
:10187000019A02941A6B42F480721A631B6B0594EE
:1018800003F48073029308AD029B184B049320234A
:1018900045F8143D294600F08DFC22460921172009
:1018A00000F014FC172000F045FC114B04930223B8
:1018B0000593294618230F48039300F07BFC01226F
:1018C0000A21092000F002FC092000F033FC224626
:1018D0000B210A2000F0FAFB0A2000F02BFC09B0D3
:1018E00030BD00BF0038024000040240000011106B
:1018F0000000311000200240202808B502D1FFF777
:1019000037FB08BD102802D1FFF784FC08BD08286A
:1019100001D1FFF761FC08BD064A5378D9075FBFC4
:1019200003F0820343F055031070537054BF01203D
:1019300000207047EA0C00200A4A0B4912780B7805
:10194000013A93420CDA0133DBB20B704FF4A04240
:1019500000BF013AFCD1054A1268D05CFFF7DCBF3A
:10196000704700BFEC0C0020ED0C0020DC0C0020C8
:10197000002330B519460224012540FA03F212F083
:10198000010F4FEA430203F1010314BF05FA02F20B
:1019900004FA02F2082B41EA0201EED1084630BDFA
:1019A000002310B51A460124590020FA01F1C90795
:1019B00044BF04FA03F10A4303F1010348BFD2B262
:1019C000082BF1D1104610BD13B5074C6368019385
:1019D0000198FFF7E5FF054AE0701378591C117074
:1019E000034AD05402B010BDE00C0020E80C0020E7
:1019F000D4330220174A38B51369174C23F001037A
:101A000013616378D80723D503F07C027C2A134D39
:101A100008D16FF300036370AB6943F00073AB61EF
:101A2000FFF78AFF2078FFF7A3FF6378AA69C3F363
:101A3000840340F46010D840C1074CBF42F40072E8
:101A400042F00072AA6162781F3363F3860262700B
:101A500038BD00BF00100040EA0C00200004024026
:101A600038B51A4B1A4C1A6922F001021A61194A48
:101A7000126912F0010F04D0227812B901212170ED
:101A80005A626378032B01BF002363701523A37090
:101A9000104B1B6913F0010315D06378A278013352
:101AA000637001239340626813436360A5784DB16E
:101AB000013DEDB2A5702DB96368DB086360FFF7E7
:101AC00083FF656038BD6370F0E700BF000C004025
:101AD000E00C00200000024010B52648264B0360B1
:101AE0007F22002386B08260FF224360C2600361D0
:101AF00043618361437702F0B5FB18B114211F489D
:101B0000FFF722FD00211B4802F0DAFC43F2F2232A
:101B100098422DD006A902230024012201F8183D85
:101B200014488DF803408DF801208DF8024002F032
:101B3000F2FB18B123211148FFF706FD012201A98C
:101B40000C488DF804408DF805408DF806408DF85E
:101B500007400494059402F03EFC18B13021074878
:101B6000FFF7F2FC43F2F2220121024802F0A3FC4B
:101B700006B010BDD43402200028004099BD0008F2
:101B80002DE9704343494448ADF52A7D05F0ACFD8D
:101B900005F0CAFE00224149414805F0B5F918B1E7
:101BA000A8214048FFF7D0FC3F4805F083FF3222D0
:101BB0003E491EA805F0F2F930B93D491EA805F0CE
:101BC00078FC1EA805F05CFC32223A491EA805F0FC
:101BD000E5F930B936491EA805F06BFC1EA805F0E2
:101BE0004FFC354C354D334E3349286800234FF0B8
:101BF000FF3206F05BFF0128F6D12378012B26D0B7
:101C0000022BF1D1322229491EA805F0C7F900287C
:101C10003ED1A068FEF7A8FC804620698946FEF701
:101C2000A3FCCDE90201E068FEF79EFC4246CDE947
:101C300000014B46224905A808F020FD05AA2149CC
:101C40001EA805F036FC1EA805F01AFCCCE73222CF
:101C500031461EA805F0A2F9C0B9FFF741FBE188A3
:101C6000A388628800911848184908F007FD164AB1
:101C700014491EA805F01DFC1EA805F001FC124821
:101C800000F0C4F9124800F0C1F9ADE71148FAE7D5
:101C90001148F8E74942022024C0000812BE00089B
:101CA000F00C0020B6BD0008240F0020D6BD0008AF
:101CB000E1BD000813BE0008640F0020F8340220C4
:101CC0006CBE00082CBE00087A0F00201FBE000862
:101CD0002FBE000857BE000883BE000830B50022A2
:101CE00087B01421102006F0B3FD0B4D0B4B18608C
:101CF0000FCD01AC0FC42B682360002101A806F0B2
:101D000090F9074B074A186000231360064A1370C6
:101D1000064A137007B030BD14BD0008F834022025
:101D200054350220F4340220790F0020780F00206F
:101D300008B50F4B0F4A1A6007210022D8619A603C
:101D40005A611A619A62D962DA601A624FF480218C
:101D50005A6218464FF4827299615A6002F00CFC84
:101D600028B14C210448BDE80840FFF7EDBB08BD91
:101D7000FC34022000340140B6BD0008044B01468B
:101D8000186818B100231A4606F086BD704700BFD8
:101D9000F8340220024600B101221021014800F06F
:101DA000F5BA00BF0010024007B541F28833009336
:101DB00013460A460146034802F01BFC03B05DF8D7
:101DC00004FB00BFFC3402207FB541F288338DF85C
:101DD0000F0000930DF1170201230DF10F010448CC
:101DE00002F007FC9DF8170007B05DF804FB00BF88
:101DF000FC34022010B53820FFF79AFF0A24FF2098
:101E0000FFF7E2FF013CFAD11020BDE81040FFF7D8
:101E10008FBF000007B50023134A0193116C1348CC
:101E200041F002011164126C1149036102F00202D7
:101E30000192019A8360532280E806004CF25032EE
:101E4000C26002F0F5FD18B113210A48FFF77CFBD0
:101E5000064802F0CBFC18B116210648FFF774FBC8
:101E600003B05DF804FB00BF003802409435022047
:101E7000000400409FBE000807B50023134A0193E9
:101E8000116C134841F004011164126C1149036193
:101E900002F004020192019A8360532280E8060056
:101EA0004CF25032C26002F0C3FD18B127210A483B
:101EB000FFF74AFB064802F099FC18B12A210648B0
:101EC000FFF742FB03B05DF804FB00BF003802409F
:101ED00058350220000800409FBE000808B5114890
:101EE000114B4FF4E13E80E8084004220023836058
:101EF000C360036142618361C36102F0CFFE18B128
:101F000013210A48FFF720FB0E220949054802F079
:101F1000F3FE28B116210548BDE80840FFF714BBC1
:101F200008BD00BFD035022000100140BFBE000830
:101F300010360220FEE7000070B50A4D0A4E09492E
:101F4000306800234FF0FF3206F0B0FD0128044650
:101F5000F5D1A988286803F06DFC204606F079F8D1
:101F6000EDE700BFFC0F00202836022070B50022EC
:101F70008AB00821102006F06BFC154C002220606E
:101F80000121202006F064FC124B134918602068E0
:101F9000124C264606F09EFE0FCE6D460FC53368E6
:101FA0002B600021684606F03CF80D4B1434186095
:101FB0000FCC05AD0FC523682B60002105A806F0E6
:101FC00030F8084B186003F0F3FB0AB070BD00BF97
:101FD0002836022024360220DEBE000828BD000874
:101FE0002C3602202036022010B4064C2060064811
:101FF000A180002321461A4600685DF8044B06F0D4
:102000004BBC00BF041000202836022010B5044647
:10201000FEF7EEF8431E7E2B05D881B22046BDE8C0
:102020001040FFF7E1BF10BD08B50B4B1A6842F432
:1020300000721A601A6842F480621A601A6842F4E8
:1020400080721A60032000F02FF80020FFF75EFB7B
:10205000FFF77BFA002008BD003C0240034A044B16
:1020600011681B780B441360704700BF30360220A4
:1020700004000020014B1868704700BF3036022072
:1020800038B50446FFF7F6FF631C1CBF054B1B78F1
:10209000054618BFE418FFF7EDFF401B8442FAD84D
:1020A00038BD00BF04000020074AD36823F4E06372
:1020B0001B041B0C43F0BF63000243F4003300F425
:1020C000E0600343D360704700ED00E0174B30B58C
:1020D000DC68C4F30224C4F10703251D042B28BFC8
:1020E0000423062D4FF0010505FA03F303F1FF3336
:1020F0008CBF033C00241940A14005FA04F4013CC4
:102100002240002842EA01024FEA0212AFBF00F16A
:10211000604000F00F00064BD2B2A5BF00F5614051
:10212000D2B21A5480F8002330BD00BF00ED00E0A9
:1021300014ED00E04209012300F01F0003FA00F053
:10214000014B43F82200704700E100E00138B0F194
:10215000807F0AD2064B074A5860F02182F823108C
:102160000020072298601A6070470120704700BF66
:1021700010E000E000ED00E0044B1A6804280CBFFA
:1021800042F0040222F004021A60704710E000E0FE
:1021900090F83530022B03D080234365012070472F
:1021A0000268052380F83530136823F001031360BB
:1021B000002070472DE9F04F85B00B68DFF8C4812F
:1021C0006E4ADFF8C491019300234FF0010E019C89
:1021D0000EFA03FE0EEA0406B64540F0B6804C68DF
:1021E00024F01007022F16D14FEAD30A00EB8A0A17
:1021F00003F0070BDAF820504FEA8B0B4FF00F0C6F
:102200000CFA0BFC25EA0C0C0D6905FA0BF545EAF6
:102210000C05CAF820504FEA430A0325D0F800B055
:1022200005FA0AF5ED4304F0030C0BEA050B0CFA72
:102230000AFC013F4CEA0B0C012FC0F800C011D87A
:10224000876807EA050BCF6807FA0AFC4CEA0B0718
:102250008760476827EA0E0EC4F300179F4047EADD
:102260000E074760C7683D408F6807FA0AF73D438D
:10227000C560E50069D54FF0000BCDF80CB0D8F87B
:1022800044703F4D47F48047C8F84470D8F8447014
:1022900007F480470397039F23F0030707F1804764
:1022A00007F59C3703F0030CD7F808A04FEA8C0C15
:1022B0004FF00F0E0EFA0CFEA8422AEA0E0E4BD07B
:1022C00005F58065A84249D005F58065A84247D04C
:1022D00005F58065A84245D005F58065A84243D044
:1022E000484543D005F50065A84241D005F5806515
:1022F000A8423FD005F58065A8423DD005F5806530
:10230000A84214BF0A25092505FA0CF545EA0E0571
:10231000BD601568F74314F4803F0CBF3D40354362
:102320001560556814F4003F0CBF3D4035435560BF
:10233000956814F4801F0CBF3D4035439560D56807
:10234000A40254BF3D403543D5600133102B7FF4C8
:102350003CAF05B0BDE8F08F5D46D5E70125D3E77A
:102360000225D1E70325CFE70425CDE70525CBE7F7
:102370000625C9E70725C7E70825C5E7003C014052
:102380000000024000380240001402400AB181619E
:1023900070470904FBE743695940416170470000F9
:1023A00008B5044B5969014202D05861FFF7A4FAFD
:1023B00008BD00BF003C01400268536913F480630C
:1023C0000DD06FF480635361042303642022002343
:1023D000036380F83C3080F83D20012070471846A8
:1023E00070472DE9F843044617469946C1F307485C
:1023F0008EB22568B8F1010F0CBF6B69AB6936EA84
:10240000030314BF0120002008B9BDE8F8836B69FD
:102410005A0512D52B6843F400732B606FF4806368
:102420006B610423236420220023236384F83C305F
:1024300084F83D200120BDE8F8837B1CD9D04FB93A
:1024400000232022236384F83C3084F83D200320BD
:10245000BDE8F883FFF70EFEA0EB09008742C8D263
:10246000EEE72DE9F843089E044690461F46C1F367
:1024700007498DB22368B9F1010F0CBF5B699B69F5
:1024800035EA03030CBF01230023434502D000209B
:10249000BDE8F8837B1CEDD05FB9002320222363C5
:1024A00084F83C3084F83D20032084F83E30BDE8B9
:1024B000F883FFF7DFFD801B8742DBD2EDE770B5C5
:1024C00004460D46164623685B691B0601D50020AD
:1024D00070BD2046FFF770FFA8B96A1CF3D065B93C
:1024E000236C43F02003236420220023236384F819
:1024F0003C3084F83D20032070BDFFF7BBFD801BFE
:102500008542E0D2ECE7012070BD00002DE9FF41DB
:10251000984603680B9D16461A6842F480621A605A
:102520001A6842F480721A600F4600950A9B0022D6
:102530004FF001110446FFF794FF80B923682F493B
:10254000FFB207F0FE021A6120462B460A9AFFF7F7
:1025500048FF40B1236C042B01D1012000E003208F
:1025600004B0BDE8F081236803905A6903929B6927
:1025700003932A460A99039B2046FFF7A0FF40B128
:10258000236C042BEBD12268136843F400731360AF
:10259000E3E7B8F1010F236824D1F6B21E612A46A1
:1025A0000A992046FFF78BFF02460028E8D12168F0
:1025B0000B6843F480730B60204600950A9B4FF034
:1025C0000111FFF74EFF0028C9D123680A9A0B4971
:1025D00047F001071F6120462B46FFF702FF002846
:1025E000B8D1BDE7320A1A610A992A462046FFF798
:1025F00066FF0028C4D12368CFE700BF02000100B6
:1026000070B504460D4616462068436913F0400332
:1026100001D0002070BD4269D2060BD56FF01002C8
:1026200042612022236484F83C302363012084F833
:102630003D2070BD5DB9236C43F02003236420234B
:1026400084F83D30002384F83C30032070BDFFF750
:1026500011FD801B8542D7D2EDE700002DE9F04740
:10266000044686B09A460D469146109FFFF702FD3C
:1026700094F83D30202B064604D00225284606B0AB
:10268000BDE8F08700901923012279492046FFF721
:10269000E8FE0028F1D194F83C30012BEDD0012365
:1026A00084F83C3023681A68D2075EBF1A6842F08B
:1026B00001021A601A6822F400621A60222384F868
:1026C0003D30402384F83E300E9B63624FF000089B
:1026D000BDF83C30C4F840806385664BE362638D8F
:1026E000238529460196009753464A462046FFF720
:1026F0000DFF054630B1236C84F83C80042B3AD1A1
:102700000125BBE7228D236892B902905A69029293
:102710009A690292029A1A6842F400721A6020239F
:1027200084F83D30002384F83E3084F83C30A5E73F
:10273000012A22D11A6822F480621A6003905A6931
:1027400003929A690392039A1A6842F400721A601B
:10275000DFF82481238D002BE1D0032B6BD8012BD4
:1027600023D1324639462046FFF74AFF002839D0A8
:10277000236C202BC4D1032580E7022A0ED11A68CE
:1027800022F480621A601A6842F400621A600490AF
:102790005A6904929B690493049BD9E705905A698E
:1027A00005929B690593059BD2E7022B00963B4659
:1027B0004FF000024146204622D1FFF752FE00288A
:1027C000D9D123681A6842F400721A60626A1B69E0
:1027D000511C61621370238D013B2385638D013B86
:1027E0009BB26385636A5A1C6262226812691A701E
:1027F000238D013B2385638D013B9BB26385A9E754
:10280000FFF72FFE02460028B5D12368196821F48E
:1028100080611960616A1B69481C60620B70238DBE
:102820000096013B2385638D013B9BB26385414646
:102830003B462046C1E7324639462046FFF7E0FED8
:10284000002895D1636A5A1C6262226812691A7064
:10285000238D2268013B2385638D013B9BB26385F9
:1028600053695B077FF576AF636A591C6162BDE708
:10287000020010000000FFFF0400010070477047D5
:102880007047704770477047704770477047704790
:1028900090F83D30293B012B10B50368044639D828
:1028A00000220263282280F83D201A6822F4006288
:1028B0001A605A6812F4006254D05A68606B22F4AD
:1028C00000625A6090F83530012B394B31D00365E6
:1028D000FFF75EFC50B12268606B136823F00103C0
:1028E0001360202384F83D30036D984794F83D3001
:1028F000282B0ED1236C5B070BD52E4BE3622022D5
:1029000000232363204684F83D2084F83E30FFF7FF
:10291000BAFF10BD90F83D20602A05D05A68120514
:102920005CBF202280F83D200022226384F83E20F4
:10293000BBE7A06B0365FFF72BFC0028D6D022680D
:102940005369580604D5636A1269591C61621A708A
:102950002268A06B136823F001031360202384F81E
:102960003D30C1E794F83D10602914D1202184F84E
:102970003D1022645A69510604D5626A1B69511CD4
:10298000616213702268136823F00103136020460C
:10299000FFF77DFFAAE75A69520604D5626A1B69F0
:1029A000511C616213702046FFF770FF9EE700BF65
:1029B000C13100080000FFFF0368F0B59D69596947
:1029C0005A6890F83E40E4B2102C8DB002D0402CF2
:1029D00040F0558211F0011F66D0970564D590F83C
:1029E0003E40402C43D1046D002C3BD1446C04F09C
:1029F000FE041C61984E994C2E400C40002E00F0B5
:102A00009F81974D0D40002D00F06681550540F1E6
:102A10006381002C40F0608190F83D20058D90F896
:102A20003E10C46AD2B2C9B2002D40F00581212AFD
:102A300040F00481042C00F06C81082C00F06981C6
:102A400014F5803F00F065815A6822F4E0625A6014
:102A50001123036380F83E50202380F83D30FFF7B8
:102A60000DFFF6E0446C44F00104E4B2C1E70469F0
:102A7000B4F5804F05D190F83D40212C446CF2D143
:102A8000B5E7046D34B9446CE41104F0060444F075
:102A9000F004AEE7046D012CACD1446CE41104F0F9
:102AA000060444F0F104A4E76E4C0C401CB19605FA
:102AB00001D5446CD9E76C4C0C40002C9AD094059D
:102AC00098D590F83E40C66AD0F830E090F83D7056
:102AD000222FE4B240F0A880076D47B9402C06D100
:102AE00001975C6901949C690194019C82E7046DE3
:102AF0008CB90769B7F5404F0DD102945C69029417
:102B00009C690294029C1C6844F480741C60046DEF
:102B1000013404656EE7448DA4B254B903945C6932
:102B200003949C690394039C1C6844F400741C6027
:102B300019E0448DA4B2012C42D116F5803F1BD17F
:102B40001C6824F480641C605C6814F400640CD07D
:102B50001C6824F480641C60002404945C69049460
:102B60009C690494049C0024D3E705945C69059453
:102B70009C690594059CD7E7042E15D0082E13D028
:102B8000BEF1120F10D0C46A022C1C6814BF24F4CA
:102B9000806444F480641C60002406945C6906949C
:102BA0009C690694069CDEE71C6824F480641C6023
:102BB000002407945C6907949C690794079CB3E719
:102BC000448DA4B2022C1CD1C46A022C1C681DBF07
:102BD00024F480641C601C6844F4806418BF44F4CE
:102BE00000641C605C68270542BF5C6844F4805444
:102BF0005C60002408945C6908949C690894089CB3
:102C0000B1E71C6844F480641C605C68260542BF20
:102C10005C6844F480545C60002409945C69099405
:102C20009C690994099C9EE700240A945C690A94B3
:102C30009C690A940A9CDDE6212A03D0402908D128
:102C4000222A06D1428D92B282B95A6822F4806259
:102C50005A600DB0F0BD00BF040010000400010078
:102C600080000100080001000200010090F83E20F1
:102C7000402A27D1026D7AB9C26C012A826C05D133
:102C8000D2B21A61036D02330365E2E7C2F3072291
:102C90001A61036D0133F7E7026D012A02D1826CDC
:102CA000D2B2F5E7026D022AD3D190F83D20222A54
:102CB00004D11A6842F480721A60CAE790F83D2085
:102CC000212AC6D1426A511C416212781A61438D91
:102CD000013B9BB24385BCE7002CBAD09405B8D524
:102CE000C16A90F83D20212AB3D1428D92B2002AC8
:102CF000E8D104290DD008290BD011F5803F08D068
:102D0000596821F4E06159601123036380F83E2083
:102D1000A2E65A6822F4E0625A601A6842F400722D
:102D20001A6000232022036380F83D2090F83E20A3
:102D300080F83E30402A7FF492AEFFF7A5FD88E789
:102D4000904D0D40002D41D051053FD5002C3DD177
:102D500090F83D20222A7FF47CAF428D92B2032A64
:102D600013D9426A1B69511C41621370438D013BA8
:102D70009BB24385438D9BB2032B7FF46AAF0268FD
:102D8000536823F48063536063E7012A3FF661AF21
:102D90001A6822F480621A605A6822F4E0625A606B
:102DA000426A1B69511C41621370438D013B9BB207
:102DB0004385202380F83D30046390F83E3080F84E
:102DC0003E40402B58D1FFF760FD42E7002C3FF416
:102DD00040AF97057FF53DAFC16A428D92B2042A9C
:102DE000426A08D1596821F480615960511C1B69FD
:102DF000416213706BE7448DA4B2032C08D159686B
:102E000021F480615960196821F480611960EDE74F
:102E1000448DA4B2022CE9D10139012919689DBF62
:102E200021F480611960196841F4007198BF41F480
:102E3000807119601B69511C41621370438D013B05
:102E40009BB24385436A5A1C4262026812691A7037
:102E5000438D0268013B9BB24385536823F4407362
:102E60005360202380F83D300023036390F83E2018
:102E700080F83E30402AA5E7FFF701FDE9E6424C25
:102E80000C4074B196050CD599699B6981F00401D9
:102E90001D06C1F3800154BF8289028BFFF7F2FC4B
:102EA000D7E63A4C0C40002C74D0940572D590F8BB
:102EB0003D20596821F4E061596000210B91596966
:102EC0000B91196841F0010119600B99196821F4FF
:102ED0008061196059680905D2B20CD590F83D108F
:102EE000222903D090F83D102A2929D1816B096845
:102EF000496889B24185418D89B2E1B159694F076D
:102F000008D5416A1B694C1C44620B70438D013B20
:102F10009BB2438501684B695E0608D5436A09691F
:102F20005C1C44621970438D013B9BB24385036C6A
:102F300043F004030364036C23B1FFF7A9FC88E6A4
:102F4000416BD4E7A2F1280102290AD8104AC262D3
:102F50002022036380F83D2080F83E30FFF793FC89
:102F600077E6036B222B02D0222A7FF472AE002375
:102F70002022036380F83D2080F83E30FFF781FC7B
:102F800067E600BF400001000200010010000100E0
:102F90000000FFFF394E3A4C2E400C40002E36D038
:102FA000384D0D403DB3550525D524BB90F83D1057
:102FB000428D92B2C9B2002A3FF44BAE426A541C11
:102FC000446212781A61428D013A92B24285428D72
:102FD00092B2002A7FF43DAE29297FF43AAE5A68B6
:102FE00022F480625A6021230363282380F83D3055
:102FF000FFF746FC2DE6002C3FF42BAE94057FF541
:1030000028AE428D92B2002A7FF45CAE21E61E4DBE
:103010000D4035B3510524D51CBB90F83D20418DA2
:1030200089B2D2B200293FF414AE416A1B694C1C2C
:1030300044620B70438D013B9BB24385438D9BB231
:10304000002B7FF406AE2A2A7FF403AE0268536891
:1030500023F48063536022230363282380F83D30E8
:103060008CE7002C3FF4F5AD92057FF5F2AD428D73
:1030700092B2002A3FF4EDAD426AB7E604001000B8
:10308000040001008000010040000100F8B5036861
:10309000494A5E695D681642044608D0E80506D5CF
:1030A000226C42F0010222646FF480725A6116F4BD
:1030B000813F08D0E90506D5226C42F00202226465
:1030C0006FF400725A6116F4823F36D0EA0534D5A7
:1030D00094F83E70618D94F83D20206B202F89B2CA
:1030E000D2B258D1002956D102F0F701212903D0DC
:1030F000282A50D121284ED194F83D20E16A042994
:10310000D2B201D008292CD1282A2AD12B4AE26236
:103110005A6822F4E0625A606FF480625A611A6859
:1031200022F480621A60002320222363204684F860
:103130003D2084F83E30FFF7A6FB16F4843F09D00B
:10314000EB0507D5236C43F00803236423686FF471
:1031500000625A61236C73B32046BDE8F840FFF764
:1031600097BB212A23D11549E1622263202284F8EA
:103170003D20002284F83E205A6822F4E0625A6022
:103180006FF480625A611A6822F480621A602046E5
:10319000FFF776FBD1E7226C42F00402226494F838
:1031A0003E20102A02BF1A6842F400721A606FF4BF
:1031B00080625A61C1E7F8BD000101000000FFFF15
:1031C000806B08B50368416B1A6822F480621A604C
:1031D000002242850A65816B0A6590F83D106029DE
:1031E0004FF0200180F83D1080F83E2007D10264A6
:1031F0001A6822F001021A60FFF749FB08BD1A683D
:1032000022F001021A60FFF741FB08BDF0B5064647
:103210008BB0002864D00323344680F8B93302F021
:103220001FFB54F8100B01F0CAFD0FCC6D460FC503
:103230000FCC0FC594E8030085E80300371D97E81D
:103240000E00306801F07BFD0021306801F0BDFD0B
:1032500000213346324606F110040125084682F863
:103260003810D18701310F2982F8395082F83B009C
:1032700010645064D06402F11C02F0D10022D6F830
:1032800000E0114602F1400083F8F821DA870EEBE6
:10329000800001320F2A83F8F91183F8FB11C3F87B
:1032A0000012C3F80412C3F80C12416003F11C03AE
:1032B000E8D10FCC6D460FC50FCC0FC594E80300C5
:1032C00085E80300704697E80E0001F095FD0123A4
:1032D00086F8B933306802F0B2F800200BB0F0BDC8
:1032E0000120FBE790F8B833012B10B504460CD051
:1032F000012380F8B833006802F095F8206801F0E7
:1033000058FD002084F8B80310BD022010BD000055
:103310002DE9F04FD0F8009087B00446484602F0FF
:10332000C8F80290002840F02E81206802F093F83F
:10333000002800F02881206802F08DF8850748BF3A
:103340002268206842BF536903F00203536102F010
:1033500082F810F400250AD0206802F080F809F500
:1033600030660746A2460025002F40F00F812068F6
:1033700002F071F841030BD5206802F078F8264678
:10338000039009F510680025039B002B40F03F8156
:10339000206802F060F800280DDAD9F8043823F02C
:1033A0000103C9F80438204602F0D0FA22685369B4
:1033B00003F000435361206802F04DF806050BD579
:1033C000D9F80838D80702D5204602F0A7FA2268B3
:1033D000536903F400635361206802F03CF8C104B0
:1033E00037D509F500667368206823F00103736020
:1033F000102101F09DFD616809F51063FF2202981C
:10340000884240F092814FF0FF33B361F36943F09B
:103410000113F361236B002B00F08F81D6F8843009
:1034200043F00B03C6F88430736C43F00B037364F2
:10343000D9F80038217C206823F4FE63C9F80038ED
:1034400004F56F7202F054F82268536903F4805354
:103450005361206801F0FFFF82041DD5206802F04F
:103460002CF82068C36823F47053C36001F089FD11
:10347000002840F06B812268E0604FF400736361C4
:10348000D36843F41053D360204602F036FA226822
:10349000536903F400535361206801F0DCFFC30655
:1034A0002BD52268936923F010039361D9F820602B
:1034B000C6F34343022B06F00F0840F0A88147F6FD
:1034C000F0731E4214D01C2707FB0847C6F30A16E8
:1034D0003246D7F80412484601F04FFFD7F80432BD
:1034E0003344C7F80432D7F810321E44C7F81062CC
:1034F0002268936943F010039361206801F0ABFFE9
:10350000070707D5204602F0F4F92268536903F053
:1035100008035361206801F09EFFC60208D5E9B296
:10352000204602F01BFA2268536903F480135361AA
:10353000206801F090FF800208D5E9B2204602F031
:1035400009FA2268536903F400135361206801F0FB
:1035500082FF410007D5204602F004FA2268536931
:1035600003F080435361206801F075FF42070AD5DC
:1035700023685D686B0702D5204602F0F7F92368DF
:103580005A6815435D6007B0BDE8F08FF80738D57D
:103590005FFA85FB5946206801F071FF10F0010FBA
:1035A000804621D0216901239942B3600CD1316951
:1035B000DAF80002C1F31201411ACAF81012DAF85F
:1035C00004120844CAF804025946204602F080F961
:1035D0002169012908D13DB9D4F80C2222B904F59A
:1035E0006F72206801F084FF18F0080F04D02046A5
:1035F00002F068F90823B36018F0100F1CBF102305
:10360000B36001357F0820360AF11C0AACE6039B43
:10361000DA0758D55FFA85FB5946206801F039FF73
:10362000C307074620D5D9F834380121A94023EA39
:103630000103C9F834380123C8F808302369012B85
:1036400001BF736C326C9B1873645946204602F0BC
:1036500048F92169012907D135B9E36C23B904F58B
:103660006F72206801F044FF380744BF0823C8F890
:103670000830F90644BF1023C8F808307A0644BF62
:103680004023C8F80830BB0744BF0223C8F80830FD
:103690003F0618D523680493F76C336DFF1A336C1B
:1036A0009F4228BF1F46049B03F5106307F1030ADE
:1036B00003EB45134FEA9A0A0593059B9B699BB25E
:1036C000534508D82FB3039B5B08013503931C3681
:1036D00008F1200858E6326DF36C9342F2D9002BC2
:1036E000F0D0376C04989B1A9F4228BF1F46237C5A
:1036F00000935A46BBB2716C01F02BFE736C3B44D5
:103700007364336D07F1030A3B444FEA9A0A336549
:10371000D3E7049B012203F5006BD3F83438AA40A9
:1037200023EA0203CBF83430CDE702989A600130E7
:10373000C3F808220290203361E6736943F00B035B
:103740007361336943F00B03336171E60323E36074
:103750004023636100F0F8FB344B354A0344934245
:10376000236804D8DA6842F47052DA608CE6314A91
:10377000314902448A4203D8DA6842F46052F4E7DD
:10378000A0F574022D49A2F510528A4203D8DA68D6
:1037900042F45052E9E7A0F183722949A2F5E742C9
:1037A0008A4203D8DA6842F44052DEE7254A2649C5
:1037B00002448A4203D8DA6842F43052D5E7234AF9
:1037C000234902448A4203D8DA6842F42052CCE703
:1037D000204A214902448A4203D8DA6842F410524E
:1037E000C3E7A0F1B7721D49A2F558528A4203D827
:1037F000DA6842F40052B8E7194A1A4902448A4288
:10380000DA6894BF42F4E05242F4C052ADE7062BAE
:103810007FF46EAE082204F56F7148461C2701F054
:10382000ACFD07FB0847C6F30A165CE6405327FFCA
:10383000FF340C00401E1BFF3F420F007F4F120061
:103840001FD6130060B6E5FE5FE3160000D3CEFE80
:103850003F771B00C05BB3FEBF9121001F7538008E
:10386000E05459FEDF9C410090F8B833012B10B5AD
:10387000044609D0012380F8B833006801F0C3FD85
:10388000002084F8B80310BD022010BD70B54EB200
:10389000002E04464FF01C0501F07F00B5BF05FB6C
:1038A000004105FB0141383101F5FC71C0B2002E29
:1038B000B8BFC880022BCB704FEAD67504BF002377
:1038C0000B7108704D7094F8B8338A60012B09D0E1
:1038D000012384F8B833206801F06EFB002084F8DF
:1038E000B80370BD022070BD4BB2002B10B54FF075
:1038F0001C02044601F07F00B5BF02FB004102FB41
:103900000141383101F5FC71DB0F08704B7094F800
:10391000B833012B09D0012384F8B833206801F0B3
:103920008AFB002084F8B80310BD022010BD38B512
:1039300001F07F051C2404FB050104FB050401F5CF
:10394000FC71C4F80C320023C4F80422C4F810320D
:1039500084F8F93184F8F85103690068012B08BF35
:10396000C4F80822DAB21DB901F086FC002038BD87
:1039700001F0BCFBFAE71C2301F00F0103FB01017E
:10398000B1F81002704738B501F07F051C2404FB24
:10399000050104FB05043831E3640023236501239A
:1039A000626484F8393084F8385003690068012B68
:1039B00008BFA264DAB21DB901F05EFC002038BD78
:1039C00001F094FBFAE738B54BB2002B01F07F050C
:1039D0004FF01C02B5BF02FB050102FB01013831AB
:1039E00001F5FC710122DB0FEDB28A700D704B7096
:1039F00090F8B833934204460FD080F8B82300689B
:103A000001F0C9FC2DB904F56F72217C206801F02A
:103A10006FFD002084F8B80338BD022038BD38B5EA
:103A20004BB2002B05464FF01C0201F07F00B5BFE2
:103A300002FB005102FB0151383101F5FC71DB0F33
:103A400000248C7008704B7095F8B833012B09D0A6
:103A5000012385F8B833286801F0BCFC85F8B84329
:103A6000204638BD022038BD006870B5436A21B9D0
:103A700043EA02438362002070BD846A002503EBA1
:103A800014434E1EECB2B44205F1010506DB3F3192
:103A900000EB810043EA02434360ECE7403400EB73
:103AA0008404646803EB1443ECE703680020596264
:103AB000704700002DE9F341044618B9012002B017
:103AC000BDE8F0810368DD0710D42368980758D457
:103AD00023681A0700F19A8023685B0700F1B88019
:103AE000A269002A40F019810020E8E7A64B9A68F5
:103AF00002F00C02042A07D09A6802F00C02082A8D
:103B00000AD15B68590207D59F4B1B689A03DCD525
:103B10006368002BD9D1D1E763689B4DB3F5803F33
:103B200011D12B6843F480332B60FEF7A3FA964D36
:103B300006462B689B03C8D4FEF79CFA801B6428BA
:103B4000F7D90320BBE7B3F5A02F04D12B6843F4CA
:103B500080232B60E5E72A6822F480322A602A68F5
:103B600022F480222A60002BDFD1FEF783FA06467A
:103B70002B689F03A9D5FEF77DFA801B6428F7D92F
:103B8000DFE7814B9A6812F00C0F07D09A6802F0B9
:103B90000C02082A11D15B685E020ED47A4B1A68B7
:103BA000950702D5E268012A88D11A68216922F0B6
:103BB000F80242EAC1021A608AE7E268734BB2B1C6
:103BC00001221A60FEF756FA6F4D06462B689807D9
:103BD00007D52B68226923F0F80343EAC2032B6060
:103BE00076E7FEF747FA801B0228EFD9A9E71A60AB
:103BF000FEF740FA644D06462B6899077FF568AFDB
:103C0000FEF738FA801B0228F6D99AE76269604B02
:103C10007AB101221A60FEF72DFA5B4D06466B6FF2
:103C20009F073FF559AFFEF725FA801B0228F6D90A
:103C300087E71A60FEF71EFA534D06466B6F98072A
:103C40007FF54AAFFEF716FA801B0228F6D978E70F
:103C50004D4B1A6C12F0805228D101921A6C42F02E
:103C600080521A641B6C03F080530193019B012660
:103C7000484D2B68D9051BD5A368434D012B27D18F
:103C80002B6F43F001032B67FEF7F4F93E4D074617
:103C900041F288382B6F9B0739D5002E3FF420AFB7
:103CA000394A136C23F08053136419E70026DFE7C9
:103CB0002B6843F480732B60FEF7DCF907462B6812
:103CC000DA05D9D4FEF7D6F9C01B0228F7D938E7B0
:103CD000052B04D12B6F43F004032B67D0E72A6F29
:103CE00022F001022A672A6F22F004022A67002BC1
:103CF000CAD1FEF7BFF941F2883807462B6F980703
:103D0000CBD5FEF7B7F9C01B4045F7D919E7FEF749
:103D1000B1F9C01B4045BDD913E71B4DAB6803F09B
:103D20000C03082B3FF4CAAE1B4E0023022A33605B
:103D300034D1FEF79FF907462B6899011ED4226AF9
:103D4000E3691343626A43EA8213E26A43EA026365
:103D5000A26A0D4C5208013A43EA02436B60012308
:103D60003360FEF787F9054623689A013FF5BCAE3C
:103D7000FEF780F9401B0228F6D9E2E6FEF77AF951
:103D8000C01B0228D8D9DCE60038024000004742B8
:103D9000800E47420070004060004742FEF76AF91B
:103DA00004462B689B017FF59FAEFEF763F9001B6D
:103DB0000228F6D9C5E600BF134908B58B6803F0A1
:103DC0000C03042B03D0082B03D0104808BD104867
:103DD00008BD4A684B68496813F4800314BF0C4857
:103DE0000A48C1F3881118BF002302F03F02A1FB6B
:103DF0000001FCF735FF044B5B68C3F3014301335B
:103E00005B00B0FBF3F008BD003802400024F40072
:103E100000127A002DE9F0410D46044610B9012048
:103E2000BDE8F081444B1A6802F00F028A4228D3A1
:103E300021688F072DD4C80740D43F4B1A6802F081
:103E40000F02954266D3226851076CD4130707D539
:103E50003A4A2169936823F4604343EAC1039360BB
:103E6000FFF7AAFF354B364A9B68C3F30313D35CB5
:103E7000D840344B18600020FDF748FC0020BDE816
:103E8000F081CAB21A701B6803F00F039942C6D1C1
:103E9000CEE72A4B11F0040F1EBF9A6842F4E0529D
:103EA0009A600E0742BF9A6842F460429A609A682C
:103EB000A06822F0F00202439A60BCE762681F4BE0
:103EC000012A1DD11B6813F4003FA8D01B4EB36814
:103ED00023F003031343B360FEF7CCF841F28838B4
:103EE0000746B368626803F00C03B3EB820FA4D0FB
:103EF000FEF7C0F8C01B4045F3D90320BDE8F081B0
:103F0000911E01291B6802D813F0007FDDE713F032
:103F1000020FDAE7EAB21A701B6803F00F039D4242
:103F20007FF47DAF8FE70549E0688B6823F4E053A9
:103F300003438B608AE700BF003C02400038024028
:103F400081BD000800000020014B1868704700BFC9
:103F500000000020044B054A9B68C3F38223D35C16
:103F6000034A1068D84070470038024091BD0008ED
:103F700000000020044B054A9B68C3F34233D35C26
:103F8000034A1068D84070470038024091BD0008CD
:103F9000000000200F2303600B4B9A6802F003021D
:103FA00042609A6802F0F00282609A6802F4E0527D
:103FB000C2609B68DB0803F4E0530361034B1B689A
:103FC00003F00F030B60704700380240003C0240D2
:103FD0000368F7B59A07044640F08880236813F019
:103FE0000C0F44D0804D814E00232B60FEF742F829
:103FF000074633689B0000F1BD8021684F0715D547
:104000006369D6F8882020691B0602F0E04243EA83
:1040100080131343C6F88830D6F88C30226A23F414
:10402000F853013A43EA0223C6F88C300E0714D540
:104030006E4AA369D2F8881020691B0701F07061ED
:1040400043EA80130B43C2F88830D2F88C30616A9F
:1040500023F440330B43C2F88C3001232B60FEF76E
:1040600009F8624D06462B68980040F18A80236863
:104070009A0631D5002301935C4B5D4D1A6C42F0DA
:1040800080521A641B6C03F080530193019B2B68D0
:1040900043F480732B60FDF7EDFF06462B68D905CE
:1040A00076D5524D2B6F13F4407377D1A36A03F486
:1040B0004072B2F5407F4D4A40F09180916823F004
:1040C000704021F4F81120F4407001439160116FA9
:1040D000C3F30B030B431367206810F010001FBFDE
:1040E000444B94F82C201A60002041E0424D3F4E92
:1040F00000232B60FDF7BEFF074633681B0131D458
:104100002268D70706D5A36861681B0743EA8113B5
:10411000C6F88430900715D5344AE368D2F8841085
:1041200060681B0601F0E04143EA80130B43C2F8CC
:104130008430D2F88C10E36921F01F01013B0B435E
:10414000C2F88C3001232B60FDF794FF274D064603
:104150002B6819013FF542AFFDF78CFF801B022849
:10416000F6D904E0FDF786FFC01B0228C5D903205D
:1041700003B0F0BDFDF77EFFC01B02287FF639AF0C
:10418000F5E7FDF777FF801B02287FF66CAFEEE7BF
:10419000FDF770FF801B022880D9E8E7A26A02F4CD
:1041A0004072934282D02B6F144A0121116023F494
:1041B0004073002111602B672B6FDA077FF576AF14
:1041C000FDF758FF41F2883706462B6F9B073FF5F6
:1041D0006DAFFDF74FFF801BB842F6D9C7E7916876
:1041E00021F4F81172E700BF700047420038024026
:1041F00000700040E011474268004742400E4742CD
:10420000026838B5D36823F0A003D3600446FDF7F5
:1042100031FF05462368DB689B0601D5002038BDC9
:10422000FDF728FF401BB0F57A7FF3D9032038BD96
:1042300038B50368DA685206044601D5002038BD57
:104240004FF0FF32DA60FDF715FF05462368DB68A3
:104250005B06F3D4FDF70EFF401BB0F57A7FF5D96E
:10426000032038BD38B50446B8B1437F03F0FF02E0
:1042700013B90277FDF7E0F9022363772368CA22B6
:104280005A6253225A622046FFF7D2FF236805463E
:1042900028B1FF225A620423637701252EE09A6831
:1042A000206922F4E00222F040029A606268996874
:1042B0000243606902430A439A60E2681A611A691C
:1042C000A16842EA01421A61DA6822F08002DA60EB
:1042D0009B689B0605D42046FFF792FF08B1236830
:1042E000D7E72368A1691A6C22F480221A641A6C39
:1042F0000A431A64FF225A6201236377284638BDB5
:104300000023092803D840EA0310C0B270470A38D6
:104310000133C0B2F5E7F8B5037F012B05464FF036
:10432000020630D00123037746774B78C8788E7821
:104330000C78002A48D1DA0603D523F010030A339B
:104340004B70FFF7DDFF07464878FFF7D9FF0246BD
:104350003046FFF7D5FF40EA443040EA074040EAE4
:1043600002242B68CA225A6253225A622846FFF757
:104370005FFF2B68064640B1FF225A6204236B7729
:1043800000232B7701263046F8BD24F07F4424F02B
:10439000C0045C60DA6822F08002DA609B689B06E9
:1043A0000AD42846FFF72CFF30B12B68FF225A624F
:1043B00004236B772E77E5E72B68FF225A620123EF
:1043C0006B7700232B77DEE71B0243EA0040304384
:1043D00040EA4434C5E7F8B5037F012B06460F4693
:1043E0004FF002052FD00123037703684577087843
:1043F0004D788C789B6842BB13F0400308BFCB70AC
:10440000FFF77EFF01462846FFF77AFF0246204667
:10441000FFF776FFFB7840EA034040EA014040EABC
:1044200002243368CA225A6253225A623046FFF786
:10443000FFFE33680546A8B1FF225A620423737752
:104440000023337701252846F8BD13F040034FEAD7
:10445000052508BFCB7045EA00402043CC7840EAF0
:104460000444DEE704F07F3424F0FE441C609A68C4
:10447000386922F480229A60FA68996802430A43F4
:104480009A60DA6822F08002DA609B689B060AD4A0
:104490003046FFF7B5FE30B13368FF225A6204237D
:1044A00073773577CEE73368FF225A62012373773B
:1044B00000233377C7E70368503343F82120704760
:1044C0000368503353F8210070472DE9F041069EF0
:1044D0000446884617461D462268936838EA030357
:1044E0000CBF012300239F4202D10020BDE8F081D0
:1044F0006B1CF2D055BB23685A6822F0E0025A6068
:104500006268B2F5827F0AD1A268B2F5004F02D08C
:10451000B2F5806F03D11A6822F040021A60A26AD5
:10452000B2F5005F09D11A6822F400521204120C8D
:104530001A601A6842F400521A60012384F851305C
:10454000002384F850300320BDE8F081FDF792FD90
:10455000801B8542C0D8CEE713B50B460092802160
:1045600000220446FFF7B1FF20B1636D43F0200342
:104570006365032002B010BD10B50446002836D094
:104580000023836290F8513003F0FF021BB980F8DA
:104590005020FDF70BF82168A068A269022384F877
:1045A00051300B6823F040030B6063680343E068FD
:1045B00003432069034360690343E0690343206ABE
:1045C0000343A06A034302F4007003430B60120C20
:1045D000636A02F004021A434A60CB6923F4006361
:1045E000CB6100200123606584F8513010BD0120AB
:1045F00010BD2DE9F043994690F8503085B0012B5D
:1046000004460D4616460C9F00F0ED80012380F80D
:104610005030FDF72FFD94F851306168DBB2012B6B
:1046200080460AD0B1F5827F40F0DB80A268002A84
:1046300040F0D780042B40F0D480002D4ED0002EC7
:104640004CD0B9F1000F49D094F85130A663012B3A
:1046500004BF052384F85130002363652364636439
:104660002368A4F83E90A4F836901A68A4F83C9009
:10467000500658BF1A68256358BF42F04002A4F89C
:10468000349058BF1A60E268B2F5006F5DD119B17D
:10469000E28E92B2012A06D135F8022BDA60E38E5F
:1046A000013B9BB2E3864FF00109E38E9BB2BBB99D
:1046B000E38F9BB2A3B9CDF800803B4601220221D3
:1046C0002046FFF702FF002835D1424639462046F2
:1046D000FFF742FF002879D02023636501202BE0FB
:1046E000B9F1000F0FD0E38E9BB263B123689A68D3
:1046F000910708D535F8022BDA60E38E013B9BB2B7
:10470000E3864FF00009E38F9BB263B123689A6898
:10471000D20708D5DB6826F8023BE38F013B9BB24A
:10472000E3874FF00109781CBFD0FDF7A3FCA0EB95
:1047300008008742B9D80320012384F851300023B0
:1047400084F8503005B0BDE8F08319B1E28E92B222
:10475000012A06D115F8012B1A73E38E013B9BB297
:10476000E3864FF00109E38E9BB21BB9E38F9BB246
:10477000002BA0D0B9F1000F0FD0E38E9BB263B134
:1047800023689A68910708D52A781A73E38E013B4B
:104790009BB2E38601354FF00009E38F9BB263B112
:1047A00023689A68D20708D5DB683370E38F013B32
:1047B0009BB2E38701364FF001097B1CD3D0FDF794
:1047C00059FCA0EB08008742CDD8B4E7A368002BC2
:1047D000B2D123680390DA6803929B680393039B2A
:1047E000AAE70220A8E70220ACE77047026802238C
:1047F00080F83930136843F001031360012380F817
:104800003930002070470368DA6842F00102DA604C
:104810001A6842F001021A60002070477047704722
:104820007047704703681A69910710B504460ED5A2
:10483000DA6892070BD56FF002021A619B690122B8
:104840009B07027677D0FFF7EAFF002323762368E1
:104850001A69500710D5DA6851070DD56FF00402B8
:104860001A619B69022213F4407F2276204668D0A9
:10487000FFF7D5FF0023237623681A6912070FD5A7
:10488000DA6810070CD56FF008021A61DB690422A0
:104890009907227620465AD0FFF7C1FF00232376DE
:1048A00023681A69D20610D5DA68D0060DD56FF0E4
:1048B00010021A61DB69082213F4407F2276204639
:1048C0004BD0FFF7ACFF0023237623681A69D1078A
:1048D00008D5DA68D20705D56FF001021A612046C3
:1048E000FCF7D8FD23681A69100608D5DA681106A6
:1048F00005D56FF080021A61204600F0B4F82368F5
:104900001A69520608D5DA68500605D56FF04002DC
:104910001A612046FFF785FF23681A69910622D5A0
:10492000DA6892061FD56FF0200220461A61BDE8B2
:10493000104000F097B8FFF771FF2046FFF770FFB7
:1049400083E7FFF76BFF2046FFF76AFF92E7FFF769
:1049500065FF2046FFF764FFA0E7FFF75FFF2046F3
:10496000FFF75EFFAFE710BD2E4A0368904212D0FA
:10497000B0F1804F0FD0A2F57C4290420BD002F5EF
:104980008062904207D002F58062904203D002F527
:10499000784290421DD14A6823F070031343214AA4
:1049A000904204D1CA6823F44073134328E0B0F165
:1049B000804FF7D01C4A9042F4D002F580629042BA
:1049C000F0D002F580629042ECD002F5784290423D
:1049D000E8D0164A9042E5D002F580629042E1D0DC
:1049E00002F580629042DDD0A2F598329042D9D093
:1049F00002F580629042D5D002F580629042D1D01B
:104A000003608B68C3620B688362064B984206D0D2
:104A100003F58063984202D00123436170470B691C
:104A20000363F9E70000014000040040004001403A
:104A300010B50446A0B190F8393003F0FF021BB95D
:104A400080F83820FFF7D1FE022384F8393020683F
:104A5000211DFFF789FF012384F83930002010BDA4
:104A6000012010BD704770472DE9F0470668C26805
:104A70003369C16923F440531343336104468368A7
:104A80000069F2680343606922F41642034322F08E
:104A90000C020B431343F3607369A26923F4407360
:104AA0001343B1F5004F73617A4B7CD19E4203D022
:104AB00003F580639E4244D1FFF75CFA192505FB9C
:104AC00000F360684FF064094000B3FBF0F3B3FB00
:104AD000F9F34FEA0318FFF74DFA636868435B0088
:104AE000B0FBF3F7FFF746FA636868435B00B0FB7F
:104AF000F3F3B3FBF9F309FB1373DB003233B3FBBE
:104B0000F9F35B0003F4F877FFF734FA626868435F
:104B10005200B0FBF2FAFFF72DFA636868435B00BE
:104B2000B0FBF3F3B3FBF9F309FB13A3DB00323360
:104B3000B3FBF9F303F0070343443B44B360BDE820
:104B4000F087FFF707FA192505FB00F360684FF0BF
:104B500064094000B3FBF0F3B3FBF9F34FEA031829
:104B6000FFF7F8F9636868435B00B0FBF3F7FFF702
:104B7000F1F9636868435B00B0FBF3F3B3FBF9F34F
:104B800009FB1373DB003233B3FBF9F35B0003F46F
:104B9000F877FFF7DFF9626868435200B0FBF2FA7A
:104BA000FFF7D8F9B9E79E4202D03B4B9E4240D175
:104BB000FFF7E0F9676819254FF0640905FB00F37A
:104BC000BF00B3FBF7F3B3FBF9F31F01FFF7D2F913
:104BD000636868439B00B0FBF3F8FFF7CBF96368A9
:104BE00068439B00B0FBF3F3B3FBF9F309FB1383BA
:104BF0001B013233B3FBF9F303F0F008FFF7BAF906
:104C0000626868439200B0FBF2FAFFF7B3F9636899
:104C100068439B00B0FBF3F3B3FBF9F309FB13A369
:104C20001B013233B3FBF9F303F00F0343EA08032C
:104C300083E7FFF78FF9676819254FF0640905FBD3
:104C400000F3BF00B3FBF7F3B3FBF9F31F01FFF76A
:104C500081F9636868439B00B0FBF3F8FFF77AF9CA
:104C6000636868439B00B0FBF3F3B3FBF9F309FB04
:104C700013831B013233B3FBF9F303F0F008FFF7A2
:104C800069F9626868439200B0FBF2FAFFF762F9D3
:104C9000BDE700BF001001400014014010B50446FC
:104CA00040B390F8393003F0FF021BB980F8382088
:104CB000FCF7ECFC2268242384F83930D36823F411
:104CC0000053D3602046FFF7CFFE23681A6922F411
:104CD00090421A615A6922F02A025A61DA6842F453
:104CE0000052DA6000202023E06384F8393084F831
:104CF0003A3010BD012010BD90F83A30202B1CD165
:104D0000C9B1C2B190F83830012B16D0C285828566
:104D100000232222C36380F83A200268816251692D
:104D200080F8383041F001015161D16841F490714F
:104D3000D16018467047012070470220704784B048
:104D400038B505AD85E80E000A9B012B044626D137
:104D5000836B23F480338363C36823F4840323F0D9
:104D60004003C360C36823F44013C360119B012B4D
:104D700002BFC36843F48013C36000F0DDFB089BEF
:104D8000012B07D1A36843F00603A360A36843F097
:104D90002003A360BDE83840002004B07047C3681A
:104DA00043F04003C36000F0C7FB4FF48033A363BC
:104DB000E5E7836843F00103836000207047836860
:104DC00023F0010383600020704708B5C368012900
:104DD00023F0C043C36008D1C36843F00053C360ED
:104DE0003220FDF74DF9002008BD0029F8D1C36835
:104DF00043F08043C360F3E784B02DE9F0410446FB
:104E000007A880E80E00119E0A9FA36B8846A6B9EA
:104E100043F40013A3630023C4F8003ED4F8003821
:104E2000C4F800380C9B012B04F500655ED109998C
:104E300039B9204600F09EF807E043F40023A3634D
:104E4000E9E71946204600F095F81021204600F0C9
:104E50006FF8204600F07EF800234FF0FF322B6100
:104E600019466B614FF09040AA614FF0FF0EEB6165
:104E700004F5106243453BD1002104F53062084639
:104E80004FF0904E4FF0FF0C8B423ED12B69012F1B
:104E900023F480732B6108D1234B2B632B6B43F4DA
:104EA000803343F003032B632B6B0023A3616FF06C
:104EB000804363611FB9A36943F01003A361A26932
:104EC0001A4B1343A3610D9B1BB1A36943F0080365
:104ED000A361012E01BFA36943F0804343F00403A3
:104EE000A361BDE8F041002004B070470321A0E7B2
:104EF000D2F800C0BCF1000FB4BF106011600133E4
:104F00001161C2F808E02032B4E7D2F80080B8F1AD
:104F1000000FB4BFC2F800E0106001311061C2F8A8
:104F200008C02032B0E700BF0001800000383C809C
:104F3000890141F02001064A0161013A05D0036967
:104F400013F02003F9D1184670470320704700BFC3
:104F5000410D03001023064A0361013A05D003699D
:104F600013F01003F9D1184670470320704700BFB3
:104F7000410D0300D0F800381943C0F80018002094
:104F8000704700F50062D0F8080810F0060012D053
:104F9000936803F00603022B0CD0936803F006031A
:104FA000062B07D0936803F00603042B14BF0020E0
:104FB000022070470320704730B54B780C78D0F84A
:104FC0001C5800F50062012B1BD1A3409BB22B4360
:104FD00000F51060D36100EB44131A6812040ED47C
:104FE0008A68C8781D68C2F30A0242F0805242F40F
:104FF000004242EA804040EA845028431860002082
:1050000030BD4FF48033A34000F530602B4300EBFC
:105010004410D36103681B04F1D48B68C97802681B
:10502000C3F30A0343F0805343F4004343EA81434C
:1050300013430360E3E700F001B8000070B54B785C
:10504000012B0E46054609784FF0200326D100F5C6
:10505000106213FB01231A6822F400421A604FF019
:1050600000621A604FF080421A601F4A013A01D173
:10507000032070BD9C6814F08044F7D110212846AD
:10508000FFF756FF3178D5F81C2801238B409BB2DF
:1050900022EA0303C5F81C38204670BD00F53062D3
:1050A00013FB01231A6822F400421A604FF00062D9
:1050B0001A604FF080421A600B4A013AD8D09868C3
:1050C00010F01000F9D1D5F8043843F48063C5F826
:1050D0000438D5F81C384FF480328A4023EA0203A2
:1050E000C5F81C3870BD00BF410D0300F7B54B7803
:1050F0000C78012B4B6977D1202600F5106516FB43
:1051000004542669002B38D126F0FF5626F4C01629
:105110002661266946F4002626612669F60CF60407
:105120002661012A50D10C780E6905EB44146661A2
:10513000CE78012E0FD1D0F808480F7814F4807F74
:105140004FF0200414FB075427680CBF47F00057AA
:1051500047F0805727600F7805EB4715012E2C6824
:1051600044F004442C6005D100929BB23A46C968D1
:1051700000F0EFF8002003B0F0BDF60CF604266155
:1051800026698F6826F0FF5626F4C0162661DE19C0
:10519000013EB6FBF7F7374ED4F810E006EAC746F3
:1051A00046EA0E0626612769C3F312063E432661CE
:1051B000CE78012E5AD1266926F0C046266126698E
:1051C00046F000562661ACE7CE78012EB3D0002B16
:1051D000AED091F800E0D0F83478012404FA0EF44F
:1051E0003C43C0F83448A3E700F5306505EB4414B0
:1051F0002569ED0CED042561256925F0FF5525F4A1
:10520000C01525618D68FBB92369C5F312051D43DF
:105210002561236943F400232361012A04BFCB687D
:105220006361CB78012B0AD1D0F8083813F4807F62
:1052300023680CBF43F0005343F08053236023687E
:1052400043F00443236095E70A4E27692B44013B52
:10525000B3FBF5F306EAC3463E4326619BB22669DB
:105260005D43C5F3120535432561D6E7012AAED16A
:1052700059E700BF0000F81F4B78012B70B50B7881
:105280004D6943D1202400F5106614FB03631C69AB
:10529000CDB924F0FF5424F4C0141C611C6944F4FB
:1052A00000241C611C69E40CE4041C610D7806EB0D
:1052B0004513012A1C6844F004441C601BD10A6990
:1052C0005A61002070BDE40CE4041C611C6924F0E8
:1052D000FF5424F4C0141C618C68A54288BF4C6143
:1052E0001C6944F400241C614C691D69C4F3120458
:1052F0002C431C61DAE74B69002BE2D0D0F834284C
:105300000123AB401343C0F83438DAE700F53060CE
:1053100000EB43100369DB0CDB040361036923F03A
:10532000FF5323F4C01303618B6805B14B6104691B
:1053300044F4002404610469C3F312032343012AE3
:10534000036104BFCB684361036843F00443036017
:10535000B7E710B59DF808404CB9033300F580500D
:1053600023F0030300EB02320B44994201D10020E9
:1053700010BD51F8040B1060F7E7033222F003026E
:105380000A4400F58050914201D1084670470368F5
:1053900041F8043BF7E74B780A78012B4FF02003E4
:1053A0000BD100F5106013FB02000368002B0BDB30
:1053B000036823F08043036006E000F5306013FBD0
:1053C00002000368002BF3DA036843F40013036060
:1053D000002070474B780A78012B0CBF00F5106055
:1053E00000F53060202313FB0200036823F4001350
:1053F0000360CB78023B012B9EBF036843F08053D0
:10540000036000207047D0F8003823F4FE63C0F832
:105410000038D0F80038090101F4FE611943C0F8E2
:1054200000180020704708B5D0F8043823F00203B4
:10543000C0F804380320FCF723FE002008BD08B59F
:10544000D0F8043843F00203C0F804380320FCF716
:1054500017FE002008BD4269806910407047D0F8EF
:10546000183800F50060C0691840000C7047D0F88B
:10547000183800F50060C069184080B2704700F528
:10548000306303EB411100F500608A684069104009
:10549000704710B5D0F81048D0F8343800EB411000
:1054A000CB4000F51060DB018068DBB2234318407D
:1054B00010BD406900F001007047D0F8003923F4B6
:1054C000FF6323F00703C0F8003900F500639A6812
:1054D00002F00602042A02BFD0F8002942F00302BB
:1054E000C0F800295A6842F480725A600020704760
:1054F00010B50024C0F8104BD0F8104B44F4002431
:10550000C0F8104BD0F8104B44F01804C0F8104B02
:10551000D0F8104B012900F5306344F0C04408BFB7
:105520004FF08023C0F8104B04BFC0F8142BC0F814
:10553000003B002010BD00000A4B013B01D10320BD
:1055400070470269002AF8DA0369064A43F001034A
:105550000361013AF3D0036913F00103F9D118464E
:10556000704700BF410D0300D0F818321BB1002076
:10557000C3F81402704702207047D0F81C3210B5EF
:10558000D0F818425BB194F80002FF2807D09B685E
:1055900094F8012221469847FF2384F80032002026
:1055A00010BD0000432303800048704740000020E6
:1055B0004323038000487047840000204323038076
:1055C00000487047D40000200A2303800048704739
:1055D000C800002038B50546D0F8184200F084FA1B
:1055E000D5F81832C4F80C024BB1D5F81C32D4F8F7
:1055F0000402DB6804F503719847002038BD0220DF
:1056000038BD0000F8B50F7817F0600306460C4669
:1056100023D0202B19D1CA884B78C2B13906D0F8D3
:1056200018520BD5D0F81C1218468F682946B84777
:10563000E2882946304600F08FFD06E085F800320A
:1056400085F80122294600F09CFD0020F8BDD0F825
:105650001C0284681846A047F7E74B780A2BF4D160
:1056600001220149E7E700BF0C10002010B581219D
:10567000044600F0D1F90121204600F0CDF9822145
:10568000204600F0C9F9D4F8183253B1D4F81C32CE
:105690005B689847D4F8180204F0ACFA0023C4F809
:1056A0001832002010BDF8B5037C04467BBB4FF4D4
:1056B00000730222812100F09FF94FF4007302224F
:1056C0000121204600F098F9082303228221204678
:1056D00000F092F94FF4077004F084FA0646C4F81B
:1056E000180220B3D4F81C321B689847277C002589
:1056F000C6F81452C6F8185287B94FF40073D6F89A
:1057000004220121204600F0E1F93846F8BD40238B
:105710000222812100F070F94023D0E74023D6F81F
:1057200004220121204600F0D1F92846F8BD0120CD
:10573000F8BD19B1C0F81C12002070470220704754
:10574000D0F818320020C3F80812C3F810227047AE
:10575000D0F818320020C3F804127047D0F818228D
:1057600010B572B1D2F81442012364B9C2F81432F0
:105770008121B2F81032D2F8082200F099F92046BF
:1057800010BD022010BD184610BDD0F8182210B56B
:1057900062B1047C44B94FF40073D2F804220121B1
:1057A00000F094F9002010BD4023F6E7022010BD60
:1057B00010B5094C09490022204600F09BF9084920
:1057C000204600F0ACF920460649FFF7B2FF20461C
:1057D000BDE8104000F0AAB93436022028010020AC
:1057E00008000020180100200020704700207047AA
:1057F00010B5054C01462046FFF7AAFF2046FFF7EB
:10580000C4FF002010BD00BF3436022010B5064C86
:10581000064900222046FFF793FF05492046FFF77F
:1058200097FF002010BD00BF34360220583A0220F6
:105830005838022010B5094CD4F81832D3F8143275
:105840000A4643B901462046FFF77AFF2046BDE8E5
:105850001040FFF783BF012010BD00BF3436022087
:1058600010B50368B3F1A04F86B025D14FF4C053F3
:1058700001930223029303230024049301A90A2322
:105880000E4805930394FCF795FC0D4B5A6B42F0C0
:1058900080025A6300945A6C42F480425A645B6CF2
:1058A00003F480430093432022460521009BFCF72C
:1058B0000DFC4320FCF73EFC06B010BD000002408A
:1058C0000038024000F56F71D0F8EC0300F045B9E4
:1058D0001C2303FB0103D0F8EC03D3F8042200F0EF
:1058E00069B91C2303FB0103D0F8EC035A6C00F0E8
:1058F00093B9D0F8EC0300F00FBA10B5C1680446B4
:10590000003118BF0121D0F8EC0300F0F3F9D4F80E
:10591000EC03BDE8104000F0CEB9000010B504461D
:10592000D0F8EC0300F0E9F92268D2F8003E43F029
:105930000103C2F8003E236A23B1034A136943F00E
:105940000603136110BD00BF00ED00E0D0F8EC03CA
:1059500000F0DCB9D0F8EC0300F0ECB9D0F8EC03BF
:1059600000F0E6B9D0F8EC0300F0E6B9D0F8EC03AB
:1059700000F0E4B908B5027852BB164B0421C3F815
:10598000EC03C0F820324FF0A04083E8030002216E
:105990001846D9601A615A619961DA611A625A62CD
:1059A000DA621A63FDF732FC20B14FF4A5710A48A0
:1059B000FBF7CAFD80210748FEF777F84022002157
:1059C0000448FEF751F8802201210248FEF74CF806
:1059D000002008BD583C022005BF000808B5D0F8DB
:1059E0002002FDF77FFC03289ABF024B185C0220BF
:1059F00008BD00BF01BF000810B51C46D0F820024A
:105A000013462246FDF742FF03289ABF014B185C5C
:105A1000022010BD01BF000808B5D0F82002FDF734
:105A200063FF03289ABF024B185C022008BD00BF29
:105A300001BF000808B5D0F82002FDF7C4FF032815
:105A40009ABF024B185C022008BD00BF01BF0008CE
:105A500008B5D0F82002FDF7E2FF03289ABF024BF9
:105A6000185C022008BD00BF01BF000811F0800FC4
:105A7000D0F820324FF01C021BBF01F07F0102FB67
:105A8000013102FB013191F83A0008BF91F8FA01A7
:105A90007047000008B5D0F82002FDF7E5FE0328A6
:105AA0009ABF024B185C022008BD00BF01BF00086E
:105AB00008B5D0F82002FDF766FF03289ABF024B15
:105AC000185C022008BD00BF01BF000808B5D0F86F
:105AD0002002FDF72CFF03289ABF024B185C02201E
