:020000040800F2
:100000000000032089C30008D92C0008DB2C00085D
:10001000DD2C0008DF2C0008E12C000800000000A7
:1000200000000000000000000000000081AC00089B
:10003000E32C00080000000011AD0008E52C0008CA
:10004000D9C30008D9C30008D9C30008D9C3000820
:10005000D9C30008D9C30008A52D00088D2D0008BC
:10006000752D00085D2D0008452D0008D9C3000836
:10007000D9C30008D9C30008E92D0008D9C3000876
:10008000D9C30008D9C30008D9C30008D9C30008E0
:10009000D9C30008D9C30008D9C300083D2D000802
:1000A000D9C30008E92C0008D9C30008D9C3000847
:1000B000D9C30008D9C30008D9C300080D2D000812
:1000C000312D0008252D0008192D0008D9C300087E
:1000D000D9C30008BD2D0008D9C30008D9C3000842
:1000E000D9C30008D9C30008D9C30008D9C3000880
:1000F000D9C30008D9C30008D9C30008D9C3000870
:10010000D9C30008D9C30008F9330008D9C30008CF
:10011000D9C30008D9C300088D330008012D000899
:10012000D9C30008D9C30008D9C30008D9C300083F
:10013000D9C30008D9C30008D9C30008D9C300082F
:10014000D9C30008D9C30008D9C30008F52C00089A
:10015000D9C30008D9C30008D9C30008D9C300080F
:10016000D9C30008D9C30008D9C30008D9C30008FF
:10017000D9C30008D9C30008D9C300080000000093
:10018000D9C30008D9C30008DD2D0008D9C3000871
:10019000D9C30008D9C30008D9C30008D9C30008CF
:0C01A000D9C30008D9C30008D9C3000867
:1001B00010B5054C237833B9044B13B10448AFF3A1
:1001C00000800123237010BD4003002000000000C8
:1001D0001000010808B5034B1BB103490348AFF3F6
:1001E000008008BD0000000044030020100001084A
:1001F000034613F8012B002AFBD1181A0138704767
:1002000001F0FF01102A2BDB10F0070F08D010F8C7
:10021000013B013A8B422DD010F0070F42B3F6D1CB
:10022000F0B441EA012141EA014122F007047FF0E4
:1002300000070023F0E80256083C85EA010586EA3B
:10024000010685FA47F5A3FA87F586FA47F6A5FA77
:1002500087F68EB9EED1F0BC01F0FF0102F0070283
:1002600032B110F8013B013A83EA010313B1F8D12E
:100270000020704701387047002D06BF354603380F
:10028000073815F0010F07D1013015F4807F02BF48
:10029000013015F4C03F0130F0BC0138704700BF99
:1002A00081F0004102E000BF83F0004330B54FEA27
:1002B00041044FEA430594EA050F08BF90EA020F94
:1002C0001FBF54EA000C55EA020C7FEA645C7FEA27
:1002D000655C00F0E2804FEA5454D4EB5555B8BF4A
:1002E0006D420CDD2C4480EA020281EA030382EABB
:1002F000000083EA010180EA020281EA0303362D4D
:1003000088BF30BD11F0004F4FEA01314FF4801C1F
:100310004CEA113102D0404261EB410113F0004F31
:100320004FEA03334CEA133302D0524263EB4303E8
:1003300094EA050F00F0A780A4F10104D5F1200E86
:100340000DDB02FA0EFC22FA05F2801841F10001E1
:1003500003FA0EF2801843FA05F359410EE0A5F1B5
:1003600020050EF1200E012A03FA0EFC28BF4CF0E6
:10037000020C43FA05F3C01851EBE37101F000459C
:1003800007D54FF0000EDCF1000C7EEB00006EEBA9
:100390000101B1F5801F1BD3B1F5001F0CD3490833
:1003A0005FEA30004FEA3C0C04F101044FEA44528A
:1003B00012F5800F80F09A80BCF1004F08BF5FEA11
:1003C000500C50F1000041EB045141EA050130BDF1
:1003D0005FEA4C0C404141EB010111F4801FA4F194
:1003E0000104E9D191F0000F04BF01460020B1FAE9
:1003F00081F308BF2033A3F10B03B3F120020CDA21
:100400000C3208DD02F1140CC2F10C0201FA0CF0FE
:1004100021FA02F10CE002F11402D8BFC2F1200C63
:1004200001FA02F120FA0CFCDCBF41EA0C01904019
:10043000E41AA2BF01EB0451294330BD6FEA040462
:100440001F3C1CDA0C340EDC04F11404C4F120024D
:1004500020FA04F001FA02F340EA030021FA04F35F
:1004600045EA030130BDC4F10C04C4F1200220FAB6
:1004700002F001FA04F340EA0300294630BD21FAF4
:1004800004F0294630BD94F0000F83F4801306BFBA
:1004900081F480110134013D4EE77FEA645C18BFAE
:1004A0007FEA655C29D094EA050F08BF90EA020F45
:1004B00005D054EA000C04BF1946104630BD91EA3D
:1004C000030F1EBF0021002030BD5FEA545C05D140
:1004D0004000494128BF41F0004130BD14F580047F
:1004E0003CBF01F5801130BD01F0004545F0FE41F3
:1004F00041F470014FF0000030BD7FEA645C1ABF28
:10050000194610467FEA655C1CBF0B46024650EA5E
:10051000013406BF52EA033591EA030F41F400218A
:1005200030BD00BF90F0000F04BF0021704730B510
:100530004FF4806404F132044FF000054FF00001E5
:1005400050E700BF90F0000F04BF0021704730B5A6
:100550004FF4806404F1320410F0004548BF40427B
:100560004FF000013EE700BF42004FEAE2014FEAD0
:1005700031014FEA02701FBF12F07F4393F07F4FAB
:1005800081F06051704792F0000F14BF93F07F4FDD
:10059000704730B54FF4607401F0004521F0004120
:1005A00020E700BF50EA010208BF704730B54FF0A6
:1005B00000050AE050EA010208BF704730B511F0AB
:1005C000004502D5404261EB41014FF4806404F1E3
:1005D00032045FEA915C3FF4DCAE4FF003025FEA65
:1005E000DC0C18BF03325FEADC0C18BF033202EBED
:1005F000DC02C2F1200300FA03FC20FA02F001FA47
:1006000003FE40EA0E0021FA02F11444C1E600BFE5
:1006100070B54FF0FF0C4CF4E06C1CEA11541DBF98
:100620001CEA135594EA0C0F95EA0C0F00F0DEF863
:100630002C4481EA030621EA4C5123EA4C5350EA48
:10064000013518BF52EA033541F4801143F4801399
:1006500038D0A0FB02CE4FF00005E1FB02E506F02A
:100660000042E0FB03E54FF00006E1FB03569CF07F
:10067000000F18BF4EF0010EA4F1FF04B6F5007F85
:1006800064F5407404D25FEA4E0E6D4146EB0606F7
:1006900042EAC62141EA55514FEAC52040EA5E5080
:1006A0004FEACE2EB4F1FD0C88BFBCF5E06F1ED82A
:1006B000BEF1004F08BF5FEA500E50F1000041EB61
:1006C000045170BD06F0004646EA010140EA02000E
:1006D00081EA0301B4EB5C04C2BFD4EB0C0541EA30
:1006E000045170BD41F480114FF0000E013C00F345
:1006F000AB8014F1360FDEBF002001F0004170BD69
:10070000C4F10004203C35DA0C341BDC04F1140481
:10071000C4F1200500FA05F320FA04F001FA05F20D
:1007200040EA020001F0004221F0004110EBD370DA
:1007300021FA04F642EB06015EEA430E08BF20EA06
:10074000D37070BDC4F10C04C4F1200500FA04F3A9
:1007500020FA05F001FA04F240EA020001F000413B
:1007600010EBD37041F100015EEA430E08BF20EAAE
:10077000D37070BDC4F1200500FA05F24EEA020EF6
:1007800020FA04F301FA05F243EA020321FA04F025
:1007900001F0004121FA04F220EA020000EBD370DC
:1007A0005EEA430E08BF20EAD37070BD94F0000FDC
:1007B0000FD101F00046400041EB010111F4801F10
:1007C00008BF013CF7D041EA060195F0000F18BFC1
:1007D000704703F00046520043EB030313F4801FFD
:1007E00008BF013DF7D043EA0603704794EA0C0FB7
:1007F0000CEA135518BF95EA0C0F0CD050EA4106CD
:1008000018BF52EA4306D1D181EA030101F0004149
:100810004FF0000070BD50EA410606BF1046194671
:1008200052EA430619D094EA0C0F02D150EA01367D
:1008300013D195EA0C0F05D152EA03361CBF1046BE
:1008400019460AD181EA030101F0004141F0FE415D
:1008500041F470014FF0000070BD41F0FE4141F4E1
:10086000780170BD70B54FF0FF0C4CF4E06C1CEAE1
:1008700011541DBF1CEA135594EA0C0F95EA0C0F96
:1008800000F0A7F8A4EB050481EA030E52EA033551
:100890004FEA013100F088804FEA03334FF0805572
:1008A00045EA131343EA12634FEA022245EA11159F
:1008B00045EA10654FEA00260EF000419D4208BF50
:1008C000964244F1FD0404F5407402D25B084FEAFD
:1008D0003202B61A65EB03055B084FEA32024FF4A9
:1008E00080104FF4002CB6EB020E75EB030E22BF06
:1008F000B61A754640EA0C005B084FEA3202B6EBC6
:10090000020E75EB030E22BFB61A754640EA5C0074
:100910005B084FEA3202B6EB020E75EB030E22BF04
:10092000B61A754640EA9C005B084FEA3202B6EB05
:10093000020E75EB030E22BFB61A754640EADC00C4
:1009400055EA060E18D04FEA051545EA16754FEA26
:1009500006164FEAC30343EA52734FEAC2025FEA44
:100960001C1CC0D111F4801F0BD141EA00014FF0D3
:1009700000004FF0004CB6E711F4801F04BF0143A4
:100980000020B4F1FD0C88BFBCF5E06F3FF6AFAEC0
:10099000B5EB030C04BFB6EB020C5FEA500C50F150
:1009A000000041EB045170BD0EF0004E4EEA1131D3
:1009B00014EB5C04C2BFD4EB0C0541EA045170BDDA
:1009C00041F480114FF0000E013C90E645EA060E1E
:1009D0008DE60CEA135594EA0C0F08BF95EA0C0F4C
:1009E0003FF43BAF94EA0C0F0AD150EA01347FF494
:1009F00034AF95EA0C0F7FF425AF104619462CE76B
:100A000095EA0C0F06D152EA03353FF4FDAE1046CD
:100A1000194622E750EA410618BF52EA43067FF41E
:100A2000C5AE50EA41047FF40DAF52EA43057FF4AE
:100A3000EBAE12E74FF0FF3C06E000BF4FF0010CB9
:100A400002E000BF4FF0010C4DF804CD4FEA410C1D
:100A50007FEA6C5C4FEA430C18BF7FEA6C5C1BD0EA
:100A600001B050EA410C0CBF52EA430C91EA030F6B
:100A700002BF90EA020F0020704710F1000F91EAC8
:100A8000030F58BF994208BF90422CBFD8176FEA96
:100A9000E37040F0010070474FEA410C7FEA6C5C64
:100AA00002D150EA013C07D14FEA430C7FEA6C5C6B
:100AB000D6D152EA033CD3D05DF8040B704700BF97
:100AC0008446104662468C461946634600E000BFE5
:100AD00001B5FFF7B7FF002848BF10F1000F01BDB7
:100AE0004DF808EDFFF7F4FF0CBF012000205DF882
:100AF00008FB00BF4DF808EDFFF7EAFF34BF012007
:100B000000205DF808FB00BF4DF808EDFFF7E0FF9F
:100B100094BF012000205DF808FB00BF4DF808EDF0
:100B2000FFF7CEFF94BF012000205DF808FB00BF57
:100B30004DF808EDFFF7C4FF34BF012000205DF839
:100B400008FB00BF4FEA410C7FEA6C5C02D150EA1F
:100B5000013C0AD14FEA430C7FEA6C5C02D152EAB5
:100B6000033C02D14FF0000070474FF00100704786
:100B70004FEA410212F5001215D211D56FF47873C5
:100B8000B3EB625212D94FEAC12343F0004343EA68
:100B9000505311F0004F23FA02F018BF4042704743
:100BA0004FF00000704750EA013005D111F00040CD
:100BB00008BF6FF0004070474FF00000704700BF63
:100BC0004FEA4102B2F1E04324BFB3F5001CDCF16F
:100BD000FE5C0DD901F0004C4FEAC0024CEA5070A7
:100BE000B2F1004F40EB830008BF20F001007047D6
:100BF00011F0804F21D113F13872BCBF01F00040D9
:100C0000704741F480114FEA5252C2F11802C2F10A
:100C1000200C10FA0CF320FA02F018BF40F001008B
:100C20004FEAC1234FEAD32303FA0CFC40EA0C003D
:100C300023FA02F34FEA4303CCE77FEA625307D17A
:100C400050EA01331EBF4FF0FE4040F440007047B1
:100C500001F0004040F0FE4040F40000704700BF4B
:100C600053B94AB9002908BF00281CBF4FF0FF3113
:100C70004FF0FF3000F07AB9ADF1080C6DE904CE09
:100C800000F006F8DDF804E0DDE9022304B0704767
:100C90002DE9F0478C460D460446089E002B51D1A5
:100CA0008A4217466DD9B2FA82FEBEF1000F0BD010
:100CB000CEF1200C01FA0EF520FA0CFC02FA0EF728
:100CC0004CEA050C00FA0EF44FEA174A250CBCFB5F
:100CD000FAF81FFA87F90AFB18CC45EA0C4508FB1D
:100CE00009F3AB420AD9ED1908F1FF3280F02381F4
:100CF000AB4240F22081A8F102083D44ED1AA4B2B3
:100D0000B5FBFAF00AFB105544EA054400FB09F96B
:100D1000A14509D9E41900F1FF3380F00A81A1450A
:100D200040F2078102383C44A4EB090440EA084041
:100D30000021002E61D024FA0EF400233460736089
:100D4000BDE8F0878B4207D9002E54D0002186E8F9
:100D500021000846BDE8F087B3FA83F1002940F08E
:100D60008E80AB4202D3824200F2FA80841A65EB95
:100D700003050120AC46002E3FD086E81010BDE8E8
:100D8000F08712B90127B7FBF2F7B7FA87FEBEF179
:100D9000000F34D1EB1B3A0C1FFA87FC0121B3FB87
:100DA000F2F8250C02FB183345EA03450CFB08F367
:100DB000AB4207D9ED1908F1FF3002D2AB4200F285
:100DC000D1808046ED1AA3B2B5FBF2F002FB1055BC
:100DD00043EA05440CFB00FCA44507D9E41900F1E3
:100DE000FF3302D2A44500F2B8801846A4EB0C04ED
:100DF00040EA08409DE731463046BDE8F087CEF135
:100E0000200405FA0EF307FA0EF720FA04F83A0C5C
:100E100025FA04F448EA0308B4FBF2F14FEA184556
:100E200002FB11441FFA87FC45EA044501FB0CF361
:100E3000AB4200FA0EF409D9ED1901F1FF3080F050
:100E40008A80AB4240F2878002393D44EB1A1FFA98
:100E500088F5B3FBF2F002FB103345EA034500FBD3
:100E60000CF3AB4207D9ED1900F1FF386FD2AB425A
:100E70006DD902383D44EB1A40EA01418FE7C1F1D8
:100E8000200722FA07F88B4005FA01F448EA030329
:100E900020FA07FE4FEA134CFD404EEA040EB5FB64
:100EA000FCF94FEA1E440CFB19551FFA83F844EA7B
:100EB000054509FB08F4AC4202FA01F200FA01FA16
:100EC00008D9ED1809F1FF3043D2AC4241D9A9F15C
:100ED00002091D442D1B1FFA8EFEB5FBFCF00CFB16
:100EE00010554EEA054400FB08F8A04507D9E41860
:100EF00000F1FF3529D2A04527D902381C4440EA29
:100F00000940A4EB0804A0FB02894C45C6464D46A7
:100F100015D312D056B1BAEB0E0364EB050404FAF4
:100F200007F7CB401F43CC40376074600021BDE819
:100F3000F0871846F8E69046E0E6C245EAD2B8EBFC
:100F4000020E69EB03050138E4E72846D7E740467F
:100F500091E78146BEE7014678E702383C4445E721
:100F6000084608E7A8F102083D442BE7704700BF98
:100F700030B5104D0FCD87B001AC0FC42B68236086
:100F8000002101A809F073FC0B4B0322186000211B
:100F900001200AF07DF8094A106020B100231A46AA
:100FA00019460AF099F8064A00231380054A13806F
:100FB00007B030BD2800010858290220A0290220CE
:100FC000C2030020C0030020A14B2DE9F04793EDA0
:100FD000002AA04BDFF8B482D3ED001A9E4B9F4E3F
:100FE00093ED001A9E4B9F4FD3ED000A9E4B9F4DF1
:100FF0009F4CD8ED002A93ED000ADFF894A2DFF8A9
:1010000094922DED048B82B000F0EAFA96ED009AEE
:10101000D7ED008A94ED008AD5ED009AD5ED004A0F
:1010200095ED005A94ED004AD4ED007AD7ED005AC0
:1010300097ED006AD6ED006A96ED007A67EEC47A05
:10104000E4EE857AE5EEC67AE6EE877A17EE900A48
:10105000FFF78AFA68EE297ACDE90001E9EE287AED
:1010600077EEA77A17EE900AFFF77EFA9DED001B48
:1010700041EC100B0DF0BCFA51EC100BFFF7A0FD8A
:10108000D7ED006A95ED007A96ED006AD4ED007A0E
:10109000CAF8000067EEC67AE6EE877A77EEA77A9E
:1010A00017EE900AFFF760FA41EC100B0DF048FACA
:1010B00051EC100BFFF784FD96ED009AD5ED008AF8
:1010C00097ED008AD4ED009AD7ED004A97ED005ACB
:1010D000D6ED007A96ED004AD5ED005A95ED006AFE
:1010E000D4ED006A94ED007AC9F8000067EE847AC6
:1010F0005646E4EE857A4F46E5EEC67AE6EEC77AC6
:1011000017EE900AFFF730FA68EE297ACDE9000170
:10111000E9EE287A77EEA77A17EE900AFFF724FA1D
:101120009DED001B41EC100B0DF062FA51EC100B21
:10113000FFF746FDFFF718FA43A3D3E90023FFF7B3
:1011400067FAFFF73DFD4B4B1860D9F80000FFF739
:101150000BFA3DA3D3E90023FFF75AFAFFF730FD5E
:10116000C9F80000DAF80000FFF7FEF936A3D3E96A
:101170000023FFF74DFAFFF723FD3F4BCAF80000AD
:101180001A88C72A1D4650D83C4C2388132B08D8F0
:1011900001339BB2142B238003D100F0CBFB00233F
:1011A000238001F05FF82C88DFF8EC9003684FF0A3
:1011B000480A0AFB04F4A11C09EB010249F80130BA
:1011C00043685360836893604C44D8F800302361CF
:1011D0003B6863613368A36100236362A36200F02C
:1011E000EFFB84ED070A2C8800F046FD0AFB04940F
:1011F00084ED080A2C8801F015FB0AFB04942C34BA
:10120000014620460BF07EFE2B88642B01D101F0B5
:1012100073FA2B8801332B80194A1388013313800A
:1012200002B0BDEC048BBDE8F08700221A8015499E
:10123000154848220BF006F901F05EFA02F060FA58
:10124000EAE700BFAFF30080F8C1631ADCA54C40A9
:101250008C29022098290220D02902200400002095
:1012600090290220C80300205C290220D00300201E
:10127000CC030020BC290220C2030020C0030020B0
:10128000C4030020F8370010D8290220A829022022
:10129000C4290220C02902200000001010B501F06E
:1012A0003FFE01F071FF01F0D7F80A2009F0F7FACC
:1012B00001F0CAF80A2009F0F2FA00226B21682036
:1012C00001F0AAFE7521682001F04CFE732834D18C
:1012D00006221A21682001F09FFE0A2009F0DFFA99
:1012E00000221B21682001F097FE0A2009F0D7FA9E
:1012F00000221C21682001F08FFE0A2009F0CFFA9D
:1013000003221921682001F087FE0A2009F0C7FA9C
:1013100001223821682001F07FFE0A2009F0BFFA7F
:1013200000F0BAFA074C206800234FF0FF3219464C
:1013300009F0DCFFFFF748FEF5E75421024801F011
:101340003FFAEDE7A0290220A500010800000000F7
:101350002DE9F0418AB00E234FF48074019306AB5F
:101360000093029401233B22D0217F4803F08AFBA3
:1013700078B17E4B7C49542218460BF063F840222A
:10138000A0F85C207A4A0266A0F85440826501F019
:101390005BFE9DF818309DF819009DF81B809DF8A4
:1013A0001D709DF821609DF823509DF8254040EA6E
:1013B0000320704B00B218809DF81A3048EA0328C9
:1013C0006D4B0FFA88F8A3F800809DF81C3047EAAF
:1013D00003276A4B3FB21F809DF8203046EA032660
:1013E000674B36B21E809DF8223045EA0325654BD7
:1013F0002DB21D8007EE900A9DF82430F8EEE77AB2
:1014000044EA0324604B24B217EE900A1C80FFF7D5
:10141000ABF802460B46FEF749FF00224FF07C5323
:10142000FFF7F6F8FFF7CCFB07EE908A574BF8EE84
:10143000E77A186017EE900AFFF796F802460B4617
:10144000FEF734FF00224FF07C53FFF7E1F8FFF77F
:10145000B7FB07EE907A4E4BF8EEE77A186017EE7E
:10146000900AFFF781F802460B46FEF71FFF0022A5
:101470004FF07C53FFF7CCF8FFF7A2FB07EE906A22
:10148000444BF8EEE77A186017EE900AFFF76CF815
:101490000022414BFFF7BCF800224FF07C53FFF7CE
:1014A000B7F82FA3D3E90023FFF7B2F800223B4B94
:1014B000FFF7D8F9FFF784FB07EE905A384BF8EEA8
:1014C000E77A186017EE900AFFF74EF80022324BC9
:1014D000FFF79EF800224FF07C53FFF799F820A306
:1014E000D3E90023FFF794F800222C4BFFF7BAF959
:1014F000FFF766FB07EE904A2A4BF8EEE77A186092
:1015000017EE900AFFF730F80022234BFFF780F820
:1015100000224FF07C53FFF77BF811A3D3E900239F
:10152000FFF776F800221D4BFFF79CF9FFF748FB09
:101530001D4B18601D4B05A9186809F083FE059B1B
:10154000012B07D11A4B4FF080521A60BFF34F8F17
:10155000BFF36F8F0AB0BDE8F08100BFAFF300802A
:10156000182D4454FB2109401C2C02205C03002050
:101570000004024094290220CC2902207C29022068
:10158000C829022078290220A429022098290220B3
:101590008C290220A829022000406F40008066406C
:1015A0005C29022090290220D0290220A0290220B3
:1015B00004ED00E010EE102A084BF6EE007AA3EBE3
:1015C000620307EE103A60EE277AB7EE080A67EE7C
:1015D000877AA7EE670A20EE070A7047DF59375F60
:1015E00038B5A748A749A84CA84D90ED007A91EDD1
:1015F000004AD4ED007AD5ED006AD1ED004A20EE24
:10160000C44A61EE244AA7EE404AE0EE264A94ED31
:10161000007AD5ED006A90ED005A25EE415AE0EED1
:10162000C74AA0EEA65A94ED007AD5ED006A90ED77
:10163000006A60EE860AA0EE075AE1EE260A91EDF6
:10164000007AA7EEC14AE0EE470AF5EE401AF6EE40
:10165000007AF1EE10FA2DED088B24EE274A64EEA5
:10166000A74A25EE275A60EEA70A0AD1B5EE402A0E
:10167000F1EE10FA05D1F5EE402AF1EE10FA00F085
:10168000AF8022EE020AB1EE008AA1EEA10AA2EE1C
:10169000A20AFFF78FFFD5ED007A90ED007A91ED69
:1016A000003AD4ED009A95ED006AD0ED00AAD1ED94
:1016B000008A90ED00BA91ED009AF2EE006A2BEEEE
:1016C00026BA29EE269AD5ED006AD5ED00BA90ED3E
:1016D000001AD0ED005AD1ED003A21EE251AD1EDD5
:1016E000005A94ED00AA61EE801A63EEA53A33EE3B
:1016F000033AD4ED005A26EE086A2AEE25AA61EED6
:10170000835A79EEA99AE6EE235A6AEE88AAE6EEA3
:10171000015A29EEE16A62EE802AAAEE8A6A20EE78
:10172000420A26EEAB2AD0ED006A22EE082A77EEB6
:10173000A77AA2EE266A61EEA76AA0EE276A68EE93
:10174000888A36EE6A6A37EE077AABEE016A67EE90
:10175000611AABEE236AE0EE075AA2EEAA6AD1ED57
:1017600000AAE2EE2A6AE8EE8A6AE0EE296A76EEDC
:10177000E86AE9EE016A21EE081AE9EE236A63EEEF
:10178000883AE2EEA86AD4ED002AD4ED007AE1EEC0
:10179000221AE3EEA71AE0EE031A26EE060AA5EED9
:1017A000A50AA6EEA60AA1EEA10AFFF703FF384B91
:1017B00060EE655AD3ED007A20EE466AA5EEA74AA0
:1017C000D3ED007A60EE666AE6EE274AD3ED007A42
:1017D00020EE610AA6EEA75AD3ED007AE0EE270AC2
:1017E00095ED007ADFED2B7AA4EE277A85ED007A6D
:1017F00090ED007AA4EEA77A80ED007A91ED007A60
:10180000A5EE277A81ED007A94ED007AA0EEA77A12
:1018100084ED007A95ED005AD5ED005A90ED000A5E
:10182000D0ED004A91ED006AD1ED006A94ED007AA6
:10183000D4ED007A20EE240AA5EE250AA6EE260AAB
:10184000A7EE270AFFF7B6FED5ED007A60EE277AFD
:10185000BDEC088BC5ED007AD0ED007A60EE277AFA
:10186000C0ED007AD1ED007A60EE277AC1ED007A02
:10187000D4ED007A20EE270A84ED000A38BD00BFBF
:10188000C8030020CC030020D00300200400002067
:1018900000000020610BB63B1A4B1B4A70B50024B8
:1018A0001C6000231360194A194E1470194A146001
:1018B000194A1460194A1360194B1C70194B1C60AB
:1018C0000FCE86B001AD0FC533682B60214601A84D
:1018D00008F0CDFF144B224618600421012009F0C6
:1018E000D7FB124B032218602146012009F0D0FBE0
:1018F0000F4A106020B123462246214609F0ECFB36
:1019000006B070BD542A0220782A02205C2A0220E8
:101910003C000108582A02206C2A0220602A02207A
:10192000742A0220702A0220682A0220502A0220EB
:10193000642A0220034800231A461946006809F069
:10194000CBBB00BF642A022010B52E22F4217720E1
:1019500001F062FB052009F04FFFF621772001F02E
:1019600001FBF7210446772001F0FCFA40EA04204D
:1019700000B210BD13B582013432002302F0FC0224
:10198000F42104467720019301F046FB082009F07A
:1019900033FF6B460322F621772001F013FB9DF8FD
:1019A00000209DF801009DF80230000240EA02404C
:1019B0001843C4F1080420410190019802B010BD01
:1019C000014B93ED000A7047782A022000000000C6
:1019D00070B58AB00C460546FFF7B6FFADF80600B5
:1019E0000020FFF7C7FF0023774A02900393049378
:1019F00005930693079308930993BDF80610108882
:101A0000724A128880B209B2091A92B24A434FF45C
:101A1000004192FBF1F203926D4A6E4912880988E7
:101A2000039812B200FA81F1D20292FBF1F2049211
:101A3000039A04990A44079203930493079BA3F51E
:101A40007A630893644B1B880899089A1BB24A432F
:101A50004FF480564FF4006192FBF6F2534393FB30
:101A6000F1F303935D4B1B881AB2089B534393FB1E
:101A7000F1F30493039B049A13440593584B19887C
:101A80000BB2059901EB8301564B0420023191FB07
:101A9000F0F106911B881AB2089B53434FF4005291
:101AA00093FBF2F30393504B1A880899089B12B2E8
:101AB0004B4393FBF6F35A434FF4803392FBF3F21C
:101AC0000492039B049A1344023393FBF0F30593AF
:101AD000464B1B88059A9BB202F500425343DA0B32
:101AE000029B0699591A4CF250334B4353BF5B008B
:101AF000B3FBF2F35B00B3FBF2F30993099A099B82
:101B00004FF4807192FBF1F293FBF1F35343039393
:101B1000039B40F6DE324FF480315A4392FBF1F2E0
:101B20000392099A324B534393FBF1F30493039BC3
:101B30000499099A0B4403F6CF63102193FBF1F348
:101B400013440993099B2B602A4D9DED097AD5ED2D
:101B5000007AB8EEC77AF8EE677AC7EE276A16EE13
:101B6000900AFEF701FD9FED141B41EC100B0CF0E9
:101B700041FD002053EC102B1F49FEF795FB10A3ED
:101B8000D3E90023FEF744FDFFF71AF81B49206054
:101B90000B78012B0ED82868099A0133DBB2024476
:101BA000022B2A600B7008BF52084FF0000308BFD9
:101BB0002A6023600AB070BD6C45D9CC955BC83FE4
:101BC0000000000040A5E540E8030020E4030020F9
:101BD000F4030020F8030020F0030020D8030020C5
:101BE000D4030020DC030020EC030020E0030020ED
:101BF00043E3FFFF582A02200000F03F5C2A022046
:101C000010B52E22F421772001F03AFB052009F0CF
:101C1000F3FDF621772001F0D9FAF7210446772069
:101C200001F0D4FA40EA042000B210BD13B58201DD
:101C30003432002302F0FC02F421044677200193A1
:101C400001F01EFB082009F0D7FD6B460322F621A8
:101C5000772001F0EBFA9DF800209DF801009DF837
:101C60000230000240EA02401843C4F10804204157
:101C70000190019802B010BD014B93ED000A70472E
:101C8000602A02200000000070B58AB00C460546AC
:101C9000FFF7B6FFADF806000020FFF7C7FF0023EF
:101CA000774A02900393049305930693079308934E
:101CB0000993BDF806101088724A128880B209B2E2
:101CC000091A92B24A434FF4004192FBF1F2039297
:101CD0006D4A6E4912880988039812B200FA81F1A0
:101CE000D20292FBF1F20492039A04990A440792F9
:101CF00003930493079BA3F57A630893644B1B88B3
:101D00000899089A1BB24A434FF480564FF4006179
:101D100092FBF6F2534393FBF1F303935D4B1B8865
:101D20001AB2089B534393FBF1F30493039B049A69
:101D300013440593584B19880BB2059901EB8301A5
:101D4000564B0420023191FBF0F106911B881AB228
:101D5000089B53434FF4005293FBF2F30393504B11
:101D60001A880899089B12B24B4393FBF6F35A4327
:101D70004FF4803392FBF3F20492039B049A1344D2
:101D8000023393FBF0F30593464B1B88059A9BB2F5
:101D900002F500425343DA0B029B0699591A4CF2A2
:101DA00050334B4353BF5B00B3FBF2F35B00B3FB19
:101DB000F2F30993099A099B4FF4807192FBF1F2B7
:101DC00093FBF1F353430393039B40F6DE324FF44E
:101DD00080315A4392FBF1F20392099A324B5343FA
:101DE00093FBF1F30493039B0499099A0B4403F6C4
:101DF000CF63102193FBF1F313440993099B2B60EC
:101E00002A4D9DED097AD5ED007AB8EEC77AF8EE45
:101E1000677AC7EE276A16EE900AFEF7A5FB9FEDDC
:101E2000141B41EC100B0CF0E5FB002053EC102BC5
:101E30001F49FEF739FA10A3D3E90023FEF7E8FBA8
:101E4000FEF7BEFE1B4920600B78012B0ED82868D8
:101E5000099A0133DBB20244022B2A600B7008BFDF
:101E600052084FF0000308BF2A6023600AB070BD1B
:101E70006C45D9CC955BC83F0000000040A5E5400B
:101E8000EA030020E6030020F6030020FA03002006
:101E9000F2030020DA030020D6030020DE03002036
:101EA000EE030020E203002043E3FFFF702A02203C
:101EB0000000F03F742A0220F8B5D021772001F00D
:101EC00051F8552840F07681AA21772001F04AF890
:101ED000AB210446772001F045F8BB4B40EA0420D3
:101EE00000B218800A2008F0DAFCAC21772001F05B
:101EF00039F8AD210446772001F034F8B34B40EABD
:101F0000042000B218800A2008F0C9FCAE21772016
:101F100001F028F8AF210446772001F023F8AC4BFC
:101F200040EA042000B218800A2008F0B8FCB02172
:101F3000772001F017F8B1210446772001F012F85C
:101F4000A44B40EA042080B218800A2008F0A7FCC5
:101F5000B221772001F006F8B5210446772001F080
:101F600001F89D4B40EA042080B218800A2008F056
:101F700096FCB421772000F0F5FFB52104467720C8
:101F800000F0F0FF954B40EA042080B218800A2050
:101F900008F085FCB621772000F0E4FFB721044665
:101FA000772000F0DFFF8E4B40EA042000B218805B
:101FB0000A2008F074FCB821772000F0D3FFB92183
:101FC0000446772000F0CEFF864B40EA042000B2A2
:101FD00018800A2008F063FCBC21772000F0C2FFC3
:101FE000BD210446772000F0BDFF7F4B40EA04206E
:101FF00000B218800A2008F052FCBE21772000F0C1
:10200000B1FFBF210446772000F0ACFF774B40EAD8
:10201000042000B218800A2008F041FCD02177206B
:1020200001F0D4F8552840F0CA80AA21772001F0A9
:10203000CDF8AB210446772001F0C8F86C4B40EA9C
:10204000042000B218800A2008F029FCAC21772077
:1020500001F0BCF8AD210446772001F0B7F8654BDC
:1020600040EA042000B218800A2008F018FCAE21D3
:10207000772001F0ABF8AF210446772001F0A6F8F5
:102080005D4B40EA042000B218800A2008F007FCEB
:10209000B021772001F09AF8B1210446772001F0B1
:1020A00095F8564B40EA042080B218800A2008F0C8
:1020B000F6FBB221772001F089F8B521044677209C
:1020C00001F084F84E4B40EA042080B218800A20C8
:1020D00008F0E5FBB421772001F078F8B52104463B
:1020E000772001F073F8474B40EA042080B2188053
:1020F0000A2008F0D4FBB621772001F067F8B72159
:102100000446772001F062F83F4B40EA042000B219
:1021100018800A2008F0C3FBB821772001F056F898
:10212000B9210446772001F051F8384B40EA0420E9
:1021300000B218800A2008F0B2FBBC21772001F021
:1021400045F8BD210446772001F040F8304B40EAC5
:10215000042000B218800A2008F0A1FBBE217720DD
:1021600001F034F8BF210446772001F02FF8294B05
:1021700040EA042000B218800A2008F090FB264CA8
:10218000264F2068264E274D00234FF0FF32194678
:1021900009F0ACF8002319464FF0FF32206809F02F
:1021A000A5F839463046FFF713FC29461E48FFF7CD
:1021B0006BFDEFE783211D4800F002FB2EE7BE21F7
:1021C0001A4800F0FDFADAE7D4030020D803002013
:1021D000DC030020E0030020E4030020E8030020EB
:1021E000EC030020F0030020F4030020F80300209B
:1021F000D6030020DA030020DE030020E2030020E3
:10220000E6030020EA030020EE030020F203002092
:10221000F6030020FA030020642A0220782A022014
:10222000542A0220602A02206C2A0220BF000108E2
:1022300008B50B4B00221A605A609A6001F040FB0F
:1022400001F0A8FA01F06CFB01F0D6FA01F006FBF0
:1022500001F098FB00F0F4FDBDE80840FEF788BEF1
:102260007C2A0220044A05481368036053684360CF
:1022700093688360704700BF9C2A02207C2A02205A
:1022800072B60C4B1A6912F001024FF0804305D070
:102290001A6842F001021A6062B67047196821F0AC
:1022A00001011960596A0A20B1FBF0F1024801816D
:1022B0005A62F1E7002002409C2A022072B60C4BC1
:1022C0001A6912F00202A3F5053305D01A6842F02C
:1022D00001021A6062B67047196821F001011960A5
:1022E000596A0A20B1FBF0F1024881805A62F1E795
:1022F000002002409C2A022072B60C4B1A6912F090
:102300000402A3F5043305D01A6842F001021A60F2
:1023100062B67047196821F001011960596A0A20F4
:10232000B1FBF0F10248C1805A62F1E7002002409F
:102330009C2A022072B60C4B1A6912F00802A3F50F
:10234000063305D01A6842F001021A6062B670477F
:10235000196821F001011960596A3A20B1FBF0F1C6
:10236000024841815A62F1E7002002409C2A022083
:1023700072B60C4B1A6912F01002A3F5073305D0A0
:102380001A6842F001021A6062B67047196821F0BB
:1023900001011960596A0A20B1FBF0F1024841803D
:1023A0005A62F1E7002002409C2A02201B4BAA2817
:1023B00010B518601A4B07D11A4A117801290ABFC3
:1023C00019700121002111701978174C012906D1CB
:1023D0000C284FF0000206BF21701A70227023787B
:1023E000012B19D11149124A0B785068114AD05467
:1023F0000133DBB2052B0B7013460DD910795279DE
:1024000002EB00220C480280002210469854013250
:10241000142AFBD10870207010BD00BFA82A02202A
:10242000FD030020FC030020FE030020AC2A022054
:1024300000100140882A02209C2A02201021014815
:1024400001F0DDBE000C024000224FF48061014823
:1024500001F0D0BE0018024001224FF48061014813
:1024600001F0C8BE0018024080B590B001F000F83D
:10247000244C254DFFF7DCFE01F03AFB01F0E8F8B3
:1024800001F0ACFA01F0CAFA04F12C081F4800234D
:102490004FF0FF321946006808F028FF206ACDF897
:1024A0003880FEF761F8CDE90C01E069E788A6887D
:1024B000FEF75AF8CDE90A01A069FEF755F8CDE913
:1024C00008016069FEF750F8CDE906012069FEF7C2
:1024D0004BF8A3890393638802936389019323894B
:1024E0000093CDE904013B463246094928460AF0EB
:1024F000E5FC2846FDF77CFE81B2284601F0C4FACF
:10250000C4E700BFD8290220F42A0220B02A022002
:10251000E100010830B595B0274B002101911A6CFC
:1025200042F080521A641B6C03F080530193019BAC
:10253000224B02911A6842F440421A601B6803F46D
:1025400040430293029B012308934FF48033099385
:102550004FF480030F93082310934FF4A8730224C1
:10256000119308A807230E941294139303F0B8FC58
:1025700000B1FEE74FF4A05305900F25052103A8F5
:10258000049403950693079303F05AFE044600B1A2
:10259000FEE703F0EFFE4FF47A73B0FBF3F001F0C7
:1025A00077FB042001F08AFB224629464FF0FF30DA
:1025B00001F02EFB15B030BD003802400070004025
:1025C0002DE9F0418AB0324B324E3348002400945A
:1025D0001A6B42F080021A631A6B02F080020092BA
:1025E000009A01941A6B42F004021A631A6B02F00B
:1025F00004020192019A02941A6B42F001021A63DA
:102600001A6B02F001020292029A03941A6B42F0D2
:1026100008021A631A6B02F008020392039A0494E8
:102620001A6B42F040021A631B6B03F040030493E1
:102630000225049B05A94FF48053059310270694A7
:102640000795089501F0E4FC012305A9304606939F
:1026500007950895059701F0DBFC08950F4D079449
:1026600011234FF4806805A928460693CDF81480FD
:1026700001F0CEFC22464146284601F0BBFD224631
:102680003946304601F0B6FD0AB0BDE8F08100BF22
:1026900000380240000C0240001C024000180240BA
:1026A00030B5124D87B001F061FAFFF733FFFFF745
:1026B00087FF0FCD01AC0FC42B682360002101A858
:1026C00008F0D5F80A4B032218600021012008F019
:1026D000DFFC084A106020B100231A46194608F0B2
:1026E000FBFC08F0BFF8002007B030BD5000010827
:1026F000B42A0220B02A0220034800231A461946B1
:10270000006808F0E9BC00BFB02A02200268084B4C
:102710009A4210B5044601D101F042FA2268054BF5
:102720009A4201BF044A13680133136010BD00BF11
:10273000000001400014004000040020014B186814
:10274000704700BF0004002030B5002289B0072187
:10275000372001F05DFA372001F08EFA0025144B86
:1027600002951A6C134C42F020021A641B6C03F0A1
:102770002003029301A903A8029B03F021FE03F0AA
:102780000FFE0D4B236042F20F73E36040000B4BD2
:10279000B0FBF3F00138606020462561A56004F0CD
:1027A0005DFB10B9204604F044FA09B030BD00BF0B
:1027B00000380240B82A0220001400408096980099
:1027C000FEE7000010B500228A4223DA0478242CA8
:1027D00000F1010320D14478472C1DD15C784E2CA8
:1027E0001AD19C78472C17D1DC784C2C14D11C7949
:1027F0004C2C11D15C792C2C0ED19C792C2C00F115
:10280000070009D08C1A1A2C06DD01461A2204484A
:102810000AF080FB012010BD01321846D4E700BF4A
:10282000C42B022000487047C42B022008B50320A7
:1028300001F0DCF9002211466FF00B0001F0E8F91D
:10284000002211466FF00A0001F0E2F90022114661
:102850006FF0090001F0DCF9002211466FF004006E
:1028600001F0D6F9002211466FF0030001F0D0F913
:1028700000220F216FF0010001F0CAF900220F21A0
:102880004FF0FF30BDE8084001F0C2B910B5026852
:102890001F4B9A4288B038D103F582330021019151
:1028A0005A6C1C4842F400525A645A6C02F40052AA
:1028B0000192019A02911A6B42F010021A631B6B8B
:1028C00003F010030293029B0423012205240393C7
:1028D00003A90223059204930693079401F098FB41
:1028E000202303A90B480393079401F091FB402395
:1028F00003A908480393079401F08AFB102303A956
:1029000004480393079401F083FB08B010BD00BF97
:102910000034014000100240F0B502683F4B9A427B
:102920008BB006463AD13E4C3E4800250195236BBC
:1029300043F002032363236B03F002030193019B23
:1029400040230593122306930123079304270323AF
:1029500005A90893099701F05BFB802305A931487D
:102960000593099701F054FB0295236C43F400137F
:102970002364236C03F400132A46092102932020C8
:10298000029B01F045F9202001F076F91F202A462C
:102990000A2101F03DF91F2001F06EF93268224B47
:1029A0009A4239D11E4C214800260396236B43F0EE
:1029B00020032363236B03F020030393039B122361
:1029C000012506930427032305A908930595079578
:1029D000099701F01DFB022305A9144805930997E7
:1029E00001F016FB0496236C43F480032364236CEC
:1029F00003F480032A46092104932220049B01F05A
:102A000007F9222001F038F921202A460A2101F095
:102A1000FFF8212001F030F90BB0F0BD0054004068
:102A200000380240000402400058004000140240F8
:102A300000B599B00C230093012200236846069349
:102A40000592029303F04CFA20B140F21F110B489B
:102A5000FFF7B6FE20230C930CA84FF400731693D7
:102A600003F0CCFC20B14FF493710448FFF7A8FEAB
:102A7000034B01221A6019B05DF804FB49010108FB
:102A80003C0E474270B502686B4B9A428EB00646C8
:102A900032D103F59433002401945A6C674842F014
:102AA00010025A645A6C02F010020192019A0294C8
:102AB0001A6B42F001021A631B6B03F001030293CD
:102AC000029B4FF4007309930725022309A90A9377
:102AD0000C930D9501F09CFA4FF4806309A95748B7
:102AE00009930D9501F094FA25202246082101F062
:102AF0008FF8252001F0C0F83268514B9A4233D14B
:102B000003F5F43300220392196C4E4841F480110E
:102B10001964196C01F48011039103990492196BE3
:102B200041F004011963196B01F004010491049947
:102B300005921A6B42F008021A631B6B03F008033C
:102B40000593059B042309930824022309A90A93EA
:102B50000C930D9401F05CFA4FF4805309A93A48A4
:102B600009930D9401F054FA3268384B9A4261D1BE
:102B7000002503F5E03306951A6C354842F0804293
:102B80001A641A6C02F080420692069A07951A6B34
:102B900042F020021A631A6B02F020020792079A91
:102BA00008951A6B42F400121A631B6B03F40013AE
:102BB0000893089B40230824099309A902230A9338
:102BC0000C930D9401F024FA802309A9204809935D
:102BD0000D9401F01DFA1F4C1F4AA5604FF02063B1
:102BE00084E80C004FF4806323614FF48073E36149
:102BF0004FF4403323624FF40003E36220464FF466
:102C000000132363E5606561A561656201F078F8F2
:102C10002A460B2174630E20A66300F0F9FF0E20F4
:102C200001F02AF8522001220B2100F0F1FF52207E
:102C300001F022F80EB070BD00100140000002400B
:102C400000500040000C02400008024000780040A4
:102C500000140240040400205860024030B50146D0
:102C600089B00022192000F0D3FF192001F004F8E8
:102C70000025154B02955A6C144C42F001025A641F
:102C80005B6C03F00103029301A903A8029B03F00C
:102C900097FB03F085FB0E4B236040F2E733E360C4
:102CA00040000C4BB0FBF3F001386060204625611A
:102CB000A56004F0D3F820B9204603F0BAFF09B0AC
:102CC00030BD0120FBE700BF00380240E02B0220AE
:102CD0000000014040420F007047FEE7FEE7FEE7BC
:102CE000FEE7704707F042BE014803F0B1BF00BFE6
:102CF000E02B0220014802F021BD00BF0037022076
:102D0000014803F0A5BF00BFB82A0220014802F025
:102D100067B800BF1C2C0220014802F0CBBB00BFEB
:102D2000702C0220014802F05BB800BF702C02201A
:102D3000014802F0BFBB00BF1C2C0220202001F084
:102D400063BA000008B5FFF713FB034A536943F069
:102D50001003536108BD00BF003C014008B5FFF7F8
:102D6000E9FA034A536943F00803536108BD00BF01
:102D7000003C014008B5FFF7BFFA034A536943F02E
:102D80000403536108BD00BF003C014008B5FFF7D4
:102D900095FA034A536943F00203536108BD00BF2B
:102DA000003C014008B5FFF76BFA034A536943F052
:102DB0000103536108BD00BF003C014008B5064B4C
:102DC0001A68920607D51A6822F020021A6058681D
:102DD000C0B2FFF7EBFA08BD00100140014804F053
:102DE00025BB00BF78300220014B586B01F056B86C
:102DF000783002200F49D1F8883043F47003C1F8CD
:102E000088300D4B1A68002042F001021A60986069
:102E10001A6822F0847222F480321A60074A5A60DB
:102E20001A6822F480221A60D8604FF000638B6029
:102E3000704700BF00ED00E0003802401030002471
:102E400070B588B000242E4B01941A6B2D4842F0C7
:102E500002021A631A6B02F002020192019A0294B2
:102E60001A6B42F480721A631B6B059403F480732F
:102E7000029308AD029B244B0493202345F8143D94
:102E8000294601F0C5F822460921172000F0C0FEAE
:102E9000172000F0F1FE1D4B049302261F23294644
:102EA0001B480393059601F0B3F82246072106203C
:102EB00000F0AEFE062000F0DFFE072108460122EA
:102EC00000F0A6FE072000F0D7FE324607210820BA
:102ED00000F09EFE082000F0CFFE0322072109200B
:102EE00000F096FE092000F0C7FE042207210A2008
:102EF00000F08EFE0A2000F0BFFE08B070BD00BFDB
:102F0000003802400004024000001110000031109F
:102F100000200240202808B501D1FEF719FA08BDAB
:102F20000C4808B50C4B03600C4B43604FF48042D7
:102F30000023026143618260C3610362C3608361F5
:102F400001F0E6FA28B11F210548BDE80840FFF767
:102F500037BC08BD1C2C022000540040801A06001B
:102F60008101010830B587B00023154D8DF80F1091
:102F700004468DF81730284602F05CFB2028FAD171
:102F80006423640000930DF10F02012321460C48D5
:102F900001F02CFB88B90A4D284602F04BFB202893
:102FA000FAD1642300930DF117020123214604484E
:102FB00001F0F2FB08B99DF8170007B030BD00BF63
:102FC0001C2C0220F0B585B0124F8DF80F1004466E
:102FD00016461D46384602F02DFB2028FAD1642300
:102FE000640000930DF10F0201232146094801F00E
:102FF000FDFA68B9074F384602F01CFB2028FAD1C9
:10300000642300932A4633462146024801F0C4FB5C
:1030100005B0F0BD1C2C02201FB504468DF80C1025
:103020008DF80D20074802F005FB2028FAD1642313
:10303000009303AA02236100024801F0D7FA04B00A
:1030400010BD00BF1C2C022070B50268136886B04A
:1030500023F00103136011230293042306AD0593AB
:1030600002230493B0F85C3045F8143D0446012671
:103070002946006E039600F0CBFF3246B4F85C1090
:10308000206E01F0B7F8B4F85430A06D01932946D2
:1030900000F0BEFF3246B4F85410A06D01F0AAF85B
:1030A000B4F85C10206E01F09FF8012860D1B4F8EC
:1030B0005410A06D01F098F801285BD10022B4F8FB
:1030C0005410A06D01F096F8B4F85410A06D01F002
:1030D0008BF8024600284FD1B4F85C10206E01F046
:1030E00089F8B4F85C10206E01F07EF8002845D114
:1030F0000122B4F85C10206E01F07CF8B4F85C108A
:10310000206E01F071F80128024639D1B4F854104C
:10311000A06D01F06FF8B4F85410A06D01F064F8E0
:1031200001282FD112230293042305932946B4F8D2
:103130005C30206E019300F06BFFB4F85430A06D4A
:103140000193294600F064FF23681A6842F40042A4
:103150001A6000BF1A6822F400421A6000BF1A68A1
:1031600042F001021A60204601F0D2F906B070BDAB
:1031700000BF95E700BF9AE700BFA5E700BFB0E733
:1031800000BFBBE700BFC6E70C4808B50C4B0360A7
:103190000C4B43604FF48042002302614361826024
:1031A000C3610362C360836101F0B2F928B1EA210F
:1031B0000548BDE80840FFF703BB08BD702C02209E
:1031C00000580040801A06008101010830B587B020
:1031D0000023154D8DF80F1004468DF81730284642
:1031E00002F028FA2028FAD16423640000930DF13C
:1031F0000F02012321460C4801F0F8F988B90A4D65
:10320000284602F017FA2028FAD1642300930DF122
:10321000170201232146044801F0BEFA08B99DF8BF
:10322000170007B030BD00BF702C0220F0B585B08C
:10323000124F8DF80F10044616461D46384602F010
:10324000F9F92028FAD16423640000930DF10F02EC
:1032500001232146094801F0C9F968B9074F3846EA
:1032600002F0E8F92028FAD1642300932A46334675
:103270002146024801F090FA05B0F0BD702C022002
:103280001FB504468DF80C108DF80D20074802F08C
:10329000D1F92028FAD16423009303AA0223610004
:1032A000024801F0A3F904B010BD00BF702C022049
:1032B000064A5378D9075FBF03F0820343F05503F2
:1032C0001070537054BF012000207047720400201A
:1032D0000A4A0B4912780B78013A93420CDA01330F
:1032E000DBB20B704FF4A04200BF013AFCD1054A9B
:1032F0001268D05CFFF7DCBF704700BF7404002089
:103300007504002064040020002330B5194602240F
:10331000012540FA03F212F0010F4FEA430203F1D4
:10332000010314BF05FA02F204FA02F2082B41EA83
:103330000201EED1084630BD002310B51A46012423
:10334000590020FA01F1C90744BF04FA03F10A4306
:1033500003F1010348BFD2B2082BF1D1104610BDD2
:1033600013B5074C636801930198FFF7E5FF054A21
:10337000E0701378591C1170034AD05402B010BD8C
:103380006804002070040020C42C0220174A38B5BD
:103390001369174C23F0010313616378D80723D511
:1033A00003F07C027C2A134D08D16FF30003637095
:1033B000AB6943F00073AB61FFF78AFF2078FFF73A
:1033C000A3FF6378AA69C3F3840340F46010D84074
:1033D000C1074CBF42F4007242F00072AA616278E9
:1033E0001F3363F38602627038BD00BF00100040D7
:1033F000720400200004024038B51A4B1A4C1A69B6
:1034000022F001021A61194A126912F0010F04D068
:10341000227812B9012121705A626378032B01BF0F
:10342000002363701523A370104B1B6913F0010375
:1034300015D06378A27801336370012393406268EA
:1034400013436360A5784DB1013DEDB2A5702DB970
:103450006368DB086360FFF783FF656038BD6370F6
:10346000F0E700BF000C00406804002000000240AC
:1034700010B52648264B03607F22002386B0826069
:10348000FF224360C260036143618361437703F0BD
:10349000FFF818B114211F48FFF792F900211B48CB
:1034A00003F024FA43F2F22398422DD006A9022316
:1034B0000024012201F8183D14488DF803408DF8CE
:1034C00001208DF8024003F03CF918B12321114886
:1034D000FFF776F9012201A90C488DF804408DF818
:1034E00005408DF806408DF807400494059403F0DC
:1034F00088F918B130210748FFF762F943F2F22248
:103500000121024803F0EDF906B010BDC42D0220E0
:10351000002800409E0101082DE9F04F3F49404836
:10352000ADF51D7D06F006FD06F024FE00223D49A6
:103530003D4806F00FF918B19D213C48FFF740F9CE
:103540003B4806F0DDFE32223A4910A806F04CF95D
:1035500030B9394910A806F0D2FB10A806F0B6FB26
:10356000364DDFF8D0802868354F364E00234FF0B7
:10357000FF32194607F0BAFE00234FF0FF3219461A
:10358000286807F0B3FE3222414610A806F02CF955
:103590000028F1D12C4CDFF8B4A0FEF74FFF04F562
:1035A000615934F8263C54F80C0C0F930C94FCF73A
:1035B000DBFFCDE90A0154F8100C34F828BCFCF705
:1035C000D3FFCDE9080154F8140CFCF7CDFFCDE989
:1035D000060154F8180CFCF7C7FF34F8202C0392AE
:1035E00034F82A2C029234F8222C019234F8242C3C
:1035F0000092CDE904010F9B5A463946304609F046
:103600005DFC48343246514610A806F078FBA145CF
:10361000C7D110A806F05AFBAEE700BFF13C02206C
:10362000EC0301081802010878040020BB0101081E
:10363000AC060020DB010108E7010108E42D0220AF
:1036400019020108EC0600202C0000104F020108AE
:1036500030B5002287B04821102007F019FD104B2B
:10366000032218600021012007F012FD0D4A1060AE
:1036700020B100231A46194607F02EFD0A4D0FCD42
:1036800001AC0FC42B682360002101A807F0EFF8FC
:10369000064B1860064B00221A6007B030BD00BF11
:1036A000EC2D0220E42D022064000108482E0220A7
:1036B000E82D022008B50F4B0F4A1A60072100229F
:1036C000D8619A605A611A619A62D962DA601A62A4
:1036D0004FF480215A6218464FF4827299615A6001
:1036E00003F060F928B14A210448BDE80840FFF71B
:1036F00067B808BDF02D022000340140BB0101086D
:10370000034800231A461946006807F0E5BC00BFCD
:10371000E42D0220024600B101221021014800F0F0
:1037200069BD00BF0010024007B541F28833009325
:1037300013460A460146034803F071F903B05DF8E9
:1037400004FB00BFF02D02207FB541F288338DF8D5
:103750000F0000930DF1170201230DF10F01044832
:1037600003F05DF99DF8170007B05DF804FB00BF9A
:10377000F02D022010B53820FFF79CFF0A24FF200F
:10378000FFF7E2FF013CFAD11020BDE81040FFF73F
:1037900091BF000007B50023134A0193116C134831
:1037A00041F002011164126C1149036102F002023E
:1037B0000192019A8360532280E806004CF2503255
:1037C000C26003F04BFB18B117210A48FEF7F8FF5F
:1037D000064803F021FA18B11A210648FEF7F0FF57
:1037E00003B05DF804FB00BF00380240002F022048
:1037F000000400405D02010807B50023134A01934D
:10380000116C134841F008011164126C11490361F5
:1038100002F008020192019A8360532280E80600B8
:103820004CF25032C26003F019FB18B12A210A4849
:10383000FEF7C6FF064803F0EFF918B12D21064840
:10384000FEF7BEFF03B05DF804FB00BF0038024086
:10385000882E0220000C00405D02010807B50023FD
:10386000134A0193116C134841F010011164126C5A
:103870001149036102F010020192019A8360532200
:1038800080E806004CF25032C26003F0E7FA18B14B
:103890003D210A48FEF794FF064803F0BDF918B130
:1038A00040210648FEF78CFF03B05DF804FB00BF23
:1038B00000380240C42E0220001000405D020108C2
:1038C00007B50023134A0193116C134841F001011D
:1038D0001164126C036102F001020192019A83608B
:1038E00053224FF0804180E806004CF25032C26013
:1038F00003F0B4FA18B150210848FEF761FF0648FA
:1039000003F08AF918B153210448FEF759FF03B0B8
:103910005DF804FB003802403C2F02205D020108E4
:1039200007B50023134A0193116C134841F00401B9
:103930001164126C1149036102F004020192019AB0
:103940008360532280E806004CF25032C26003F0DC
:1039500085FA18B164210A48FEF732FF064803F0E1
:103960005BF918B167210648FEF72AFF03B05DF83E
:1039700004FB00BF003802404C2E0220000800402B
:103980005D02010808B51148114B4FF4E13E80E893
:103990000840042200238360C360036142618361A5
:1039A000C36103F0C7FB18B11C210A48FEF708FFEA
:1039B0000E220949054803F048FC28B11F2105489B
:1039C000BDE80840FEF7FCBE08BD00BF383002204D
:1039D000001001407D020108B830022008B50C48F3
:1039E0000C4B4FF4614E80E808400C2200238360AA
:1039F000C360036142618361C36103F09BFB28B133
:103A00002F210548BDE80840FEF7DABE08BD00BF1B
:103A1000782F0220005000407D02010838B516487A
:103A2000164C4FF41653042284E809006261002307
:103A30004FF480722046A360E3602361A261E361DA
:103A400003F078FB054628B140210D48BDE8384019
:103A5000FEF7B6BE204603F091FD20280BD1294683
:103A60008022084808F0F9FC204680220549BDE87C
:103A7000384003F00DBC38BD00780040783002209B
:103A80007D020108B82F02200A4641F28833014620
:103A9000014803F07DBB00BF782F02200268044B71
:103AA0009A4203D180210348FEF78CBE704700BFC5
:103AB00000780040B82F0220FEE7000070B50A4DE4
:103AC0000A4E0949306800234FF0FF3207F00EFC20
:103AD00001280446F5D1A988286804F0D1FA2046C7
:103AE00006F0DDFEEDE700BFB4070020D030022075
:103AF00070B500228AB00821102007F0C9FA154CD1
:103B0000002220600121202007F0C2FA124B134945
:103B100018602068124C264607F0FCFC0FCE6D465C
:103B20000FC533682B600021684606F0A0FE0D4BE0
:103B3000143418600FCC05AD0FC523682B6000212D
:103B400005A806F094FE084B186004F057FA0AB076
:103B500070BD00BFD0300220CC3002209C02010892
:103B600078000108D4300220C830022008B50B4B81
:103B70001A6842F400721A601A6842F480621A608D
:103B80001A6842F480721A60032000F02FF80020B7
:103B9000FFF764F8FEF74AFE002008BD003C024033
:103BA000034A044B11681B780B441360704700BF35
:103BB000D83002200C000020014B1868704700BF6D
:103BC000D830022038B50446FFF7F6FF631C1CBF4F
:103BD000054B1B78054618BFE418FFF7EDFF401BA7
:103BE0008442FAD838BD00BF0C000020074AD368D1
:103BF00023F4E0631B041B0C43F0BF63000243F497
:103C0000003300F4E0600343D360704700ED00E050
:103C1000174B30B5DC68C4F30224C4F10703251D3B
:103C2000042B28BF0423062D4FF0010505FA03F3EA
:103C300003F1FF338CBF033C00241940A14005FA77
:103C400004F4013C2240002842EA01024FEA021239
:103C5000AFBF00F1604000F00F00064BD2B2A5BF2D
:103C600000F56140D2B21A5480F8002330BD00BF85
:103C700000ED00E014ED00E04209012300F01F0018
:103C800003FA00F0014B43F82200704700E100E026
:103C90000138B0F1807F0AD2064B074A5860F02104
:103CA00082F823100020072298601A6070470120D4
:103CB000704700BF10E000E000ED00E0044B1A6820
:103CC00004280CBF42F0040222F004021A6070477C
:103CD00010E000E00368DAB223F47F7323F00303FB
:103CE0001821103AB2FBF1F20449032A88BF0433C9
:103CF000895C8365C165806D704700BFBF020108A4
:103D000070B50446FFF758FF0546002C71D000231C
:103D100084F834302268022384F83530136823F0A5
:103D20000103136021680B68D8073CD40B68324D3F
:103D30006268A0691D40A3681343E26813432269C7
:103D4000134362691343E26903431343226A134333
:103D5000626A042A43EA050301BF266BE56A35431C
:103D60002B430B604B69042A23F0070343EA020349
:103D70000BD1A26AE56A13433DB1F8B9012A2DD0EF
:103D800001D3022A01D1EA012BD44B612046FFF76F
:103D9000A1FFE26D3F239340836000200123606513
:103DA00084F8353070BDFFF707FF401B0528B9D9EF
:103DB00020236365032084F8350070BDB0F5005FF3
:103DC00013D1032AE1D801A050F822F0E33D000806
:103DD000873D0008E33D0008DD3D0008B5F1C07FE8
:103DE000D3D1402363650120E5E7022AF9D9032AEC
:103DF000C8E7012070BD00BF3F8010F070B590F89B
:103E00003440012C36D0012480F8344090F83540FD
:103E1000866D012C4FF000054FF0020428D180F888
:103E2000354004684565256825F480252560636074
:103E30008368402B0EBFA260A160E260C26D08BF24
:103E4000E1603F239340B360236843F0160323608F
:103E5000636943F080036361036C1BB1236843F023
:103E600008032360236843F001032360002070BD32
:103E700080F83450022070BD90F83530022B03D00A
:103E800080234365012070470268052380F83530A0
:103E9000136823F00103136000207047F7B5002377
:103EA00001935A4B856D1F68C36D2E6808229A4096
:103EB000164204460CD001680868400708D5086817
:103EC00020F004000860AA60626D42F001026265A1
:103ED00001229A40164208D021684969090641BF6B
:103EE000AA60626D42F00202626504229A401642A4
:103EF00008D021680968880741BFAA60626D42F056
:103F00000402626510229A40164210D02368196894
:103F100009070CD5AA601A68500335D51B68190328
:103F200001D4236C00E0A36C0BB120469847E16DEF
:103F300020228A40164238D023681868C60634D535
:103F4000AA6094F83520052A1A6825D122F01602B5
:103F50001A605A6922F080025A61226C0AB9A26C76
:103F60001AB11A6822F008021A603F238B40AB6036
:103F7000002384F83430012384F83530236D0BB1ED
:103F80002046984703B0F0BD1A68D2055EBF1A6894
:103F900022F008021A60C4E7500328D51B681903F1
:103FA00032D4636C0BB120469847636D002BE9D087
:103FB000636DDA0719D50523226884F83530136854
:103FC00023F0010313604FF41653B7FBF3F7019B83
:103FD00001339F42019302D31368DB07F7D4002318
:103FE00084F83430012384F83530E36CC7E71A686D
:103FF00012F4807208D1196821F0100119600123B0
:1040000084F8342084F83530E36BCBE708000020D7
:104010002DE9F04F85B00B68DFF8C4816E4ADFF8F8
:10402000C491019300234FF0010E019C0EFA03FE90
:104030000EEA0406B64540F0B6804C6824F010073E
:10404000022F16D14FEAD30A00EB8A0A03F0070BBE
:10405000DAF820504FEA8B0B4FF00F0C0CFA0BFCE8
:1040600025EA0C0C0D6905FA0BF545EA0C05CAF8B2
:1040700020504FEA430A0325D0F800B005FA0AF5AC
:10408000ED4304F0030C0BEA050B0CFA0AFC013FAC
:104090004CEA0B0C012FC0F800C011D8876807EA62
:1040A000050BCF6807FA0AFC4CEA0B0787604768E4
:1040B00027EA0E0EC4F300179F4047EA0E07476039
:1040C000C7683D408F6807FA0AF73D43C560E500C1
:1040D00069D54FF0000BCDF80CB0D8F844703F4DC7
:1040E00047F48047C8F84470D8F8447007F4804714
:1040F0000397039F23F0030707F1804707F59C37D9
:1041000003F0030CD7F808A04FEA8C0C4FF00F0E09
:104110000EFA0CFEA8422AEA0E0E4BD005F5806579
:10412000A84249D005F58065A84247D005F58065CD
:10413000A84245D005F58065A84243D0484543D004
:1041400005F50065A84241D005F58065A8423FD03D
:1041500005F58065A8423DD005F58065A84214BFED
:104160000A25092505FA0CF545EA0E05BD60156816
:10417000F74314F4803F0CBF3D403543156055684C
:1041800014F4003F0CBF3D4035435560956814F46E
:10419000801F0CBF3D4035439560D568A40254BFD5
:1041A0003D403543D5600133102B7FF43CAF05B063
:1041B000BDE8F08F5D46D5E70125D3E70225D1E7BD
:1041C0000325CFE70425CDE70525CBE70625C9E77D
:1041D0000725C7E70825C5E7003C0140000002406D
:1041E00000380240001402400369194214BF012044
:1041F000002070470AB1816170470904FBE74369F9
:10420000594041617047000008B5044B59690142AB
:1042100002D05861FEF77EFE08BD00BF003C0140A1
:104220000268536913F480630DD06FF480635361A7
:104230000423036420220023036380F83C3080F8C9
:104240003D2001207047184670472DE9F843044689
:1042500017469946C1F307488EB22568B8F1010F99
:104260000CBF6B69AB6936EA030314BF0120002061
:1042700008B9BDE8F8836B695A0512D52B6843F479
:1042800000732B606FF480636B610423236420222E
:104290000023236384F83C3084F83D200120BDE8EE
:1042A000F8837B1CD9D04FB900232022236384F8E4
:1042B0003C3084F83D200320BDE8F883FFF77CFC08
:1042C000A0EB09008742C8D2EEE72DE9F843089E2B
:1042D000044690461F46C1F307498DB22368B9F1E1
:1042E000010F0CBF5B699B6935EA03030CBF012317
:1042F0000023434502D00020BDE8F8837B1CEDD0AD
:104300005FB900232022236384F83C3084F83D20E9
:10431000032084F83E30BDE8F883FFF74DFC801B96
:104320008742DBD2EDE770B504460D46164623689A
:104330005B691B0601D5002070BD2046FFF770FFAA
:10434000A8B96A1CF3D065B9236C43F02003236439
:1043500020220023236384F83C3084F83D2003208E
:1043600070BDFFF729FC801B8542E0D2ECE70120FD
:1043700070BD00002DE9FF41984603680B9D16466D
:104380001A6842F480621A601A6842F480721A60F5
:104390000F4600950A9B00224FF001110446FFF7DB
:1043A00094FF80B923682F49FFB207F0FE021A611B
:1043B00020462B460A9AFFF748FF40B1236C042B96
:1043C00001D1012000E0032004B0BDE8F0812368A2
:1043D00003905A6903929B6903932A460A99039BA7
:1043E0002046FFF7A0FF40B1236C042BEBD12268DD
:1043F000136843F400731360E3E7B8F1010F236817
:1044000024D1F6B21E612A460A992046FFF78BFF97
:1044100002460028E8D121680B6843F480730B60E2
:10442000204600950A9B4FF00111FFF74EFF002830
:10443000C9D123680A9A0B4947F001071F6120463A
:104440002B46FFF702FF0028B8D1BDE7320A1A61F8
:104450000A992A462046FFF766FF0028C4D1236840
:10446000CFE700BF0200010070B504460D461646B6
:104470002068436913F0400301D0002070BD4269F9
:10448000D2060BD56FF0100242612022236484F81B
:104490003C302363012084F83D2070BD5DB9236C5E
:1044A00043F020032364202384F83D30002384F864
:1044B0003C30032070BDFFF77FFB801B8542D7D2C5
:1044C000EDE770B504460D46164623685B695B0749
:1044D00001D5002070BD2046FFF7A2FEA8B96A1CD6
:1044E000F3D065B9236C43F020032364202200231A
:1044F000236384F83C3084F83D20032070BDFFF72F
:104500005BFB801B8542E0D2ECE7012070BD000020
:1045100070B50446002862D090F83D3003F0FF02E9
:104520001BB980F83C20FEF7F7F922682D4E2E4D7E
:10453000242384F83D30136823F00103136001F055
:104540001FFF63682268B0FBF5F5B34284BF4FF4E8
:1045500096716943556091BF691C4FF47A75B1FB40
:10456000F5F10131B342116221D85B00B0FBF3F0E9
:10457000C0F30B03032B98BF0420216AE369D061C9
:104580000B431360E16823690B439360A16963697E
:104590000B43D360136843F0010313600020202312
:1045A000206484F83D30206384F83E0070BDA1682B
:1045B00049B903EB4303B0FBF3F0C0F30B0363B162
:1045C00040F40040D9E719214B43B0FBF3F0C0F3AE
:1045D0000B0313B140F44040CFE70120CDE70120A9
:1045E00070BD00BFA086010040420F002DE9FF41D1
:1045F00004461F460D469046FFF7DEFA94F83D301C
:10460000202B064604D00225284604B0BDE8F081E0
:104610000090192301225D492046FFF756FE00282D
:10462000F1D194F83C30012BEDD0012384F83C30DB
:1046300023681A68D2075EBF1A6842F001021A6046
:104640001A6822F400621A60212284F83D201022A8
:1046500084F83E2000222264A2F580326785E2625F
:10466000628D2285E26AC4F82480042A04D0012ADB
:1046700002D012F5803F04D11A6842F480721A60A9
:1046800002E0226B122AF7D000960A9B00224FF01C
:1046900001112046FFF719FE28BB23692268B3F5F4
:1046A000804F12D105F0FE05156133460A9A38494C
:1046B0002046FFF7CAFD0546A0B9236803905A6952
:1046C00003929B690393039B50E0EB1103F00603F5
:1046D00043F0F00313612F490A9A33462046FFF74F
:1046E000B4FD48B1236C236C042B4FF0000307D1B9
:1046F00084F83C30012587E72368EDB21D61D4E7DB
:1047000084F83C3003257FE732460A992046FFF7BC
:104710000AFE40B1236C042BF4D12268136843F4E1
:1047200000731360E6E7616A2068228D4B1C6362A8
:104730000B780361638D013B9BB263854769531E10
:104740009BB27F0723850AD54BB18B1C63624B78E4
:104750000361638D013B9BB2023A63852285324639
:104760000A992046FFF7ADFE0028D3D1238D002BF8
:10477000CAD121680A6842F400720A60202284F8D3
:104780003D2084F83C3084F83E303DE702001000C4
:1047900002000100080001002DE9F043044689B041
:1047A00098460D469146109FFFF706FA94F83D3063
:1047B000202B064604D00225284609B0BDE8F08328
:1047C0000090192301229C492046FFF77EFD002816
:1047D000F1D194F83C30012BEDD0012384F83C302A
:1047E00023681A68D2075EBF1A6842F001021A6095
:1047F0001A6822F400621A60222284F83D201022F6
:1048000084F83E2000222264A2F58032A4F82A8097
:10481000E262628D2285E26A1968C4F8249041F44C
:104820008061042A196004D0012A02D012F5803F69
:1048300004D11A6842F480721A6002E0226B112AD5
:10484000F7D000963B4600224FF001112046FFF7BB
:104850003CFD00284AD12369B3F5804F236836D147
:1048600045F00105EDB21D6133463A4673492046D5
:10487000FFF7EBFC0546002837D1228D2368002A7C
:1048800066D0012A77D11A6822F480621A600495F2
:104890005A6904929A690492049A1A6842F400725E
:1048A0001A60DFF8A081238D002B5BD0032B00F270
:1048B000CB80012B7AD1324639462046FFF7D4FD12
:1048C000002800F09080236C202B16D13EE04FEAA8
:1048D000E51808F0060848F0F0021A615849334616
:1048E0003A462046FFF7B1FC48B1236C236C042BF9
:1048F0004FF0000328D184F83C3001255CE72368A1
:104900004E49EDB21D613A4633462046FFF79DFC05
:1049100002460028E9D123680790596907919969EF
:1049200007910799196841F4807119602046009633
:104930003B464FF00111FFF7C8FC0028D6D1226892
:1049400048F0F10313618FE784F83C30032533E727
:1049500003955A6903929A690392039A1A6842F47A
:1049600000721A60202384F83D30002384F83E3022
:1049700084F83C3020E7022A1A680DD122F48062C4
:104980001A601A6842F400621A6005955A69059225
:104990009B690593059B84E742F480621A60069543
:1049A0005A6906929B690693069B7AE7022B00964A
:1049B0003B464FF000024146204622D1FFF785FCDE
:1049C0000028C3D123681A6842F400721A60626A30
:1049D0001B69511C61621370238D013B2385638D1C
:1049E000013B9BB26385636A5A1C6262226812694A
:1049F0001A70238D013B2385638D013B9BB2638538
:104A000051E7FFF762FC024600289FD1236819682E
:104A100021F480611960616A1B69481C60620B7037
:104A2000238D0096013B2385638D013B9BB26385FB
:104A300041463B462046C1E702001000020001004B
:104A40000800010004000100324639462046FFF705
:104A50000BFD00287FF437AF636A5A1C626222683C
:104A600012691A70238D2268013B2385638D013BF7
:104A70009BB2638553695B077FF515AF636A591C69
:104A80006162B4E72DE9F047044686B09A460D46C8
:104A90009146109FFFF790F894F83D30202B064682
:104AA00004D00225284606B0BDE8F08700901923FF
:104AB000012279492046FFF708FC0028F1D194F83B
:104AC0003C30012BEDD0012384F83C3023681A6878
:104AD000D2075EBF1A6842F001021A601A6822F417
:104AE00000621A60222384F83D30402384F83E306F
:104AF0000E9B63624FF00008BDF83C30C4F8408064
:104B00006385664BE362638D238529460196009792
:104B100053464A462046FFF72DFC054630B1236C2C
:104B200084F83C80042B3AD10125BBE7228D236811
:104B300092B902905A6902929A690292029A1A688C
:104B400042F400721A60202384F83D30002384F878
:104B50003E3084F83C30A5E7012A22D11A6822F4BD
:104B600080621A6003905A6903929A690392039AC9
:104B70001A6842F400721A60DFF82481238D002B3A
:104B8000E1D0032B6BD8012B23D132463946204686
:104B9000FFF76AFC002839D0236C202BC4D10325F1
:104BA00080E7022A0ED11A6822F480621A601A681D
:104BB00042F400621A6004905A6904929B6904935B
:104BC000049BD9E705905A6905929B690593059B5B
:104BD000D2E7022B00963B464FF0000241462046AA
:104BE00022D1FFF772FB0028D9D123681A6842F45A
:104BF00000721A60626A1B69511C61621370238D16
:104C0000013B2385638D013B9BB26385636A5A1C1C
:104C10006262226812691A70238D013B2385638DBD
:104C2000013B9BB26385A9E7FFF74FFB02460028D3
:104C3000B5D12368196821F480611960616A1B6924
:104C4000481C60620B70238D0096013B2385638DA9
:104C5000013B9BB2638541463B462046C1E7324655
:104C600039462046FFF700FC002895D1636A5A1C9C
:104C70006262226812691A70238D2268013B2385C3
:104C8000638D013B9BB2638553695B077FF576AF0C
:104C9000636A591C6162BDE7020010000000FFFF5B
:104CA00004000100704770477047704770477047B5
:104CB000704770477047704790F83D30293B012B93
:104CC00010B50368044639D800220263282280F810
:104CD0003D201A6822F400621A605A6812F40062D9
:104CE00054D05A68606B22F400625A6090F83530F4
:104CF000012B394B31D00365FFF7BEF850B1226864
:104D0000606B136823F001031360202384F83D30A7
:104D1000036D984794F83D30282B0ED1236C5B0728
:104D20000BD52E4BE362202200232363204684F818
:104D30003D2084F83E30FFF7BAFF10BD90F83D20CB
:104D4000602A05D05A6812055CBF202280F83D20F9
:104D50000022226384F83E20BBE7A06B0365FFF7C7
:104D60008BF80028D6D022685369580604D5636AA8
:104D70001269591C61621A702268A06B136823F0D3
:104D800001031360202384F83D30C1E794F83D10FF
:104D9000602914D1202184F83D1022645A695106FB
:104DA00004D5626A1B69511C616213702268136822
:104DB00023F0010313602046FFF77DFFAAE75A693D
:104DC000520604D5626A1B69511C61621370204649
:104DD000FFF770FF9EE700BFE95500080000FFFFE6
:104DE0000368F0B59D6959695A6890F83E40E4B28D
:104DF000102C8DB002D0402C40F0558211F0011FD4
:104E000066D0970564D590F83E40402C43D1046DA0
:104E1000002C3BD1446C04F0FE041C61984E994C6C
:104E20002E400C40002E00F09F81974D0D40002D2C
:104E300000F06681550540F16381002C40F06081EF
:104E400090F83D20058D90F83E10C46AD2B2C9B2E8
:104E5000002D40F00581212A40F00481042C00F04F
:104E60006C81082C00F0698114F5803F00F06581A9
:104E70005A6822F4E0625A601123036380F83E50BE
:104E8000202380F83D30FFF70DFFF6E0446C44F03E
:104E90000104E4B2C1E70469B4F5804F05D190F88C
:104EA0003D40212C446CF2D1B5E7046D34B9446C1B
:104EB000E41104F0060444F0F004AEE7046D012CA4
:104EC000ACD1446CE41104F0060444F0F104A4E70E
:104ED0006E4C0C401CB1960501D5446CD9E76C4C66
:104EE0000C40002C9AD0940598D590F83E40C66AA4
:104EF000D0F830E090F83D70222FE4B240F0A88066
:104F0000076D47B9402C06D101975C6901949C69F3
:104F10000194019C82E7046D8CB90769B7F5404F95
:104F20000DD102945C6902949C690294029C1C68F5
:104F300044F480741C60046D013404656EE7448D94
:104F4000A4B254B903945C6903949C690394039CD0
:104F50001C6844F400741C6019E0448DA4B2012C58
:104F600042D116F5803F1BD11C6824F480641C607C
:104F70005C6814F400640CD01C6824F480641C6029
:104F8000002404945C6904949C690494049C0024A7
:104F9000D3E705945C6905949C690594059CD7E763
:104FA000042E15D0082E13D0BEF1120F10D0C46AF3
:104FB000022C1C6814BF24F4806444F480641C60D8
:104FC000002406945C6906949C690694069CDEE7BE
:104FD0001C6824F480641C60002407945C690794B6
:104FE0009C690794079CB3E7448DA4B2022C1CD1A2
:104FF000C46A022C1C681DBF24F480641C601C68F9
:1050000044F4806418BF44F400641C605C682705A5
:1050100042BF5C6844F480545C60002408945C697E
:1050200008949C690894089CB1E71C6844F4806467
:105030001C605C68260542BF5C6844F480545C6078
:10504000002409945C6909949C690994099C9EE771
:1050500000240A945C690A949C690A940A9CDDE61F
:10506000212A03D0402908D1222A06D1428D92B2AA
:1050700082B95A6822F480625A600DB0F0BD00BF58
:10508000040010000400010080000100080001007D
:105090000200010090F83E20402A27D1026D7AB923
:1050A000C26C012A826C05D1D2B21A61036D02333F
:1050B0000365E2E7C2F307221A61036D0133F7E7E4
:1050C000026D012A02D1826CD2B2F5E7026D022A8A
:1050D000D3D190F83D20222A04D11A6842F480727C
:1050E0001A60CAE790F83D20212AC6D1426A511CB5
:1050F000416212781A61438D013B9BB24385BCE744
:10510000002CBAD09405B8D5C16A90F83D20212A68
:10511000B3D1428D92B2002AE8D104290DD00829DA
:105120000BD011F5803F08D0596821F4E061596037
:105130001123036380F83E20A2E65A6822F4E0625D
:105140005A601A6842F400721A6000232022036336
:1051500080F83D2090F83E2080F83E30402A7FF4D1
:1051600092AEFFF7A5FD88E7904D0D40002D41D090
:1051700051053FD5002C3DD190F83D20222A7FF4E7
:105180007CAF428D92B2032A13D9426A1B69511C2B
:1051900041621370438D013B9BB24385438D9BB2AB
:1051A000032B7FF46AAF0268536823F48063536073
:1051B00063E7012A3FF661AF1A6822F480621A6041
:1051C0005A6822F4E0625A60426A1B69511C4162CB
:1051D0001370438D013B9BB24385202380F83D3003
:1051E000046390F83E3080F83E40402B58D1FFF7E2
:1051F00060FD42E7002C3FF440AF97057FF53DAFDF
:10520000C16A428D92B2042A426A08D1596821F4D7
:1052100080615960511C1B69416213706BE7448DBA
:10522000A4B2032C08D1596821F48061596019682F
:1052300021F480611960EDE7448DA4B2022CE9D11C
:105240000139012919689DBF21F48061196019682D
:1052500041F4007198BF41F4807119601B69511CC1
:1052600041621370438D013B9BB24385436A5A1CD4
:105270004262026812691A70438D0268013B9BB258
:105280004385536823F440735360202380F83D30F6
:105290000023036390F83E2080F83E30402AA5E7C3
:1052A000FFF701FDE9E6424C0C4074B196050CD5C0
:1052B00099699B6981F004011D06C1F3800154BF07
:1052C0008289028BFFF7F2FCD7E63A4C0C40002CA7
:1052D00074D0940572D590F83D20596821F4E061AE
:1052E000596000210B9159690B91196841F0010136
:1052F00019600B99196821F48061196059680905D2
:10530000D2B20CD590F83D10222903D090F83D1070
:105310002A2929D1816B0968496889B24185418D63
:1053200089B2E1B159694F0708D5416A1B694C1C24
:1053300044620B70438D013B9BB2438501684B690E
:105340005E0608D5436A09695C1C44621970438D86
:10535000013B9BB24385036C43F004030364036C7D
:1053600023B1FFF7A9FC88E6416BD4E7A2F128013D
:1053700002290AD8104AC2622022036380F83D2025
:1053800080F83E30FFF793FC77E6036B222B02D0C8
:10539000222A7FF472AE00232022036380F83D208E
:1053A00080F83E30FFF781FC67E600BF4000010057
:1053B00002000100100001000000FFFF394E3A4CCE
:1053C0002E400C40002E36D0384D0D403DB35505D3
:1053D00025D524BB90F83D10428D92B2C9B2002A67
:1053E0003FF44BAE426A541C446212781A61428DFB
:1053F000013A92B24285428D92B2002A7FF43DAECC
:1054000029297FF43AAE5A6822F480625A60212337
:105410000363282380F83D30FFF746FC2DE6002C7F
:105420003FF42BAE94057FF528AE428D92B2002A50
:105430007FF45CAE21E61E4D0D4035B3510524D5F9
:105440001CBB90F83D20418D89B2D2B200293FF4B7
:1054500014AE416A1B694C1C44620B70438D013BC6
:105460009BB24385438D9BB2002B7FF406AE2A2A64
:105470007FF403AE0268536823F4806353602223F1
:105480000363282380F83D308CE7002C3FF4F5AD12
:1054900092057FF5F2AD428D92B2002A3FF4EDAD58
:1054A000426AB7E604001000040001008000010019
:1054B00040000100F8B50368494A5E695D6816421C
:1054C000044608D0E80506D5226C42F001022264A9
:1054D0006FF480725A6116F4813F08D0E90506D551
:1054E000226C42F0020222646FF400725A6116F4D8
:1054F000823F36D0EA0534D594F83E70618D94F839
:105500003D20206B202F89B2D2B258D1002956D12C
:1055100002F0F701212903D0282A50D121284ED1A9
:1055200094F83D20E16A0429D2B201D008292CD197
:10553000282A2AD12B4AE2625A6822F4E0625A6091
:105540006FF480625A611A6822F480621A60002344
:1055500020222363204684F83D2084F83E30FFF764
:10556000A6FB16F4843F09D0EB0507D5236C43F066
:105570000803236423686FF400625A61236C73B3D9
:105580002046BDE8F840FFF797BB212A23D11549F3
:10559000E1622263202284F83D20002284F83E202C
:1055A0005A6822F4E0625A606FF480625A611A68A5
:1055B00022F480621A602046FFF776FBD1E7226C66
:1055C00042F00402226494F83E20102A02BF1A68B6
:1055D00042F400721A606FF480625A61C1E7F8BD4C
:1055E000000101000000FFFF806B08B50368416BFC
:1055F0001A6822F480621A60002242850A65816B73
:105600000A6590F83D1060294FF0200180F83D10A8
:1056100080F83E2007D102641A6822F001021A6065
:10562000FFF749FB08BD1A6822F001021A60FFF774
:1056300041FB08BD90F83D007047F0B506468BB0C1
:10564000002864D00323344680F8B93302F02EFDDD
:1056500054F8100B01F0D8FF0FCC6D460FC50FCCDE
:105660000FC594E8030085E80300371D97E80E0096
:10567000306801F089FF0021306801F0CBFF002184
:105680003346324606F110040125084682F83810E8
:10569000D18701310F2982F8395082F83B0010641C
:1056A0005064D06402F11C02F0D10022D6F800E070
:1056B000114602F1400083F8F821DA870EEB8000F2
:1056C00001320F2A83F8F91183F8FB11C3F8001295
:1056D000C3F80412C3F80C12416003F11C03E8D1B3
:1056E0000FCC6D460FC50FCC0FC594E8030085E8BD
:1056F0000300704697E80E0001F0A4FF012386F82E
:10570000B933306802F0C1FA00200BB0F0BD0120BF
:10571000FBE790F8B833012B10B504460CD00123F9
:1057200080F8B833006802F0A4FA206801F066FF40
:10573000002084F8B80310BD022010BD2DE9F04F01
:10574000D0F8009087B00446484602F0D8FA02909C
:10575000002840F02E81206802F0A3FA002800F013
:105760002881206802F09DFA850748BF22682068DA
:1057700042BF536903F00203536102F092FA10F43E
:1057800000250AD0206802F090FA09F53066074635
:10579000A2460025002F40F00F81206802F081FA18
:1057A00041030BD5206802F088FA2646039009F5DC
:1057B00010680025039B002B40F03F81206802F019
:1057C00070FA00280DDAD9F8043823F00103C9F87B
:1057D0000438204602F0E0FC2268536903F00043DD
:1057E0005361206802F05DFA06050BD5D9F8083838
:1057F000D80702D5204602F0B7FC2268536903F4AB
:1058000000635361206802F04CFAC10437D509F5F2
:1058100000667368206823F001037360102101F0B3
:10582000ADFF616809F51063FF220298884240F0DD
:1058300092814FF0FF33B361F36943F00113F361D9
:10584000236B002B00F08F81D6F8843043F00B03DC
:10585000C6F88430736C43F00B037364D9F80038D6
:10586000217C206823F4FE63C9F8003804F56F72C8
:1058700002F064FA2268536903F48053536120688C
:1058800002F00FFA82041DD5206802F03CFA20686D
:10589000C36823F47053C36001F099FF002840F0FF
:1058A0006B812268E0604FF400736361D36843F456
:1058B0001053D360204602F046FC2268536903F47B
:1058C00000535361206802F0ECF9C3062BD522681F
:1058D000936923F010039361D9F82060C6F3434322
:1058E000022B06F00F0840F0A88147F6F0731E4225
:1058F00014D01C2707FB0847C6F30A163246D7F810
:105900000412484602F05FF9D7F804323344C7F86E
:105910000432D7F810321E44C7F810622268936927
:1059200043F010039361206802F0BBF9070707D525
:10593000204602F004FC2268536903F00803536117
:10594000206802F0AEF9C60208D5E9B2204602F09E
:105950002BFC2268536903F480135361206802F022
:10596000A0F9800208D5E9B2204602F019FC2268AD
:10597000536903F400135361206802F092F9410067
:1059800007D5204602F014FC2268536903F08043D7
:105990005361206802F085F942070AD523685D68E3
:1059A0006B0702D5204602F007FC23685A681543AE
:1059B0005D6007B0BDE8F08FF80738D55FFA85FB6A
:1059C0005946206802F081F910F0010F804621D07D
:1059D000216901239942B3600CD13169DAF80002E0
:1059E000C1F31201411ACAF81012DAF8041208447D
:1059F000CAF804025946204602F090FB21690129A9
:105A000008D13DB9D4F80C2222B904F56F72206890
:105A100002F094F918F0080F04D0204602F078FB49
:105A20000823B36018F0100F1CBF1023B3600135BA
:105A30007F0820360AF11C0AACE6039BDA0758D52A
:105A40005FFA85FB5946206802F049F9C30707460B
:105A500020D5D9F834380121A94023EA0103C9F837
:105A600034380123C8F808302369012B01BF736C57
:105A7000326C9B1873645946204602F058FB21692A
:105A8000012907D135B9E36C23B904F56F72206899
:105A900002F054F9380744BF0823C8F80830F90663
:105AA00044BF1023C8F808307A0644BF4023C8F822
:105AB0000830BB0744BF0223C8F808303F0618D59A
:105AC00023680493F76C336DFF1A336C9F4228BF31
:105AD0001F46049B03F5106307F1030A03EB45130C
