:020000040800F2
:1000000000000320F1AC000845190008471900085A
:10001000491900084B1900084D190008000000009C
:10002000000000000000000000000000C192000875
:100030004F190008000000005193000851190008F2
:1000400041AD000841AD000841AD000841AD0008D8
:1000500041AD000841AD000841AD000841AD0008C8
:1000600041AD000841AD0008A319000841AD0008EA
:1000700041AD000841AD000841AD000841AD0008A8
:1000800041AD000841AD000841AD000841AD000898
:100090007919000841AD000841AD00089D1900081C
:1000A00041AD00085519000841AD000841AD0008F8
:1000B00041AD000841AD000841AD000885190008B8
:1000C0009119000841AD000841AD000841AD00089C
:1000D00041AD0008A919000841AD000841AD000874
:1000E00041AD000841AD000841AD000841AD000838
:1000F00041AD000841AD000841AD000841AD000828
:1001000041AD000841AD0008ED1E000841AD0008FA
:1001100041AD000841AD0008811E00086D190008BE
:1001200041AD000841AD000841AD000841AD0008F7
:1001300041AD000841AD000841AD000841AD0008E7
:1001400041AD000841AD000841AD0008611900084B
:1001500041AD000841AD000841AD000841AD0008C7
:1001600041AD000841AD000841AD000841AD0008B7
:1001700041AD000841AD000841AD0008000000009D
:1001800041AD000841AD000841AD000841AD000897
:1001900041AD000841AD000841AD000841AD000887
:0C01A00041AD000841AD000841AD000871
:1001B00010B5054C237833B9044B13B10448AFF3A1
:1001C00000800123237010BD980C00200000000067
:1001D0008CCE000808B5034B1BB103490348AFF3AD
:1001E000008008BD000000009C0C00208CCE0008A0
:1001F000034613F8012B002AFBD1181A0138704767
:1002000001F0FF01102A2BDB10F0070F08D010F8C7
:10021000013B013A8B422DD010F0070F42B3F6D1CB
:10022000F0B441EA012141EA014122F007047FF0E4
:1002300000070023F0E80256083C85EA010586EA3B
:10024000010685FA47F5A3FA87F586FA47F6A5FA77
:1002500087F68EB9EED1F0BC01F0FF0102F0070283
:1002600032B110F8013B013A83EA010313B1F8D12E
:100270000020704701387047002D06BF354603380F
:10028000073815F0010F07D1013015F4807F02BF48
:10029000013015F4C03F0130F0BC0138704700BF99
:1002A00081F0004102E000BF83F0004330B54FEA27
:1002B00041044FEA430594EA050F08BF90EA020F94
:1002C0001FBF54EA000C55EA020C7FEA645C7FEA27
:1002D000655C00F0E2804FEA5454D4EB5555B8BF4A
:1002E0006D420CDD2C4480EA020281EA030382EABB
:1002F000000083EA010180EA020281EA0303362D4D
:1003000088BF30BD11F0004F4FEA01314FF4801C1F
:100310004CEA113102D0404261EB410113F0004F31
:100320004FEA03334CEA133302D0524263EB4303E8
:1003300094EA050F00F0A780A4F10104D5F1200E86
:100340000DDB02FA0EFC22FA05F2801841F10001E1
:1003500003FA0EF2801843FA05F359410EE0A5F1B5
:1003600020050EF1200E012A03FA0EFC28BF4CF0E6
:10037000020C43FA05F3C01851EBE37101F000459C
:1003800007D54FF0000EDCF1000C7EEB00006EEBA9
:100390000101B1F5801F1BD3B1F5001F0CD3490833
:1003A0005FEA30004FEA3C0C04F101044FEA44528A
:1003B00012F5800F80F09A80BCF1004F08BF5FEA11
:1003C000500C50F1000041EB045141EA050130BDF1
:1003D0005FEA4C0C404141EB010111F4801FA4F194
:1003E0000104E9D191F0000F04BF01460020B1FAE9
:1003F00081F308BF2033A3F10B03B3F120020CDA21
:100400000C3208DD02F1140CC2F10C0201FA0CF0FE
:1004100021FA02F10CE002F11402D8BFC2F1200C63
:1004200001FA02F120FA0CFCDCBF41EA0C01904019
:10043000E41AA2BF01EB0451294330BD6FEA040462
:100440001F3C1CDA0C340EDC04F11404C4F120024D
:1004500020FA04F001FA02F340EA030021FA04F35F
:1004600045EA030130BDC4F10C04C4F1200220FAB6
:1004700002F001FA04F340EA0300294630BD21FAF4
:1004800004F0294630BD94F0000F83F4801306BFBA
:1004900081F480110134013D4EE77FEA645C18BFAE
:1004A0007FEA655C29D094EA050F08BF90EA020F45
:1004B00005D054EA000C04BF1946104630BD91EA3D
:1004C000030F1EBF0021002030BD5FEA545C05D140
:1004D0004000494128BF41F0004130BD14F580047F
:1004E0003CBF01F5801130BD01F0004545F0FE41F3
:1004F00041F470014FF0000030BD7FEA645C1ABF28
:10050000194610467FEA655C1CBF0B46024650EA5E
:10051000013406BF52EA033591EA030F41F400218A
:1005200030BD00BF90F0000F04BF0021704730B510
:100530004FF4806404F132044FF000054FF00001E5
:1005400050E700BF90F0000F04BF0021704730B5A6
:100550004FF4806404F1320410F0004548BF40427B
:100560004FF000013EE700BF42004FEAE2014FEAD0
:1005700031014FEA02701FBF12F07F4393F07F4FAB
:1005800081F06051704792F0000F14BF93F07F4FDD
:10059000704730B54FF4607401F0004521F0004120
:1005A00020E700BF50EA010208BF704730B54FF0A6
:1005B00000050AE050EA010208BF704730B511F0AB
:1005C000004502D5404261EB41014FF4806404F1E3
:1005D00032045FEA915C3FF4DCAE4FF003025FEA65
:1005E000DC0C18BF03325FEADC0C18BF033202EBED
:1005F000DC02C2F1200300FA03FC20FA02F001FA47
:1006000003FE40EA0E0021FA02F11444C1E600BFE5
:1006100070B54FF0FF0C4CF4E06C1CEA11541DBF98
:100620001CEA135594EA0C0F95EA0C0F00F0DEF863
:100630002C4481EA030621EA4C5123EA4C5350EA48
:10064000013518BF52EA033541F4801143F4801399
:1006500038D0A0FB02CE4FF00005E1FB02E506F02A
:100660000042E0FB03E54FF00006E1FB03569CF07F
:10067000000F18BF4EF0010EA4F1FF04B6F5007F85
:1006800064F5407404D25FEA4E0E6D4146EB0606F7
:1006900042EAC62141EA55514FEAC52040EA5E5080
:1006A0004FEACE2EB4F1FD0C88BFBCF5E06F1ED82A
:1006B000BEF1004F08BF5FEA500E50F1000041EB61
:1006C000045170BD06F0004646EA010140EA02000E
:1006D00081EA0301B4EB5C04C2BFD4EB0C0541EA30
:1006E000045170BD41F480114FF0000E013C00F345
:1006F000AB8014F1360FDEBF002001F0004170BD69
:10070000C4F10004203C35DA0C341BDC04F1140481
:10071000C4F1200500FA05F320FA04F001FA05F20D
:1007200040EA020001F0004221F0004110EBD370DA
:1007300021FA04F642EB06015EEA430E08BF20EA06
:10074000D37070BDC4F10C04C4F1200500FA04F3A9
:1007500020FA05F001FA04F240EA020001F000413B
:1007600010EBD37041F100015EEA430E08BF20EAAE
:10077000D37070BDC4F1200500FA05F24EEA020EF6
:1007800020FA04F301FA05F243EA020321FA04F025
:1007900001F0004121FA04F220EA020000EBD370DC
:1007A0005EEA430E08BF20EAD37070BD94F0000FDC
:1007B0000FD101F00046400041EB010111F4801F10
:1007C00008BF013CF7D041EA060195F0000F18BFC1
:1007D000704703F00046520043EB030313F4801FFD
:1007E00008BF013DF7D043EA0603704794EA0C0FB7
:1007F0000CEA135518BF95EA0C0F0CD050EA4106CD
:1008000018BF52EA4306D1D181EA030101F0004149
:100810004FF0000070BD50EA410606BF1046194671
:1008200052EA430619D094EA0C0F02D150EA01367D
:1008300013D195EA0C0F05D152EA03361CBF1046BE
:1008400019460AD181EA030101F0004141F0FE415D
:1008500041F470014FF0000070BD41F0FE4141F4E1
:10086000780170BD70B54FF0FF0C4CF4E06C1CEAE1
:1008700011541DBF1CEA135594EA0C0F95EA0C0F96
:1008800000F0A7F8A4EB050481EA030E52EA033551
:100890004FEA013100F088804FEA03334FF0805572
:1008A00045EA131343EA12634FEA022245EA11159F
:1008B00045EA10654FEA00260EF000419D4208BF50
:1008C000964244F1FD0404F5407402D25B084FEAFD
:1008D0003202B61A65EB03055B084FEA32024FF4A9
:1008E00080104FF4002CB6EB020E75EB030E22BF06
:1008F000B61A754640EA0C005B084FEA3202B6EBC6
:10090000020E75EB030E22BFB61A754640EA5C0074
:100910005B084FEA3202B6EB020E75EB030E22BF04
:10092000B61A754640EA9C005B084FEA3202B6EB05
:10093000020E75EB030E22BFB61A754640EADC00C4
:1009400055EA060E18D04FEA051545EA16754FEA26
:1009500006164FEAC30343EA52734FEAC2025FEA44
:100960001C1CC0D111F4801F0BD141EA00014FF0D3
:1009700000004FF0004CB6E711F4801F04BF0143A4
:100980000020B4F1FD0C88BFBCF5E06F3FF6AFAEC0
:10099000B5EB030C04BFB6EB020C5FEA500C50F150
:1009A000000041EB045170BD0EF0004E4EEA1131D3
:1009B00014EB5C04C2BFD4EB0C0541EA045170BDDA
:1009C00041F480114FF0000E013C90E645EA060E1E
:1009D0008DE60CEA135594EA0C0F08BF95EA0C0F4C
:1009E0003FF43BAF94EA0C0F0AD150EA01347FF494
:1009F00034AF95EA0C0F7FF425AF104619462CE76B
:100A000095EA0C0F06D152EA03353FF4FDAE1046CD
:100A1000194622E750EA410618BF52EA43067FF41E
:100A2000C5AE50EA41047FF40DAF52EA43057FF4AE
:100A3000EBAE12E74FF0FF3C06E000BF4FF0010CB9
:100A400002E000BF4FF0010C4DF804CD4FEA410C1D
:100A50007FEA6C5C4FEA430C18BF7FEA6C5C1BD0EA
:100A600001B050EA410C0CBF52EA430C91EA030F6B
:100A700002BF90EA020F0020704710F1000F91EAC8
:100A8000030F58BF994208BF90422CBFD8176FEA96
:100A9000E37040F0010070474FEA410C7FEA6C5C64
:100AA00002D150EA013C07D14FEA430C7FEA6C5C6B
:100AB000D6D152EA033CD3D05DF8040B704700BF97
:100AC0008446104662468C461946634600E000BFE5
:100AD00001B5FFF7B7FF002848BF10F1000F01BDB7
:100AE0004DF808EDFFF7F4FF0CBF012000205DF882
:100AF00008FB00BF4DF808EDFFF7EAFF34BF012007
:100B000000205DF808FB00BF4DF808EDFFF7E0FF9F
:100B100094BF012000205DF808FB00BF4DF808EDF0
:100B2000FFF7CEFF94BF012000205DF808FB00BF57
:100B30004DF808EDFFF7C4FF34BF012000205DF839
:100B400008FB00BF4FEA410C7FEA6C5C02D150EA1F
:100B5000013C0AD14FEA430C7FEA6C5C02D152EAB5
:100B6000033C02D14FF0000070474FF00100704786
:100B70004FEA410212F5001215D211D56FF47873C5
:100B8000B3EB625212D94FEAC12343F0004343EA68
:100B9000505311F0004F23FA02F018BF4042704743
:100BA0004FF00000704750EA013005D111F00040CD
:100BB00008BF6FF0004070474FF00000704700BF63
:100BC0004FEA4102B2F1E04324BFB3F5001CDCF16F
:100BD000FE5C0DD901F0004C4FEAC0024CEA5070A7
:100BE000B2F1004F40EB830008BF20F001007047D6
:100BF00011F0804F21D113F13872BCBF01F00040D9
:100C0000704741F480114FEA5252C2F11802C2F10A
:100C1000200C10FA0CF320FA02F018BF40F001008B
:100C20004FEAC1234FEAD32303FA0CFC40EA0C003D
:100C300023FA02F34FEA4303CCE77FEA625307D17A
:100C400050EA01331EBF4FF0FE4040F440007047B1
:100C500001F0004040F0FE4040F40000704700BF4B
:100C600053B94AB9002908BF00281CBF4FF0FF3113
:100C70004FF0FF3000F07AB9ADF1080C6DE904CE09
:100C800000F006F8DDF804E0DDE9022304B0704767
:100C90002DE9F0478C460D460446089E002B51D1A5
:100CA0008A4217466DD9B2FA82FEBEF1000F0BD010
:100CB000CEF1200C01FA0EF520FA0CFC02FA0EF728
:100CC0004CEA050C00FA0EF44FEA174A250CBCFB5F
:100CD000FAF81FFA87F90AFB18CC45EA0C4508FB1D
:100CE00009F3AB420AD9ED1908F1FF3280F02381F4
:100CF000AB4240F22081A8F102083D44ED1AA4B2B3
:100D0000B5FBFAF00AFB105544EA054400FB09F96B
:100D1000A14509D9E41900F1FF3380F00A81A1450A
:100D200040F2078102383C44A4EB090440EA084041
:100D30000021002E61D024FA0EF400233460736089
:100D4000BDE8F0878B4207D9002E54D0002186E8F9
:100D500021000846BDE8F087B3FA83F1002940F08E
:100D60008E80AB4202D3824200F2FA80841A65EB95
:100D700003050120AC46002E3FD086E81010BDE8E8
:100D8000F08712B90127B7FBF2F7B7FA87FEBEF179
:100D9000000F34D1EB1B3A0C1FFA87FC0121B3FB87
:100DA000F2F8250C02FB183345EA03450CFB08F367
:100DB000AB4207D9ED1908F1FF3002D2AB4200F285
:100DC000D1808046ED1AA3B2B5FBF2F002FB1055BC
:100DD00043EA05440CFB00FCA44507D9E41900F1E3
:100DE000FF3302D2A44500F2B8801846A4EB0C04ED
:100DF00040EA08409DE731463046BDE8F087CEF135
:100E0000200405FA0EF307FA0EF720FA04F83A0C5C
:100E100025FA04F448EA0308B4FBF2F14FEA184556
:100E200002FB11441FFA87FC45EA044501FB0CF361
:100E3000AB4200FA0EF409D9ED1901F1FF3080F050
:100E40008A80AB4240F2878002393D44EB1A1FFA98
:100E500088F5B3FBF2F002FB103345EA034500FBD3
:100E60000CF3AB4207D9ED1900F1FF386FD2AB425A
:100E70006DD902383D44EB1A40EA01418FE7C1F1D8
:100E8000200722FA07F88B4005FA01F448EA030329
:100E900020FA07FE4FEA134CFD404EEA040EB5FB64
:100EA000FCF94FEA1E440CFB19551FFA83F844EA7B
:100EB000054509FB08F4AC4202FA01F200FA01FA16
:100EC00008D9ED1809F1FF3043D2AC4241D9A9F15C
:100ED00002091D442D1B1FFA8EFEB5FBFCF00CFB16
:100EE00010554EEA054400FB08F8A04507D9E41860
:100EF00000F1FF3529D2A04527D902381C4440EA29
:100F00000940A4EB0804A0FB02894C45C6464D46A7
:100F100015D312D056B1BAEB0E0364EB050404FAF4
:100F200007F7CB401F43CC40376074600021BDE819
:100F3000F0871846F8E69046E0E6C245EAD2B8EBFC
:100F4000020E69EB03050138E4E72846D7E740467F
:100F500091E78146BEE7014678E702383C4445E721
:100F6000084608E7A8F102083D442BE7704700BF98
:100F700030B5164D0FCD87B001AC0FC42B68236080
:100F8000002101A807F093FF114B032218600021F4
:100F9000012008F09DFB0F4A106020B100231A4683
:100FA000194608F0B9FB0C4B0C4901221A700C4A87
:100FB0000023138000220A600A490A600A490A6075
:100FC0000A4A13700A4A137007B030BDA8CE000851
:100FD00020320220083302202C3302204433022026
:100FE000003302202833022024320220C10C0020CA
:100FF000C00C0020064802230370064B1B68C36028
:10100000054B1B680361054B1B68436101F016B972
:10101000C40C0020B40C0020B80C0020BC0C002034
:1010200007B500248DF8074000F052FE00F006FEE0
:1010300022466B21682000F09DFE7521682000F09B
:1010400069FE8DF807009DF80730732B32D1062218
:101050001A21682000F08EFE0A2007F040FF224689
:101060001B21682000F086FE0A2007F038FF224688
:101070001C21682000F07EFE0A2007F030FF224687
:101080001921682000F076FE0A2007F028FF0122CF
:101090003821682000F06EFE0A2007F020FF084C7F
:1010A000206800234FF0FF32194608F0A1FCFFF73B
:1010B000A1FFF5E74FF4CF71024800F0E7FAEEE741
:1010C0000833022039CF00082DE9F04F8DB04FF6DC
:1010D000FF7302930E23019308AB00933B2201237D
:1010E000D0217248DFF8FC8102F080FA9DF82030B0
:1010F0009DF821609DF823509DF825009DF82970EA
:101100009DF82B409DF82C2046EA0326684B36B20A
:101110001E809DF8223045EA0325664B2DB21D80C6
:101120009DF8243040EA0320634B00B218809DF8FC
:10113000283047EA0327614B3FB21F809DF82A30D1
:1011400044EA03245E4B24B21C809DF82D3007EE48
:10115000900A43EA02231BB2F8EEE77A0593594B53
:10116000BDF814201A8017EE900AFFF7FDF9024629
:101170000B46FFF79BF800224FF07C53FFF748FA2D
:10118000FFF71EFD07EE907A4F4BF8EEE77A1860F6
:10119000834617EE900AFFF7E7F900224B4BFFF763
:1011A00037FA00224FF07C53FFF732FAFFF708FDC1
:1011B00007EE904A464BF8EEE77A1860824617EE43
:1011C000900AFFF7D1F90022404BFFF721FA4FF0C8
:1011D0007C530022FFF71CFAFFF7F2FC98F800702E
:1011E0003C4B632F8146186044464BD807EE906A0B
:1011F000F8EEE77A384B17EE900A182404FB073410
:10120000FFF7B2F902460B46FFF750F800224FF005
:101210007C53FFF7FDF9FFF7D3FC07EE905AF8EE89
:10122000E77A206017EE900AFFF79EF902460B4618
:10123000FFF73CF800224FF07C53FFF7E9F9FFF786
:10124000BFFCDDED057A6060F8EEE77AC4F808B01F
:1012500017EE900AC4F80CA0C4F81090FFF784F9B8
:1012600000221A4BFFF7D4F900224FF07C53FFF70E
:10127000CFF9FFF7A5FC0137606188F800700DB069
:10128000BDE8F08F154B07A9186808F05DFB079BB8
:10129000012B07D1124B4FF080521A60BFF34F8FD2
:1012A000BFF36F8F00232370E9E700BF50340220A3
:1012B0009832022040330220783202203C33022050
:1012C000743202200C330220B40C002000406F4026
:1012D000B80C0020BC0C002034030020083302208E
:1012E00004ED00E0C00C002008B5084B00224FF4CC
:1012F00080701A8007F0D6FE054B586028B91C2173
:101300000448BDE8084000F0C1B908BDE40C002065
:10131000DC0C002053CF00080168F8B58EB2A6F5AA
:1013200080730F2B044614D8234B057F677F1A4622
:10133000012002F8020B01F00F010020012DC3F87B
:10134000020050601081D9709D7012D0022D1ED005
:101350009F72A6F588760F2E0AD8E069236A6FF08F
:1013600000429042154A1BD1013319D1002313804A
:10137000F8BD10812246D97052F81E0F9D709288D8
:101380009F7258601A81184600F058FFE1E75060DC
:101390001081D4F81E20D9709D709F725A60F2E7B8
:1013A00013883F2BE2D851680860581C246A41F822
:1013B00020400233DBE700BFE80C0020DC0C0020FB
:1013C00010B5184C002221464FF4807000F0D0FB7D
:1013D000012007F084FD2146002240F2011000F0B8
:1013E000C7FB012007F07BFD214600224FF48170EE
:1013F00000F0BEFB012007F072FD2146002240F202
:10140000031000F0B5FB012007F069FD21464FF401
:101410008270002200F0ACFB0120BDE8104007F014
:101420005EBD00BF69CF000808B500F09BFDFFF767
:101430005BFF00F06BFF00F0B1FE00F01DFBFFF75B
:1014400097FDFFF7BDFF642007F049FDF9E70000B5
:1014500030B595B0274B002101911A6C42F08052B3
:101460001A641B6C03F080530193019B224B029181
:101470001A6842F440421A601B6803F44043029326
:10148000029B012308934FF4803309934FF48003A8
:101490000F93082310934FF4A8730224119308A804
:1014A00007230E941294139303F0CEFA00B1FEE7D3
:1014B0004FF4A05305900F25052103A8049403952C
:1014C0000693079303F070FC044600B1FEE703F0B7
:1014D00005FD4FF47A73B0FBF3F001F023FB042019
:1014E00001F036FB224629464FF0FF3001F0DAFAD0
:1014F00015B030BD003802400070004070B58AB0B1
:10150000234B2448002401941A6B42F080021A6392
:101510001A6B02F080020192019A02941A6B42F057
:1015200004021A631A6B02F004020292029A0394F4
:101530001A6B42F001021A631A6B02F00102039265
:10154000039A04941A6B42F008021A631B6B069408
:1015500003F0080304930225049B07954FF480537E
:1015600005A90593089501F011FB079508950A4D0B
:101570000123102605A928460693059601F006FBCF
:1015800022463146284601F0EDFB0AB070BD00BF8F
:1015900000380240001C0240000C024030B50C4DE7
:1015A00087B000F011FFFFF753FFFFF7A7FF0FCD44
:1015B00001AC0FC42B682360002101A807F077FC61
:1015C000044B186007F06EFC002007B030BD00BF70
:1015D000BCCE0008583302200268084B9A4210B56E
:1015E000044601D100F00AFF2268054B9A4201BF70
:1015F000044A13680133136010BD00BF00000140AE
:1016000000140040000D0020014B1868704700BF17
:10161000000D002030B5002289B00721372001F0ED
:1016200041FA372001F072FA0025144B02951A6C2A
:10163000134C42F020021A641B6C03F02003029347
:1016400001A903A8029B03F06FFC03F05DFC0D4BA6
:10165000236042F20F73E36040000B4BB0FBF3F0EA
:101660000138606020462561A56004F09FF910B93B
:10167000204604F085F809B030BD00BF00380240B4
:101680005C3302200014004080969800FEE708B505
:10169000032001F0F5F9002211466FF00B0001F074
:1016A00001FA002211466FF00A0001F0FBF9002256
:1016B00011466FF0090001F0F5F9002211466FF0B4
:1016C000040001F0EFF9002211466FF0030001F071
:1016D000E9F900220F216FF0010001F0E3F9002287
:1016E0000F214FF0FF30BDE8084001F0DBB90000EA
:1016F00010B502681F4B9A4288B038D103F5823387
:10170000002101915A6C1C4842F400525A645A6CF0
:1017100002F400520192019A02911A6B42F01002F7
:101720001A631B6B03F010030293029B0423012234
:101730000524039303A902230592049306930794B7
:1017400001F024FA202303A90B480393079401F026
:101750001DFA402303A908480393079401F016FAE1
:10176000102303A904480393079401F00FFA08B06B
:1017700010BD00BF003401400010024010B588B019
:10178000154B1648002401941A6B42F008021A63A4
:101790001A6B02F008020192019A02941A6C42F04C
:1017A00000721A641B6C059403F000730293029B91
:1017B000032303930222069303A9092307930492A8
:1017C00001F0E4F922460821142001F06BF91420FD
:1017D00001F09CF908B010BD00380240000C024036
:1017E00070B50268204B9A4288B03AD11F4C20480D
:1017F00000250195236B43F002032363236B03F061
:1018000002030193019B40230393122304930123BA
:1018100005930426032303A90693079601F0B6F95E
:10182000802303A912480393079601F0AFF90295AC
:10183000236C43F400132364236C03F400132A463F
:10184000092102932020029B01F02CF9202001F0B5
:101850005DF91F202A460A2101F024F91F2001F01A
:1018600055F908B070BD00BF005400400038024078
:101870000004024000B599B00C230093012200231C
:10188000684606930592029303F0DEF820B14FF408
:1018900092710B48FFF7FAFE20230C930CA84FF42B
:1018A0000073169303F05EFB20B140F22B11044845
:1018B000FFF7ECFE034B01221A6019B05DF804FB40
:1018C00076CF00083C0E474230B5014689B0002271
:1018D000192001F0E7F8192001F018F90025154B3F
:1018E00002955A6C144C42F001025A645B6C03F08E
:1018F0000103029301A903A8029B03F015FB03F067
:1019000003FB0E4B236040F2E733E36040000C4BD7
:10191000B0FBF3F00138606020462561A56004F05B
:1019200045F820B9204603F02BFF09B030BD012057
:10193000FBE700BF0038024098330220000001405E
:1019400040420F007047FEE7FEE7FEE7FEE7704704
:1019500007F02CBB014803F022BF00BF98330220E0
:10196000014802F09FBC00BFA03C0220014803F0E8
:1019700016BF00BF5C330220014800F082BF00BFE9
:10198000FC330220014801F0DFBF00BF50340220C9
:10199000014802F043BB00BF50340220202001F078
:1019A000E7B9102001F0E4B9014804F065B800BFC0
:1019B000283602200F49D1F8883043F47003C1F86B
:1019C00088300D4B1A68002042F001021A609860BE
:1019D0001A6822F0847222F480321A60074A5A6030
:1019E0001A6822F480221A60D8604FF000638B607E
:1019F000704700BF00ED00E00038024010300024C6
:101A000070B50E4C0E4D0F4E88B000234FF0FF32D4
:101A10006946206807F0ECFF0128F6D12B4606AA9C
:101A20006946304600F041FE18B1074800F0BEFCA0
:101A3000EBE7064B186808F095FAE6E72C3402202D
:101A4000480D0020FC330220CECF000824340220B1
:101A500038B5074C074D0649286800234FF0FF3280
:101A600007F0C6FF0128F6D12046FFF755FCF2E744
:101A7000040D0020F833022030B53548354B0360A3
:101A80004FF4202303614FF48013002495B0436189
:101A90000623047644768476C4760477447784609B
:101AA000C460436000F0D0FC18B149212A48FFF718
:101AB000EDFD0123119312930AA90E2324480F94DC
:101AC00010940A940B940C940D940E94139300F0BC
:101AD00037FD18B158212048FFF7D8FD1C4800F009
:101AE000B9FD18B15C211C48FFF7D0FD032118484F
:101AF00000F0A8FE18B160211748FFF7C7FD0022CB
:101B00002421202007F0E4FD144B154C186000221E
:101B10002021082007F0DCFD124B18600FCC6D4629
:101B20000FC554F8043B2B600021684607F0BFF94D
:101B30000D4B18600FCC05AD0FC523682B6000213D
:101B400005A807F0B4F9094B186015B030BD00BF07
:101B5000FC33022000640040AECF0008F8330220BE
:101B6000D0CE00082C340220283402202434022055
:101B70002DE9F8430F4C104F20600E46154604F136
:101B80001809A046082D86BF082323612561314628
:101B90002269484609F00AF900231A464146386886
:101BA00007F0BAFD2369ED1AADB21E44002DE9D14C
:101BB000BDE8F883280D00202C3402200268114B68
:101BC0009A4210B51DD1104B0021A3F11C0200F068
:101BD000BBFD18B1C8210D48FFF758FD0C4C0D484E
:101BE0000D49006800232246236007F04BFE23685E
:101BF0003BB10A4B4FF080521A60BFF34F8FBFF3D7
:101C00006F8F10BD00640040F0330220AECF00089B
:101C10004C0D0020F8330220D433022004ED00E004
:101C20000268044B9A4203D1034B186808F05CBA6F
:101C3000704700BF006400402434022070B586B0B5
:101C40000025194B00951A6B184E42F002021A63D8
:101C50001B6B039503F00203009306AC009B144B2F
:101C60000293202344F8143D3046214600F08EFFB5
:101C70002A460A21172000F015FF172000F046FF22
:101C80000C4B029302230393214610233046019309
:101C900000F07CFF0A210846012200F003FF0A2021
:101CA00000F034FF06B070BD00380240000402406E
:101CB00000001110000031107047202808B502D133
:101CC000FFF702FA08BD102801D1FFF7F5FF08BDA4
:101CD0000C4808B50C4B03600C4B43604FF480423A
:101CE0000023026143618260C3610362C360836158
:101CF00001F0C2F928B11D210548BDE80840FFF7F1
:101D0000C5BC08BD5034022000540040801A0600B3
:101D100000D0000830B587B00023154D8DF80F10A6
:101D200004468DF81730284602F038FA2028FAD1F8
:101D30006423640000930DF10F02012321460C4837
:101D400001F008FA88B90A4D284602F027FA20283F
:101D5000FAD1642300930DF11702012321460448B0
:101D600001F0CEFA08B99DF8170007B030BD00BFEA
:101D7000503402201FB504468DF80C108DF80D204C
:101D8000074802F00BFA2028FAD16423009303AA33
:101D900002236100024801F0DDF904B010BD00BF6C
:101DA00050340220064A5378D9075FBF03F08203FC
:101DB00043F055031070537054BF0120002070474A
:101DC0005E0D00200A4A0B4912780B78013A9342C3
:101DD0000CDA0133DBB20B704FF4A04200BF013AC2
:101DE000FCD1054A1268D05CFFF7DCBF704700BF2A
:101DF000600D0020610D0020500D0020002330B543
:101E000019460224012540FA03F212F0010F4FEAAD
:101E1000430203F1010314BF05FA02F204FA02F2CD
:101E2000082B41EA0201EED1084630BD002310B56F
:101E30001A460124590020FA01F1C90744BF04FAE7
:101E400003F10A4303F1010348BFD2B2082BF1D1D9
:101E5000104610BD13B5074C636801930198FFF756
:101E6000E5FF054AE0701378591C1170034AD054FD
:101E700002B010BD540D00205C0D0020A4340220DF
:101E8000174A38B51369174C23F0010313616378BF
:101E9000D80723D503F07C027C2A134D08D16FF3B9
:101EA00000036370AB6943F00073AB61FFF78AFF17
:101EB0002078FFF7A3FF6378AA69C3F3840340F493
:101EC0006010D840C1074CBF42F4007242F000726B
:101ED000AA6162781F3363F38602627038BD00BF67
:101EE000001000405E0D00200004024038B51A4B7F
:101EF0001A4C1A6922F001021A61194A126912F089
:101F0000010F04D0227812B9012121705A6263783E
:101F1000032B01BF002363701523A370104B1B69B3
:101F200013F0010315D06378A278013363700123A5
:101F30009340626813436360A5784DB1013DEDB2F3
:101F4000A5702DB96368DB086360FFF783FF6560E8
:101F500038BD6370F0E700BF000C0040540D002056
:101F60000000024010B52648264B03607F22002364
:101F700086B08260FF224360C26003614361836177
:101F8000437703F039F918B114211F48FFF77EFB9E
:101F900000211B4803F05EFA43F2F22398422DD051
:101FA00006A902230024012201F8183D14488DF8E7
:101FB00003408DF801208DF8024003F076F918B146
:101FC00023211148FFF762FB012201A90C488DF87B
:101FD00004408DF805408DF806408DF807400494C4
:101FE000059403F0C2F918B130210748FFF74EFB02
:101FF00043F2F2220121024803F027FA06B010BD95
:10200000A4350220002800401DD000082DE97043AF
:1020100050495148ADF52A7D06F0ACFA06F0CAFBEE
:1020200000224E494E4805F0B5FE20B14FF48B71A9
:102030004C48FFF72BFB4C4806F082FC32224B4900
:102040001EA805F0F1FE30B949491EA806F077F93F
:102050001EA806F05BF9322246491EA805F0E4FEF0
:1020600030B943491EA806F06AF91EA806F04EF9D9
:10207000414C424D3F4E4049286800234FF0FF320B
:1020800007F0B6FC0128F6D12378012B26D0022BCD
:10209000F1D1322235491EA805F0C6FE002857D1DD
:1020A000E068FEF761FA804660698946FEF75CFAEF
:1020B000CDE902012069FEF757FA4246CDE9000159
:1020C0004B462F4905A809F0ADFB05AA2D491EA8CE
:1020D00006F035F91EA806F019F9CCE73222314690
:1020E0001EA805F0A1FE002830D1A378012B09D14C
:1020F00021890191E1880091A388E27822491EA8F4
:1021000006F01DF9A378022B09D100210191E18885
:102110000091A388E2781C491EA806F010F91EA8B9
:1021200006F0F4F821890191E188A388E278009112
:102130001648154909F076FB144800F037F9E378A2
:10214000042B98D1124800F031F994E71148FAE7CE
:102150001148F8E7914202206CD2000896D000089E
:10216000640D00203AD00008980F00205AD00008D3
:1021700065D0000897D00008D80F0020C83502208D
:10218000F0D0000807D10008A3D00008F20F00200B
:10219000B3D00008DBD000080AD1000830B5002217
:1021A00087B01821102007F093FA0B4D0B4B1860E5
:1021B0000FCD01AC0FC42B682360002101A806F0ED
:1021C00076FE074B074A186000231360064A137017
:1021D000064A137007B030BDF8CE0008C83502209B
:1021E00024360220C4350220F10F0020F00F002019
:1021F00008B50F4B0F4A1A6007210022D8619A6078
:102200005A611A619A62D962DA601A624FF48021C7
:102210005A6218464FF4827299615A6003F076F957
:1022200028B14D210448BDE80840FFF72FBA08BD8A
:10223000CC350220003401403AD00008044B01465E
:10224000186818B100231A4607F066BA704700BF35
:10225000C8350220024600B101221021014800F0D9
:1022600081BD00BF0010024007B541F288330093E2
:1022700013460A460146034803F085F903B05DF8AA
:1022800004FB00BFCC3502207FB541F288338DF8C6
:102290000F0000930DF1170201230DF10F01044807
:1022A00003F071F99DF8170007B05DF804FB00BF5B
:1022B000CC35022010B53820FFF79AFF0A24FF2002
:1022C000FFF7E2FF013CFAD11020BDE81040FFF714
:1022D0008FBF7047FEE7000070B50A4D0A4E0949EE
:1022E000306800234FF0FF3207F082FB01280446DC
:1022F000F5D1A988286804F0E3F9204606F0EFFD3F
:10230000EDE700BF741000207036022070B5002287
:102310008AB00821102007F0DBF9154C002220605C
:102320000121202007F0D4F9124B134918602068CE
:10233000124C264607F070FC0FCE6D460FC5336871
:102340002B600021684606F0B2FD0D4B1434186076
:102350000FCC05AD0FC523682B60002105A806F042
:10236000A6FD084B186004F069F90AB070BD00BF03
:10237000703602206C36022026D100080CCF0008EF
:10238000743602206836022010B4064C20600648DD
:10239000A180002321461A4600685DF8044B07F02F
:1023A000BBB900BF7C1000207036022010B5044677
:1023B000FDF71EFF431E7E2B05D881B22046BDE8E7
:1023C0001040FFF7E1BF10BD08B50B4B1A6842F48F
:1023D00000721A601A6842F480621A601A6842F445
:1023E00080721A60032000F04BFB0020FFF76CFAAC
:1023F000FFF74DF9002008BD003C0240034A044BA2
:1024000011681B780B441360704700BF78360220B8
:1024100004000020014B1868704700BF7836022086
:1024200038B50446FFF7F6FF631C1CBF054B1B784D
:10243000054618BFE418FFF7EDFF401B8442FAD8A9
:1024400038BD00BF0400002038B5044600286ED017
:1024500090F820300BB9FFF791F92268136823F048
:1024600002031360FFF7D6FF054623685A689107F9
:1024700051D41A6842F001021A60FFF7CBFF0546FB
:1024800023685A68D20754D5227E012A1A680CBFE5
:1024900042F0800222F080021A60627E012A1A68ED
:1024A0000CBF42F0400222F040021A60A27E012AD4
:1024B0001A680CBF42F0200222F020021A60E27E6D
:1024C000012A1A680CBF22F0100242F010021A60B2
:1024D000227F012A1A680CBF42F0080222F008028B
:1024E0001A60627F012A1A680CBF42F0040222F0CF
:1024F00004021A60E168A2680A4321690A4361691B
:102500000A43616801390A43DA61002001236062ED
:1025100084F8203038BDFFF77DFF401B0A28A4D97E
:10252000636A43F400336362052384F8203001209A
:1025300038BDFFF76FFF401B0A28A1D9F0E7000064
:1025400090F82030012B30B503D090F82030022BCA
:1025500077D13F4BD3F8002242F00102C3F80022AA
:10256000D3F8002222F47C52C3F80022D3F80022D0
:10257000486A42EA0022C3F800224869D3F81C5294
:1025800001248440E2431540C3F81C52CD69002D5C
:1025900036D1D3F80C521540C3F80C52C000CD68A8
:1025A0008B8800F1804000F5C84043EA0543C0F83D
:1025B00040328D680B8843EA0543C0F8443288698D
:1025C000234B002835D1D3F804021040C3F804028D
:1025D000086990BBD3F814020240C3F814220B6AB6
:1025E0001B4A012B02BFD2F81C322343C2F81C3213
:1025F000D2F8003223F00103C2F80032002030BDCF
:10260000012DDCD1D3F80C522543C3F80C520B68D2
:102610008D8845EA0345C30003F1804303F5C843B1
:102620008889C3F840528D6840EA0540C3F84402E7
:10263000C5E7D3F804022043C8E7D3F814222243A5
:10264000CBE7436A43F480234362012030BD00BFDF
:102650000064004038B590F82030012B04461FD1AB
:102660000268022380F82030136823F0010313600E
:10267000FFF7D0FE05462368586810F0010001D12D
:10268000606238BDFFF7C6FE401B0A28F3D9636AB3
:1026900043F400336362052384F82030012038BD01
:1026A000436A43F400234362F8E7F0B590F8204012
:1026B000012C03D090F82040022C41D10468A56879
:1026C0006F0105D4A5682E0102D4A568ED0031D5AF
:1026D000A0680125C0F3016085401D608D68CF684A
:1026E00000F118030DBB0D6847EA45551B010001B9
:1026F000E55023180D69097DC3F88451012902BFF3
:10270000D3F8841141F48071C3F8841104445168F2
:10271000C4F88C111268C4F88821D3F8802142F0E3
:102720000102C3F880210020F0BD4E683D4345EA18
:10273000C605DBE7436A43F4001343620120F0BDA2
:10274000436A43F48023F8E7F0B590F82040012C69
:1027500003D090F82040022C70D1066841B9F4688B
:10276000A40709D1436A43F4001343620120F0BD7A
:10277000012901D13469F3E70C013519D5F8B0719D
:1027800007F004079760002F4BD1D5F8B0717F0D8B
:102790001760D5F8B071C7F34007D760D5F8B471AA
:1027A00007F00F071761D5F8B471D5F8B451264476
:1027B000C7F307272D0C97615561D6F8B8211A7019
:1027C00002682244D2F8B821120A5A7002682244E0
:1027D000D2F8B821120C9A7002682244D2F8B821BB
:1027E000120EDA7002682244D2F8BC211A71026813
:1027F0002244D2F8BC21120A5A7102682244D2F84B
:10280000BC21120C9A7102681444D4F8BC21120E37
:10281000DA7159B90268D36843F02003D36000200D
:10282000F0BDD5F8B071FF085760B2E70129F6D1C5
:102830000268136943F020031361F0E7436A43F42D
:10284000802392E790F82030012B03D090F82030BD
:10285000022B05D10268536919435161002070476A
:10286000436A43F4802343620120704770477047F6
:1028700070477047704770477047704770477047A0
:1028800070472DE9F84F03685E69D3F804909F689C
:10289000D3F80CB0D3F810A0D3F8188016F00104C8
:1028A000054622D017F0010407D00122B9079A602B
:1028B00040F1A380FFF7B4F90024FB0509D52B688C
:1028C0004FF48072B8059A6040F1A5802846FFF762
:1028D000CDFFFB0309D52B684FF48032B8039A6013
:1028E00040F1A7802846FFF7C2FF330707D51BF04A
:1028F000100F1FBF2B68102244F40074DA607707B2
:1029000008D51BF0080F05D02B680822DA6028468E
:10291000FFF7B1FFB00706D52B68DB68990702D037
:102920002846FFF74BF9720607D51AF0100F1FBFA4
:102930002B68102244F480641A61B30608D51AF09B
:10294000080F05D02B6808221A612846FFF795FF6B
:10295000F70606D52B681B69980702D02846FFF7B3
:102960008BFFB10308D519F0100F05D02B6810228A
:102970005A602846FFF782FFF20308D519F0080FC6
:1029800005D02B6808225A602846FFF778FF3304E9
:102990002AD519F0040F2A6824D0F70504D518F0B9
:1029A000010F18BF44F00104B00504D518F0020F60
:1029B00018BF44F00204710504D518F0040F18BFC5
:1029C00044F0040433050DD518F070030AD0302B01
:1029D0004CD03CD8102B43D0202B44D0936923F00B
:1029E00070039361042353602CB16B6A1C436C62C7
:1029F0002846FFF745FFBDE8F88F7A0705D417F0A2
:102A0000080405D1FFF734FF57E74FF4006454E79B
:102A10004FF4805451E7790502D544F4005458E747
:102A20003A0502D544F4804453E72846FFF721FFD6
:102A30004FE7790302D544F4004456E73A0302D540
:102A400044F4803451E72846FFF714FF4DE7502B3C
:102A50000FD0602B10D0402BC0D144F04004BDE714
:102A600044F00804BAE744F01004B7E744F0200447
:102A7000B4E744F08004B1E744F48074AEE70000AA
:102A8000074AD36823F4E0631B041B0C43F0BF63C5
:102A9000000243F4003300F4E0600343D360704766
:102AA00000ED00E0174B30B5DC68C4F30224C4F13C
:102AB0000703251D042B28BF0423062D4FF0010515
:102AC00005FA03F303F1FF338CBF033C00241940E4
:102AD000A14005FA04F4013C2240002842EA010228
:102AE0004FEA0212AFBF00F1604000F00F00064B4A
:102AF000D2B2A5BF00F56140D2B21A5480F80023CB
:102B000030BD00BF00ED00E014ED00E042090123FC
:102B100000F01F0003FA00F0014B43F82200704759
:102B200000E100E00138B0F1807F0AD2064B074A8D
:102B30005860F02182F823100020072298601A6064
:102B400070470120704700BF10E000E000ED00E09A
:102B5000044B1A6804280CBF42F0040222F004025D
:102B60001A60704710E000E090F83530022B03D077
:102B700080234365012070470268052380F83530C3
:102B8000136823F001031360002070472DE9F04F14
:102B900085B00B68DFF8C4816E4ADFF8C4910193F9
:102BA00000234FF0010E019C0EFA03FE0EEA04060C
:102BB000B64540F0B6804C6824F01007022F16D1BD
:102BC0004FEAD30A00EB8A0A03F0070BDAF8205029
:102BD0004FEA8B0B4FF00F0C0CFA0BFC25EA0C0C98
:102BE0000D6905FA0BF545EA0C05CAF820504FEAC5
:102BF000430A0325D0F800B005FA0AF5ED4304F0C6
:102C0000030C0BEA050B0CFA0AFC013F4CEA0B0C17
:102C1000012FC0F800C011D8876807EA050BCF68FC
:102C200007FA0AFC4CEA0B078760476827EA0E0E92
:102C3000C4F300179F4047EA0E074760C7683D404E
:102C40008F6807FA0AF73D43C560E50069D54FF084
:102C5000000BCDF80CB0D8F844703F4D47F48047D6
:102C6000C8F84470D8F8447007F480470397039F6E
:102C700023F0030707F1804707F59C3703F0030CA7
:102C8000D7F808A04FEA8C0C4FF00F0E0EFA0CFE8E
:102C9000A8422AEA0E0E4BD005F58065A84249D01D
:102CA00005F58065A84247D005F58065A84245D066
:102CB00005F58065A84243D0484543D005F5006539
:102CC000A84241D005F58065A8423FD005F5806552
:102CD000A8423DD005F58065A84214BF0A25092504
:102CE00005FA0CF545EA0E05BD601568F74314F4C6
:102CF000803F0CBF3D4035431560556814F4003FDC
:102D00000CBF3D4035435560956814F4801F0CBFDF
:102D10003D4035439560D568A40254BF3D403543DE
:102D2000D5600133102B7FF43CAF05B0BDE8F08FC8
:102D30005D46D5E70125D3E70225D1E70325CFE797
:102D40000425CDE70525CBE70625C9E70725C7E715
:102D50000825C5E7003C0140000002400038024061
:102D6000001402400AB1816170470904FBE70000CA
:102D700008B5044B5969014202D05861FEF79DFF26
:102D800008BD00BF003C01400268536913F4806332
:102D90000DD06FF480635361042303642022002369
:102DA000036380F83C3080F83D20012070471846CE
:102DB00070472DE9F843044617469946C1F3074882
:102DC0008EB22568B8F1010F0CBF6B69AB6936EAAA
:102DD000030314BF0120002008B9BDE8F8836B6924
:102DE0005A0512D52B6843F400732B606FF480638F
:102DF0006B610423236420220023236384F83C3086
:102E000084F83D200120BDE8F8837B1CD9D04FB960
:102E100000232022236384F83C3084F83D200320E3
:102E2000BDE8F883FFF7F6FAA0EB09008742C8D2A5
:102E3000EEE72DE9F843089E044690461F46C1F38D
:102E400007498DB22368B9F1010F0CBF5B699B691B
:102E500035EA03030CBF01230023434502D00020C1
:102E6000BDE8F8837B1CEDD05FB9002320222363EB
:102E700084F83C3084F83D20032084F83E30BDE8DF
:102E8000F883FFF7C7FA801B8742DBD2EDE770B506
:102E900004460D46164623685B691B0601D50020D3
:102EA00070BD2046FFF770FFA8B96A1CF3D065B962
:102EB000236C43F02003236420220023236384F83F
:102EC0003C3084F83D20032070BDFFF7A3FA801B3F
:102ED0008542E0D2ECE7012070BD00002DE9FF4102
:102EE000984603680B9D16461A6842F480621A6081
:102EF0001A6842F480721A600F4600950A9B0022FD
:102F00004FF001110446FFF794FF80B923682F4961
:102F1000FFB207F0FE021A6120462B460A9AFFF71D
:102F200048FF40B1236C042B01D1012000E00320B5
:102F300004B0BDE8F081236803905A6903929B694D
:102F400003932A460A99039B2046FFF7A0FF40B14E
:102F5000236C042BEBD12268136843F400731360D5
:102F6000E3E7B8F1010F236824D1F6B21E612A46C7
:102F70000A992046FFF78BFF02460028E8D1216816
:102F80000B6843F480730B60204600950A9B4FF05A
:102F90000111FFF74EFF0028C9D123680A9A0B4997
:102FA00047F001071F6120462B46FFF702FF00286C
:102FB000B8D1BDE7320A1A610A992A462046FFF7BE
:102FC00066FF0028C4D12368CFE700BF02000100DC
:102FD00070B504460D4616462068436913F0400359
:102FE00001D0002070BD4269D2060BD56FF01002EF
:102FF00042612022236484F83C302363012084F85A
:103000003D2070BD5DB9236C43F020032364202371
:1030100084F83D30002384F83C30032070BDFFF776
:10302000F9F9801B8542D7D2EDE770B504460D460D
:10303000164623685B695B0701D5002070BD2046FA
:10304000FFF7A2FEA8B96A1CF3D065B9236C43F060
:103050002003236420220023236384F83C3084F877
:103060003D20032070BDFFF7D5F9801B8542E0D2DB
:10307000ECE7012070BD000070B50446002862D066
:1030800090F83D3003F0FF021BB980F83C20FEF7BA
:10309000A7FB22682D4E2E4D242384F83D30136863
:1030A00023F00103136001F01FFF63682268B0FB87
:1030B000F5F5B34284BF4FF496716943556091BFF3
:1030C000691C4FF47A75B1FBF5F10131B34211621D
:1030D00021D85B00B0FBF3F0C0F30B03032B98BFC8
:1030E0000420216AE369D0610B431360E16823691E
:1030F0000B439360A16963690B43D360136843F08A
:103100000103136000202023206484F83D302063F5
:1031100084F83E0070BDA16849B903EB4303B0FBDE
:10312000F3F0C0F30B0363B140F40040D9E7192179
:103130004B43B0FBF3F0C0F30B0313B140F440403A
:10314000CFE70120CDE7012070BD00BFA0860100C0
:1031500040420F002DE9FF4104461F460D469046B0
:10316000FFF758F994F83D30202B064604D002258D
:10317000284604B0BDE8F0810090192301225D4982
:103180002046FFF756FE0028F1D194F83C30012B81
:10319000EDD0012384F83C3023681A68D2075EBF63
:1031A0001A6842F001021A601A6822F400621A607A
:1031B000212284F83D20102284F83E20002222643F
:1031C000A2F580326785E262628D2285E26AC4F8E8
:1031D0002480042A04D0012A02D012F5803F04D1B1
:1031E0001A6842F480721A6002E0226B122AF7D049
:1031F00000960A9B00224FF001112046FFF719FEAE
:1032000028BB23692268B3F5804F12D105F0FE0573
:10321000156133460A9A38492046FFF7CAFD05462C
:10322000A0B9236803905A6903929B690393039B97
:1032300050E0EB1103F0060343F0F00313612F4954
:103240000A9A33462046FFF7B4FD48B1236C236C3D
:10325000042B4FF0000307D184F83C30012587E7A9
:103260002368EDB21D61D4E784F83C3003257FE785
:1032700032460A992046FFF70AFE40B1236C042B20
:10328000F4D12268136843F400731360E6E7616ABF
:103290002068228D4B1C63620B780361638D013BB8
:1032A0009BB263854769531E9BB27F0723850AD56E
:1032B0004BB18B1C63624B780361638D013B9BB206
:1032C000023A6385228532460A992046FFF7ADFE11
:1032D0000028D3D1238D002BCAD121680A6842F47B
:1032E00000720A60202284F83D2084F83C3084F883
:1032F0003E303DE70200100002000100080001001E
:103300002DE9F043044689B098460D469146109F3A
:10331000FFF780F894F83D30202B064604D00225B4
:10332000284609B0BDE8F0830090192301229C498A
:103330002046FFF77EFD0028F1D194F83C30012BA8
:10334000EDD0012384F83C3023681A68D2075EBFB1
:103350001A6842F001021A601A6822F400621A60C8
:10336000222284F83D20102284F83E20002222648C
:10337000A2F58032A4F82A80E262628D2285E26A98
:103380001968C4F8249041F48061042A196004D0BB
:10339000012A02D012F5803F04D11A6842F48072EB
:1033A0001A6002E0226B112AF7D000963B460022F9
:1033B0004FF001112046FFF73CFD00284AD1236958
:1033C000B3F5804F236836D145F00105EDB21D619C
:1033D00033463A4673492046FFF7EBFC0546002882
:1033E00037D1228D2368002A66D0012A77D11A6846
:1033F00022F480621A6004955A6904929A690492D0
:10340000049A1A6842F400721A60DFF8A081238DD2
:10341000002B5BD0032B00F2CB80012B7AD13246FC
:1034200039462046FFF7D4FD002800F09080236C39
:10343000202B16D13EE04FEAE51808F0060848F0C8
:10344000F0021A61584933463A462046FFF7B1FC6C
:1034500048B1236C236C042B4FF0000328D184F86F
:103460003C3001255CE723684E49EDB21D613A46C8
:1034700033462046FFF79DFC02460028E9D1236829
:10348000079059690791996907910799196841F45B
:1034900080711960204600963B464FF00111FFF7FE
:1034A000C8FC0028D6D1226848F0F10313618FE7E9
:1034B00084F83C30032533E703955A6903929A69EF
:1034C0000392039A1A6842F400721A60202384F867
:1034D0003D30002384F83E3084F83C3020E7022A57
:1034E0001A680DD122F480621A601A6842F40062F0
:1034F0001A6005955A6905929B690593059B84E7B7
:1035000042F480621A6006955A6906929B69069396
:10351000069B7AE7022B00963B464FF0000241469D
:10352000204622D1FFF785FC0028C3D123681A6802
:1035300042F400721A60626A1B69511C6162137066
:10354000238D013B2385638D013B9BB26385636AB9
:103550005A1C6262226812691A70238D013B23850E
:10356000638D013B9BB2638551E7FFF762FC024626
:1035700000289FD12368196821F480611960616A6D
:103580001B69481C60620B70238D0096013B2385EC
:10359000638D013B9BB2638541463B462046C1E7B4
:1035A00002001000020001000800010004000100F8
:1035B000324639462046FFF70BFD00287FF437AF2F
:1035C000636A5A1C6262226812691A70238D22682B
:1035D000013B2385638D013B9BB2638553695B0788
:1035E0007FF515AF636A591C6162B4E72DE9F047B6
:1035F000044686B09A460D469146109FFEF70AFF94
:1036000094F83D30202B064604D00225284606B00B
:10361000BDE8F08700901923012279492046FFF781
:1036200008FC0028F1D194F83C30012BEDD00123A7
:1036300084F83C3023681A68D2075EBF1A6842F0EB
:1036400001021A601A6822F400621A60222384F8C8
:103650003D30402384F83E300E9B63624FF00008FB
:10366000BDF83C30C4F840806385664BE362638DEF
:10367000238529460196009753464A462046FFF780
:103680002DFC054630B1236C84F83C80042B3AD1E4
:103690000125BBE7228D236892B902905A690292F4
:1036A0009A690292029A1A6842F400721A60202300
:1036B00084F83D30002384F83E3084F83C30A5E7A0
:1036C000012A22D11A6822F480621A6003905A6992
:1036D00003929A690392039A1A6842F400721A607C
:1036E000DFF82481238D002BE1D0032B6BD8012B35
:1036F00023D1324639462046FFF76AFC002839D0EC
:10370000236C202BC4D1032580E7022A0ED11A682E
:1037100022F480621A601A6842F400621A6004900F
:103720005A6904929B690493049BD9E705905A69EE
:1037300005929B690593059BD2E7022B00963B46B9
:103740004FF000024146204622D1FFF772FB0028CD
:10375000D9D123681A6842F400721A60626A1B6940
:10376000511C61621370238D013B2385638D013BE6
:103770009BB26385636A5A1C6262226812691A707E
:10378000238D013B2385638D013B9BB26385A9E7B4
:10379000FFF74FFB02460028B5D12368196821F4D2
:1037A00080611960616A1B69481C60620B70238D1F
:1037B0000096013B2385638D013B9BB263854146A7
:1037C0003B462046C1E7324639462046FFF700FC1B
:1037D000002895D1636A5A1C6262226812691A70C5
:1037E000238D2268013B2385638D013B9BB263855A
:1037F00053695B077FF576AF636A591C6162BDE769
:10380000020010000000FFFF040001007047704735
:1038100070477047704770477047704770477047F0
:1038200090F83D30293B012B10B50368044639D888
:1038300000220263282280F83D201A6822F40062E8
:103840001A605A6812F4006254D05A68606B22F40D
:1038500000625A6090F83530012B394B31D0036546
:10386000FFF782F950B12268606B136823F00103FF
:103870001360202384F83D30036D984794F83D3061
:10388000282B0ED1236C5B070BD52E4BE362202235
:1038900000232363204684F83D2084F83E30FFF760
:1038A000BAFF10BD90F83D20602A05D05A68120575
:1038B0005CBF202280F83D200022226384F83E2055
:1038C000BBE7A06B0365FFF74FF90028D6D022684D
:1038D0005369580604D5636A1269591C61621A70EB
:1038E0002268A06B136823F001031360202384F87F
:1038F0003D30C1E794F83D10602914D1202184F8AF
:103900003D1022645A69510604D5626A1B69511C34
:10391000616213702268136823F00103136020466C
:10392000FFF77DFFAAE75A69520604D5626A1B6950
:10393000511C616213702046FFF770FF9EE700BFC5
:10394000514100080000FFFF0368F0B59D69596907
:103950005A6890F83E40E4B2102C8DB002D0402C52
:1039600040F0558211F0011F66D0970564D590F89C
:103970003E40402C43D1046D002C3BD1446C04F0FC
:10398000FE041C61984E994C2E400C40002E00F015
:103990009F81974D0D40002D00F06681550540F147
:1039A0006381002C40F0608190F83D20058D90F8F7
:1039B0003E10C46AD2B2C9B2002D40F00581212A5E
:1039C00040F00481042C00F06C81082C00F0698127
:1039D00014F5803F00F065815A6822F4E0625A6075
:1039E0001123036380F83E50202380F83D30FFF719
:1039F0000DFFF6E0446C44F00104E4B2C1E7046951
:103A0000B4F5804F05D190F83D40212C446CF2D1A3
:103A1000B5E7046D34B9446CE41104F0060444F0D5
:103A2000F004AEE7046D012CACD1446CE41104F059
:103A3000060444F0F104A4E76E4C0C401CB196055A
:103A400001D5446CD9E76C4C0C40002C9AD09405FD
:103A500098D590F83E40C66AD0F830E090F83D70B6
:103A6000222FE4B240F0A880076D47B9402C06D160
:103A700001975C6901949C690194019C82E7046D43
:103A80008CB90769B7F5404F0DD102945C69029477
:103A90009C690294029C1C6844F480741C60046D50
:103AA000013404656EE7448DA4B254B903945C6993
:103AB00003949C690394039C1C6844F400741C6088
:103AC00019E0448DA4B2012C42D116F5803F1BD1E0
:103AD0001C6824F480641C605C6814F400640CD0DE
:103AE0001C6824F480641C60002404945C690494C1
:103AF0009C690494049C0024D3E705945C690594B4
:103B00009C690594059CD7E7042E15D0082E13D088
:103B1000BEF1120F10D0C46A022C1C6814BF24F42A
:103B2000806444F480641C60002406945C690694FC
:103B30009C690694069CDEE71C6824F480641C6083
:103B4000002407945C6907949C690794079CB3E779
:103B5000448DA4B2022C1CD1C46A022C1C681DBF67
:103B600024F480641C601C6844F4806418BF44F42E
:103B700000641C605C68270542BF5C6844F48054A4
:103B80005C60002408945C6908949C690894089C13
:103B9000B1E71C6844F480641C605C68260542BF81
:103BA0005C6844F480545C60002409945C69099466
:103BB0009C690994099C9EE700240A945C690A9414
:103BC0009C690A940A9CDDE6212A03D0402908D189
:103BD000222A06D1428D92B282B95A6822F48062BA
:103BE0005A600DB0F0BD00BF0400100004000100D9
:103BF00080000100080001000200010090F83E2052
:103C0000402A27D1026D7AB9C26C012A826C05D193
:103C1000D2B21A61036D02330365E2E7C2F30722F1
:103C20001A61036D0133F7E7026D012A02D1826C3C
:103C3000D2B2F5E7026D022AD3D190F83D20222AB4
:103C400004D11A6842F480721A60CAE790F83D20E5
:103C5000212AC6D1426A511C416212781A61438DF1
:103C6000013B9BB24385BCE7002CBAD09405B8D584
:103C7000C16A90F83D20212AB3D1428D92B2002A28
:103C8000E8D104290DD008290BD011F5803F08D0C8
:103C9000596821F4E06159601123036380F83E20E4
:103CA000A2E65A6822F4E0625A601A6842F400728E
:103CB0001A6000232022036380F83D2090F83E2004
:103CC00080F83E30402A7FF492AEFFF7A5FD88E7EA
:103CD000904D0D40002D41D051053FD5002C3DD1D8
:103CE00090F83D20222A7FF47CAF428D92B2032AC5
:103CF00013D9426A1B69511C41621370438D013B09
:103D00009BB24385438D9BB2032B7FF46AAF02685D
:103D1000536823F48063536063E7012A3FF661AF81
:103D20001A6822F480621A605A6822F4E0625A60CB
:103D3000426A1B69511C41621370438D013B9BB267
:103D40004385202380F83D30046390F83E3080F8AE
:103D50003E40402B58D1FFF760FD42E7002C3FF476
:103D600040AF97057FF53DAFC16A428D92B2042AFC
:103D7000426A08D1596821F480615960511C1B695D
:103D8000416213706BE7448DA4B2032C08D15968CB
:103D900021F480615960196821F480611960EDE7B0
:103DA000448DA4B2022CE9D10139012919689DBFC3
:103DB00021F480611960196841F4007198BF41F4E1
:103DC000807119601B69511C41621370438D013B66
:103DD0009BB24385436A5A1C4262026812691A7098
:103DE000438D0268013B9BB24385536823F44073C3
:103DF0005360202380F83D300023036390F83E2079
:103E000080F83E30402AA5E7FFF701FDE9E6424C85
:103E10000C4074B196050CD599699B6981F0040139
:103E20001D06C1F3800154BF8289028BFFF7F2FCAB
:103E3000D7E63A4C0C40002C74D0940572D590F81B
:103E40003D20596821F4E061596000210B915969C6
:103E50000B91196841F0010119600B99196821F45F
:103E60008061196059680905D2B20CD590F83D10EF
:103E7000222903D090F83D102A2929D1816B0968A5
:103E8000496889B24185418D89B2E1B159694F07CD
:103E900008D5416A1B694C1C44620B70438D013B81
:103EA0009BB2438501684B695E0608D5436A096980
:103EB0005C1C44621970438D013B9BB24385036CCB
:103EC00043F004030364036C23B1FFF7A9FC88E605
:103ED000416BD4E7A2F1280102290AD8104AC26234
:103EE0002022036380F83D2080F83E30FFF793FCEA
:103EF00077E6036B222B02D0222A7FF472AE0023D6
:103F00002022036380F83D2080F83E30FFF781FCDB
:103F100067E600BF40000100020001001000010040
:103F20000000FFFF394E3A4C2E400C40002E36D098
:103F3000384D0D403DB3550525D524BB90F83D10B7
:103F4000428D92B2C9B2002A3FF44BAE426A541C71
:103F5000446212781A61428D013A92B24285428DD2
:103F600092B2002A7FF43DAE29297FF43AAE5A6816
:103F700022F480625A6021230363282380F83D30B5
:103F8000FFF746FC2DE6002C3FF42BAE94057FF5A1
:103F900028AE428D92B2002A7FF45CAE21E61E4D1F
:103FA0000D4035B3510524D51CBB90F83D20418D03
:103FB00089B2D2B200293FF414AE416A1B694C1C8D
:103FC00044620B70438D013B9BB24385438D9BB292
:103FD000002B7FF406AE2A2A7FF403AE02685368F2
:103FE00023F48063536022230363282380F83D3049
:103FF0008CE7002C3FF4F5AD92057FF5F2AD428DD4
:1040000092B2002A3FF4EDAD426AB7E60400100018
:10401000040001008000010040000100F8B50368C1
:10402000494A5E695D681642044608D0E80506D52F
:10403000226C42F0010222646FF480725A6116F41D
:10404000813F08D0E90506D5226C42F002022264C5
:104050006FF400725A6116F4823F36D0EA0534D507
:1040600094F83E70618D94F83D20206B202F89B22A
:10407000D2B258D1002956D102F0F701212903D03C
:10408000282A50D121284ED194F83D20E16A0429F4
:10409000D2B201D008292CD1282A2AD12B4AE26297
:1040A0005A6822F4E0625A606FF480625A611A68BA
:1040B00022F480621A60002320222363204684F8C1
:1040C0003D2084F83E30FFF7A6FB16F4843F09D06C
:1040D000EB0507D5236C43F00803236423686FF4D2
:1040E00000625A61236C73B32046BDE8F840FFF7C5
:1040F00097BB212A23D11549E1622263202284F84B
:104100003D20002284F83E205A6822F4E0625A6082
:104110006FF480625A611A6822F480621A60204645
:10412000FFF776FBD1E7226C42F00402226494F898
:104130003E20102A02BF1A6842F400721A606FF41F
:1041400080625A61C1E7F8BD000101000000FFFF75
:10415000806B08B50368416B1A6822F480621A60AC
:10416000002242850A65816B0A6590F83D1060293E
:104170004FF0200180F83D1080F83E2007D1026406
:104180001A6822F001021A60FFF749FB08BD1A689D
:1041900022F001021A60FFF741FB08BD90F83D00D4
:1041A0007047F0B506468BB0002864D00323344630
:1041B00080F8B93302F09AFA54F8100B01F044FD7C
:1041C0000FCC6D460FC50FCC0FC594E8030085E8F2
:1041D0000300371D97E80E00306801F0F5FC002160
:1041E000306801F037FD00213346324606F11004F5
:1041F0000125084682F83810D18701310F2982F84D
:10420000395082F83B0010645064D06402F11C0203
:10421000F0D10022D6F800E0114602F1400083F808
:10422000F821DA870EEB800001320F2A83F8F911AA
:1042300083F8FB11C3F80012C3F80412C3F80C1280
:10424000416003F11C03E8D10FCC6D460FC50FCCC4
:104250000FC594E8030085E80300704697E80E0058
:1042600001F010FD012386F8B933306802F02DF813
:1042700000200BB0F0BD0120FBE790F8B833012B14
:1042800010B504460CD0012380F8B833006802F062
:1042900010F8206801F0D2FC002084F8B80310BDAB
:1042A000022010BD2DE9F04FD0F8009087B00446F1
:1042B000484602F044F80290002840F02E81206821
:1042C00002F00FF8002800F02881206802F009F8B9
:1042D000850748BF2268206842BF536903F0020384
:1042E000536101F0FEFF10F400250AD0206801F0B0
:1042F000FCFF09F530660746A2460025002F40F076
:104300000F81206801F0EDFF41030BD5206801F01B
:10431000F4FF2646039009F510680025039B002B47
:1043200040F03F81206801F0DCFF00280DDAD9F869
:10433000043823F00103C9F80438204602F04CFA8F
:104340002268536903F000435361206801F0C9FFFC
:1043500006050BD5D9F80838D80702D5204602F053
:1043600023FA2268536903F400635361206801F063
:10437000B8FFC10437D509F500667368206823F0DB
:1043800001037360102101F019FD616809F51063E4
:10439000FF220298884240F092814FF0FF33B361D0
:1043A000F36943F00113F361236B002B00F08F815D
:1043B000D6F8843043F00B03C6F88430736C43F0B6
:1043C0000B037364D9F80038217C206823F4FE6362
:1043D000C9F8003804F56F7201F0D0FF2268536904
:1043E00003F480535361206801F07BFF82041DD5E4
:1043F000206801F0A8FF2068C36823F47053C360ED
:1044000001F005FD002840F06B812268E0604FF468
:1044100000736361D36843F41053D360204602F005
:10442000B2F92268536903F400535361206801F024
:1044300058FFC3062BD52268936923F010039361BC
:10444000D9F82060C6F34343022B06F00F0840F072
:10445000A88147F6F0731E4214D01C2707FB0847BB
:10446000C6F30A163246D7F80412484601F0CBFECE
:10447000D7F804323344C7F80432D7F810321E4458
:10448000C7F810622268936943F0100393612068B3
:1044900001F027FF070707D5204602F070F92268D0
:1044A000536903F008035361206801F01AFFC60244
:1044B00008D5E9B2204602F097F92268536903F45F
:1044C00080135361206801F00CFF800208D5E9B227
:1044D000204602F085F92268536903F40013536102
:1044E000206801F0FEFE410007D5204602F080F969
:1044F0002268536903F080435361206801F0F1FEA4
:1045000042070AD523685D686B0702D5204602F092
:1045100073F923685A6815435D6007B0BDE8F08FF2
:10452000F80738D55FFA85FB5946206801F0EDFEA3
:1045300010F0010F804621D0216901239942B36018
:104540000CD13169DAF80002C1F31201411ACAF83C
:104550001012DAF804120844CAF804025946204638
:1045600002F0FCF82169012908D13DB9D4F80C22E8
:1045700022B904F56F72206801F000FF18F0080FEF
:1045800004D0204602F0E4F80823B36018F0100FBE
:104590001CBF1023B36001357F0820360AF11C0AC6
:1045A000ACE6039BDA0758D55FFA85FB59462068CD
:1045B00001F0B5FEC307074620D5D9F834380121EC
:1045C000A94023EA0103C9F834380123C8F80830A8
:1045D0002369012B01BF736C326C9B1873645946BD
:1045E000204602F0C4F82169012907D135B9E36CEE
:1045F00023B904F56F72206801F0C0FE380744BF8C
:104600000823C8F80830F90644BF1023C8F808305A
:104610007A0644BF4023C8F80830BB0744BF0223D2
:10462000C8F808303F0618D523680493F76C336D3B
:10463000FF1A336C9F4228BF1F46049B03F510638B
:1046400007F1030A03EB45134FEA9A0A0593059B0A
:104650009B699BB2534508D82FB3039B5B08013578
:1046600003931C3608F1200858E6326DF36C934230
:10467000F2D9002BF0D0376C04989B1A9F4228BFC8
:104680001F46237C00935A46BBB2716C01F0A7FD14
:10469000736C3B447364336D07F1030A3B444FEA88
:1046A0009A0A3365D3E7049B012203F5006BD3F824
:1046B0003438AA4023EA0203CBF83430CDE702981D
:1046C0009A600130C3F808220290203361E67369D2
:1046D00043F00B037361336943F00B03336171E6FD
:1046E0000323E3604023636100F0F8FB344B354A59
:1046F00003449342236804D8DA6842F47052DA60C3
:104700008CE6314A314902448A4203D8DA6842F4DD
:104710006052F4E7A0F574022D49A2F510528A42C6
:1047200003D8DA6842F45052E9E7A0F183722949CC
:10473000A2F5E7428A4203D8DA6842F44052DEE743
:10474000254A264902448A4203D8DA6842F43052A4
:10475000D5E7234A234902448A4203D8DA6842F45F
:104760002052CCE7204A214902448A4203D8DA6821
:1047700042F41052C3E7A0F1B7721D49A2F5585296
:104780008A4203D8DA6842F40052B8E7194A1A4953
:1047900002448A42DA6894BF42F4E05242F4C052C2
:1047A000ADE7062B7FF46EAE082204F56F71484624
:1047B0001C2701F028FD07FB0847C6F30A165CE634
:1047C000405327FFFF340C00401E1BFF3F420F00E9
:1047D0007F4F12001FD6130060B6E5FE5FE31600A0
:1047E00000D3CEFE3F771B00C05BB3FEBF9121001C
:1047F0001F753800E05459FEDF9C410090F8B83333
:10480000012B10B5044609D0012380F8B8330068A5
:1048100001F03FFD002084F8B80310BD022010BD58
:1048200070B54EB2002E04464FF01C0501F07F001B
:10483000B5BF05FB004105FB0141383101F5FC71B5
:10484000C0B2002EB8BFC880022BCB704FEAD6751D
:1048500004BF00230B7108704D7094F8B8338A6060
:10486000012B09D0012384F8B833206801F0EAFA5B
:10487000002084F8B80370BD022070BD4BB2002B3D
:1048800010B54FF01C02044601F07F00B5BF02FBDB
:10489000004102FB0141383101F5FC71DB0F08706A
:1048A0004B7094F8B833012B09D0012384F8B83346
:1048B000206801F006FB002084F8B80310BD022038
:1048C00010BD38B501F07F051C2404FB050104FB75
:1048D000050401F5FC71C4F80C320023C4F804226D
:1048E000C4F8103284F8F93184F8F851036900688B
:1048F000012B08BFC4F80822DAB21DB901F002FC8E
:10490000002038BD01F038FBFAE71C2301F00F014D
:1049100003FB0101B1F81002704738B501F07F05C3
:104920001C2404FB050104FB05043831E364002367
:1049300023650123626484F8393084F838500369B0
:104940000068012B08BFA264DAB21DB901F0DAFBDE
:10495000002038BD01F010FBFAE738B54BB2002B50
:1049600001F07F054FF01C02B5BF02FB050102FB01
:104970000101383101F5FC710122DB0FEDB28A70C3
:104980000D704B7090F8B833934204460FD080F806
:10499000B823006801F045FC2DB904F56F72217C45
:1049A000206801F0EBFC002084F8B80338BD022039
:1049B00038BD38B54BB2002B05464FF01C0201F054
:1049C0007F00B5BF02FB005102FB0151383101F5F8
:1049D000FC71DB0F00248C7008704B7095F8B833B5
:1049E000012B09D0012385F8B833286801F038FC81
:1049F00085F8B843204638BD022038BD006870B540
:104A0000436A21B943EA02438362002070BD846A8D
:104A1000002503EB14434E1EECB2B44205F1010530
:104A200006DB3F3100EB810043EA02434360ECE7E1
:104A3000403400EB8404646803EB1443ECE7036840
:104A400000205962704700002DE9F341044618B96F
:104A5000012002B0BDE8F0810368DD0710D42368AF
:104A6000980758D423681A0700F19A8023685B07D7
:104A700000F1B880A269002A40F019810020E8E71F
:104A8000A64B9A6802F00C02042A07D09A6802F03A
:104A90000C02082A0AD15B68590207D59F4B1B6894
:104AA0009A03DCD56368002BD9D1D1E763689B4DAD
:104AB000B3F5803F11D12B6843F480332B60FDF7B1
:104AC000A9FC964D06462B689B03C8D4FDF7A2FCB3
:104AD000801B6428F7D90320BBE7B3F5A02F04D1CE
:104AE0002B6843F480232B60E5E72A6822F48032A8
:104AF0002A602A6822F480222A60002BDFD1FDF789
:104B000089FC06462B689F03A9D5FDF783FC801B13
:104B10006428F7D9DFE7814B9A6812F00C0F07D0B1
:104B20009A6802F00C02082A11D15B685E020ED46A
:104B30007A4B1A68950702D5E268012A88D11A686B
:104B4000216922F0F80242EAC1021A608AE7E268AB
:104B5000734BB2B101221A60FDF75CFC6F4D064643
:104B60002B68980707D52B68226923F0F80343EADE
:104B7000C2032B6076E7FDF74DFC801B0228EFD9BE
:104B8000A9E71A60FDF746FC644D06462B689907B5
:104B90007FF568AFFDF73EFC801B0228F6D99AE747
:104BA0006269604B7AB101221A60FDF733FC5B4DFC
:104BB00006466B6F9F073FF559AFFDF72BFC801B37
:104BC0000228F6D987E71A60FDF724FC534D064604
:104BD0006B6F98077FF54AAFFDF71CFC801B02281E
:104BE000F6D978E74D4B1A6C12F0805228D1019219
:104BF0001A6C42F080521A641B6C03F080530193CC
:104C0000019B0126484D2B68D9051BD5A368434D50
:104C1000012B27D12B6F43F001032B67FDF7FAFB24
:104C20003E4D074641F288382B6F9B0739D5002E41
:104C30003FF420AF394A136C23F08053136419E713
:104C40000026DFE72B6843F480732B60FDF7E2FB5F
:104C500007462B68DA05D9D4FDF7DCFBC01B022818
:104C6000F7D938E7052B04D12B6F43F004032B67EA
:104C7000D0E72A6F22F001022A672A6F22F004028D
:104C80002A67002BCAD1FDF7C5FB41F288380746D9
:104C90002B6F9807CBD5FDF7BDFBC01B4045F7D95F
:104CA00019E7FDF7B7FBC01B4045BDD913E71B4D06
:104CB000AB6803F00C03082B3FF4CAAE1B4E002375
:104CC000022A336034D1FDF7A5FB07462B68990112
:104CD0001ED4226AE3691343626A43EA8213E26ADA
:104CE00043EA0263A26A0D4C5208013A43EA0243C6
:104CF0006B6001233360FDF78DFB054623689A0145
:104D00003FF5BCAEFDF786FB401B0228F6D9E2E674
:104D1000FDF780FBC01B0228D8D9DCE60038024032
:104D200000004742800E474200700040600047424A
:104D3000FDF770FB04462B689B017FF59FAEFDF7E6
:104D400069FB001B0228F6D9C5E600BF134908B568
:104D50008B6803F00C03042B03D0082B03D01048FE
:104D600008BD104808BD4A684B68496813F48003C1
:104D700014BF0C480A48C1F3881118BF002302F081
:104D80003F02A1FB0001FBF76BFF044B5B68C3F321
:104D9000014301335B00B0FBF3F008BD0038024073
:104DA0000024F40000127A002DE9F0410D4604467B
:104DB00010B90120BDE8F081444B1A6802F00F02DF
:104DC0008A4228D321688F072DD4C80740D43F4B8F
:104DD0001A6802F00F02954266D3226851076CD41C
:104DE000130707D53A4A2169936823F4604343EADD
:104DF000C1039360FFF7AAFF354B364A9B68C3F3A4
:104E00000313D35CD840344B18600020FCF75CFDE2
:104E10000020BDE8F081CAB21A701B6803F00F03CE
:104E20009942C6D1CEE72A4B11F0040F1EBF9A68F3
:104E300042F4E0529A600E0742BF9A6842F4604220
:104E40009A609A68A06822F0F00202439A60BCE778
:104E500062681F4B012A1DD11B6813F4003FA8D0C4
:104E60001B4EB36823F003031343B360FDF7D2FA7C
:104E700041F288380746B368626803F00C03B3EB6D
:104E8000820FA4D0FDF7C6FAC01B4045F3D903201A
:104E9000BDE8F081911E01291B6802D813F0007F44
:104EA000DDE713F0020FDAE7EAB21A701B6803F0CD
:104EB0000F039D427FF47DAF8FE70549E0688B6863
:104EC00023F4E05303438B608AE700BF003C0240B9
:104ED0000038024096CF000800000020014B1868FF
:104EE000704700BF00000020044B054A9B68C3F3D5
:104EF0008223D35C034A1068D840704700380240D0
:104F0000A6CF000800000020044B054A9B68C3F3AD
:104F10004233D35C034A1068D840704700380240DF
:104F2000A6CF0008000000200F2303600B4B9A68F7
:104F300002F0030242609A6802F0F00282609A680E
:104F400002F4E052C2609B68DB0803F4E0530361A3
:104F5000034B1B6803F00F030B60704700380240DF
:104F6000003C02400368F7B59A07044640F0888089
:104F7000236813F00C0F44D0804D814E00232B602A
:104F8000FDF748FA074633689B0000F1BD802168B1
:104F90004F0715D56369D6F8882020691B0602F0F3
:104FA000E04243EA80131343C6F88830D6F88C30C9
:104FB000226A23F4F853013A43EA0223C6F88C30FC
:104FC0000E0714D56E4AA369D2F8881020691B0712
:104FD00001F0706143EA80130B43C2F88830D2F8C5
:104FE0008C30616A23F440330B43C2F88C300123C8
:104FF0002B60FDF70FFA624D06462B68980040F1D2
:105000008A8023689A0631D5002301935C4B5D4D5D
:105010001A6C42F080521A641B6C03F080530193A7
:10502000019B2B6843F480732B60FDF7F3F9064670
:105030002B68D90576D5524D2B6F13F4407377D179
:10504000A36A03F44072B2F5407F4D4A40F091806C
:10505000916823F0704021F4F81120F4407001436E
:105060009160116FC3F30B030B431367206810F0BB
:1050700010001FBF444B94F82C201A60002041E020
:10508000424D3F4E00232B60FDF7C4F907463368BD
:105090001B0131D42268D70706D5A36861681B07B6
:1050A00043EA8113C6F88430900715D5344AE36883
:1050B000D2F8841060681B0601F0E04143EA8013D7
:1050C0000B43C2F88430D2F88C10E36921F01F0141
:1050D000013B0B43C2F88C3001232B60FDF79AF99A
:1050E000274D06462B6819013FF542AFFDF792F9AF
:1050F000801B0228F6D904E0FDF78CF9C01B0228BA
:10510000C5D9032003B0F0BDFDF784F9C01B022808
:105110007FF639AFF5E7FDF77DF9801B02287FF6B2
:105120006CAFEEE7FDF776F9801B022880D9E8E73F
:10513000A26A02F44072934282D02B6F144A01217A
:10514000116023F44073002111602B672B6FDA0785
:105150007FF576AFFDF75EF941F2883706462B6F93
:105160009B073FF56DAFFDF755F9801BB842F6D9A7
:10517000C7E7916821F4F81172E700BF7000474259
:105180000038024000700040E0114742680047428A
:10519000400E4742026838B5D36823F0A003D360BD
:1051A0000446FDF737F905462368DB689B0601D501
:1051B000002038BDFDF72EF9401BB0F57A7FF3D9FA
:1051C000032038BD38B50368DA685206044601D5B5
:1051D000002038BD4FF0FF32DA60FDF71BF90546BD
:1051E0002368DB685B06F3D4FDF714F9401BB0F5C8
:1051F0007A7FF5D9032038BD38B50446B8B1437F6E
:1052000003F0FF0213B90277FCF734FB0223637744
:105210002368CA225A6253225A622046FFF7D2FFFD
:105220002368054628B1FF225A62042363770125CB
:105230002EE09A68206922F4E00222F040029A608F
:10524000626899680243606902430A439A60E268AF
:105250001A611A69A16842EA01421A61DA6822F009
:105260008002DA609B689B0605D42046FFF792FF18
:1052700008B12368D7E72368A1691A6C22F4802259
:105280001A641A6C0A431A64FF225A620123637774
:10529000284638BD0023092803D840EA0310C0B2CD
:1052A00070470A380133C0B2F5E7F8B5037F012B28
:1052B00005464FF0020630D00123037746774B783E
:1052C000C8788E780C78002A48D1DA0603D523F006
:1052D00010030A334B70FFF7DDFF07464878FFF7EE
:1052E000D9FF02463046FFF7D5FF40EA443040EA96
:1052F000074040EA02242B68CA225A6253225A62AB
:105300002846FFF75FFF2B68064640B1FF225A622E
:1053100004236B7700232B7701263046F8BD24F059
:105320007F4424F0C0045C60DA6822F08002DA6016
:105330009B689B060AD42846FFF72CFF30B12B68E8
:10534000FF225A6204236B772E77E5E72B68FF2252
:105350005A6201236B7700232B77DEE71B0243EAB7
:105360000040304340EA4434C5E7F8B5037F012BE1
:1053700006460F464FF002052FD00123037703683E
:10538000457708784D788C789B6842BB13F04003D2
:1053900008BFCB70FFF77EFF01462846FFF77AFF74
:1053A00002462046FFF776FFFB7840EA034040EADA
:1053B000014040EA02243368CA225A6253225A62E8
:1053C0003046FFF7FFFE33680546A8B1FF225A6258
:1053D000042373770023337701252846F8BD13F0A3
:1053E00040034FEA052508BFCB7045EA0040204343
:1053F000CC7840EA0444DEE704F07F3424F0FE4435
:105400001C609A68386922F480229A60FA68996868
:1054100002430A439A60DA6822F08002DA609B68ED
:105420009B060AD43046FFF7B5FE30B13368FF2241
:105430005A62042373773577CEE73368FF225A62C6
:105440000123737700233377C7E70368503343F8AA
:10545000212070470368503353F8210070472DE92D
:10546000F041069E0446884617461D46226893680A
:1054700038EA03030CBF012300239F4202D100201E
:10548000BDE8F0816B1CF2D055BB23685A6822F04E
:10549000E0025A606268B2F5827F0AD1A268B2F572
:1054A000004F02D0B2F5806F03D11A6822F040029B
:1054B0001A60A26AB2F5005F09D11A6822F400529C
:1054C0001204120C1A601A6842F400521A60012386
:1054D00084F85130002384F850300320BDE8F08177
:1054E000FCF798FF801B8542C0D8CEE713B50B466A
:1054F0000092802100220446FFF7B1FF20B1636DC6
:1055000043F020036365032002B010BD10B50446CC
:10551000002836D00023836290F8513003F0FF0258
:105520001BB980F85020FCF7E3F82168A068A26955
:10553000022384F851300B6823F040030B6063684A
:105540000343E06803432069034360690343E06960
:105550000343206A0343A06A034302F40070034339
:105560000B60120C636A02F004021A434A60CB69B2
:1055700023F40063CB6100200123606584F851307F
:1055800010BD012010BD2DE9F043994690F8503030
:1055900085B0012B04460D4616460C9F00F0ED80A9
:1055A000012380F85030FCF735FF94F851306168E2
:1055B000DBB2012B80460AD0B1F5827F40F0DB8060
:1055C000A268002A40F0D780042B40F0D480002D40
:1055D0004ED0002E4CD0B9F1000F49D094F8513084
:1055E000A663012B04BF052384F8513000236365B3
:1055F000236463642368A4F83E90A4F836901A6884
:10560000A4F83C90500658BF1A68256358BF42F072
:105610004002A4F8349058BF1A60E268B2F5006FF7
:105620005DD119B1E28E92B2012A06D135F8022B72
:10563000DA60E38E013B9BB2E3864FF00109E38E13
:105640009BB2BBB9E38F9BB2A3B9CDF800803B46B8
:10565000012202212046FFF702FF002835D14246F1
:1056600039462046FFF742FF002879D020236365A2
:1056700001202BE0B9F1000F0FD0E38E9BB263B194
:1056800023689A68910708D535F8022BDA60E38E13
:10569000013B9BB2E3864FF00009E38F9BB263B1FD
:1056A00023689A68D20708D5DB6826F8023BE38FA7
:1056B000013B9BB2E3874FF00109781CBFD0FCF798
:1056C000A9FEA0EB08008742B9D80320012384F883
:1056D0005130002384F8503005B0BDE8F08319B193
:1056E000E28E92B2012A06D115F8012B1A73E38ECD
:1056F000013B9BB2E3864FF00109E38E9BB21BB9DD
:10570000E38F9BB2002BA0D0B9F1000F0FD0E38E36
:105710009BB263B123689A68910708D52A781A73F7
:10572000E38E013B9BB2E38601354FF00009E38F26
:105730009BB263B123689A68D20708D5DB683370DF
:10574000E38F013B9BB2E38701364FF001097B1CDD
:10575000D3D0FCF75FFEA0EB08008742CDD8B4E7BA
:10576000A368002BB2D123680390DA6803929B6888
:105770000393039BAAE70220A8E70220ACE7704747
:105780000368DA6842F00102DA601A6842F0010246
:105790001A60002070477047704770477047036871
:1057A0001A69910710B504460ED5DA6892070BD531
:1057B0006FF002021A619B6901229B07027677D083
:1057C000FFF7EAFF0023237623681A69500710D5F4
:1057D000DA6851070DD56FF004021A619B69022245
:1057E00013F4407F2276204668D0FFF7D5FF0023D0
:1057F000237623681A6912070FD5DA6810070CD5CB
:105800006FF008021A61DB690422990722762046AC
:105810005AD0FFF7C1FF0023237623681A69D20606
:1058200010D5DA68D0060DD56FF010021A61DB6969
:10583000082213F4407F227620464BD0FFF7ACFFBE
:105840000023237623681A69D10708D5DA68D207BE
:1058500005D56FF001021A612046FBF7BDFE2368F3
:105860001A69100608D5DA68110605D56FF08002AE
:105870001A61204600F0B5F823681A69520608D567
:10588000DA68500605D56FF040021A612046FFF72E
:1058900085FF23681A69910622D5DA6892061FD51A
:1058A0006FF0200220461A61BDE8104000F098B861
:1058B000FFF771FF2046FFF770FF83E7FFF76BFFED
:1058C0002046FFF76AFF92E7FFF765FF2046FFF7E4
:1058D00064FFA0E7FFF75FFF2046FFF75EFFAFE73B
:1058E00010BD00002E4A0368904212D0B0F1804FE4
:1058F0000FD0A2F57C4290420BD002F5806290421C
:1059000007D002F58062904203D002F578429042BF
:105910001DD14A6823F070031343214A904204D1F9
:10592000CA6823F44073134328E0B0F1804FF7D0E6
:105930001C4A9042F4D002F580629042F0D002F509
:1059400080629042ECD002F578429042E8D0164A4C
:105950009042E5D002F580629042E1D002F580628B
:105960009042DDD0A2F598329042D9D002F5806203
:105970009042D5D002F580629042D1D003608B680E
:10598000C3620B688362064B984206D003F58063BE
:10599000984202D00123436170470B690363F9E722
:1059A00000000140000400400040014010B50446E2
:1059B000A0B190F8393003F0FF021BB980F838200D
:1059C000FFF7DDFE022384F839302068211DFFF740
:1059D00089FF012384F83930002010BD012010BD5B
:1059E000704770470368DA6822F49072DA605A6987
:1059F00022F001025A61202380F83A307047704744
:105A000090F83A30222B10B532D1836801690268D0
:105A1000B3F5805F836A1FD15268C9B9C2F3080227
:105A200023F8022B8362C48D013CA4B2C4856CB9F7
:105A30000368DA6822F49072DA605A6922F001028F
:105A40005A61202380F83A30FCF743FC002010BD57
:105A5000D2B223F8012BE5E721B9591C52688162C3
:105A60001A70E0E75268591C816202F07F02F7E782
:105A7000022010BD7047000003681A68D96870B52D
:105A8000160704465D6907D196065AD58D0658D586
:105A9000BDE87040FFF7B4BF15F0010502D111F465
:105AA000907F4ED0D30705D5CE0542BFE36B43F0C0
:105AB0000103E363500704D51DB1E36B43F0020318
:105AC000E363930704D51DB1E36B43F00403E36381
:105AD000160704D51DB1E36B43F00803E363E36BE2
