:020000040800F2
:1000000000000320C5AE00089129000893290008CC
:100010009529000897290008992900080000000088
:10002000000000000000000000000000E197000850
:100030009B29000800000000719800089D29000815
:1000400015AF000815AF000815AF000815AF000880
:1000500015AF000815AF00085D2A0008452A000802
:100060002D2A0008152A0008FD29000815AF0008F0
:1000700015AF000815AF0008B52A000815AF000835
:1000800015AF000815AF000815AF000815AF000840
:1000900015AF000815AF000815AF0008F5290008D6
:1000A00015AF0008A129000815AF000815AF00081A
:1000B00015AF000815AF000815AF0008C5290008E6
:1000C000E9290008DD290008D129000815AF00083A
:1000D00015AF0008752A000815AF000815AF000815
:1000E00015AF000815AF000815AF000815AF0008E0
:1000F00015AF000815AF000815AF000815AF0008D0
:1001000015AF000815AF00080531000815AF00084D
:1001100015AF000815AF000899300008B92900088C
:1001200015AF000815AF000815AF000815AF00089F
:1001300015AF000815AF000815AF000815AF00088F
:1001400015AF000815AF000815AF0008AD2900086D
:1001500015AF000815AF000815AF000815AF00086F
:1001600015AF000815AF000815AF000815AF00085F
:1001700015AF000815AF000815AF0008000000001B
:1001800015AF000815AF0008952A000815AF000844
:1001900015AF000815AF000815AF000815AF00082F
:0C01A00015AF000815AF000815AF0008EF
:1001B00010B5054C237833B9044B13B10448AFF3A1
:1001C00000800123237010BDE80100200000000022
:1001D00040EB000808B5034B1BB103490348AFF3DC
:1001E000008008BD00000000EC01002040EB00088A
:1001F000034613F8012B002AFBD1181A0138704767
:1002000001F0FF01102A2BDB10F0070F08D010F8C7
:10021000013B013A8B422DD010F0070F42B3F6D1CB
:10022000F0B441EA012141EA014122F007047FF0E4
:1002300000070023F0E80256083C85EA010586EA3B
:10024000010685FA47F5A3FA87F586FA47F6A5FA77
:1002500087F68EB9EED1F0BC01F0FF0102F0070283
:1002600032B110F8013B013A83EA010313B1F8D12E
:100270000020704701387047002D06BF354603380F
:10028000073815F0010F07D1013015F4807F02BF48
:10029000013015F4C03F0130F0BC0138704700BF99
:1002A00081F0004102E000BF83F0004330B54FEA27
:1002B00041044FEA430594EA050F08BF90EA020F94
:1002C0001FBF54EA000C55EA020C7FEA645C7FEA27
:1002D000655C00F0E2804FEA5454D4EB5555B8BF4A
:1002E0006D420CDD2C4480EA020281EA030382EABB
:1002F000000083EA010180EA020281EA0303362D4D
:1003000088BF30BD11F0004F4FEA01314FF4801C1F
:100310004CEA113102D0404261EB410113F0004F31
:100320004FEA03334CEA133302D0524263EB4303E8
:1003300094EA050F00F0A780A4F10104D5F1200E86
:100340000DDB02FA0EFC22FA05F2801841F10001E1
:1003500003FA0EF2801843FA05F359410EE0A5F1B5
:1003600020050EF1200E012A03FA0EFC28BF4CF0E6
:10037000020C43FA05F3C01851EBE37101F000459C
:1003800007D54FF0000EDCF1000C7EEB00006EEBA9
:100390000101B1F5801F1BD3B1F5001F0CD3490833
:1003A0005FEA30004FEA3C0C04F101044FEA44528A
:1003B00012F5800F80F09A80BCF1004F08BF5FEA11
:1003C000500C50F1000041EB045141EA050130BDF1
:1003D0005FEA4C0C404141EB010111F4801FA4F194
:1003E0000104E9D191F0000F04BF01460020B1FAE9
:1003F00081F308BF2033A3F10B03B3F120020CDA21
:100400000C3208DD02F1140CC2F10C0201FA0CF0FE
:1004100021FA02F10CE002F11402D8BFC2F1200C63
:1004200001FA02F120FA0CFCDCBF41EA0C01904019
:10043000E41AA2BF01EB0451294330BD6FEA040462
:100440001F3C1CDA0C340EDC04F11404C4F120024D
:1004500020FA04F001FA02F340EA030021FA04F35F
:1004600045EA030130BDC4F10C04C4F1200220FAB6
:1004700002F001FA04F340EA0300294630BD21FAF4
:1004800004F0294630BD94F0000F83F4801306BFBA
:1004900081F480110134013D4EE77FEA645C18BFAE
:1004A0007FEA655C29D094EA050F08BF90EA020F45
:1004B00005D054EA000C04BF1946104630BD91EA3D
:1004C000030F1EBF0021002030BD5FEA545C05D140
:1004D0004000494128BF41F0004130BD14F580047F
:1004E0003CBF01F5801130BD01F0004545F0FE41F3
:1004F00041F470014FF0000030BD7FEA645C1ABF28
:10050000194610467FEA655C1CBF0B46024650EA5E
:10051000013406BF52EA033591EA030F41F400218A
:1005200030BD00BF90F0000F04BF0021704730B510
:100530004FF4806404F132044FF000054FF00001E5
:1005400050E700BF90F0000F04BF0021704730B5A6
:100550004FF4806404F1320410F0004548BF40427B
:100560004FF000013EE700BF42004FEAE2014FEAD0
:1005700031014FEA02701FBF12F07F4393F07F4FAB
:1005800081F06051704792F0000F14BF93F07F4FDD
:10059000704730B54FF4607401F0004521F0004120
:1005A00020E700BF50EA010208BF704730B54FF0A6
:1005B00000050AE050EA010208BF704730B511F0AB
:1005C000004502D5404261EB41014FF4806404F1E3
:1005D00032045FEA915C3FF4DCAE4FF003025FEA65
:1005E000DC0C18BF03325FEADC0C18BF033202EBED
:1005F000DC02C2F1200300FA03FC20FA02F001FA47
:1006000003FE40EA0E0021FA02F11444C1E600BFE5
:1006100070B54FF0FF0C4CF4E06C1CEA11541DBF98
:100620001CEA135594EA0C0F95EA0C0F00F0DEF863
:100630002C4481EA030621EA4C5123EA4C5350EA48
:10064000013518BF52EA033541F4801143F4801399
:1006500038D0A0FB02CE4FF00005E1FB02E506F02A
:100660000042E0FB03E54FF00006E1FB03569CF07F
:10067000000F18BF4EF0010EA4F1FF04B6F5007F85
:1006800064F5407404D25FEA4E0E6D4146EB0606F7
:1006900042EAC62141EA55514FEAC52040EA5E5080
:1006A0004FEACE2EB4F1FD0C88BFBCF5E06F1ED82A
:1006B000BEF1004F08BF5FEA500E50F1000041EB61
:1006C000045170BD06F0004646EA010140EA02000E
:1006D00081EA0301B4EB5C04C2BFD4EB0C0541EA30
:1006E000045170BD41F480114FF0000E013C00F345
:1006F000AB8014F1360FDEBF002001F0004170BD69
:10070000C4F10004203C35DA0C341BDC04F1140481
:10071000C4F1200500FA05F320FA04F001FA05F20D
:1007200040EA020001F0004221F0004110EBD370DA
:1007300021FA04F642EB06015EEA430E08BF20EA06
:10074000D37070BDC4F10C04C4F1200500FA04F3A9
:1007500020FA05F001FA04F240EA020001F000413B
:1007600010EBD37041F100015EEA430E08BF20EAAE
:10077000D37070BDC4F1200500FA05F24EEA020EF6
:1007800020FA04F301FA05F243EA020321FA04F025
:1007900001F0004121FA04F220EA020000EBD370DC
:1007A0005EEA430E08BF20EAD37070BD94F0000FDC
:1007B0000FD101F00046400041EB010111F4801F10
:1007C00008BF013CF7D041EA060195F0000F18BFC1
:1007D000704703F00046520043EB030313F4801FFD
:1007E00008BF013DF7D043EA0603704794EA0C0FB7
:1007F0000CEA135518BF95EA0C0F0CD050EA4106CD
:1008000018BF52EA4306D1D181EA030101F0004149
:100810004FF0000070BD50EA410606BF1046194671
:1008200052EA430619D094EA0C0F02D150EA01367D
:1008300013D195EA0C0F05D152EA03361CBF1046BE
:1008400019460AD181EA030101F0004141F0FE415D
:1008500041F470014FF0000070BD41F0FE4141F4E1
:10086000780170BD70B54FF0FF0C4CF4E06C1CEAE1
:1008700011541DBF1CEA135594EA0C0F95EA0C0F96
:1008800000F0A7F8A4EB050481EA030E52EA033551
:100890004FEA013100F088804FEA03334FF0805572
:1008A00045EA131343EA12634FEA022245EA11159F
:1008B00045EA10654FEA00260EF000419D4208BF50
:1008C000964244F1FD0404F5407402D25B084FEAFD
:1008D0003202B61A65EB03055B084FEA32024FF4A9
:1008E00080104FF4002CB6EB020E75EB030E22BF06
:1008F000B61A754640EA0C005B084FEA3202B6EBC6
:10090000020E75EB030E22BFB61A754640EA5C0074
:100910005B084FEA3202B6EB020E75EB030E22BF04
:10092000B61A754640EA9C005B084FEA3202B6EB05
:10093000020E75EB030E22BFB61A754640EADC00C4
:1009400055EA060E18D04FEA051545EA16754FEA26
:1009500006164FEAC30343EA52734FEAC2025FEA44
:100960001C1CC0D111F4801F0BD141EA00014FF0D3
:1009700000004FF0004CB6E711F4801F04BF0143A4
:100980000020B4F1FD0C88BFBCF5E06F3FF6AFAEC0
:10099000B5EB030C04BFB6EB020C5FEA500C50F150
:1009A000000041EB045170BD0EF0004E4EEA1131D3
:1009B00014EB5C04C2BFD4EB0C0541EA045170BDDA
:1009C00041F480114FF0000E013C90E645EA060E1E
:1009D0008DE60CEA135594EA0C0F08BF95EA0C0F4C
:1009E0003FF43BAF94EA0C0F0AD150EA01347FF494
:1009F00034AF95EA0C0F7FF425AF104619462CE76B
:100A000095EA0C0F06D152EA03353FF4FDAE1046CD
:100A1000194622E750EA410618BF52EA43067FF41E
:100A2000C5AE50EA41047FF40DAF52EA43057FF4AE
:100A3000EBAE12E74FF0FF3C06E000BF4FF0010CB9
:100A400002E000BF4FF0010C4DF804CD4FEA410C1D
:100A50007FEA6C5C4FEA430C18BF7FEA6C5C1BD0EA
:100A600001B050EA410C0CBF52EA430C91EA030F6B
:100A700002BF90EA020F0020704710F1000F91EAC8
:100A8000030F58BF994208BF90422CBFD8176FEA96
:100A9000E37040F0010070474FEA410C7FEA6C5C64
:100AA00002D150EA013C07D14FEA430C7FEA6C5C6B
:100AB000D6D152EA033CD3D05DF8040B704700BF97
:100AC0008446104662468C461946634600E000BFE5
:100AD00001B5FFF7B7FF002848BF10F1000F01BDB7
:100AE0004DF808EDFFF7F4FF0CBF012000205DF882
:100AF00008FB00BF4DF808EDFFF7EAFF34BF012007
:100B000000205DF808FB00BF4DF808EDFFF7E0FF9F
:100B100094BF012000205DF808FB00BF4DF808EDF0
:100B2000FFF7CEFF94BF012000205DF808FB00BF57
:100B30004DF808EDFFF7C4FF34BF012000205DF839
:100B400008FB00BF4FEA410C7FEA6C5C02D150EA1F
:100B5000013C0AD14FEA430C7FEA6C5C02D152EAB5
:100B6000033C02D14FF0000070474FF00100704786
:100B70004FEA410212F5001215D211D56FF47873C5
:100B8000B3EB625212D94FEAC12343F0004343EA68
:100B9000505311F0004F23FA02F018BF4042704743
:100BA0004FF00000704750EA013005D111F00040CD
:100BB00008BF6FF0004070474FF00000704700BF63
:100BC0004FEA4102B2F1E04324BFB3F5001CDCF16F
:100BD000FE5C0DD901F0004C4FEAC0024CEA5070A7
:100BE000B2F1004F40EB830008BF20F001007047D6
:100BF00011F0804F21D113F13872BCBF01F00040D9
:100C0000704741F480114FEA5252C2F11802C2F10A
:100C1000200C10FA0CF320FA02F018BF40F001008B
:100C20004FEAC1234FEAD32303FA0CFC40EA0C003D
:100C300023FA02F34FEA4303CCE77FEA625307D17A
:100C400050EA01331EBF4FF0FE4040F440007047B1
:100C500001F0004040F0FE4040F40000704700BF4B
:100C600053B94AB9002908BF00281CBF4FF0FF3113
:100C70004FF0FF3000F07AB9ADF1080C6DE904CE09
:100C800000F006F8DDF804E0DDE9022304B0704767
:100C90002DE9F0478C460D460446089E002B51D1A5
:100CA0008A4217466DD9B2FA82FEBEF1000F0BD010
:100CB000CEF1200C01FA0EF520FA0CFC02FA0EF728
:100CC0004CEA050C00FA0EF44FEA174A250CBCFB5F
:100CD000FAF81FFA87F90AFB18CC45EA0C4508FB1D
:100CE00009F3AB420AD9ED1908F1FF3280F02381F4
:100CF000AB4240F22081A8F102083D44ED1AA4B2B3
:100D0000B5FBFAF00AFB105544EA054400FB09F96B
:100D1000A14509D9E41900F1FF3380F00A81A1450A
:100D200040F2078102383C44A4EB090440EA084041
:100D30000021002E61D024FA0EF400233460736089
:100D4000BDE8F0878B4207D9002E54D0002186E8F9
:100D500021000846BDE8F087B3FA83F1002940F08E
:100D60008E80AB4202D3824200F2FA80841A65EB95
:100D700003050120AC46002E3FD086E81010BDE8E8
:100D8000F08712B90127B7FBF2F7B7FA87FEBEF179
:100D9000000F34D1EB1B3A0C1FFA87FC0121B3FB87
:100DA000F2F8250C02FB183345EA03450CFB08F367
:100DB000AB4207D9ED1908F1FF3002D2AB4200F285
:100DC000D1808046ED1AA3B2B5FBF2F002FB1055BC
:100DD00043EA05440CFB00FCA44507D9E41900F1E3
:100DE000FF3302D2A44500F2B8801846A4EB0C04ED
:100DF00040EA08409DE731463046BDE8F087CEF135
:100E0000200405FA0EF307FA0EF720FA04F83A0C5C
:100E100025FA04F448EA0308B4FBF2F14FEA184556
:100E200002FB11441FFA87FC45EA044501FB0CF361
:100E3000AB4200FA0EF409D9ED1901F1FF3080F050
:100E40008A80AB4240F2878002393D44EB1A1FFA98
:100E500088F5B3FBF2F002FB103345EA034500FBD3
:100E60000CF3AB4207D9ED1900F1FF386FD2AB425A
:100E70006DD902383D44EB1A40EA01418FE7C1F1D8
:100E8000200722FA07F88B4005FA01F448EA030329
:100E900020FA07FE4FEA134CFD404EEA040EB5FB64
:100EA000FCF94FEA1E440CFB19551FFA83F844EA7B
:100EB000054509FB08F4AC4202FA01F200FA01FA16
:100EC00008D9ED1809F1FF3043D2AC4241D9A9F15C
:100ED00002091D442D1B1FFA8EFEB5FBFCF00CFB16
:100EE00010554EEA054400FB08F8A04507D9E41860
:100EF00000F1FF3529D2A04527D902381C4440EA29
:100F00000940A4EB0804A0FB02894C45C6464D46A7
:100F100015D312D056B1BAEB0E0364EB050404FAF4
:100F200007F7CB401F43CC40376074600021BDE819
:100F3000F0871846F8E69046E0E6C245EAD2B8EBFC
:100F4000020E69EB03050138E4E72846D7E740467F
:100F500091E78146BEE7014678E702383C4445E721
:100F6000084608E7A8F102083D442BE7704700BF98
:100F700010EE102A084BF6EE007AA3EB620307EEA0
:100F8000103A60EE277AB7EE080A67EE877AA7EE86
:100F9000670A20EE070A7047DF59375F38B5A74860
:100FA000A749A84CA84D90ED007A91ED004AD4EDE8
:100FB000007AD5ED006AD1ED004A20EEC44A61EE18
:100FC000244AA7EE404AE0EE264A94ED007AD5ED99
:100FD000006A90ED005A25EE415AE0EEC74AA0EEB5
:100FE000A65A94ED007AD5ED006A90ED006A60EEA5
:100FF000860AA0EE075AE1EE260A91ED007AA7EEE6
:10100000C14AE0EE470AF5EE401AF6EE007AF1EE3C
:1010100010FA2DED088B24EE274A64EEA74A25EE40
:10102000275A60EEA70A0AD1B5EE402AF1EE10FA6F
:1010300005D1F5EE402AF1EE10FA00F0AF8022EE75
:10104000020AB1EE008AA1EEA10AA2EEA20AFFF7FF
:101050008FFFD5ED007A90ED007A91ED003AD4ED56
:10106000009A95ED006AD0ED00AAD1ED008A90EDCE
:1010700000BA91ED009AF2EE006A2BEE26BA29EE44
:10108000269AD5ED006AD5ED00BA90ED001AD0EDA4
:10109000005AD1ED003A21EE251AD1ED005A94ED17
:1010A00000AA61EE801A63EEA53A33EE033AD4ED5E
:1010B000005A26EE086A2AEE25AA61EE835A79EED6
:1010C000A99AE6EE235A6AEE88AAE6EE015A29EEBC
:1010D000E16A62EE802AAAEE8A6A20EE420A26EED1
:1010E000AB2AD0ED006A22EE082A77EEA77AA2EEAC
:1010F000266A61EEA76AA0EE276A68EE888A36EE55
:101100006A6A37EE077AABEE016A67EE611AABEEF8
:10111000236AE0EE075AA2EEAA6AD1ED00AAE2EE37
:101120002A6AE8EE8A6AE0EE296A76EEE86AE9EE73
:10113000016A21EE081AE9EE236A63EE883AE2EECC
:10114000A86AD4ED002AD4ED007AE1EE221AE3EE8B
:10115000A71AE0EE031A26EE060AA5EEA50AA6EEE9
:10116000A60AA1EEA10AFFF703FF384B60EE655A0D
:10117000D3ED007A20EE466AA5EEA74AD3ED007AB9
:1011800060EE666AE6EE274AD3ED007A20EE610A49
:10119000A6EEA75AD3ED007AE0EE270A95ED007A85
:1011A000DFED2B7AA4EE277A85ED007A90ED007AB8
:1011B000A4EEA77A80ED007A91ED007AA5EE277A69
:1011C00081ED007A94ED007AA0EEA77A84ED007AA2
:1011D00095ED005AD5ED005A90ED000AD0ED004A89
:1011E00091ED006AD1ED006A94ED007AD4ED007AB9
:1011F00020EE240AA5EE250AA6EE260AA7EE270A67
:10120000FFF7B6FED5ED007A60EE277ABDEC088BCD
:10121000C5ED007AD0ED007A60EE277AC0ED007A55
:10122000D1ED007A60EE277AC1ED007AD4ED007A34
:1012300020EE270A84ED000A38BD00BF040200201A
:10124000080200200C020020040000200000002002
:10125000610BB63B30B5602287B000210E4809F023
:1012600092FE03220021012008F0C2FC0B4A10600C
:1012700020B100231A46194608F0DEFC084D0FCDB8
:1012800001AC0FC42B682360002101A808F09DF871
:10129000044B186007B030BD0088002098880020FB
:1012A00058EB00089C880020034800231A46194682
:1012B000006808F0C1BC00BF9888002010B510B1CC
:1012C000012816D010BD2E22F421772001F01AFD3E
:1012D000052009F02FF8F621772001F0B9FCF7215D
:1012E0000446772001F0B4FC0D4B40EA04209884BA
:1012F00010BD2E22F421772001F048FE052009F0D0
:1013000019F8F621772001F0E7FDF7210446772050
:1013100001F0E2FD024B40EA0420A3F8540010BDA6
:101320000088002013B518B1012826D002B010BDE6
:10133000244C94F82C209201343202F0FC02F42167
:10134000772001F0DFFC082008F0F4FF01AB032256
:10135000F621772001F0ACFC9DF805309DF80420C3
:101360001B0243EA02439DF80620134394F82C2005
:10137000C2F108021341A362D8E7124C94F85C2032
:101380009201343202F0FC02F421772001F0FEFDDC
:10139000082008F0CFFF01AB0322F621772001F0EF
:1013A000CBFD9DF805309DF804201B0243EA024363
:1013B0009DF80620134394F85C20C2F10802134103
:1013C000A365B3E700880020034A302303FB002015
:1013D00090ED070A704700BF008800200000000061
:1013E000F0B5044689B07A4E3025FFF767FF6543B4
:1013F0002046FFF797FF72190023B2F92410508995
:101400000193081A11890293414303934FF400405A
:10141000049391FBF0F10593069307930191019FCB
:10142000B2F91210B2F91400C902384491FBF0F17C
:101430000291019902980144059101930293059B41
:10144000A3F57A630693069906984FF480534843B0
:1014500090FBF3F1B2F90E004FF40067484390FBA4
:10146000F7F001900699B2F90200414391FBF7F1C0
:1014700002910199029801440391039F715B92F8D4
:101480002C00042511FB05718140023191FBF5F11F
:101490000491069FB2F904104F434FF4005197FB9B
:1014A000F1F70197069F0699794391FBF3F3B2F99F
:1014B0000C1059434FF4803391FBF3F10291019BDF
:1014C00002990B44023393FBF5F30393039BD188FA
:1014D000049D03F500434B43D90B936A4CF2503201
:1014E0005D1B42FA00F36B4353BF5B00B3FBF1F3A8
:1014F0005B00B3FBF1F30793079A079B4FF48071EE
:1015000092FBF1F293FBF1F353430193019B40F6FD
:10151000DE324FF480315A4392FBF1F20192079A86
:101520002C4B534393FBF1F30293019B0299079ACF
:101530000B4403F6CF631021302593FBF1F31344E2
:1015400005FB04650793079BAB619DED077AD5ED1D
:10155000087AB8EEC77AF8EE677AC7EE276A16EE11
:10156000900AFFF701F89FED161B41EC100B0BF0F2
:10157000D9FD002053EC102B1749FEF795FE12A35E
:10158000D3E90023FFF744F8FFF71AFB95F82D3055
:10159000E861032B12D80133296A079ADBB2042BC6
:1015A00085F82D304FF030030A4403FB04642A62AF
:1015B0004FF0000304BF92082A62E36109B0F0BD56
:1015C0006C45D9CC955BC83F0000000040A5E540C4
:1015D0000088002043E3FFFF0000F03F38B5D02132
:1015E000772001F035FB552840F0AA80AA2177200A
:1015F00001F02EFBAB210546772001F029FB534C6F
:1016000040EA052020800A2007F0F7FEAC21772071
:1016100001F01EFBAD210546772001F019FB40EAE1
:10162000052060800A2007F0E8FEAE21772001F057
:101630000FFBAF210546772001F00AFB40EA0520A9
:10164000A0800A2007F0D9FEB021772001F000FB2E
:10165000B1210546772001F0FBFA40EA0520E08041
:101660000A2007F0CAFEB221772001F0F1FAB52175
:101670000546772001F0ECFA40EA052020810A2097
:1016800007F0BBFEB421772001F0E2FAB521054650
:10169000772001F0DDFA40EA052060810A2007F09A
:1016A000ACFEB621772001F0D3FAB72105467720AA
:1016B00001F0CEFA40EA0520A0810A2007F09DFE45
:1016C000B821772001F0C4FAB9210546772001F04E
:1016D000BFFA40EA0520E0810A2007F08EFEBC2117
:1016E000772001F0B5FABD210546772001F0B0FA68
:1016F00040EA052060820A2007F07FFEBE217720A5
:1017000001F0A6FABF210546772001F0A1FA40EAD0
:101710000520A0820A2007F070FE0D4C00234FF038
:10172000FF321946206808F091FB00234FF0FF328A
:101730001946206808F08AFB0020FFF751FEF4E705
:101740004021044800F0CEFAE7E700BF00880020FF
:1017500098880020ADEB000808B50C4A00231370F0
:101760000B4A13605360936001F014FF01F07CFE9C
:1017700001F040FF01F0AAFE01F0DAFE01F06CFF7B
:1017800001F0C4F9BDE8084000F078BBE088002013
:10179000B088002010B508F035F8064A064C1368EA
:1017A0002360536863609368A36008F04DF8204697
:1017B00010BD00BFD0880020B088002072B60C4B4E
:1017C0001A6912F001024FF0804305D01A6842F006
:1017D00001021A6062B67047196821F001011960B0
:1017E000596A0A20B1FBF0F1024801815A62F1E71F
:1017F00000200240D088002072B60C4B1A6912F00B
:101800000202A3F5053305D01A6842F001021A60FE
:1018100062B67047196821F001011960596A0A20FF
:10182000B1FBF0F1024881805A62F1E700200240EA
:10183000D088002072B60C4B1A6912F00402A3F58E
:10184000043305D01A6842F001021A6062B670478C
:10185000196821F001011960596A0A20B1FBF0F101
:101860000248C1805A62F1E700200240D08800207F
:1018700072B60C4B1A6912F00802A3F5063305D0B4
:101880001A6842F001021A6062B67047196821F0C6
:1018900001011960596A3A20B1FBF0F10248418117
:1018A0005A62F1E700200240D088002072B60C4B4B
:1018B0001A6912F01002A3F5073305D01A6842F036
:1018C00001021A6062B67047196821F001011960BF
:1018D000596A0A20B1FBF0F1024841805A62F1E7EF
:1018E00000200240D08800201C491D4B0A789854E3
:1018F0000132D2B2132A88BF00220A701A78AA2AAB
:101900002BD15A78AA2A28D11A7B552A25D15A7B5D
:10191000552A22D19A780C2A1FD1DA78072A1CD1AD
:1019200004210022585C013102440B29D2B2F9D1C2
:10193000D97A914211D1EFF311824FF0500181F326
:101940001188BFF36F8FBFF34F8F9979DB7903EB6A
:10195000012304490B8082F311887047E08800203E
:10196000BC880020D08800201021014802F013BA62
:10197000000C024000224FF48061014802F006BAD8
:101980000018024001224FF48061014802F0FEB9C4
:10199000001802402DE9F041DCB0FFF7DDFE01F058
:1019A000EDFB01F085FE01F0A3FE00F0BBFDDFF8CA
:1019B0008880204D044600234FF0FF321946D8F8A6
:1019C000000008F043FA04F14703E788A6880F9364
:1019D00004F12C030E93206AFEF7C6FDCDE90C013D
:1019E000E069FEF7C1FDCDE90A01A069FEF7BCFD83
:1019F000CDE908016069FEF7B7FDCDE90601206970
:101A0000FEF7B2FDCDE90401A38903936388029335
:101A1000638901932389009329463B46324611A8E6
:101A200009F0E2FF11A8FEF7E3FB81B211A801F073
:101A30008DFEC0E7CFEB0008E488002030B595B0FC
:101A40002C4B002101911A6C42F080521A641B6CDD
:101A500003F080530193019B274B02911A6842F4D3
:101A600040421A601B6803F440430293029B012327
:101A700008934FF4803309934FF480030F930823A6
:101A800010934FF4A8730224119308A807230E940F
:101A90001294139303F03AFF28B1642007F0ADFCD1
:101AA000FFF762FFF9E74FF4A05305900F250521DA
:101AB00003A8049403950693079304F0D7F804460B
:101AC00028B1642007F099FCFFF74EFFF9E704F016
:101AD00067F94FF47A73B0FBF3F001F0D3FE042002
:101AE00001F0E6FE224629464FF0FF3001F08AFE63
:101AF00015B030BD00380240007000402DE9F041C3
:101B00008AB02D4B2D4E002400941A6B42F08002B7
:101B10001A631A6B02F080020092009A01941A6B09
:101B200042F004021A631A6B02F004020192019A55
:101B300002941A6B42F001021A631A6B02F001025E
:101B40000292029A03941A6B42F008021A631A6B0B
:101B500002F008020392039A04941A6B42F04002C6
:101B60001A631B6B03F0400304930225049B1027A8
:101B7000012305A93046059706930795089501F0BE
:101B80006FFF08950E4D079411234FF4806805A947
:101B900028460693CDF8148001F062FF22464146A4
:101BA000284602F0F3F822463946304602F0EEF8B5
:101BB0000AB0BDE8F08100BF00380240000C0240CE
:101BC0000018024030B5124D87B001F0C9FDFFF793
:101BD00035FFFFF793FF0FCD01AC0FC42B682360D7
:101BE000002101A807F0F1FB0A4B03221860002135
:101BF000012007F0FDFF084A106020B100231A46BB
:101C0000194608F019F807F0DBFB002007B030BDDB
:101C10006CEB0008E8880020E488002003480023DB
:101C20001A461946006808F007B800BFE48800208B
:101C30000268084B9A4210B5044601D101F0AAFD92
:101C40002268054B9A4201BF044A136801331360AE
:101C500010BD00BF00000140001400401002002031
:101C6000014B1868704700BF1002002030B50022F9
:101C700089B00721372001F0C5FD372001F0F6FDBE
:101C80000025144B02951A6C134C42F020021A6482
:101C90001B6C03F02003029301A903A8029B04F02C
:101CA000A5F804F093F80D4B236042F20F73E36044
:101CB00040000B4BB0FBF3F001386060204625611B
:101CC000A56004F065FB10B9204604F04BFA09B09A
:101CD00030BD00BF00380240EC88002000140040F6
:101CE0008096980008B5642007F087FBFFF73CFE5C
:101CF000F9E70000044A1378591C117003F07F03C0
:101D0000024AD054704700BF1402002028890020E6
:101D10002DE9F041A2B080224F49504F02A809F0AE
:101D200027F902AD2C46072614F8013B242B40F07E
:101D30008D802378472B40F0898063784E2B40F0CC
:101D40008580A378472B40F08180E3784C2B7DD1B0
:101D500023794C2B7AD18DF805609DF80530652BE1
:101D60005FD93F4F07244FF000082B78242B05F153
:101D700001064ED16B78472B4BD173784E2B48D14F
:101D8000B378562B45D1F378542B42D13379472B76
:101D90003FD1662C42D88DF8068007358DF8078034
:101DA0000022AB5C4E2B04BF931CDBB205EB02019F
:101DB00008BF8DF806300B784B2B04BF02F1FF33C0
:101DC000DBB202F1010208BF8DF807301A2AE8D110
:101DD0009DF806302344DBB28DF806309DF80730BD
:101DE0002344DBB28DF807309DF807509DF806308C
:101DF000ED1AEDB26B1E182B0BD80021384609F0F6
:101E0000C2F89DF8061002AB2A461944384609F07C
:101E100017FE0134E4B2802C3546A6D122B0BDE8CD
:101E2000F0819DF8053022AA134413F8673C452B36
:101E300097D11B220021384609F0A5F89DF805101E
:101E400002AB1A221944384609F0FAFD0136F6B2FF
:101E5000802E7FF469AF84E728890020CE89002096
:101E6000B489002000487047CE89002000487047A0
:101E7000B4890020004870472889002030B5104DF3
:101E80000FCD87B001AC0FC42B682360002101A8DF
:101E900007F09BFA0B4B032218600021012007F08A
:101EA000A7FE094A106020B100231A46194607F020
:101EB000C3FE064A00231380054A138007B030BDD5
:101EC00080EB0008EC890020008A00207E020020C0
:101ED0007C02002000000000B34B2DE9F04793ED99
:101EE000002AB24BDFF80483D3ED001AB04BB14E99
:101EF00093ED001AB04BB14FD3ED000AB04BB14D8A
:101F0000B14CD8ED002A93ED000ADFF8E4A2DFF827
:101F1000E4922DED048B82B0FFF740F896ED009A25
:101F2000D7ED008A94ED008AD5ED009AD5ED004AF0
:101F300095ED005A94ED004AD4ED007AD7ED005AA1
:101F400097ED006AD6ED006A96ED007A67EEC47AE6
:101F5000E4EE857AE5EEC67AE6EE877A17EE900A29
:101F6000FEF702FB68EE297ACDE90001E9EE287A56
:101F700077EEA77A17EE900AFEF7F6FA9DED001BB2
:101F800041EC100B0BF0CCF851EC100BFEF718FEE7
:101F9000D7ED006A95ED007A96ED006AD4ED007AEF
:101FA000CAF8000067EEC67AE6EE877A77EEA77A7F
:101FB00017EE900AFEF7D8FA41EC100B0BF058F828
:101FC00051EC100BFEF7FCFD96ED009AD5ED008A62
:101FD00097ED008AD4ED009AD7ED004A97ED005AAC
:101FE000D6ED007A96ED004AD5ED005A95ED006ADF
:101FF000D4ED006A94ED007AC9F8000067EE847AA7
:102000005646E4EE857A4F46E5EEC67AE6EEC77AA6
:1020100017EE900AFEF7A8FA68EE297ACDE90001DA
:10202000E9EE287A77EEA77A17EE900AFEF79CFA87
:102030009DED001B41EC100B0BF072F851EC100BF6
:10204000FEF7BEFDFEF790FA55A3D3E90023FEF795
:10205000DFFAFEF7B5FD5D4B1860D9F80000FEF71A
:1020600083FA4FA3D3E90023FEF7D2FAFEF7A8FDC7
:10207000C9F80000DAF80000FEF776FA48A3D3E9C1
:102080000023FEF7C5FAFEF79BFD514BCAF800008E
:102090001A88C72A1D4676D84E4C208807EE900A2B
:1020A000B8EEE77AF3EE047AB4EEE77AF1EE10FADE
:1020B0000FD5013080B22080FEF744FA0022464B53
:1020C000FEF70EFD28B1FFF7EFF8FFF721FE002322
:1020D0002380FFF75FFB2C88DFF81C9103684FF02B
:1020E000640A0AFB04F4A11C09EB010249F801305F
:1020F00043685360836893604C44D8F80030236190
:102100003B6863613368A36100236362A3620020BC
:10211000FFF75AF9012084ED070A2C88FFF754F9DC
:102120000AFB049484ED080A2C88FFF79BFE0AFB47
:1021300004942C340146204609F07AFC2B880AFBD3
:102140000399FFF793FE09F147090146484609F054
:102150006FFC2B889FED217A07EE903AF8EEE77A34
:10216000F4EE477AF1EE10FA01D1FFF757FD2B8814
:1021700001332B801A4A13880133138002B0BDEC5F
:10218000048BBDE8F08700221A80164916486422A5
:1021900008F0EEFEFFF742FD01F048F8EAE700BF65
:1021A000F8C1631ADCA54C40F4890020FC890020AA
:1021B000088A002004000020F88900200402002082
:1021C000F08900200C020020080200208C880020EA
:1021D0007E0200207C020020000034400000C84243
:1021E00080020020BC4D00100C8A0020048A0020D0
:1021F00094880020908800200000001010B500F0A6
:1022000017FD00F059FE642007F0F7F8FFF7BAFB5E
:10221000C82007F0F2F8FFF7ADFBC82007F0EDF893
:1022200000F0E4FC00F026FE00226B21682000F0A4
:1022300069FD7521682000F00BFD732834D106225A
:102240001A21682000F05EFD0A2007F0D6F800226F
:102250001B21682000F056FD0A2007F0CEF800226E
:102260001C21682000F04EFD0A2007F0C6F803226A
:102270001921682000F046FD0A2007F0BEF801226F
:102280003821682000F03EFD0A2007F0B6F8FEF77E
:10229000E1FF084C206800234FF0FF32194607F099
:1022A000D5FDFFF719FEF5E75D210348FFF71AFD9D
:1022B000EDE700BF008A00203EEC000800000000AF
:1022C0002DE9F0418AB00E234FF48074019306ABE0
:1022D0000093029401233B22D0217F4802F0B8F9F9
:1022E00078B17E4B7C495422184608F041FE4022CA
:1022F000A0F85C207A4A0266A0F85440826500F09B
:1023000019FD9DF818309DF819009DF81B809DF867
:102310001D709DF821609DF823509DF8254040EAEE
:102320000320704B00B218809DF81A3048EA032849
:102330006D4B0FFA88F8A3F800809DF81C3047EA2F
:1023400003276A4B3FB21F809DF8203046EA0326E0
:10235000674B36B21E809DF8223045EA0325654B57
:102360002DB21D8007EE900A9DF82430F8EEE77A32
:1023700044EA0324604B24B217EE900A1C80FEF757
:10238000F3F802460B46FDF791FF00224FF07C5315
:10239000FEF73EF9FEF714FC07EE908A574BF8EE75
:1023A000E77A186017EE900AFEF7DEF802460B4651
:1023B000FDF77CFF00224FF07C53FEF729F9FEF772
:1023C000FFFB07EE907A4E4BF8EEE77A186017EEB7
:1023D000900AFEF7C9F802460B46FDF767FF002298
:1023E0004FF07C53FEF714F9FEF7EAFB07EE906A14
:1023F000444BF8EEE77A186017EE900AFEF7B4F84F
:102400000022414BFEF704F900224FF07C53FEF707
:10241000FFF82FA3D3E90023FEF7FAF800223B4B85
:10242000FEF720FAFEF7CCFB07EE905A384BF8EE99
:10243000E77A186017EE900AFEF796F80022324B02
:10244000FEF7E6F800224FF07C53FEF7E1F820A3F8
:10245000D3E90023FEF7DCF800222C4BFEF702FA4A
:10246000FEF7AEFB07EE904A2A4BF8EEE77A1860CB
:1024700017EE900AFEF778F80022234BFEF7C8F813
:1024800000224FF07C53FEF7C3F811A3D3E90023D9
:10249000FEF7BEF800221D4BFEF7E4F9FEF790FBB5
:1024A0001D4B18601D4B05A9186807F07BFC059BA8
:1024B000012B07D11A4B4FF080521A60BFF34F8F98
:1024C000BFF36F8F0AB0BDE8F08100BFAFF30080AB
:1024D000182D4454FB210940AC8A0020180200202A
:1024E0000004024072880020A48800206488002034
:1024F000A0880020608800207A880020FC890020C5
:10250000F4890020048A002000406F40008066406B
:10251000F0890020F8890020088A0020008A002025
:1025200004ED00E0004870470C8A002008B5032045
:1025300001F056F9002211466FF00B0001F062F92C
:10254000002211466FF00A0001F05CF900221146EA
:102550006FF0090001F056F9002211466FF00400F7
:1025600001F050F9002211466FF0030001F04AF922
:1025700000220F216FF0010001F044F900220F2129
:102580004FF0FF30BDE8084001F03CB910B50268DB
:102590001F4B9A4288B038D103F582330021019154
:1025A0005A6C1C4842F400525A645A6C02F40052AD
:1025B0000192019A02911A6B42F010021A631B6B8E
:1025C00003F010030293029B0423012205240393CA
:1025D00003A90223059204930693079401F040FA9D
:1025E000202303A90B480393079401F039FA4023F1
:1025F00003A908480393079401F032FA102303A9B2
:1026000004480393079401F02BFA08B010BD00BFF3
:102610000034014000100240F0B502683F4B9A427E
:102620008BB006463AD13E4C3E4800250195236BBF
:1026300043F002032363236B03F002030193019B26
:1026400040230593122306930123079304270323B2
:1026500005A90893099701F003FA802305A93148D9
:102660000593099701F0FCF90295236C43F40013DC
:102670002364236C03F400132A46092102932020CB
:10268000029B01F0BFF8202001F0F0F81F202A463D
:102690000A2101F0B7F81F2001F0E8F83268224B58
:1026A0009A4239D11E4C214800260396236B43F0F1
:1026B00020032363236B03F020030393039B122364
:1026C000012506930427032305A90893059507957B
:1026D000099701F0C5F9022305A914480593099744
:1026E00001F0BEF90496236C43F480032364236C49
:1026F00003F480032A46092104932220049B01F05D
:1027000081F8222001F0B2F821202A460A2101F0A6
:1027100079F8212001F0AAF80BB0F0BD0054004078
:1027200000380240000402400058004000140240FB
:1027300070B50268534B9A428CB0044632D103F50F
:102740009433002500955A6C4F4842F010025A64A9
:102750005A6C02F010020092009A01951A6B42F036
:1027600001021A631B6B03F001030193019B4FF4F9
:10277000007307930726022307A908930A930B9671
:1027800001F06EF94FF4806307A93F4807930B9659
:1027900001F066F925202A46082101F033F82520AA
:1027A00001F064F82268394B9A4233D103F5F433CF
:1027B00000220292196C364841F480111964196C98
:1027C00001F48011029102990392196B41F0040106
:1027D0001963196B01F004010391039904921A6BB8
:1027E00042F008021A631B6B03F008030493049B76
:1027F000042307930825022307A908930A930B953E
:1028000001F02EF94FF4805307A9224807930B9546
:1028100001F026F92268204B9A4230D103F5E033CB
:10282000002105911A6C1D4842F080421A641A6C0E
:1028300002F080420592059A06911A6B42F020023E
:102840001A631B6B03F020030693069B4023079338
:102850000824022307A908930A930B9401F000F9B6
:10286000802307A90D4807930B9401F0F9F8522033
:1028700001220B2100F0C6FF522000F0F7FF0CB040
:1028800070BD00BF00100140000002400050004039
:10289000000C024000080240007800400014024092
:1028A0000268184B9A4210B5044611D103F5F23371
:1028B00040211A6A144842F400121A621A6A22F479
:1028C00000121A6201F0B8F980210F4801F0B4F942
:1028D00022680E4B9A4213D103F5F03301211A6A94
:1028E0000B4842F480021A621A6A22F480021A62C9
:1028F00001F0A2F902210648BDE8104001F09CB9A0
:1029000010BD00BF005400400004024000580040C9
:102910000014024030B5014689B00022192000F0B1
:1029200071FF192000F0A2FF0025154B02955A6C8B
:10293000144C42F001025A645B6C03F001030293F1
:1029400001A903A8029B03F051FA03F03FFA0E4BD2
:10295000236040F2E733E36040000C4BB0FBF3F040
:102960000138606020462561A56003F011FD20B9A3
:10297000204603F0F7FB09B030BD0120FBE700BFA4
:1029800000380240708A00200000014040420F00E1
:102990007047FEE7FEE7FEE7FEE7704706F094BDEE
:1029A000014803F0EEBB00BF708A0020014802F02E
:1029B0002BBC00BFBC8E0020014803F0E2BB00BF6F
:1029C000EC880020014801F0F1BF00BFAC8A002074
:1029D000014802F055BB00BF008B0020014801F008
:1029E000E5BF00BF008B0020014802F049BB00BFDB
:1029F000AC8A0020202001F0D3B9000008B5FEF712
:102A000055FF034A536943F01003536108BD00BFEB
:102A1000003C014008B5FEF72BFF034A536943F021
:102A20000803536108BD00BF003C014008B5FEF734
:102A300001FF034A536943F00403536108BD00BF1B
:102A4000003C014008B5FEF7D7FE034A536943F046
:102A50000203536108BD00BF003C014008B5FEF70A
:102A6000ADFE034A536943F00103536108BD00BF43
:102A7000003C014008B5064B1A68920607D51A6853
:102A800022F020021A605868C0B2FEF72DFF08BD80
:102A900000100140064B1A68920607D51A6822F00A
:102AA00020021A605868C0B2FFF724B9704700BF0F
:102AB00000780040014B586B00F018BF688E002072
:102AC0000F49D1F8883043F47003C1F888300D4BBA
:102AD0001A68002042F001021A6098601A6822F019
:102AE000847222F480321A60074A5A601A6822F40B
:102AF00080221A60D8604FF000638B60704700BF7F
:102B000000ED00E0003802401030002470B588B0BD
:102B100000242E4B01941A6B2D4842F002021A63D6
:102B20001A6B02F002020192019A02941A6B42F4AB
:102B300080721A631B6B059403F48073029308ADD3
:102B4000029B244B0493202345F8143D294600F0B2
:102B500087FF22460921172000F054FE172000F0BD
:102B600085FE1D4B049302261F2329461B48039311
:102B7000059600F075FF22460721062000F042FE70
:102B8000062000F073FE07210846012200F03AFEFD
:102B9000072000F06BFE32460721082000F032FECD
:102BA000082000F063FE03220721092000F02AFE1E
:102BB000092000F05BFE042207210A2000F022FE1B
:102BC0000A2000F053FE08B070BD00BF003802407C
:102BD00000040240000011100000311000200240EB
:102BE000202808B501D1FFF76BFB08BD0C4808B5DC
:102BF0000C4B03600C4B43604FF480420023026196
:102C000043618260C3610362C360836101F04CFA77
:102C100028B11F210548BDE80840FFF763B808BD8B
:102C2000AC8A002000540040801A060071EC0008B5
:102C300008B5054801F0A6FA28B12A210348BDE8E5
:102C40000840FFF74FB808BDAC8A002071EC0008BF
:102C500030B587B00023154D8DF80F1004468DF860
:102C60001730284602F0CCFA2028FAD164236400F9
:102C700000930DF10F02012321460C4801F09CFA4C
:102C800088B90A4D284602F0BBFA2028FAD16423FD
:102C900000930DF1170201232146044801F062FB65
:102CA00008B99DF8170007B030BD00BFAC8A0020FE
:102CB000F0B585B0124F8DF80F10044616461D462C
:102CC000384602F09DFA2028FAD16423640000936C
:102CD0000DF10F0201232146094801F06DFA68B990
:102CE000074F384602F08CFA2028FAD1642300936B
:102CF0002A4633462146024801F034FB05B0F0BDB8
:102D0000AC8A00201FB504468DF80C108DF80D20FC
:102D1000074802F075FA2028FAD16423009303AA29
:102D200002236100024801F047FA04B010BD00BF61
:102D3000AC8A002070B50268136886B023F00103E6
:102D4000136011230293042306AD05930223049319
:102D5000B0F85C3045F8143D044601262946006E63
:102D6000039600F07DFE3246B4F85C10206E01F050
:102D70000DF8B4F85430A06D0193294600F070FEB0
:102D80003246B4F85410A06D01F000F8B4F85C10AD
:102D9000206E00F0F5FF012860D1B4F85410A06D4A
:102DA00000F0EEFF01285BD10022B4F85410A06DB2
:102DB00000F0ECFFB4F85410A06D00F0E1FF024603
:102DC00000284FD1B4F85C10206E00F0DFFFB4F89B
:102DD0005C10206E00F0D4FF002845D10122B4F829
:102DE0005C10206E00F0D2FFB4F85C10206E00F092
:102DF000C7FF0128024639D1B4F85410A06D00F085
:102E0000C5FFB4F85410A06D00F0BAFF01282FD10F
:102E100012230293042305932946B4F85C30206EF4
:102E2000019300F01DFEB4F85430A06D01932946C3
:102E300000F016FE23681A6842F400421A6000BFD0
:102E40001A6822F400421A6000BF1A6842F00102B8
:102E50001A60204601F028F906B070BD00BF95E762
:102E600000BF9AE700BFA5E700BFB0E700BFBBE720
:102E700000BFC6E70C4808B50C4B03600C4B436021
:102E80004FF480420023026143618260C3610362A8
:102E9000C360836101F008F928B1EE210548BDE85F
:102EA0000840FEF71FBF08BD008B002000580040FF
:102EB000801A060071EC000808B5054801F062F9B7
:102EC00028B1F9210348BDE80840FEF70BBF08BD53
:102ED000008B002071EC000830B587B00023154D41
:102EE0008DF80F1004468DF81730284602F088F947
:102EF0002028FAD16423640000930DF10F0201230E
:102F000021460C4801F058F988B90A4D284602F0CC
:102F100077F92028FAD1642300930DF117020123D9
:102F20002146044801F01EFA08B99DF8170007B0C1
:102F300030BD00BF008B0020F0B585B0124F8DF87A
:102F40000F10044616461D46384602F059F920284F
:102F5000FAD16423640000930DF10F02012321468E
:102F6000094801F029F968B9074F384602F048F9D5
:102F70002028FAD1642300932A463346214602488A
:102F800001F0F0F905B0F0BD008B00201FB504463C
:102F90008DF80C108DF80D20074802F031F920282B
:102FA000FAD16423009303AA02236100024801F0CE
:102FB00003F904B010BD00BF008B0020064A53780F
:102FC000D9075FBF03F0820343F0550310705370BD
:102FD00054BF012000207047920200200A4A0B498A
:102FE00012780B78013A93420CDA0133DBB20B70A2
:102FF0004FF4A04200BF013AFCD1054A1268D05CF0
:10300000FFF7DCBF704700BF94020020950200204C
:1030100084020020002330B519460224012540FA1D
:1030200003F212F0010F4FEA430203F1010314BF50
:1030300005FA02F204FA02F2082B41EA0201EED18B
:10304000084630BD002310B51A460124590020FA65
:1030500001F1C90744BF04FA03F10A4303F1010374
:1030600048BFD2B2082BF1D1104610BD13B5074CA2
:10307000636801930198FFF7E5FF054AE070137854
:10308000591C1170034AD05402B010BD88020020B0
:1030900090020020548B0020174A38B51369174C52
:1030A00023F0010313616378D80723D503F07C0272
:1030B0007C2A134D08D16FF300036370AB6943F0B2
:1030C0000073AB61FFF78AFF2078FFF7A3FF6378F7
:1030D000AA69C3F3840340F46010D840C1074CBF11
:1030E00042F4007242F00072AA6162781F3363F307
:1030F0008602627038BD00BF0010004092020020BE
:103100000004024038B51A4B1A4C1A6922F0010229
:103110001A61194A126912F0010F04D0227812B90B
:10312000012121705A626378032B01BF0023637071
:103130001523A370104B1B6913F0010315D063789E
:10314000A278013363700123934062681343636084
:10315000A5784DB1013DEDB2A5702DB96368DB08CE
:103160006360FFF783FF656038BD6370F0E700BF01
:10317000000C0040880200200000024030B5002210
:1031800087B06421102006F033FD104B0322186035
:103190000021012006F02CFD0D4A106020B1002313
:1031A0001A46194606F048FD0A4D0FCD01AC0FC472
:1031B0002B682360002101A806F007F9064B186070
:1031C000064B00221A6007B030BD00BF5C8C0020A7
:1031D000548C002094EB0008B88C0020588C002000
:1031E00008B50F4B0F4A1A6007210022D8619A6078
:1031F0005A611A619A62D962DA601A624FF48021C8
:103200005A6218464FF4827299615A6002F063FE66
:1032100028B14A210448BDE80840FEF763BD08BD57
:10322000608C0020003401409CEC0008034800231F
:103230001A461946006806F0FFBC00BF548C0020F7
:1032400030B593B0014606A805F07FFA88B9044668
:10325000694606A8A5B205F0D6FA20B99DF809304E
:103260000134002BF4D106A805F0B6FA284613B0B5
:1032700030BD0025FAE7000010B50548054CFFF702
:10328000DFFF0549421C204608F0AEFB204610BD7A
:10329000EDEC00080C0500208EEC00082DE9F04F45
:1032A00044494548ADF51D7D05F0F2FB05F010FDE4
:1032B00000224249424804F073FF18B1932141486B
:1032C000FEF710FD404805F0C9FDFFF7D5FF0646A3
:1032D00000286BD00146322210A804F0ABFF30B9B1
:1032E0003A4910A805F0B9FA10A805F015FA384DBA
:1032F000DFF8E8802868DFF8E890364F00234FF0C9
:10330000FF32194606F0A2FD00234FF0FF321946A6
:10331000286806F09BFD3222314610A804F08AFF8F
:103320000028F1D1FEF720FB2B4CDFF8B8A034F8D1
:10333000263C54F80C0C0F9304F11B020D920C94D4
:10334000FDF712F9CDE90A0154F8100C34F828BC45
:10335000FDF70AF9CDE9080154F8140CFDF704F95A
:10336000CDE9060154F8180CFDF7FEF834F8202CCE
:10337000039234F82A2C029234F8222C019234F869
:10338000242C0092CDE904010F9B5A464946384649
:1033900008F02AFB64343A46514610A805F05DFA5D
:1033A000A045C4D110A805F0B7F9ADE70DF51D7D16
:1033B000BDE8F08FAD92002010EE0008EDEC0008A3
:1033C000980200209CEC0008CC040020BCEC000813
:1033D000548C00201C0500202C0000104C4E0010C6
:1033E000EEEC000830ED0008024600B10122102189
:1033F000014800F0CBBC00BF0010024007B541F20D
:103400008833009313460A460146034802F0A0FDA4
:1034100003B05DF804FB00BF608C00207FB541F273
:1034200088338DF80F0000930DF1170201230DF181
:103430000F01044802F08CFD9DF8170007B05DF8FD
:1034400004FB00BF608C002010B53820FFF7C8FED9
:103450000A24FF20FFF7E2FF013CFAD11020BDE86B
:103460001040FFF7BDBE000007B50023134A0193CB
:10347000116C134841F002011164126C114903618F
:1034800002F002020192019A8360532280E8060052
:103490004CF25032C26002F07BFF18B11F210A4883
:1034A000FEF720FC064802F050FE18B12221064823
:1034B000FEF718FC03B05DF804FB00BF00380240C3
:1034C000708D0020000400403EED000807B5002389
:1034D000134A0193116C134841F008011164126CF6
:1034E0001149036102F008020192019A836053229C
:1034F00080E806004CF25032C26002F049FF18B179
:1035000036210A48FEF7EEFB064802F01EFE18B10F
:1035100039210648FEF7E6FB03B05DF804FB00BF67
:1035200000380240F88C0020000C00403EED0008FE
:1035300007B50023134A0193116C134841F01001A1
:103540001164126C1149036102F010020192019A98
:103550008360532280E806004CF25032C26002F0D1
:1035600017FF18B14D210A48FEF7BCFB064802F0D0
:10357000ECFD18B150210648FEF7B4FB03B05DF82E
:1035800004FB00BF00380240348D002000100040D2
:103590003EED000807B50023134A0193116C134850
:1035A00041F001011164126C036102F00102019209
:1035B000019A836053224FF0804180E806004CF26C
:1035C0005032C26002F0E4FE18B164210848FEF7F0
:1035D00089FB064802F0B9FD18B167210448FEF7DF
:1035E00081FB03B05DF804FB00380240AC8D002085
:1035F0003EED000807B50023134A0193116C1348F0
:1036000041F004011164126C1149036102F00402DB
:103610000192019A8360532280E806004CF25032F6
:10362000C26002F0B5FE18B17B210A48FEF75AFBD2
:10363000064802F08AFD18B17E210648FEF752FBCB
:1036400003B05DF804FB00BF00380240BC8C0020D2
:10365000000800403EED000808B51148114B4FF43A
:10366000E13E80E80840042200238360C3600361D8
:1036700042618361C36102F0E9FF18B124210A4865
:10368000FEF730FB0E220949054803F06AF828B11D
:1036900027210548BDE80840FEF724BB08BD00BF50
:1036A000288E0020001001405EED0008A88E00204A
:1036B00008B50C480C4B4FF4614E80E808400C22D2
:1036C00000238360C360036142618361C36102F0D0
:1036D000BDFF28B13B210548BDE80840FEF702BB0D
:1036E00008BD00BFE88D0020005000405EED0008DE
:1036F00008B51348134B04224FF4165E80E80840C7
:10370000426100234FF480728360C3600361826171
:10371000C36102F09BFF18B150210B48FEF7E2FA9B
:10372000FEF7A8FB80220146054803F01AF828B1ED
:1037300053210548BDE80840FEF7D4BA08BD00BFD4
:10374000688E0020007800405EED00080A4641F2D5
:1037500088330146014802F0A7BF00BFE88D002072
:1037600008B50B4B1A6842F400721A601A6842F4EA
:1037700080621A601A6842F480721A60032000F0B6
:103780002FF80020FFF7C6F8FEF7D0FE002008BD96
:10379000003C0240034A044B11681B780B44136041
:1037A000704700BFB88E00200C000020014B186845
:1037B000704700BFB88E002038B50446FFF7F6FF0B
:1037C000631C1CBF054B1B78054618BFE418FFF7A8
:1037D000EDFF401B8442FAD838BD00BF0C0000202A
:1037E000074AD36823F4E0631B041B0C43F0BF6358
:1037F000000243F4003300F4E0600343D3607047F9
:1038000000ED00E0174B30B5DC68C4F30224C4F1CE
:103810000703251D042B28BF0423062D4FF00105A7
:1038200005FA03F303F1FF338CBF033C0024194076
:10383000A14005FA04F4013C2240002842EA0102BA
:103840004FEA0212AFBF00F1604000F00F00064BDC
:10385000D2B2A5BF00F56140D2B21A5480F800235D
:1038600030BD00BF00ED00E014ED00E0420901238F
:1038700000F01F0003FA00F0014B43F822007047EC
:1038800000E100E00138B0F1807F0AD2064B074A20
:103890005860F02182F823100020072298601A60F7
:1038A00070470120704700BF10E000E000ED00E02D
:1038B000044B1A6804280CBF42F0040222F00402F0
:1038C0001A60704710E000E090F83530022B03D00A
:1038D00080234365012070470268052380F8353056
:1038E000136823F00103136000207047F7B500232D
:1038F00001935A4B856D1F68C36D2E6808229A404C
:10390000164204460CD001680868400708D50868CC
:1039100020F004000860AA60626D42F00102626556
:1039200001229A40164208D021684969090641BF20
:10393000AA60626D42F00202626504229A40164259
:1039400008D021680968880741BFAA60626D42F00B
:103950000402626510229A40164210D0236819684A
:1039600009070CD5AA601A68500335D51B681903DE
:1039700001D4236C00E0A36C0BB120469847E16DA5
:1039800020228A40164238D023681868C60634D5EB
:10399000AA6094F83520052A1A6825D122F016026B
:1039A0001A605A6922F080025A61226C0AB9A26C2C
:1039B0001AB11A6822F008021A603F238B40AB60EC
:1039C000002384F83430012384F83530236D0BB1A3
:1039D0002046984703B0F0BD1A68D2055EBF1A684A
:1039E00022F008021A60C4E7500328D51B681903A7
:1039F00032D4636C0BB120469847636D002BE9D03D
:103A0000636DDA0719D50523226884F83530136809
:103A100023F0010313604FF41653B7FBF3F7019B38
:103A200001339F42019302D31368DB07F7D40023CD
:103A300084F83430012384F83530E36CC7E71A6822
:103A400012F4807208D1196821F010011960012365
:103A500084F8342084F83530E36BCBE7080000208D
:103A60002DE9F04F85B00B68DFF8C4816E4ADFF8AE
:103A7000C491019300234FF0010E019C0EFA03FE46
:103A80000EEA0406B64540F0B6804C6824F01007F4
:103A9000022F16D14FEAD30A00EB8A0A03F0070B74
:103AA000DAF820504FEA8B0B4FF00F0C0CFA0BFC9E
:103AB00025EA0C0C0D6905FA0BF545EA0C05CAF868
:103AC00020504FEA430A0325D0F800B005FA0AF562
:103AD000ED4304F0030C0BEA050B0CFA0AFC013F62
:103AE0004CEA0B0C012FC0F800C011D8876807EA18
:103AF000050BCF6807FA0AFC4CEA0B07876047689A
:103B000027EA0E0EC4F300179F4047EA0E074760EE
:103B1000C7683D408F6807FA0AF73D43C560E50076
:103B200069D54FF0000BCDF80CB0D8F844703F4D7C
:103B300047F48047C8F84470D8F8447007F48047C9
:103B40000397039F23F0030707F1804707F59C378E
:103B500003F0030CD7F808A04FEA8C0C4FF00F0EBF
:103B60000EFA0CFEA8422AEA0E0E4BD005F580652F
:103B7000A84249D005F58065A84247D005F5806583
:103B8000A84245D005F58065A84243D0484543D0BA
:103B900005F50065A84241D005F58065A8423FD0F3
:103BA00005F58065A8423DD005F58065A84214BFA3
:103BB0000A25092505FA0CF545EA0E05BD601568CC
:103BC000F74314F4803F0CBF3D4035431560556802
:103BD00014F4003F0CBF3D4035435560956814F424
:103BE000801F0CBF3D4035439560D568A40254BF8B
:103BF0003D403543D5600133102B7FF43CAF05B019
:103C0000BDE8F08F5D46D5E70125D3E70225D1E772
:103C10000325CFE70425CDE70525CBE70625C9E732
:103C20000725C7E70825C5E7003C01400000024022
:103C300000380240001402402DE9F04F4C4EDFF8EE
:103C400038A1DFF838B100244FF0010909FA04F275
:103C500032EA010374D1032304FA09F5076803FA71
:103C600005F5ED4324FA03FC2F4000EB8C0C0760B4
:103C700004F0070EDCF820800F274FEA8E0E07FABB
:103C80000EFE28EA0E0ECCF820E0D0F808E005EA97
:103C90000E0EC0F808E0D0F804E0D24302EA0E0E9F
:103CA000C0F804E0D0F80CE005EA0E05C56024F089
:103CB000030505F1804505F59C3504EA030E2D4BFF
:103CC000D5F808C04FEA8E0E07FA0EF798420CEAB4
:103CD000070C3AD003F58063984238D003F580632F
:103CE000984236D003F58063984234D003F5806360
:103CF000984232D003F58063984230D0504530D09E
:103D0000584530D003F5406398422ED003F58063C8
:103D100098420CBF09230A2303FA0EF39C450FD1E6
:103D2000AB6823EA0707AF603368134033607368FA
:103D300013407360B3681340B360F3681A40F260D5
:103D40000134102C80D1BDE8F08F0023E4E74B460E
:103D5000E2E70223E0E70323DEE70423DCE70523B1
:103D6000DAE70623D8E70723D6E70823D4E700BF1E
:103D7000003C01400000024000180240001C0240CC
:103D80000369194214BF0120002070470AB1816104
:103D900070470904FBE743695940416170470000DF
:103DA00008B5044B5969014202D05861FEF718FF6B
:103DB00008BD00BF003C01400268536913F48063F2
:103DC0000DD06FF480635361042303642022002329
:103DD000036380F83C3080F83D200120704718468E
:103DE00070472DE9F843044617469946C1F3074842
:103DF0008EB22568B8F1010F0CBF6B69AB6936EA6A
:103E0000030314BF0120002008B9BDE8F8836B69E3
:103E10005A0512D52B6843F400732B606FF480634E
:103E20006B610423236420220023236384F83C3045
:103E300084F83D200120BDE8F8837B1CD9D04FB920
:103E400000232022236384F83C3084F83D200320A3
:103E5000BDE8F883FFF7AAFCA0EB09008742C8D2AF
:103E6000EEE72DE9F843089E044690461F46C1F34D
:103E700007498DB22368B9F1010F0CBF5B699B69DB
:103E800035EA03030CBF01230023434502D0002081
:103E9000BDE8F8837B1CEDD05FB9002320222363AB
:103EA00084F83C3084F83D20032084F83E30BDE89F
:103EB000F883FFF77BFC801B8742DBD2EDE770B510
:103EC00004460D46164623685B691B0601D5002093
:103ED00070BD2046FFF770FFA8B96A1CF3D065B922
:103EE000236C43F02003236420220023236384F8FF
:103EF0003C3084F83D20032070BDFFF757FC801B49
:103F00008542E0D2ECE7012070BD00002DE9FF41C1
:103F1000984603680B9D16461A6842F480621A6040
:103F20001A6842F480721A600F4600950A9B0022BC
:103F30004FF001110446FFF794FF80B923682F4921
:103F4000FFB207F0FE021A6120462B460A9AFFF7DD
:103F500048FF40B1236C042B01D1012000E0032075
:103F600004B0BDE8F081236803905A6903929B690D
:103F700003932A460A99039B2046FFF7A0FF40B10E
:103F8000236C042BEBD12268136843F40073136095
:103F9000E3E7B8F1010F236824D1F6B21E612A4687
:103FA0000A992046FFF78BFF02460028E8D12168D6
:103FB0000B6843F480730B60204600950A9B4FF01A
:103FC0000111FFF74EFF0028C9D123680A9A0B4957
:103FD00047F001071F6120462B46FFF702FF00282C
:103FE000B8D1BDE7320A1A610A992A462046FFF77E
:103FF00066FF0028C4D12368CFE700BF020001009C
:1040000070B504460D4616462068436913F0400318
:1040100001D0002070BD4269D2060BD56FF01002AE
:1040200042612022236484F83C302363012084F819
:104030003D2070BD5DB9236C43F020032364202331
:1040400084F83D30002384F83C30032070BDFFF736
:10405000ADFB801B8542D7D2EDE770B504460D4617
:10406000164623685B695B0701D5002070BD2046BA
:10407000FFF7A2FEA8B96A1CF3D065B9236C43F020
:104080002003236420220023236384F83C3084F837
:104090003D20032070BDFFF789FB801B8542E0D2E5
:1040A000ECE7012070BD000070B50446002862D026
:1040B00090F83D3003F0FF021BB980F83C20FEF77A
:1040C000ABFA22682D4E2E4D242384F83D30136820
:1040D00023F00103136001F069FE63682268B0FBFE
:1040E000F5F5B34284BF4FF496716943556091BFB3
:1040F000691C4FF47A75B1FBF5F10131B3421162DD
:1041000021D85B00B0FBF3F0C0F30B03032B98BF87
:104110000420216AE369D0610B431360E1682369DD
:104120000B439360A16963690B43D360136843F049
:104130000103136000202023206484F83D302063B5
:1041400084F83E0070BDA16849B903EB4303B0FB9E
:10415000F3F0C0F30B0363B140F40040D9E7192139
:104160004B43B0FBF3F0C0F30B0313B140F44040FA
:10417000CFE70120CDE7012070BD00BFA086010080
:1041800040420F0010B5044698B10268242380F81D
:104190003D30136823F001031360FEF781FB00201C
:1041A000206484F83C0084F83D00206384F83E00DD
:1041B00010BD012010BD00002DE9FF4104461F463F
:1041C0000D469046FFF7F2FA94F83D30202B064654
:1041D00004D00225284604B0BDE8F08100901923E0
:1041E00001225D492046FFF73CFE0028F1D194F8FA
:1041F0003C30012BEDD0012384F83C3023681A6851
:10420000D2075EBF1A6842F001021A601A6822F4EF
:1042100000621A60212284F83D20102284F83E209A
:1042200000222264A2F580326785E262628D2285D7
:10423000E26AC4F82480042A04D0012A02D012F5CC
:10424000803F04D11A6842F480721A6002E0226B47
:10425000122AF7D000960A9B00224FF00111204647
:10426000FFF7FFFD28BB23692268B3F5804F12D109
:1042700005F0FE05156133460A9A38492046FFF7D6
:10428000B0FD0546A0B9236803905A6903929B6963
:104290000393039B50E0EB1103F0060343F0F0039C
:1042A00013612F490A9A33462046FFF79AFD48B119
:1042B000236C236C042B4FF0000307D184F83C30AF
:1042C000012587E72368EDB21D61D4E784F83C300F
:1042D00003257FE732460A992046FFF7F0FD40B1FB
:1042E000236C042BF4D12268136843F40073136029
:1042F000E6E7616A2068228D4B1C63620B780361DC
:10430000638D013B9BB263854769531E9BB27F0758
:1043100023850AD54BB18B1C63624B780361638D97
:10432000013B9BB2023A6385228532460A992046B8
:10433000FFF793FE0028D3D1238D002BCAD121682B
:104340000A6842F400720A60202284F83D2084F852
:104350003C3084F83E303DE70200100002000100CE
:10436000080001002DE9F043044689B098460D4647
:104370009146109FFFF71AFA94F83D30202B06461D
:1043800004D00225284609B0BDE8F0830090192327
:1043900001229C492046FFF764FD0028F1D194F8E2
:1043A0003C30012BEDD0012384F83C3023681A689F
:1043B000D2075EBF1A6842F001021A601A6822F43E
:1043C00000621A60222284F83D20102284F83E20E8
:1043D00000222264A2F58032A4F82A80E262628D73
:1043E0002285E26A1968C4F8249041F48061042AA5
:1043F000196004D0012A02D012F5803F04D11A6856
:1044000042F480721A6002E0226B112AF7D0009603
:104410003B4600224FF001112046FFF722FD002805
:104420004AD12369B3F5804F236836D145F00105A1
:10443000EDB21D6133463A4673492046FFF7D1FC81
:104440000546002837D1228D2368002A66D0012A2C
:1044500077D11A6822F480621A6004955A6904922E
:104460009A690492049A1A6842F400721A60DFF89A
:10447000A081238D002B5BD0032B00F2CB80012B7E
:104480007AD1324639462046FFF7BAFD002800F0BF
:104490009080236C202B16D13EE04FEAE51808F0FF
:1044A000060848F0F0021A61584933463A46204659
:1044B000FFF797FC48B1236C236C042B4FF00003EB
:1044C00028D184F83C3001255CE723684E49EDB2E1
:1044D0001D613A4633462046FFF783FC024600281A
:1044E000E9D123680790596907919969079107995C
:1044F000196841F480711960204600963B464FF0E0
:104500000111FFF7AEFC0028D6D1226848F0F10374
:1045100013618FE784F83C30032533E703955A692C
:1045200003929A690392039A1A6842F400721A601D
:10453000202384F83D30002384F83E3084F83C305A
:1045400020E7022A1A680DD122F480621A601A68E4
:1045500042F400621A6005955A6905929B690593B9
:10456000059B84E742F480621A6006955A690692B8
:104570009B690693069B7AE7022B00963B464FF019
:1045800000024146204622D1FFF76BFC0028C3D130
:1045900023681A6842F400721A60626A1B69511C2F
:1045A00061621370238D013B2385638D013B9BB2B8
:1045B0006385636A5A1C6262226812691A70238DCD
:1045C000013B2385638D013B9BB2638551E7FFF778
:1045D00048FC024600289FD12368196821F48061B5
:1045E0001960616A1B69481C60620B70238D00961C
:1045F000013B2385638D013B9BB2638541463B466E
:104600002046C1E70200100002000100080001007E
:1046100004000100324639462046FFF7F1FC00282D
:104620007FF437AF636A5A1C6262226812691A709B
:10463000238D2268013B2385638D013B9BB26385FB
:1046400053695B077FF515AF636A591C6162B4E774
:104650002DE9F047044686B09A460D469146109FD4
:10466000FFF7A4F894F83D30202B064604D002252D
:10467000284606B0BDE8F087009019230122794949
:104680002046FFF7EEFB0028F1D194F83C30012BD7
:10469000EDD0012384F83C3023681A68D2075EBF4E
:1046A0001A6842F001021A601A6822F400621A6065
:1046B000222384F83D30402384F83E300E9B636211
:1046C0004FF00008BDF83C30C4F840806385664B6D
:1046D000E362638D238529460196009753464A4637
:1046E0002046FFF713FC054630B1236C84F83C806C
:1046F000042B3AD10125BBE7228D236892B90290A1
:104700005A6902929A690292029A1A6842F40072F5
:104710001A60202384F83D30002384F83E3084F86A
:104720003C30A5E7012A22D11A6822F480621A607F
:1047300003905A6903929A690392039A1A6842F4A1
:1047400000721A60DFF82481238D002BE1D0032B47
:104750006BD8012B23D1324639462046FFF750FC57
:10476000002839D0236C202BC4D1032580E7022AEE
:104770000ED11A6822F480621A601A6842F400624C
:104780001A6004905A6904929B690493049BD9E7C8
:1047900005905A6905929B690593059BD2E7022B08
:1047A00000963B464FF000024146204622D1FFF7DB
:1047B00058FB0028D9D123681A6842F400721A60A5
:1047C000626A1B69511C61621370238D013B238552
:1047D000638D013B9BB26385636A5A1C62622268E7
:1047E00012691A70238D013B2385638D013B9BB2B7
:1047F0006385A9E7FFF735FB02460028B5D123689A
:10480000196821F480611960616A1B69481C606243
:104810000B70238D0096013B2385638D013B9BB27A
:10482000638541463B462046C1E73246394620462D
:10483000FFF7E6FB002895D1636A5A1C6262226882
:1048400012691A70238D2268013B2385638D013B19
:104850009BB2638553695B077FF576AF636A591C2A
:104860006162BDE7020010000000FFFF04000100CC
:104870007047704770477047704770477047704780
:104880007047704790F83D30293B012B10B5036805
:10489000044639D800220263282280F83D201A6895
:1048A00022F400621A605A6812F4006254D05A6806
:1048B000606B22F400625A6090F83530012B394B5E
:1048C00031D00365FFF700F850B12268606B1368C0
:1048D00023F001031360202384F83D30036D9847D3
:1048E00094F83D30282B0ED1236C5B070BD52E4B53
:1048F000E362202200232363204684F83D2084F8CD
:104900003E30FFF7BAFF10BD90F83D20602A05D079
:104910005A6812055CBF202280F83D2000222263E5
:1049200084F83E20BBE7A06B0365FEF7CDFF0028AF
:10493000D6D022685369580604D5636A1269591C97
:1049400061621A702268A06B136823F00103136080
:10495000202384F83D30C1E794F83D10602914D13C
:10496000202184F83D1022645A69510604D5626AF8
:104970001B69511C616213702268136823F00103E4
:1049800013602046FFF77DFFAAE75A69520604D557
:10499000626A1B69511C616213702046FFF770FF49
:1049A0009EE700BFB55100080000FFFF0368F0B5A7
:1049B0009D6959695A6890F83E40E4B2102C8DB058
:1049C00002D0402C40F0558211F0011F66D09705AF
:1049D00064D590F83E40402C43D1046D002C3BD16F
:1049E000446C04F0FE041C61984E994C2E400C401F
:1049F000002E00F09F81974D0D40002D00F0668144
:104A0000550540F16381002C40F0608190F83D2015
:104A1000058D90F83E10C46AD2B2C9B2002D40F0A4
:104A20000581212A40F00481042C00F06C81082CBF
:104A300000F0698114F5803F00F065815A6822F426
:104A4000E0625A601123036380F83E50202380F80F
:104A50003D30FFF70DFFF6E0446C44F00104E4B292
:104A6000C1E70469B4F5804F05D190F83D40212C91
:104A7000446CF2D1B5E7046D34B9446CE41104F030
:104A8000060444F0F004AEE7046D012CACD1446C94
:104A9000E41104F0060444F0F104A4E76E4C0C4069
:104AA0001CB1960501D5446CD9E76C4C0C40002C28
:104AB0009AD0940598D590F83E40C66AD0F830E078
:104AC00090F83D70222FE4B240F0A880076D47B9FE
:104AD000402C06D101975C6901949C690194019C6A
:104AE00082E7046D8CB90769B7F5404F0DD1029488
:104AF0005C6902949C690294029C1C6844F4807472
:104B00001C60046D013404656EE7448DA4B254B991
:104B100003945C6903949C690394039C1C6844F4AB
:104B200000741C6019E0448DA4B2012C42D116F52A
:104B3000803F1BD11C6824F480641C605C6814F402
:104B400000640CD01C6824F480641C60002404946D
:104B50005C6904949C690494049C0024D3E7059444
:104B60005C6905949C690594059CD7E7042E15D0D3
:104B7000082E13D0BEF1120F10D0C46A022C1C688C
:104B800014BF24F4806444F480641C600024069400
:104B90005C6906949C690694069CDEE71C6824F414
:104BA00080641C60002407945C6907949C690794E6
:104BB000079CB3E7448DA4B2022C1CD1C46A022C1A
:104BC0001C681DBF24F480641C601C6844F480646D
:104BD00018BF44F400641C605C68270542BF5C6831
:104BE00044F480545C60002408945C6908949C69D7
:104BF0000894089CB1E71C6844F480641C605C68FD
:104C0000260542BF5C6844F480545C60002409942B
:104C10005C6909949C690994099C9EE700240A94A4
:104C20005C690A949C690A940A9CDDE6212A03D0F7
:104C3000402908D1222A06D1428D92B282B95A68FF
:104C400022F480625A600DB0F0BD00BF0400100075
:104C500004000100800001000800010002000100C2
:104C600090F83E20402A27D1026D7AB9C26C012A01
:104C7000826C05D1D2B21A61036D02330365E2E79B
:104C8000C2F307221A61036D0133F7E7026D012AAF
:104C900002D1826CD2B2F5E7026D022AD3D190F82C
:104CA0003D20222A04D11A6842F480721A60CAE7B1
:104CB00090F83D20212AC6D1426A511C41621278E7
:104CC0001A61438D013B9BB24385BCE7002CBAD0EF
:104CD0009405B8D5C16A90F83D20212AB3D1428D00
:104CE00092B2002AE8D104290DD008290BD011F581
:104CF000803F08D0596821F4E061596011230363B3
:104D000080F83E20A2E65A6822F4E0625A601A68EF
:104D100042F400721A6000232022036380F83D20D1
:104D200090F83E2080F83E30402A7FF492AEFFF7A4
:104D3000A5FD88E7904D0D40002D41D051053FD590
:104D4000002C3DD190F83D20222A7FF47CAF428D8B
:104D500092B2032A13D9426A1B69511C4162137033
:104D6000438D013B9BB24385438D9BB2032B7FF464
:104D70006AAF0268536823F48063536063E7012AD3
:104D80003FF661AF1A6822F480621A605A6822F412
:104D9000E0625A60426A1B69511C41621370438D84
:104DA000013B9BB24385202380F83D30046390F89B
:104DB0003E3080F83E40402B58D1FFF760FD42E77F
:104DC000002C3FF440AF97057FF53DAFC16A428D9F
:104DD00092B2042A426A08D1596821F4806159606C
:104DE000511C1B69416213706BE7448DA4B2032C04
:104DF00008D1596821F480615960196821F48061F3
:104E00001960EDE7448DA4B2022CE9D101390129E2
:104E100019689DBF21F480611960196841F400711F
:104E200098BF41F4807119601B69511C4162137075
:104E3000438D013B9BB24385436A5A1C4262026820
:104E400012691A70438D0268013B9BB24385536817
:104E500023F440735360202380F83D300023036324
:104E600090F83E2080F83E30402AA5E7FFF701FD8C
:104E7000E9E6424C0C4074B196050CD599699B69E2
:104E800081F004011D06C1F3800154BF8289028BA9
:104E9000FFF7F2FCD7E63A4C0C40002C74D0940596
:104EA00072D590F83D20596821F4E06159600021E5
:104EB0000B9159690B91196841F0010119600B9927
:104EC000196821F48061196059680905D2B20CD5BE
:104ED00090F83D10222903D090F83D102A2929D1BD
:104EE000816B0968496889B24185418D89B2E1B118
:104EF00059694F0708D5416A1B694C1C44620B7005
:104F0000438D013B9BB2438501684B695E0608D522
:104F1000436A09695C1C44621970438D013B9BB272
:104F20004385036C43F004030364036C23B1FFF770
:104F3000A9FC88E6416BD4E7A2F1280102290AD82E
:104F4000104AC2622022036380F83D2080F83E3080
:104F5000FFF793FC77E6036B222B02D0222A7FF423
:104F600072AE00232022036380F83D2080F83E309B
:104F7000FFF781FC67E600BF40000100020001006E
:104F8000100001000000FFFF394E3A4C2E400C404B
:104F9000002E36D0384D0D403DB3550525D524BBE8
:104FA00090F83D10428D92B2C9B2002A3FF44BAE48
:104FB000426A541C446212781A61428D013A92B2DC
:104FC0004285428D92B2002A7FF43DAE29297FF4BA
:104FD0003AAE5A6822F480625A6021230363282380
:104FE00080F83D30FFF746FC2DE6002C3FF42BAE59
:104FF00094057FF528AE428D92B2002A7FF45CAE14
:1050000021E61E4D0D4035B3510524D51CBB90F84B
:105010003D20418D89B2D2B200293FF414AE416ADD
:105020001B694C1C44620B70438D013B9BB2438552
:10503000438D9BB2002B7FF406AE2A2A7FF403AE89
:105040000268536823F48063536022230363282398
:1050500080F83D308CE7002C3FF4F5AD92057FF5EC
:10506000F2AD428D92B2002A3FF4EDAD426AB7E64E
:105070000400100004000100800001004000010055
:10508000F8B50368494A5E695D681642044608D06F
:10509000E80506D5226C42F0010222646FF48072AA
:1050A0005A6116F4813F08D0E90506D5226C42F01A
:1050B000020222646FF400725A6116F4823F36D005
:1050C000EA0534D594F83E70618D94F83D20206B4C
:1050D000202F89B2D2B258D1002956D102F0F7015F
:1050E000212903D0282A50D121284ED194F83D20DF
:1050F000E16A0429D2B201D008292CD1282A2AD168
:105100002B4AE2625A6822F4E0625A606FF48062CD
:105110005A611A6822F480621A60002320222363F5
:10512000204684F83D2084F83E30FFF7A6FB16F4B5
:10513000843F09D0EB0507D5236C43F008032364B3
:1051400023686FF400625A61236C73B32046BDE894
:10515000F840FFF797BB212A23D11549E16222636A
:10516000202284F83D20002284F83E205A6822F450
:10517000E0625A606FF480625A611A6822F48062B9
:105180001A602046FFF776FBD1E7226C42F004025A
:10519000226494F83E20102A02BF1A6842F400727A
:1051A0001A606FF480625A61C1E7F8BD0001010026
:1051B0000000FFFF806B08B50368416B1A6822F49A
:1051C00080621A60002242850A65816B0A6590F848
:1051D0003D1060294FF0200180F83D1080F83E20FE
:1051E00007D102641A6822F001021A60FFF749FB36
:1051F00008BD1A6822F001021A60FFF741FB08BDE2
:1052000090F83D00704700002DE9F04FD0F8009075
:1052100087B00446484601F0FEFC0290002840F0AA
:105220002E81206801F0C9FC002800F02881206848
:1052300001F0C3FC850748BF2268206842BF53695C
:1052400003F00203536101F0B8FC10F400250AD00A
:10525000206801F0B6FC09F530660746A246002535
:10526000002F40F00F81206801F0A7FC41030BD50F
:10527000206801F0AEFC2646039009F51068002571
:10528000039B002B40F03F81206801F096FC002832
:105290000DDAD9F8043823F00103C9F804382046A0
:1052A00001F03EFD2268536903F00043536120681A
:1052B00001F083FC06050BD5D9F80838D80702D5CC
:1052C000204601F015FD2268536903F40063536121
:1052D000206801F072FCC10437D509F500667368D7
:1052E000206823F001037360102101F05DFA61680A
:1052F00009F51063FF220298884240F092814FF036
:10530000FF33B361F36943F00113F361236B002BA7
:1053100000F08F81D6F8843043F00B03C6F8843058
:10532000736C43F00B037364D9F80038217C206858
:1053300023F4FE63C9F8003804F56F7201F08AFCAB
:105340002268536903F480535361206801F035FCEF
:1053500082041DD5206801F062FC2068C36823F434
:105360007053C36001F032FA002840F06B8122686C
:10537000E0604FF400736361D36843F41053D3606B
:10538000204601F0A5FC2268536903F400535361E1
:10539000206801F012FCC3062BD52268936923F024
:1053A00010039361D9F82060C6F34343022B06F043
:1053B0000F0840F0A88147F6F0731E4214D01C2756
:1053C00007FB0847C6F30A163246D7F804124846C8
:1053D00001F09DFBD7F804323344C7F80432D7F804
:1053E00010321E44C7F810622268936943F010031C
:1053F0009361206801F0E1FB070707D5204601F023
:1054000063FC2268536903F008035361206801F0CC
:10541000D4FBC60208D5E9B2204601F089FC226817
:10542000536903F480135361206801F0C6FB8002C6
:1054300008D5E9B2204601F077FC2268536903F4ED
:1054400000135361206801F0B8FB410007D52046E6
:1054500001F072FC2268536903F0804353612068B5
:1054600001F0ABFB42070AD523685D686B0702D5E4
:10547000204601F065FC23685A6815435D6007B05B
:10548000BDE8F08FF80738D55FFA85FB59462068EC
:1054900001F0A7FB10F0010F804621D02169012304
:1054A0009942B3600CD13169DAF80002C1F31201FC
:1054B000411ACAF81012DAF804120844CAF80402B1
:1054C0005946204601F0EFFB2169012908D13DB979
:1054D000D4F80C2222B904F56F72206801F0BAFBEF
:1054E00018F0080F04D0204601F0D7FB0823B36062
:1054F00018F0100F1CBF1023B36001357F08203651
:105500000AF11C0AACE6039BDA0758D55FFA85FB63
:105510005946206801F06FFBC307074620D5D9F82C
:1055200034380121A94023EA0103C9F834380123A2
:10553000C8F808302369012B01BF736C326C9B18CB
:1055400073645946204601F0B7FB2169012907D150
:1055500035B9E36C23B904F56F72206801F07AFB6A
:10556000380744BF0823C8F80830F90644BF1023A1
:10557000C8F808307A0644BF4023C8F80830BB0793
:1055800044BF0223C8F808303F0618D523680493A7
:10559000F76C336DFF1A336C9F4228BF1F46049B84
:1055A00003F5106307F1030A03EB45134FEA9A0A68
:1055B0000593059B9B699BB2534508D82FB3039B6A
:1055C0005B08013503931C3608F1200858E6326D5C
:1055D000F36C9342F2D9002BF0D0376C04989B1AED
:1055E0009F4228BF1F46237C00935A46BBB2716C72
:1055F00001F079FA736C3B447364336D07F1030A6D
:105600003B444FEA9A0A3365D3E7049B012203F532
:10561000006BD3F83438AA4023EA0203CBF83430C5
:10562000CDE702989A600130C3F808220290203337
:1056300061E6736943F00B037361336943F00B0355
:10564000336171E60323E3604023636100F0A8FB4C
:10565000344B354A03449342236804D8DA6842F451
:105660007052DA608CE6314A314902448A4203D8EA
:10567000DA6842F46052F4E7A0F574022D49A2F50D
:1056800010528A4203D8DA6842F45052E9E7A0F196
:1056900083722949A2F5E7428A4203D8DA6842F4C4
:1056A0004052DEE7254A264902448A4203D8DA6896
:1056B00042F43052D5E7234A234902448A4203D8B0
:1056C000DA6842F42052CCE7204A214902448A4257
:1056D00003D8DA6842F41052C3E7A0F1B7721D494B
:1056E000A2F558528A4203D8DA6842F40052B8E769
:1056F000194A1A4902448A42DA6894BF42F4E052D5
:1057000042F4C052ADE7062B7FF46EAE082204F5DA
:105710006F7148461C2701F0FAF907FB0847C6F3EA
:105720000A165CE6405327FFFF340C00401E1BFFA7
:105730003F420F007F4F12001FD6130060B6E5FEF8
:105740005FE3160000D3CEFE3F771B00C05BB3FEC5
:10575000BF9121001F753800E05459FEDF9C4100C5
:1057600090F8B833012B10B5044609D0012380F816
:10577000B833006801F011FA002084F8B80310BDB6
:10578000022010BD70B54EB2002E04464FF01C052D
:1057900001F07F00B5BF05FB004105FB0141383139
:1057A00001F5FC71C0B2002EB8BFC880022BCB70CF
:1057B0004FEAD67504BF00230B7108704D7094F842
:1057C000B8338A60012B09D0012384F8B8332068EC
:1057D00001F017F8002084F8B80370BD022070BDF6
:1057E00038B501F07F051C2404FB050104FB05040A
:1057F00001F5FC71C4F80C320023C4F80422C4F88B
:10580000103284F8F93184F8F85103690068012BEB
:1058100008BFC4F80822DAB21DB901F0F7F8002079
:1058200038BD01F02DF8FAE738B501F07F051C24EA
:1058300004FB050104FB05043831E3640023236500
:105840000123626484F8393084F8385003690068B1
:10585000012B08BFA264DAB21DB901F0D7F800200D
:1058600038BD01F00DF8FAE738B54BB2002B01F066
:105870007F054FF01C02B5BF02FB050102FB0101D1
:10588000383101F5FC710122DB0FEDB28A700D7029
:105890004B7090F8B833934204460FD080F8B82389
:1058A000006801F042F92DB904F56F72217C20687F
:1058B00001F0D0F9002084F8B80338BD022038BDCB
:1058C00038B54BB2002B05464FF01C0201F07F00AB
:1058D000B5BF02FB005102FB0151383101F5FC71EB
:1058E000DB0F00248C7008704B7095F8B833012BD7
:1058F00009D0012385F8B833286801F035F985F817
:10590000B843204638BD022038BD00002DE9F341E0
:10591000044618B9012002B0BDE8F0810368DD0734
:1059200010D42368980758D423681A0700F19A8086
:1059300023685B0700F1B880A269002A40F0198152
:105940000020E8E7A64B9A6802F00C02042A07D070
:105950009A6802F00C02082A0AD15B68590207D53E
:105960009F4B1B689A03DCD56368002BD9D1D1E724
:1059700063689B4DB3F5803F11D12B6843F48033AE
:105980002B60FDF713FF964D06462B689B03C8D48A
:10599000FDF70CFF801B6428F7D90320BBE7B3F5A4
:1059A000A02F04D12B6843F480232B60E5E72A68FD
:1059B00022F480322A602A6822F480222A60002B96
:1059C000DFD1FDF7F3FE06462B689F03A9D5FDF74F
:1059D000EDFE801B6428F7D9DFE7814B9A6812F04F
:1059E0000C0F07D09A6802F00C02082A11D15B68EC
:1059F0005E020ED47A4B1A68950702D5E268012A36
:105A000088D11A68216922F0F80242EAC1021A60BC
:105A10008AE7E268734BB2B101221A60FDF7C6FE55
:105A20006F4D06462B68980707D52B68226923F02F
:105A3000F80343EAC2032B6076E7FDF7B7FE801B4D
:105A40000228EFD9A9E71A60FDF7B0FE644D0646BB
:105A50002B6899077FF568AFFDF7A8FE801B022829
:105A6000F6D99AE76269604B7AB101221A60FDF7B4
:105A70009DFE5B4D06466B6F9F073FF559AFFDF7E7
:105A800095FE801B0228F6D987E71A60FDF78EFE87
:105A9000534D06466B6F98077FF54AAFFDF786FEBC
:105AA000801B0228F6D978E74D4B1A6C12F0805211
:105AB00028D101921A6C42F080521A641B6C03F0D8
:105AC00080530193019B0126484D2B68D9051BD5B6
:105AD000A368434D012B27D12B6F43F001032B67A4
