:020000040800F2
:100000000000032095740008491E00084B1E0008DC
:100010004D1E00084F1E0008511E00080000000081
:10002000000000000000000000000000A15E0008C9
:10003000531E000800000000315F0008551E000834
:10004000E5740008E5740008E5740008E57400082C
:10005000E5740008E5740008E5740008E57400081C
:10006000E5740008A11E00089B1E0008E574000846
:10007000E5740008E5740008E5740008E5740008FC
:10008000E5740008E5740008E5740008E5740008EC
:10009000E5740008E5740008E5740008951E000882
:1000A000E5740008591E0008E5740008E5740008AE
:1000B000E5740008E5740008E57400087D1E00087A
:1000C000891E0008E5740008E5740008E57400085E
:1000D000E5740008A91E0008E5740008E57400082E
:1000E000E5740008E5740008E5740008E57400088C
:1000F000E5740008E5740008E5740008E57400087C
:10010000E5740008E574000835230008E57400086C
:10011000E5740008E5740008C9220008711E000893
:10012000E5740008E5740008E5740008E57400084B
:10013000E5740008E5740008E5740008E57400083B
:10014000E5740008E5740008E5740008651E000801
:10015000E5740008E5740008E5740008E57400081B
:10016000E5740008E5740008E5740008E57400080B
:10017000E5740008E5740008E5740008000000005C
:10018000E5740008E5740008E5740008E5740008EB
:10019000E5740008E5740008E5740008E5740008DB
:0C01A000E5740008E5740008E574000830
:1001B00010B5054C237833B9044B13B10448AFF3A1
:1001C00000800123237010BDE80100200000000022
:1001D00088A1000808B5034B1BB103490348AFF3DE
:1001E000008008BD00000000EC01002088A100088C
:1001F000034613F8012B002AFBD1181A0138704767
:1002000001F0FF01102A2BDB10F0070F08D010F8C7
:10021000013B013A8B422DD010F0070F42B3F6D1CB
:10022000F0B441EA012141EA014122F007047FF0E4
:1002300000070023F0E80256083C85EA010586EA3B
:10024000010685FA47F5A3FA87F586FA47F6A5FA77
:1002500087F68EB9EED1F0BC01F0FF0102F0070283
:1002600032B110F8013B013A83EA010313B1F8D12E
:100270000020704701387047002D06BF354603380F
:10028000073815F0010F07D1013015F4807F02BF48
:10029000013015F4C03F0130F0BC0138704700BF99
:1002A00081F0004102E000BF83F0004330B54FEA27
:1002B00041044FEA430594EA050F08BF90EA020F94
:1002C0001FBF54EA000C55EA020C7FEA645C7FEA27
:1002D000655C00F0E2804FEA5454D4EB5555B8BF4A
:1002E0006D420CDD2C4480EA020281EA030382EABB
:1002F000000083EA010180EA020281EA0303362D4D
:1003000088BF30BD11F0004F4FEA01314FF4801C1F
:100310004CEA113102D0404261EB410113F0004F31
:100320004FEA03334CEA133302D0524263EB4303E8
:1003300094EA050F00F0A780A4F10104D5F1200E86
:100340000DDB02FA0EFC22FA05F2801841F10001E1
:1003500003FA0EF2801843FA05F359410EE0A5F1B5
:1003600020050EF1200E012A03FA0EFC28BF4CF0E6
:10037000020C43FA05F3C01851EBE37101F000459C
:1003800007D54FF0000EDCF1000C7EEB00006EEBA9
:100390000101B1F5801F1BD3B1F5001F0CD3490833
:1003A0005FEA30004FEA3C0C04F101044FEA44528A
:1003B00012F5800F80F09A80BCF1004F08BF5FEA11
:1003C000500C50F1000041EB045141EA050130BDF1
:1003D0005FEA4C0C404141EB010111F4801FA4F194
:1003E0000104E9D191F0000F04BF01460020B1FAE9
:1003F00081F308BF2033A3F10B03B3F120020CDA21
:100400000C3208DD02F1140CC2F10C0201FA0CF0FE
:1004100021FA02F10CE002F11402D8BFC2F1200C63
:1004200001FA02F120FA0CFCDCBF41EA0C01904019
:10043000E41AA2BF01EB0451294330BD6FEA040462
:100440001F3C1CDA0C340EDC04F11404C4F120024D
:1004500020FA04F001FA02F340EA030021FA04F35F
:1004600045EA030130BDC4F10C04C4F1200220FAB6
:1004700002F001FA04F340EA0300294630BD21FAF4
:1004800004F0294630BD94F0000F83F4801306BFBA
:1004900081F480110134013D4EE77FEA645C18BFAE
:1004A0007FEA655C29D094EA050F08BF90EA020F45
:1004B00005D054EA000C04BF1946104630BD91EA3D
:1004C000030F1EBF0021002030BD5FEA545C05D140
:1004D0004000494128BF41F0004130BD14F580047F
:1004E0003CBF01F5801130BD01F0004545F0FE41F3
:1004F00041F470014FF0000030BD7FEA645C1ABF28
:10050000194610467FEA655C1CBF0B46024650EA5E
:10051000013406BF52EA033591EA030F41F400218A
:1005200030BD00BF90F0000F04BF0021704730B510
:100530004FF4806404F132044FF000054FF00001E5
:1005400050E700BF90F0000F04BF0021704730B5A6
:100550004FF4806404F1320410F0004548BF40427B
:100560004FF000013EE700BF42004FEAE2014FEAD0
:1005700031014FEA02701FBF12F07F4393F07F4FAB
:1005800081F06051704792F0000F14BF93F07F4FDD
:10059000704730B54FF4607401F0004521F0004120
:1005A00020E700BF50EA010208BF704730B54FF0A6
:1005B00000050AE050EA010208BF704730B511F0AB
:1005C000004502D5404261EB41014FF4806404F1E3
:1005D00032045FEA915C3FF4DCAE4FF003025FEA65
:1005E000DC0C18BF03325FEADC0C18BF033202EBED
:1005F000DC02C2F1200300FA03FC20FA02F001FA47
:1006000003FE40EA0E0021FA02F11444C1E600BFE5
:1006100070B54FF0FF0C4CF4E06C1CEA11541DBF98
:100620001CEA135594EA0C0F95EA0C0F00F0DEF863
:100630002C4481EA030621EA4C5123EA4C5350EA48
:10064000013518BF52EA033541F4801143F4801399
:1006500038D0A0FB02CE4FF00005E1FB02E506F02A
:100660000042E0FB03E54FF00006E1FB03569CF07F
:10067000000F18BF4EF0010EA4F1FF04B6F5007F85
:1006800064F5407404D25FEA4E0E6D4146EB0606F7
:1006900042EAC62141EA55514FEAC52040EA5E5080
:1006A0004FEACE2EB4F1FD0C88BFBCF5E06F1ED82A
:1006B000BEF1004F08BF5FEA500E50F1000041EB61
:1006C000045170BD06F0004646EA010140EA02000E
:1006D00081EA0301B4EB5C04C2BFD4EB0C0541EA30
:1006E000045170BD41F480114FF0000E013C00F345
:1006F000AB8014F1360FDEBF002001F0004170BD69
:10070000C4F10004203C35DA0C341BDC04F1140481
:10071000C4F1200500FA05F320FA04F001FA05F20D
:1007200040EA020001F0004221F0004110EBD370DA
:1007300021FA04F642EB06015EEA430E08BF20EA06
:10074000D37070BDC4F10C04C4F1200500FA04F3A9
:1007500020FA05F001FA04F240EA020001F000413B
:1007600010EBD37041F100015EEA430E08BF20EAAE
:10077000D37070BDC4F1200500FA05F24EEA020EF6
:1007800020FA04F301FA05F243EA020321FA04F025
:1007900001F0004121FA04F220EA020000EBD370DC
:1007A0005EEA430E08BF20EAD37070BD94F0000FDC
:1007B0000FD101F00046400041EB010111F4801F10
:1007C00008BF013CF7D041EA060195F0000F18BFC1
:1007D000704703F00046520043EB030313F4801FFD
:1007E00008BF013DF7D043EA0603704794EA0C0FB7
:1007F0000CEA135518BF95EA0C0F0CD050EA4106CD
:1008000018BF52EA4306D1D181EA030101F0004149
:100810004FF0000070BD50EA410606BF1046194671
:1008200052EA430619D094EA0C0F02D150EA01367D
:1008300013D195EA0C0F05D152EA03361CBF1046BE
:1008400019460AD181EA030101F0004141F0FE415D
:1008500041F470014FF0000070BD41F0FE4141F4E1
:10086000780170BD70B54FF0FF0C4CF4E06C1CEAE1
:1008700011541DBF1CEA135594EA0C0F95EA0C0F96
:1008800000F0A7F8A4EB050481EA030E52EA033551
:100890004FEA013100F088804FEA03334FF0805572
:1008A00045EA131343EA12634FEA022245EA11159F
:1008B00045EA10654FEA00260EF000419D4208BF50
:1008C000964244F1FD0404F5407402D25B084FEAFD
:1008D0003202B61A65EB03055B084FEA32024FF4A9
:1008E00080104FF4002CB6EB020E75EB030E22BF06
:1008F000B61A754640EA0C005B084FEA3202B6EBC6
:10090000020E75EB030E22BFB61A754640EA5C0074
:100910005B084FEA3202B6EB020E75EB030E22BF04
:10092000B61A754640EA9C005B084FEA3202B6EB05
:10093000020E75EB030E22BFB61A754640EADC00C4
:1009400055EA060E18D04FEA051545EA16754FEA26
:1009500006164FEAC30343EA52734FEAC2025FEA44
:100960001C1CC0D111F4801F0BD141EA00014FF0D3
:1009700000004FF0004CB6E711F4801F04BF0143A4
:100980000020B4F1FD0C88BFBCF5E06F3FF6AFAEC0
:10099000B5EB030C04BFB6EB020C5FEA500C50F150
:1009A000000041EB045170BD0EF0004E4EEA1131D3
:1009B00014EB5C04C2BFD4EB0C0541EA045170BDDA
:1009C00041F480114FF0000E013C90E645EA060E1E
:1009D0008DE60CEA135594EA0C0F08BF95EA0C0F4C
:1009E0003FF43BAF94EA0C0F0AD150EA01347FF494
:1009F00034AF95EA0C0F7FF425AF104619462CE76B
:100A000095EA0C0F06D152EA03353FF4FDAE1046CD
:100A1000194622E750EA410618BF52EA43067FF41E
:100A2000C5AE50EA41047FF40DAF52EA43057FF4AE
:100A3000EBAE12E74FF0FF3C06E000BF4FF0010CB9
:100A400002E000BF4FF0010C4DF804CD4FEA410C1D
:100A50007FEA6C5C4FEA430C18BF7FEA6C5C1BD0EA
:100A600001B050EA410C0CBF52EA430C91EA030F6B
:100A700002BF90EA020F0020704710F1000F91EAC8
:100A8000030F58BF994208BF90422CBFD8176FEA96
:100A9000E37040F0010070474FEA410C7FEA6C5C64
:100AA00002D150EA013C07D14FEA430C7FEA6C5C6B
:100AB000D6D152EA033CD3D05DF8040B704700BF97
:100AC0008446104662468C461946634600E000BFE5
:100AD00001B5FFF7B7FF002848BF10F1000F01BDB7
:100AE0004DF808EDFFF7F4FF0CBF012000205DF882
:100AF00008FB00BF4DF808EDFFF7EAFF34BF012007
:100B000000205DF808FB00BF4DF808EDFFF7E0FF9F
:100B100094BF012000205DF808FB00BF4DF808EDF0
:100B2000FFF7CEFF94BF012000205DF808FB00BF57
:100B30004DF808EDFFF7C4FF34BF012000205DF839
:100B400008FB00BF4FEA410C7FEA6C5C02D150EA1F
:100B5000013C0AD14FEA430C7FEA6C5C02D152EAB5
:100B6000033C02D14FF0000070474FF00100704786
:100B70004FEA410212F5001215D211D56FF47873C5
:100B8000B3EB625212D94FEAC12343F0004343EA68
:100B9000505311F0004F23FA02F018BF4042704743
:100BA0004FF00000704750EA013005D111F00040CD
:100BB00008BF6FF0004070474FF00000704700BF63
:100BC0004FEA4102B2F1E04324BFB3F5001CDCF16F
:100BD000FE5C0DD901F0004C4FEAC0024CEA5070A7
:100BE000B2F1004F40EB830008BF20F001007047D6
:100BF00011F0804F21D113F13872BCBF01F00040D9
:100C0000704741F480114FEA5252C2F11802C2F10A
:100C1000200C10FA0CF320FA02F018BF40F001008B
:100C20004FEAC1234FEAD32303FA0CFC40EA0C003D
:100C300023FA02F34FEA4303CCE77FEA625307D17A
:100C400050EA01331EBF4FF0FE4040F440007047B1
:100C500001F0004040F0FE4040F40000704700BF4B
:100C600053B94AB9002908BF00281CBF4FF0FF3113
:100C70004FF0FF3000F07AB9ADF1080C6DE904CE09
:100C800000F006F8DDF804E0DDE9022304B0704767
:100C90002DE9F0478C460D460446089E002B51D1A5
:100CA0008A4217466DD9B2FA82FEBEF1000F0BD010
:100CB000CEF1200C01FA0EF520FA0CFC02FA0EF728
:100CC0004CEA050C00FA0EF44FEA174A250CBCFB5F
:100CD000FAF81FFA87F90AFB18CC45EA0C4508FB1D
:100CE00009F3AB420AD9ED1908F1FF3280F02381F4
:100CF000AB4240F22081A8F102083D44ED1AA4B2B3
:100D0000B5FBFAF00AFB105544EA054400FB09F96B
:100D1000A14509D9E41900F1FF3380F00A81A1450A
:100D200040F2078102383C44A4EB090440EA084041
:100D30000021002E61D024FA0EF400233460736089
:100D4000BDE8F0878B4207D9002E54D0002186E8F9
:100D500021000846BDE8F087B3FA83F1002940F08E
:100D60008E80AB4202D3824200F2FA80841A65EB95
:100D700003050120AC46002E3FD086E81010BDE8E8
:100D8000F08712B90127B7FBF2F7B7FA87FEBEF179
:100D9000000F34D1EB1B3A0C1FFA87FC0121B3FB87
:100DA000F2F8250C02FB183345EA03450CFB08F367
:100DB000AB4207D9ED1908F1FF3002D2AB4200F285
:100DC000D1808046ED1AA3B2B5FBF2F002FB1055BC
:100DD00043EA05440CFB00FCA44507D9E41900F1E3
:100DE000FF3302D2A44500F2B8801846A4EB0C04ED
:100DF00040EA08409DE731463046BDE8F087CEF135
:100E0000200405FA0EF307FA0EF720FA04F83A0C5C
:100E100025FA04F448EA0308B4FBF2F14FEA184556
:100E200002FB11441FFA87FC45EA044501FB0CF361
:100E3000AB4200FA0EF409D9ED1901F1FF3080F050
:100E40008A80AB4240F2878002393D44EB1A1FFA98
:100E500088F5B3FBF2F002FB103345EA034500FBD3
:100E60000CF3AB4207D9ED1900F1FF386FD2AB425A
:100E70006DD902383D44EB1A40EA01418FE7C1F1D8
:100E8000200722FA07F88B4005FA01F448EA030329
:100E900020FA07FE4FEA134CFD404EEA040EB5FB64
:100EA000FCF94FEA1E440CFB19551FFA83F844EA7B
:100EB000054509FB08F4AC4202FA01F200FA01FA16
:100EC00008D9ED1809F1FF3043D2AC4241D9A9F15C
:100ED00002091D442D1B1FFA8EFEB5FBFCF00CFB16
:100EE00010554EEA054400FB08F8A04507D9E41860
:100EF00000F1FF3529D2A04527D902381C4440EA29
:100F00000940A4EB0804A0FB02894C45C6464D46A7
:100F100015D312D056B1BAEB0E0364EB050404FAF4
:100F200007F7CB401F43CC40376074600021BDE819
:100F3000F0871846F8E69046E0E6C245EAD2B8EBFC
:100F4000020E69EB03050138E4E72846D7E740467F
:100F500091E78146BEE7014678E702383C4445E721
:100F6000084608E7A8F102083D442BE7704700BF98
:100F700030B5164D0FCD87B001AC0FC42B68236080
:100F8000002101A804F0E9FD114B032218600021A3
:100F9000012005F08DF90F4A106020B100231A4698
:100FA000194605F0A9F90C4B0C4901221A700C4A9C
:100FB0000023138000220A600A490A600A490A6075
:100FC0000A4A13700A4A138007B030BDA0A1000876
:100FD000F8230220F4240220302502204825022094
:100FE000EC2402202C250220002402206A0200208A
:100FF0006802002000000000874BD3ED002A874BD9
:101000002DE9F04393ED002A854B864CD3ED001A71
:10101000854B864D93ED001A854B864ED3ED000A25
:10102000854B864F93ED000ADFF82482DFF8249287
:101030002DED048B87B000F0A3FA96ED009AD7ED62
:10104000008A94ED008AD5ED009AD5ED004A95ED21
:10105000005A94ED004AD4ED007AD7ED005A97ED8E
:10106000006AD6ED006A96ED007A67EEC47AE4EE87
:10107000857AE5EEC67AE6EE877A17EE900AFFF7F4
:1010800073FA68EE297ACDE90401E9EE287A77EE61
:10109000A77A17EE900AFFF767FA9DED041B41EC63
:1010A000100B08F005FB51EC100BFFF789FDD7ED95
:1010B000006A95ED007A96ED006AD4ED007AC8F8E2
:1010C000000067EEC67AE6EE877A77EEA77A17EE2B
:1010D000900AFFF749FA41EC100B08F091FA51EC35
:1010E000100BFFF76DFD96ED009AD5ED008A97ED98
:1010F000008AD4ED009AD7ED004A97ED005AD6ED5C
:10110000007A96ED004AD5ED005A95ED006AD4EDCF
:10111000006A94ED007AC9F8000067EE847AE4EE84
:10112000857AE5EEC67AE6EEC77A17EE900AFFF703
:101130001BFA68EE297ACDE90401E9EE287A77EE08
:10114000A77A17EE900AFFF70FFA9DED041B41EC0A
:10115000100B08F0ADFA51EC100BFFF731FDFFF763
:1011600003FA2BA3D3E90023FFF752FAFFF728FD78
:10117000334B05461860D9F80000FFF7F5F924A3B2
:10118000D3E90023FFF744FAFFF71AFDC9F800007E
:101190000446D8F80000FFF7E7F91DA3D3E90023C0
:1011A000FFF736FAFFF70CFD264AC8F8000013884F
:1011B00001339BB2632B05D8138007B0BDEC048BC1
:1011C000BDE8F08300231380FFF7CEF906462846DA
:1011D0000F46FFF7C9F9CDE902012046FFF7C4F930
:1011E0003246CDE900013B461749184806F0E4FEB7
:1011F0001648FEF7FDFF81B2144801F087F907B0E9
:10120000BDEC048BBDE8F04300F0AEBBAFF3008053
:10121000F8C1631ADCA54C40FC240220782402208B
:1012200084240220700200208C25022074020020F9
:101230007C24022004000020FC2302206C020020F9
:101240002025022068020020CDA100084C250220A4
:10125000282502202425022010B500F0BDFE002222
:101260006B21682000F00AFF7521682000F0D6FE8F
:10127000732832D106221A21682000F0FFFE0A20CE
:1012800004F083FC00221B21682000F0F7FE0A20F6
:1012900004F07BFC00221C21682000F0EFFE0A20F5
:1012A00004F073FC00221921682000F0E7FE0A20F8
:1012B00004F06BFC01223821682000F0DFFE0A20D8
:1012C00004F063FC084C206800234FF0FF321946FD
:1012D00005F01CF9FFF790FEF5E740F29F11034877
:1012E00000F07AFCEEE700BFF4240220E8A1000839
:1012F0002DE9F0418AB00E234FF48074019306ABC0
:101300000093029401233B22D0217F4801F0F4FE98
:1013100078B17E4B7C495422184606F011F94022E0
:10132000A0F85C207A4A0266A0F85440826500F07A
:10133000BDFE9DF818309DF819009DF81B809DF8A2
:101340001D709DF821609DF823509DF8254040EACE
:101350000320704B00B218809DF81A3048EA032829
:101360006D4B0FFA88F8A3F800809DF81C3047EA0F
:1013700003276A4B3FB21F809DF8203046EA0326C0
:10138000674B36B21E809DF8223045EA0325654B37
:101390002DB21D8007EE900A9DF82430F8EEE77A12
:1013A00044EA0324604B24B217EE900A1C80FFF736
:1013B000DBF802460B46FEF779FF00224FF07C5324
:1013C000FFF726F9FFF7FCFB07EE908A574BF8EE84
:1013D000E77A186017EE900AFFF7C6F802460B4648
:1013E000FEF764FF00224FF07C53FFF711F9FFF77F
:1013F000E7FB07EE907A4E4BF8EEE77A186017EEAF
:10140000900AFFF7B1F802460B46FEF74FFF0022A5
:101410004FF07C53FFF7FCF8FFF7D2FB07EE906A22
:10142000444BF8EEE77A186017EE900AFFF79CF845
:101430000022414BFFF7ECF800224FF07C53FFF7FE
:10144000E7F82FA3D3E90023FFF7E2F800223B4B94
:10145000FFF708FAFFF7B4FB07EE905A384BF8EEA7
:10146000E77A186017EE900AFFF77EF80022324BF9
:10147000FFF7CEF800224FF07C53FFF7C9F820A306
:10148000D3E90023FFF7C4F800222C4BFFF7EAF959
:10149000FFF796FB07EE904A2A4BF8EEE77A1860C2
:1014A00017EE900AFFF760F80022234BFFF7B0F821
:1014B00000224FF07C53FFF7ABF811A3D3E90023D0
:1014C000FFF7A6F800221D4BFFF7CCF9FFF778FBDA
:1014D0001D4B18601D4B05A9186804F0C3FF059B40
:1014E000012B07D11A4B4FF080521A60BFF34F8F78
:1014F000BFF36F8F0AB0BDE8F08100BFAFF300808B
:10150000182D4454FB2109404426022004020020E7
:101510000004024080240220442502205824022096
:101520004025022054240220F82402208424022092
:1015300078240220FC24022000406F400080664096
:10154000FC2302207C2402208C250220F42402208B
:1015500004ED00E010EE102A084BF6EE007AA3EB43
:10156000620307EE103A60EE277AB7EE080A67EEDC
:10157000877AA7EE670A20EE070A7047DF59375FC0
:1015800038B5A748A749A84CA84D90ED007A91ED31
:10159000004AD4ED007AD5ED006AD1ED004A20EE84
:1015A000C44A61EE244AA7EE404AE0EE264A94ED92
:1015B000007AD5ED006A90ED005A25EE415AE0EE32
:1015C000C74AA0EEA65A94ED007AD5ED006A90EDD8
:1015D000006A60EE860AA0EE075AE1EE260A91ED57
:1015E000007AA7EEC14AE0EE470AF5EE401AF6EEA1
:1015F000007AF1EE10FA2DED088B24EE274A64EE06
:10160000A74A25EE275A60EEA70A0AD1B5EE402A6E
:10161000F1EE10FA05D1F5EE402AF1EE10FA00F0E5
:10162000AF8022EE020AB1EE008AA1EEA10AA2EE7C
:10163000A20AFFF78FFFD5ED007A90ED007A91EDC9
:10164000003AD4ED009A95ED006AD0ED00AAD1EDF4
:10165000008A90ED00BA91ED009AF2EE006A2BEE4E
:1016600026BA29EE269AD5ED006AD5ED00BA90ED9E
:10167000001AD0ED005AD1ED003A21EE251AD1ED35
:10168000005A94ED00AA61EE801A63EEA53A33EE9B
:10169000033AD4ED005A26EE086A2AEE25AA61EE36
:1016A000835A79EEA99AE6EE235A6AEE88AAE6EE04
:1016B000015A29EEE16A62EE802AAAEE8A6A20EED9
:1016C000420A26EEAB2AD0ED006A22EE082A77EE17
:1016D000A77AA2EE266A61EEA76AA0EE276A68EEF4
:1016E000888A36EE6A6A37EE077AABEE016A67EEF1
:1016F000611AABEE236AE0EE075AA2EEAA6AD1EDB8
:1017000000AAE2EE2A6AE8EE8A6AE0EE296A76EE3C
:10171000E86AE9EE016A21EE081AE9EE236A63EE4F
:10172000883AE2EEA86AD4ED002AD4ED007AE1EE20
:10173000221AE3EEA71AE0EE031A26EE060AA5EE39
:10174000A50AA6EEA60AA1EEA10AFFF703FF384BF1
:1017500060EE655AD3ED007A20EE466AA5EEA74A00
:10176000D3ED007A60EE666AE6EE274AD3ED007AA2
:1017700020EE610AA6EEA75AD3ED007AE0EE270A22
:1017800095ED007ADFED2B7AA4EE277A85ED007ACD
:1017900090ED007AA4EEA77A80ED007A91ED007AC0
:1017A000A5EE277A81ED007A94ED007AA0EEA77A73
:1017B00084ED007A95ED005AD5ED005A90ED000ABF
:1017C000D0ED004A91ED006AD1ED006A94ED007A07
:1017D000D4ED007A20EE240AA5EE250AA6EE260A0C
:1017E000A7EE270AFFF7B6FED5ED007A60EE277A5E
:1017F000BDEC088BC5ED007AD0ED007A60EE277A5B
:10180000C0ED007AD1ED007A60EE277AC1ED007A62
:10181000D4ED007A20EE270A84ED000A38BD00BF1F
:101820006C020020700200207402002004000020DE
:10183000000000206F12833A08B5084B00221A609E
:101840009A8000F0B3FD00F0E3FD00F013FE00F01D
:1018500061FBBDE80840FFF78BBB00BFA02502205D
:1018600072B60C4B1A6912F00802A3F5063305D0C4
:101870001A6842F001021A6062B67047196821F0D6
:1018800001011960596A3A20B1FBF0F102488180E8
:101890005A62F1E700200240A025022072B60C4BEC
:1018A0001A6912F01002A3F5073305D01A6842F046
:1018B00001021A6062B67047196821F001011960CF
:1018C000596A0A20B1FBF0F1024801805A62F1E73F
:1018D00000200240A02502201B4BAA2810B518604A
:1018E0001A4B07D11A4A117801290ABF1970012130
:1018F000002111701978174C012906D10C284FF0DE
:10190000000206BF21701A7022702378012B19D1B2
:101910001149124A0B785068114AD0540133DBB296
:10192000052B0B7013460DD91079527902EB00226A
:101930000C4842800022104698540132142AFBD1F0
:101940000870207010BD00BFBC2502207902002065
:10195000780200207A020020C025022000100140F9
:10196000A6250220A02502201021014800F081BFF9
:10197000000C024008B5FFF75FFF00F0A7FDFEE78F
:1019800030B595B0274B002101911A6C42F080527E
:101990001A641B6C03F080530193019B224B02914C
:1019A0001A6842F440421A601B6803F440430293F1
:1019B000029B012308934FF4803309934FF4800373
:1019C0000F93082310934FF4A8730224119308A8CF
:1019D00007230E941294139302F0ECFC00B1FEE77F
:1019E0004FF4A05305900F25052103A804940395F7
:1019F0000693079302F08EFE044600B1FEE702F064
:101A000023FF4FF47A73B0FBF3F000F007FE0420DD
:101A100000F01AFE224629464FF0FF3000F0BEFDCE
:101A200015B030BD003802400070004070B58AB07B
:101A3000234B2448002401941A6B42F080021A635D
:101A40001A6B02F080020192019A02941A6B42F022
:101A500004021A631A6B02F004020292029A0394BF
:101A60001A6B42F001021A631A6B02F00102039230
:101A7000039A04941A6B42F008021A631B6B0694D3
:101A800003F0080304930225049B07954FF4805349
:101A900005A90593089500F0F5FD079508950A4DF1
:101AA0000123102605A928460693059600F0EAFDB5
:101AB00022463146284600F0D7FE0AB070BD00BF6E
:101AC00000380240001C0240000C024030B5124DAC
:101AD00087B000F025FDFFF753FFFFF7A7FF0FCDFD
:101AE00001AC0FC42B682360002101A804F035F875
:101AF0000A4B032218600021012004F0D9FB084A98
:101B0000106020B100231A46194604F0F5FB04F0DA
:101B10001FF8002007B030BDB4A10008C82502207E
:101B2000C42502200268084B9A4210B5044601D130
:101B300000F010FD2268054B9A4201BF044A136869
:101B40000133136010BD00BF0000014000140040CD
:101B50007C020020014B1868704700BF7C02002007
:101B600030B5002289B00721372000F017FD37205B
:101B700000F048FD0025144B02951A6C134C42F0FE
:101B800020021A641B6C03F02003029301A903A82E
:101B9000029B02F07FFE02F06DFE0D4B236042F2CD
:101BA0000F73E36040000B4BB0FBF3F00138606053
:101BB00020462561A56002F0AFFF10B9204602F073
:101BC00095FE09B030BD00BF00380240CC25022090
:101BD0000014004080969800FEE708B5032000F04E
:101BE000CBFC002211466FF00B0000F0D7FC002266
:101BF00011466FF00A0000F0D1FC002211466FF090
:101C0000090000F0CBFC002211466FF0040000F048
:101C1000C5FC002211466FF0030000F0BFFC00225B
:101C20000F216FF0010000F0B9FC00220F214FF0EE
:101C3000FF30BDE8084000F0B1BC000070B502689C
:101C4000204B9A4288B03AD11F4C2048002501957C
:101C5000236B43F002032363236B03F0020301931E
:101C6000019B40230393122304930123059304262D
:101C7000032303A90693079600F004FD802303A91C
:101C800012480393079600F0FDFC0295236C43F481
:101C900000132364236C03F400132A4609210293E2
:101CA0002020029B00F07AFC202000F0ABFC1F20DB
:101CB0002A460A2100F072FC1F2000F0A3FC08B0A5
:101CC00070BD00BF005400400038024000040240D4
:101CD00070B50268384B9A428AB0054632D103F596
:101CE0009433002400945A6C344842F010025A6431
:101CF0005A6C02F010020092009A01941A6B42F0A2
:101D000001021A631B6B03F001030193019B4FF463
:101D1000007305930726022305A9069308930996E5
:101D200000F0B0FC4FF4806305A9244805930996A0
:101D300000F0A8FC25202246082100F02FFC2520D9
:101D400000F060FC2A681E4B9A4233D103F5F4334D
:101D500000220292196C1B4841F480111964196C1D
:101D600001F48011029102990392196B41F0040170
:101D70001963196B01F004010391039904921A6B22
:101D800042F008021A631B6B03F008030493049BE0
:101D9000042305930824022305A9069308930994B4
:101DA00000F070FC4FF4805305A90748059309948F
:101DB00000F068FC0AB070BD001001400000024055
:101DC00000500040000C02400008024030B50146BF
:101DD00089B00022192000F0E1FB192000F012FC6C
:101DE0000025154B02955A6C144C42F001025A64BE
:101DF0005B6C03F00103029301A903A8029B02F0AC
:101E000049FD02F037FD0E4B236040F2E733E360FB
:101E100040000C4BB0FBF3F00138606020462561B8
:101E2000A56002F079FE20B9204602F05FFD09B0FE
:101E300030BD0120FBE700BF003802400826022029
:101E40000000014040420F007047FEE7FEE7FEE75A
:101E5000FEE7704703F0A1BE014802F056BD00BF87
:101E600008260220014801F023BF00BFA428022059
:101E7000014802F04ABD00BFCC250220014801F014
:101E8000E9BA00BF44260220014801F04DBE00BF60
:101E900044260220202000F0F1BC102000F0EEBC0F
:101EA000082000F0EBBC000008B5064B1A6892064B
:101EB00007D51A6822F020021A605868C0B2FFF7EE
:101EC0000BFD08BD001001400F49D1F8883043F4E4
:101ED0007003C1F888300D4B1A68002042F00102EF
:101EE0001A6098601A6822F0847222F480321A60B4
:101EF000074A5A601A6822F480221A60D8604FF0AC
:101F000000638B60704700BF00ED00E000380240C6
:101F10001030002430B589B00024224B01941A6B94
:101F2000214842F002021A631A6B02F00202019287
:101F3000019A02941A6B42F480721A631B6B059427
:101F400003F48073029308AD029B184B0493202383
:101F500045F8143D294600F095FB2246092117203B
:101F600000F01CFB172000F04DFB114B04930223E3
:101F70000593294618230F48039300F083FB22465C
:101F80000721092000F00AFB092000F03BFB012299
:101F900007210A2000F002FB0A2000F033FB09B001
:101FA00030BD00BF003802400004024000001110A4
:101FB0000000311000200240202808B502D1FFF7B0
:101FC00097F908BD102802D1FFF768FC08BD082862
:101FD00001D1FFF745FC08BD0C4808B50C4B036068
:101FE0000C4B43604FF480420023026143618260E6
:101FF000C3610362C360836100F0C4FD28B11D2189
:102000000548BDE80840FFF7E7BD08BD44260220AB
:1020100000540040801A060026A2000830B587B0A0
:102020000023154D8DF80F1004468DF81730284603
:1020300001F03AFE2028FAD16423640000930DF1E8
:102040000F02012321460C4800F00AFE88B90A4D10
:10205000284601F029FE2028FAD1642300930DF1CF
:10206000170201232146044800F0D0FE08B99DF86C
:10207000170007B030BD00BF442602201FB504463C
:102080008DF80C108DF80D20074801F00DFE20286A
:10209000FAD16423009303AA02236100024800F0EE
:1020A000DFFD04B010BD00BF4426022070B50268F9
:1020B000136886B023F001031360112302930423F5
:1020C00006AD059302230493B0F85C3045F8143D47
:1020D000044601262946006E039600F0D3FA3246E4
:1020E000B4F85C10206E00F0BFFBB4F85430A06D63
:1020F0000193294600F0C6FA3246B4F85410A06D98
:1021000000F0B2FBB4F85C10206E00F0A7FB0128D1
:1021100060D1B4F85410A06D00F0A0FB01285BD191
:102120000022B4F85410A06D00F09EFBB4F85410D7
:10213000A06D00F093FB024600284FD1B4F85C106C
:10214000206E00F091FBB4F85C10206E00F086FB6E
:10215000002845D10122B4F85C10206E00F084FB09
:10216000B4F85C10206E00F079FB0128024639D1EA
:10217000B4F85410A06D00F077FBB4F85410A06DC3
:1021800000F06CFB01282FD1122302930423059346
:102190002946B4F85C30206E019300F073FAB4F86D
:1021A0005430A06D0193294600F06CFA23681A6838
:1021B00042F400421A6000BF1A6822F400421A601A
:1021C00000BF1A6842F001021A60204600F0DAFCF3
:1021D00006B070BD00BF95E700BF9AE700BFA5E756
:1021E00000BFB0E700BFBBE700BFC6E7064A5378B1
:1021F000D9075FBF03F0820343F05503107053709B
:1022000054BF0120002070478E0200200A4A0B496B
:1022100012780B78013A93420CDA0133DBB20B707F
:102220004FF4A04200BF013AFCD1054A1268D05CCD
:10223000FFF7DCBF704700BF900200209102002032
:1022400080020020002330B519460224012540FAFF
:1022500003F212F0010F4FEA430203F1010314BF2E
:1022600005FA02F204FA02F2082B41EA0201EED169
:10227000084630BD002310B51A460124590020FA43
:1022800001F1C90744BF04FA03F10A4303F1010352
:1022900048BFD2B2082BF1D1104610BD13B5074C80
:1022A000636801930198FFF7E5FF054AE070137832
:1022B000591C1170034AD05402B010BD8402002092
:1022C0008C02002098260220174A38B51369174C53
:1022D00023F0010313616378D80723D503F07C0250
:1022E0007C2A134D08D16FF300036370AB6943F090
:1022F0000073AB61FFF78AFF2078FFF7A3FF6378D5
:10230000AA69C3F3840340F46010D840C1074CBFEE
:1023100042F4007242F00072AA6162781F3363F3E4
:102320008602627038BD00BF001000408E0200209F
:102330000004024038B51A4B1A4C1A6922F0010207
:102340001A61194A126912F0010F04D0227812B9E9
:10235000012121705A626378032B01BF002363704F
:102360001523A370104B1B6913F0010315D063787C
:10237000A278013363700123934062681343636062
:10238000A5784DB1013DEDB2A5702DB96368DB08AC
:102390006360FFF783FF656038BD6370F0E700BFDF
:1023A000000C0040840200200000024007B500231A
:1023B000134A0193116C134841F002011164126C2D
:1023C0001149036102F002020192019A83605322D3
:1023D00080E806004CF25032C26002F09DFB18B15A
:1023E00013210A48FFF7F8FB064802F072FA18B109
:1023F00016210648FFF7F0FB03B05DF804FB00BFB1
:1024000000380240D42702200004004043A2000804
:1024100007B50023134A0193116C134841F00401DE
:102420001164126C1149036102F004020192019AD5
:102430008360532280E806004CF25032C26002F002
:102440006BFB18B127210A48FFF7C6FB064802F0CC
:1024500040FA18B12A210648FFF7BEFB03B05DF829
:1024600004FB00BF0038024098270220000800400B
:1024700043A2000808B51148114B4FF4E13E80E833
:102480000840042200238360C360036142618361CA
:10249000C36102F09FFC18B115210A48FFF79CFBAD
:1024A0000E220949054802F020FD28B118210548EF
:1024B000BDE80840FFF790BB08BD00BF50280220D0
:1024C0000010014063A200089028022008B50C48C3
:1024D0000C4B4FF4614E80E808400C2200238360CF
:1024E000C360036142618361C36102F073FC28B180
:1024F00028210548BDE80840FFF76EBB08BD00BFB6
:10250000102802200050004063A200080A4641F251
:1025100088330146014802F08BBC00BF102802201E
:1025200008B50B4B1A6842F400721A601A6842F43C
:1025300080621A601A6842F480721A60032000F008
:102540001BF80020FFF742FCFFF747FB002008BD07
:10255000003C0240034A044B11681B780B44136093
:10256000704700BFA02802200C000020014B186813
:10257000704700BFA0280220074AD36823F4E06315
:102580001B041B0C43F0BF63000243F4003300F450
:10259000E0600343D360704700ED00E0174B30B5B7
:1025A000DC68C4F30224C4F10703251D042B28BFF3
:1025B0000423062D4FF0010505FA03F303F1FF3361
:1025C0008CBF033C00241940A14005FA04F4013CEF
:1025D0002240002842EA01024FEA0212AFBF00F196
:1025E000604000F00F00064BD2B2A5BF00F561407D
:1025F000D2B21A5480F8002330BD00BF00ED00E0D5
:1026000014ED00E04209012300F01F0003FA00F07E
:10261000014B43F82200704700E100E00138B0F1BF
:10262000807F0AD2064B074A5860F02182F82310B7
:102630000020072298601A6070470120704700BF91
:1026400010E000E000ED00E0044B1A6804280CBF25
:1026500042F0040222F004021A60704710E000E029
:1026600090F83530022B03D080234365012070475A
:102670000268052380F83530136823F001031360E6
:10268000002070472DE9F04F85B00B68DFF8C4815A
:102690006E4ADFF8C491019300234FF0010E019CB4
:1026A0000EFA03FE0EEA0406B64540F0B6804C680A
:1026B00024F01007022F16D14FEAD30A00EB8A0A42
:1026C00003F0070BDAF820504FEA8B0B4FF00F0C9A
:1026D0000CFA0BFC25EA0C0C0D6905FA0BF545EA22
:1026E0000C05CAF820504FEA430A0325D0F800B081
:1026F00005FA0AF5ED4304F0030C0BEA050B0CFA9E
:102700000AFC013F4CEA0B0C012FC0F800C011D8A5
:10271000876807EA050BCF6807FA0AFC4CEA0B0743
:102720008760476827EA0E0EC4F300179F4047EA08
:102730000E074760C7683D408F6807FA0AF73D43B8
:10274000C560E50069D54FF0000BCDF80CB0D8F8A6
:1027500044703F4D47F48047C8F84470D8F844703F
:1027600007F480470397039F23F0030707F180478F
:1027700007F59C3703F0030CD7F808A04FEA8C0C40
:102780004FF00F0E0EFA0CFEA8422AEA0E0E4BD0A6
:1027900005F58065A84249D005F58065A84247D077
:1027A00005F58065A84245D005F58065A84243D06F
:1027B000484543D005F50065A84241D005F5806540
:1027C000A8423FD005F58065A8423DD005F580655B
:1027D000A84214BF0A25092505FA0CF545EA0E059D
:1027E000BD601568F74314F4803F0CBF3D4035438E
:1027F0001560556814F4003F0CBF3D4035435560EB
:10280000956814F4801F0CBF3D4035439560D56832
:10281000A40254BF3D403543D5600133102B7FF4F3
:102820003CAF05B0BDE8F08F5D46D5E70125D3E7A5
:102830000225D1E70325CFE70425CDE70525CBE722
:102840000625C9E70725C7E70825C5E7003C01407D
:10285000000002400038024000140240036919429F
:1028600014BF0120002070470AB18161704709043C
:10287000FBE74369594041617047000008B5044BCC
:102880005969014202D05861FFF796FB08BD00BFAD
:10289000003C01400268536913F480630DD06FF46B
:1028A000806353610423036420220023036380F8C0
:1028B0003C3080F83D2001207047184670472DE9D4
:1028C000F843044617469946C1F307488EB2256877
:1028D000B8F1010F0CBF6B69AB6936EA030314BF93
:1028E0000120002008B9BDE8F8836B695A0512D5AC
:1028F0002B6843F400732B606FF480636B610423D7
:10290000236420220023236384F83C3084F83D2094
:102910000120BDE8F8837B1CD9D04FB900232022C9
:10292000236384F83C3084F83D200320BDE8F8831D
:10293000FFF71CFEA0EB09008742C8D2EEE72DE9A5
:10294000F843089E044690461F46C1F307498DB2DE
:102950002368B9F1010F0CBF5B699B6935EA03037A
:102960000CBF01230023434502D00020BDE8F883BB
:102970007B1CEDD05FB900232022236384F83C3018
:1029800084F83D20032084F83E30BDE8F883FFF74B
:10299000EDFD801B8742DBD2EDE770B504460D46A6
:1029A000164623685B691B0601D5002070BD2046D2
:1029B000FFF770FFA8B96A1CF3D065B9236C43F028
:1029C0002003236420220023236384F83C3084F80E
:1029D0003D20032070BDFFF7C9FD801B8542E0D27A
:1029E000ECE7012070BD00002DE9FF419846036827
:1029F0000B9D16461A6842F480621A601A6842F407
:102A000080721A600F4600950A9B00224FF0011158
:102A10000446FFF794FF80B923682F49FFB207F0FF
:102A2000FE021A6120462B460A9AFFF748FF40B182
:102A3000236C042B01D1012000E0032004B0BDE889
:102A4000F081236803905A6903929B6903932A4695
:102A50000A99039B2046FFF7A0FF40B1236C042B8B
:102A6000EBD12268136843F400731360E3E7B8F115
:102A7000010F236824D1F6B21E612A460A99204626
:102A8000FFF78BFF02460028E8D121680B6843F46A
:102A900080730B60204600950A9B4FF00111FFF7F1
:102AA0004EFF0028C9D123680A9A0B4947F0010755
:102AB0001F6120462B46FFF702FF0028B8D1BDE773
:102AC000320A1A610A992A462046FFF766FF002853
:102AD000C4D12368CFE700BF0200010070B50446EF
:102AE0000D4616462068436913F0400301D00020CC
:102AF00070BD4269D2060BD56FF0100242612022F0
:102B0000236484F83C302363012084F83D2070BDA9
:102B10005DB9236C43F020032364202384F83D3007
:102B2000002384F83C30032070BDFFF71FFD801B9D
:102B30008542D7D2EDE770B504460D4616462368A8
:102B40005B695B0701D5002070BD2046FFF7A2FE40
:102B5000A8B96A1CF3D065B9236C43F02003236441
:102B600020220023236384F83C3084F83D20032096
:102B700070BDFFF7FBFC801B8542E0D2ECE7012033
:102B800070BD000070B50446002862D090F83D305A
:102B900003F0FF021BB980F83C20FFF74FF82268D2
:102BA0002D4E2E4D242384F83D30136823F001036D
:102BB000136001F04FFE63682268B0FBF5F5B34285
:102BC00084BF4FF496716943556091BF691C4FF4FF
:102BD0007A75B1FBF5F10131B342116221D85B0086
:102BE000B0FBF3F0C0F30B03032B98BF0420216A62
:102BF000E369D0610B431360E16823690B43936081
:102C0000A16963690B43D360136843F00103136048
:102C100000202023206484F83D30206384F83E00A7
:102C200070BDA16849B903EB4303B0FBF3F0C0F3F7
:102C30000B0363B140F40040D9E719214B43B0FBCB
:102C4000F3F0C0F30B0313B140F44040CFE7012091
:102C5000CDE7012070BD00BFA086010040420F00FB
:102C60002DE9FF4104461F460D469046FFF77EFCC6
:102C700094F83D30202B064604D00225284604B0A7
:102C8000BDE8F0810090192301225D492046FFF73D
:102C900056FE0028F1D194F83C30012BEDD00123F1
:102CA00084F83C3023681A68D2075EBF1A6842F085
:102CB00001021A601A6822F400621A60212284F864
:102CC0003D20102284F83E2000222264A2F58032AA
:102CD0006785E262628D2285E26AC4F82480042A54
:102CE00004D0012A02D012F5803F04D11A6842F4C0
:102CF00080721A6002E0226B122AF7D000960A9BBB
:102D000000224FF001112046FFF719FE28BB23696E
:102D10002268B3F5804F12D105F0FE0515613346E8
:102D20000A9A38492046FFF7CAFD0546A0B923682C
:102D300003905A6903929B690393039B50E0EB1144
:102D400003F0060343F0F00313612F490A9A334658
:102D50002046FFF7B4FD48B1236C236C042B4FF0E1
:102D6000000307D184F83C30012587E72368EDB2E2
:102D70001D61D4E784F83C3003257FE732460A9989
:102D80002046FFF70AFE40B1236C042BF4D12268E1
:102D9000136843F400731360E6E7616A2068228DCC
:102DA0004B1C63620B780361638D013B9BB26385AF
:102DB0004769531E9BB27F0723850AD54BB18B1CF5
:102DC00063624B780361638D013B9BB2023A63857A
:102DD000228532460A992046FFF7ADFE0028D3D15E
:102DE000238D002BCAD121680A6842F400720A6060
:102DF000202284F83D2084F83C3084F83E303DE7C2
:102E00000200100002000100080001002DE9F0435B
:102E1000044689B098460D469146109FFFF7A6FBE1
:102E200094F83D30202B064604D00225284609B0F0
:102E3000BDE8F0830090192301229C492046FFF74A
:102E40007EFD0028F1D194F83C30012BEDD0012318
:102E500084F83C3023681A68D2075EBF1A6842F0D3
:102E600001021A601A6822F400621A60222284F8B1
:102E70003D20102284F83E2000222264A2F58032F8
:102E8000A4F82A80E262628D2285E26A1968C4F899
:102E9000249041F48061042A196004D0012A02D0F0
:102EA00012F5803F04D11A6842F480721A6002E081
:102EB000226B112AF7D000963B4600224FF00111F9
:102EC0002046FFF73CFD00284AD12369B3F5804F27
:102ED000236836D145F00105EDB21D6133463A460F
:102EE00073492046FFF7EBFC0546002837D1228DB9
:102EF0002368002A66D0012A77D11A6822F48062FA
:102F00001A6004955A6904929A690492049A1A689C
:102F100042F400721A60DFF8A081238D002B5BD091
:102F2000032B00F2CB80012B7AD132463946204662
:102F3000FFF7D4FD002800F09080236C202B16D1E1
:102F40003EE04FEAE51808F0060848F0F0021A6182
:102F5000584933463A462046FFF7B1FC48B1236C46
:102F6000236C042B4FF0000328D184F83C3001255A
:102F70005CE723684E49EDB21D613A463346204670
:102F8000FFF79DFC02460028E9D1236807905969A4
:102F90000791996907910799196841F4807119603F
:102FA000204600963B464FF00111FFF7C8FC002871
:102FB000D6D1226848F0F10313618FE784F83C30E2
:102FC000032533E703955A6903929A690392039A9A
:102FD0001A6842F400721A60202384F83D300023FE
:102FE00084F83E3084F83C3020E7022A1A680DD17C
:102FF00022F480621A601A6842F400621A60059531
:103000005A6905929B690593059B84E742F48062A7
:103010001A6006955A6906929B690693069B7AE7A1
:10302000022B00963B464FF000024146204622D13B
:10303000FFF785FC0028C3D123681A6842F40072A8
:103040001A60626A1B69511C61621370238D013B17
:103050002385638D013B9BB26385636A5A1C626260
:10306000226812691A70238D013B2385638D013B11
:103070009BB2638551E7FFF762FC024600289FD1AF
:103080002368196821F480611960616A1B69481C12
:1030900060620B70238D0096013B2385638D013B9D
:1030A0009BB2638541463B462046C1E702001000C3
:1030B0000200010008000100040001003246394608
:1030C0002046FFF70BFD00287FF437AF636A5A1CD8
:1030D0006262226812691A70238D2268013B23857F
:1030E000638D013B9BB2638553695B077FF515AF29
:1030F000636A591C6162B4E72DE9F047044686B063
:103100009A460D469146109FFFF730FA94F83D30ED
:10311000202B064604D00225284606B0BDE8F087DD
:1031200000901923012279492046FFF708FC002866
:10313000F1D194F83C30012BEDD0012384F83C30E0
:1031400023681A68D2075EBF1A6842F001021A604B
:103150001A6822F400621A60222384F83D3040236A
:1031600084F83E300E9B63624FF00008BDF83C309F
:10317000C4F840806385664BE362638D23852946EE
:103180000196009753464A462046FFF72DFC054618
:1031900030B1236C84F83C80042B3AD10125BBE785
:1031A000228D236892B902905A6902929A6902921A
:1031B000029A1A6842F400721A60202384F83D30A3
:1031C000002384F83E3084F83C30A5E7012A22D160
:1031D0001A6822F480621A6003905A6903929A690D
:1031E0000392039A1A6842F400721A60DFF824818D
:1031F000238D002BE1D0032B6BD8012B23D132463A
:1032000039462046FFF76AFC002839D0236C202B72
:10321000C4D1032580E7022A0ED11A6822F4806205
:103220001A601A6842F400621A6004905A690492A3
:103230009B690493049BD9E705905A6905929B69A1
:103240000593059BD2E7022B00963B464FF0000208
:103250004146204622D1FFF772FB0028D9D12368CE
:103260001A6842F400721A60626A1B69511C61623A
:103270001370238D013B2385638D013B9BB26385D6
:10328000636A5A1C6262226812691A70238D013BBC
:103290002385638D013B9BB26385A9E7FFF74FFB55
:1032A00002460028B5D12368196821F480611960AD
:1032B000616A1B69481C60620B70238D0096013B9C
:1032C0002385638D013B9BB2638541463B46204687
:1032D000C1E7324639462046FFF700FC002895D169
:1032E000636A5A1C6262226812691A70238D22680E
:1032F000013B2385638D013B9BB2638553695B076B
:103300007FF576AF636A591C6162BDE70200100069
:103310000000FFFF040001007047704770477047CE
:1033200070477047704770477047704790F83D305E
:10333000293B012B10B50368044639D800220263EB
:10334000282280F83D201A6822F400621A605A6828
:1033500012F4006254D05A68606B22F400625A6022
:1033600090F83530012B394B31D00365FFF778F9F0
:1033700050B12268606B136823F0010313602023AF
:1033800084F83D30036D984794F83D30282B0ED1DA
:10339000236C5B070BD52E4BE362202200232363B3
:1033A000204684F83D2084F83E30FFF7BAFF10BD78
:1033B00090F83D20602A05D05A6812055CBF202293
:1033C00080F83D200022226384F83E20BBE7A06BFA
:1033D0000365FFF745F90028D6D0226853695806DF
:1033E00004D5636A1269591C61621A702268A06B65
:1033F000136823F001031360202384F83D30C1E7F4
:1034000094F83D10602914D1202184F83D102264E5
:103410005A69510604D5626A1B69511C61621370B6
:103420002268136823F0010313602046FFF77DFF35
:10343000AAE75A69520604D5626A1B69511C616287
:1034400013702046FFF770FF9EE700BF5D3C000849
:103450000000FFFF0368F0B59D6959695A6890F84C
:103460003E40E4B2102C8DB002D0402C40F055828A
:1034700011F0011F66D0970564D590F83E40402CAE
:1034800043D1046D002C3BD1446C04F0FE041C615C
:10349000984E994C2E400C40002E00F09F81974D85
:1034A0000D40002D00F06681550540F16381002C30
:1034B00040F0608190F83D20058D90F83E10C46A80
:1034C000D2B2C9B2002D40F00581212A40F004811A
:1034D000042C00F06C81082C00F0698114F5803F09
:1034E00000F065815A6822F4E0625A601123036398
:1034F00080F83E50202380F83D30FFF70DFFF6E0C6
:10350000446C44F00104E4B2C1E70469B4F5804FAF
:1035100005D190F83D40212C446CF2D1B5E7046D03
:1035200034B9446CE41104F0060444F0F004AEE74E
:10353000046D012CACD1446CE41104F0060444F099
:10354000F104A4E76E4C0C401CB1960501D5446C07
:10355000D9E76C4C0C40002C9AD0940598D590F883
:103560003E40C66AD0F830E090F83D70222FE4B2B9
:1035700040F0A880076D47B9402C06D101975C69DF
:1035800001949C690194019C82E7046D8CB90769E0
:10359000B7F5404F0DD102945C6902949C69029486
:1035A000029C1C6844F480741C60046D0134046542
:1035B0006EE7448DA4B254B903945C6903949C698A
:1035C0000394039C1C6844F400741C6019E0448D4F
:1035D000A4B2012C42D116F5803F1BD11C6824F403
:1035E00080641C605C6814F400640CD01C6824F4D3
:1035F00080641C60002404945C6904949C690494B5
:10360000049C0024D3E705945C6905949C690594A7
:10361000059CD7E7042E15D0082E13D0BEF1120F4B
:1036200010D0C46A022C1C6814BF24F4806444F4D3
:1036300080641C60002406945C6906949C6906946E
:10364000069CDEE71C6824F480641C600024079458
:103650005C6907949C690794079CB3E7448DA4B206
:10366000022C1CD1C46A022C1C681DBF24F4806487
:103670001C601C6844F4806418BF44F400641C603F
:103680005C68270542BF5C6844F480545C60002499
:1036900008945C6908949C690894089CB1E71C68CC
:1036A00044F480641C605C68260542BF5C6844F496
:1036B00080545C60002409945C6909949C690994B5
:1036C000099C9EE700240A945C690A949C690A9408
:1036D0000A9CDDE6212A03D0402908D1222A06D1FE
:1036E000428D92B282B95A6822F480625A600DB05B
:1036F000F0BD00BF040010000400010080000100C4
:10370000080001000200010090F83E20402A27D165
:10371000026D7AB9C26C012A826C05D1D2B21A61EB
:10372000036D02330365E2E7C2F307221A61036DFA
:103730000133F7E7026D012A02D1826CD2B2F5E7BC
:10374000026D022AD3D190F83D20222A04D11A68B2
:1037500042F480721A60CAE790F83D20212AC6D14F
:10376000426A511C416212781A61438D013B9BB23F
:103770004385BCE7002CBAD09405B8D5C16A90F84F
:103780003D20212AB3D1428D92B2002AE8D10429EA
:103790000DD008290BD011F5803F08D0596821F4CD
:1037A000E06159601123036380F83E20A2E65A6865
:1037B00022F4E0625A601A6842F400721A60002330
:1037C0002022036380F83D2090F83E2080F83E30B0
:1037D000402A7FF492AEFFF7A5FD88E7904D0D409B
:1037E000002D41D051053FD5002C3DD190F83D2012
:1037F000222A7FF47CAF428D92B2032A13D9426A07
:103800001B69511C41621370438D013B9BB2438580
:10381000438D9BB2032B7FF46AAF0268536823F495
:103820008063536063E7012A3FF661AF1A6822F4B0
:1038300080621A605A6822F4E0625A60426A1B6928
:10384000511C41621370438D013B9BB24385202381
:1038500080F83D30046390F83E3080F83E40402BC5
:1038600058D1FFF760FD42E7002C3FF440AF9705C9
:103870007FF53DAFC16A428D92B2042A426A08D1F7
:10388000596821F480615960511C1B6941621370B1
:103890006BE7448DA4B2032C08D1596821F48061F0
:1038A0005960196821F480611960EDE7448DA4B274
:1038B000022CE9D10139012919689DBF21F48061E9
:1038C0001960196841F4007198BF41F48071196062
:1038D0001B69511C41621370438D013B9BB24385B0
:1038E000436A5A1C4262026812691A70438D026868
:1038F000013B9BB24385536823F4407353602023FC
:1039000080F83D300023036390F83E2080F83E307D
:10391000402AA5E7FFF701FDE9E6424C0C4074B1EF
:1039200096050CD599699B6981F004011D06C1F3C8
:10393000800154BF8289028BFFF7F2FCD7E63A4C34
:103940000C40002C74D0940572D590F83D20596835
:1039500021F4E061596000210B9159690B911968BC
:1039600041F0010119600B99196821F48061196017
:1039700059680905D2B20CD590F83D10222903D020
:1039800090F83D102A2929D1816B0968496889B2CC
:103990004185418D89B2E1B159694F0708D5416A26
:1039A0001B694C1C44620B70438D013B9BB24385E9
:1039B00001684B695E0608D5436A09695C1C44626C
:1039C0001970438D013B9BB24385036C43F00403A4
:1039D0000364036C23B1FFF7A9FC88E6416BD4E7CD
:1039E000A2F1280102290AD8104AC26220220363E8
:1039F00080F83D2080F83E30FFF793FC77E6036BBC
:103A0000222B02D0222A7FF472AE002320220363ED
:103A100080F83D2080F83E30FFF781FC67E600BF6C
:103A20004000010002000100100001000000FFFF43
:103A3000394E3A4C2E400C40002E36D0384D0D40B9
:103A40003DB3550525D524BB90F83D10428D92B26B
:103A5000C9B2002A3FF44BAE426A541C4462127849
:103A60001A61428D013A92B24285428D92B2002A89
:103A70007FF43DAE29297FF43AAE5A6822F4806281
:103A80005A6021230363282380F83D30FFF746FC6A
:103A90002DE6002C3FF42BAE94057FF528AE428D29
:103AA00092B2002A7FF45CAE21E61E4D0D4035B384
:103AB000510524D51CBB90F83D20418D89B2D2B26E
:103AC00000293FF414AE416A1B694C1C44620B7020
:103AD000438D013B9BB24385438D9BB2002B7FF40A
:103AE00006AE2A2A7FF403AE0268536823F480638B
:103AF000536022230363282380F83D308CE7002C99
:103B00003FF4F5AD92057FF5F2AD428D92B2002AF9
:103B10003FF4EDAD426AB7E6040010000400010076
:103B20008000010040000100F8B50368494A5E6961
:103B30005D681642044608D0E80506D5226C42F0BE
:103B4000010222646FF480725A6116F4813F08D03A
:103B5000E90506D5226C42F0020222646FF400727D
:103B60005A6116F4823F36D0EA0534D594F83E7097
:103B7000618D94F83D20206B202F89B2D2B258D1AC
:103B8000002956D102F0F701212903D0282A50D16B
:103B900021284ED194F83D20E16A0429D2B201D007
:103BA00008292CD1282A2AD12B4AE2625A6822F409
:103BB000E0625A606FF480625A611A6822F480628F
:103BC0001A60002320222363204684F83D2084F8D5
:103BD0003E30FFF7A6FB16F4843F09D0EB0507D56E
:103BE000236C43F00803236423686FF400625A6176
:103BF000236C73B32046BDE8F840FFF797BB212A3A
:103C000023D11549E1622263202284F83D2000225D
:103C100084F83E205A6822F4E0625A606FF48062B1
:103C20005A611A6822F480621A602046FFF776FB18
:103C3000D1E7226C42F00402226494F83E20102A5C
:103C400002BF1A6842F400721A606FF480625A610F
:103C5000C1E7F8BD000101000000FFFF806B08B55F
:103C60000368416B1A6822F480621A600022428560
:103C70000A65816B0A6590F83D1060294FF02001BC
:103C800080F83D1080F83E2007D102641A6822F0C7
:103C900001021A60FFF749FB08BD1A6822F0010211
:103CA0001A60FFF741FB08BD90F83D007047000027
:103CB0002DE9F04FD0F8009087B00446484601F057
:103CC0006EFB0290002840F02E81206801F039FB45
:103CD000002800F02881206801F033FB850748BFE9
:103CE0002268206842BF536903F00203536101F068
:103CF00028FB10F400250AD0206801F026FB09F506
:103D000030660746A2460025002F40F00F8120684C
:103D100001F017FB41030BD5206801F01EFB26467E
:103D2000039009F510680025039B002B40F03F81AC
:103D3000206801F006FB00280DDAD9F8043823F0DA
:103D40000103C9F80438204601F0AEFB226853692C
:103D500003F000435361206801F0F3FA06050BD528
:103D6000D9F80838D80702D5204601F085FB22682B
:103D7000536903F400635361206801F0E2FAC1045F
:103D800037D509F500667368206823F00103736076
:103D9000102101F0CDF8616809F51063FF22029847
:103DA000884240F092814FF0FF33B361F36943F0F2
:103DB0000113F361236B002B00F08F81D6F8843060
:103DC00043F00B03C6F88430736C43F00B03736449
:103DD000D9F80038217C206823F4FE63C9F8003844
:103DE00004F56F7201F0FAFA2268536903F4805304
:103DF0005361206801F0A5FA82041DD5206801F006
:103E0000D2FA2068C36823F47053C36001F0A2F8AB
:103E1000002840F06B812268E0604FF4007363611A
:103E2000D36843F41053D360204601F015FB226899
:103E3000536903F400535361206801F082FAC3060A
:103E40002BD52268936923F010039361D9F8206081
:103E5000C6F34343022B06F00F0840F0A88147F653
:103E6000F0731E4214D01C2707FB0847C6F30A163E
:103E70003246D7F80412484601F00DFAD7F804325A
:103E80003344C7F80432D7F810321E44C7F8106222
:103E90002268936943F010039361206801F051FA9E
:103EA000070707D5204601F0D3FA2268536903F0CB
:103EB00008035361206801F044FAC60208D5E9B24C
:103EC000204601F0F9FA2268536903F48013536124
:103ED000206801F036FA800208D5E9B2204601F0E8
:103EE000E7FA2268536903F400135361206801F074
:103EF00028FA410007D5204601F0E2FA226853690A
:103F000003F080435361206801F01BFA42070AD591
:103F100023685D686B0702D5204601F0D5FA236857
:103F20005A6815435D6007B0BDE8F08FF80738D5D3
:103F30005FFA85FB5946206801F017FA10F0010F6F
:103F4000804621D0216901239942B3600CD13169A7
:103F5000DAF80002C1F31201411ACAF81012DAF8B5
:103F600004120844CAF804025946204601F05FFAD8
:103F70002169012908D13DB9D4F80C2222B904F5F0
:103F80006F72206801F02AFA18F0080F04D020465A
:103F900001F047FA0823B36018F0100F1CBF10237C
:103FA000B36001357F0820360AF11C0AACE6039B9A
:103FB000DA0758D55FFA85FB5946206801F0DFF92A
:103FC000C307074620D5D9F834380121A94023EA90
:103FD0000103C9F834380123C8F808302369012BDC
:103FE00001BF736C326C9B1873645946204601F014
:103FF00027FA2169012907D135B9E36C23B904F502
:104000006F72206801F0EAF9380744BF0823C8F846
:104010000830F90644BF1023C8F808307A0644BFB8
:104020004023C8F80830BB0744BF0223C8F8083053
:104030003F0618D523680493F76C336DFF1A336C71
:104040009F4228BF1F46049B03F5106307F1030A34
:1040500003EB45134FEA9A0A0593059B9B699BB2B4
:10406000534508D82FB3039B5B08013503931C36D7
:1040700008F1200858E6326DF36C9342F2D9002B18
:10408000F0D0376C04989B1A9F4228BF1F46237CB0
:1040900000935A46BBB2716C01F0E9F8736C3B4473
:1040A0007364336D07F1030A3B444FEA9A0A3365A0
:1040B000D3E7049B012203F5006BD3F83438AA4000
:1040C00023EA0203CBF83430CDE702989A6001303E
:1040D000C3F808220290203361E6736943F00B03B2
:1040E0007361336943F00B03336171E60323E360CB
:1040F0004023636100F0A8FB344B354A03449342EC
:10410000236804D8DA6842F47052DA608CE6314AE7
:10411000314902448A4203D8DA6842F46052F4E733
:10412000A0F574022D49A2F510528A4203D8DA682C
:1041300042F45052E9E7A0F183722949A2F5E7421F
:104140008A4203D8DA6842F44052DEE7254A26491B
:1041500002448A4203D8DA6842F43052D5E7234A4F
:10416000234902448A4203D8DA6842F42052CCE759
:10417000204A214902448A4203D8DA6842F41052A4
:10418000C3E7A0F1B7721D49A2F558528A4203D87D
:10419000DA6842F40052B8E7194A1A4902448A42DE
:1041A000DA6894BF42F4E05242F4C052ADE7062B05
:1041B0007FF46EAE082204F56F7148461C2701F0AB
:1041C0006AF807FB0847C6F30A165CE6405327FF68
:1041D000FF340C00401E1BFF3F420F007F4F1200B8
:1041E0001FD6130060B6E5FE5FE3160000D3CEFED7
:1041F0003F771B00C05BB3FEBF9121001F753800E5
:10420000E05459FEDF9C410090F8B833012B10B503
:10421000044609D0012380F8B833006801F081F822
:10422000002084F8B80310BD022010BD70B54EB256
:10423000002E04464FF01C0501F07F00B5BF05FBC2
:10424000004105FB0141383101F5FC71C0B2002E7F
:10425000B8BFC880022BCB704FEAD67504BF0023CD
:104260000B7108704D7094F8B8338A60012B09D037
:10427000012384F8B833206800F087FE002084F81A
:10428000B80370BD022070BD38B501F07F051C2455
:1042900004FB050104FB050401F5FC71C4F80C32B4
:1042A0000023C4F80422C4F8103284F8F93184F8E9
:1042B000F85103690068012B08BFC4F80822DAB27C
:1042C0001DB900F067FF002038BD00F09DFEFAE741
:1042D00038B501F07F051C2404FB050104FB05042F
:1042E0003831E364002323650123626484F83930A4
:1042F00084F8385003690068012B08BFA264DAB261
:104300001DB900F047FF002038BD00F07DFEFAE740
:1043100038B54BB2002B01F07F054FF01C02B5BF42
:1043200002FB050102FB0101383101F5FC7101229C
:10433000DB0FEDB28A700D704B7090F8B83393427A
:1043400004460FD080F8B823006800F0B2FF2DB902
:1043500004F56F72217C206801F040F8002084F899
:10436000B80338BD022038BD38B54BB2002B054626
:104370004FF01C0201F07F00B5BF02FB005102FBB1
:104380000151383101F5FC71DB0F00248C7008708D
:104390004B7095F8B833012B09D0012385F8B83359
:1043A000286800F0A5FF85F8B843204638BD0220F4
:1043B00038BD00002DE9F341044618B9012002B0D0
:1043C000BDE8F0810368DD0710D42368980758D44E
:1043D00023681A0700F19A8023685B0700F1B88010
:1043E000A269002A40F019810020E8E7A64B9A68EC
:1043F00002F00C02042A07D09A6802F00C02082A84
:104400000AD15B68590207D59F4B1B689A03DCD51C
:104410006368002BD9D1D1E763689B4DB3F5803F2A
:1044200011D12B6843F480332B60FEF79FF8964D33
:1044300006462B689B03C8D4FEF798F8801B6428B7
:10444000F7D90320BBE7B3F5A02F04D12B6843F4C1
:1044500080232B60E5E72A6822F480322A602A68EC
:1044600022F480222A60002BDFD1FEF77FF8064677
:104470002B689F03A9D5FEF779F8801B6428F7D92C
:10448000DFE7814B9A6812F00C0F07D09A6802F0B0
:104490000C02082A11D15B685E020ED47A4B1A68AE
:1044A000950702D5E268012A88D11A68216922F0AD
:1044B000F80242EAC1021A608AE7E268734BB2B1BD
:1044C00001221A60FEF752F86F4D06462B689807D6
:1044D00007D52B68226923F0F80343EAC2032B6057
:1044E00076E7FEF743F8801B0228EFD9A9E71A60A8
:1044F000FEF73CF8644D06462B6899077FF568AFD8
:10450000FEF734F8801B0228F6D99AE76269604BFF
:104510007AB101221A60FEF729F85B4D06466B6FEF
:104520009F073FF559AFFEF721F8801B0228F6D907
:1045300087E71A60FEF71AF8534D06466B6F980727
:104540007FF54AAFFEF712F8801B0228F6D978E70C
:104550004D4B1A6C12F0805228D101921A6C42F025
:1045600080521A641B6C03F080530193019B012657
:10457000484D2B68D9051BD5A368434D012B27D186
:104580002B6F43F001032B67FDF7F0FF3E4D07460D
:1045900041F288382B6F9B0739D5002E3FF420AFAE
:1045A000394A136C23F08053136419E70026DFE7C0
:1045B0002B6843F480732B60FDF7D8FF07462B6808
:1045C000DA05D9D4FDF7D2FFC01B0228F7D938E7A6
:1045D000052B04D12B6F43F004032B67D0E72A6F20
:1045E00022F001022A672A6F22F004022A67002BB8
:1045F000CAD1FDF7BBFF41F2883807462B6F9807F9
:10460000CBD5FDF7B3FFC01B4045F7D919E7FDF740
:10461000ADFFC01B4045BDD913E71B4DAB6803F090
:104620000C03082B3FF4CAAE1B4E0023022A336052
:1046300034D1FDF79BFF07462B6899011ED4226AEF
:10464000E3691343626A43EA8213E26A43EA02635C
:10465000A26A0D4C5208013A43EA02436B600123FF
:104660003360FDF783FF054623689A013FF5BCAE32
:10467000FDF77CFF401B0228F6D9E2E6FDF776FF46
:10468000C01B0228D8D9DCE60038024000004742AF
:10469000800E47420070004060004742FDF766FF11
:1046A00004462B689B017FF59FAEFDF75FFF001B63
:1046B0000228F6D9C5E600BF134908B58B6803F098
:1046C0000C03042B03D0082B03D0104808BD10485E
:1046D00008BD4A684B68496813F4800314BF0C484E
:1046E0000A48C1F3881118BF002302F03F02A1FB62
:1046F0000001FCF7B5FA044B5B68C3F301430133D7
:104700005B00B0FBF3F008BD003802400024F40069
:1047100000127A002DE9F0410D46044610B901203F
:10472000BDE8F081444B1A6802F00F028A4228D398
:1047300021688F072DD4C80740D43F4B1A6802F078
:104740000F02954266D3226851076CD4130707D530
:104750003A4A2169936823F4604343EAC1039360B2
:10476000FFF7AAFF354B364A9B68C3F30313D35CAC
:10477000D840344B18600020FDF728FB0020BDE82E
:10478000F081CAB21A701B6803F00F039942C6D1B8
:10479000CEE72A4B11F0040F1EBF9A6842F4E05294
:1047A0009A600E0742BF9A6842F460429A609A6823
:1047B000A06822F0F00202439A60BCE762681F4BD7
:1047C000012A1DD11B6813F4003FA8D01B4EB3680B
:1047D00023F003031343B360FDF7C8FE41F28838AA
:1047E0000746B368626803F00C03B3EB820FA4D0F2
:1047F000FDF7BCFEC01B4045F3D90320BDE8F081A6
:10480000911E01291B6802D813F0007FDDE713F029
:10481000020FDAE7EAB21A701B6803F00F039D4239
:104820007FF47DAF8FE70549E0688B6823F4E053A0
:1048300003438B608AE700BF003C0240003802401F
:104840000EA2000808000020014B1868704700BF46
:1048500008000020044B054A9B68C3F38223D35C05
:10486000034A1068D8407047003802401EA2000872
:1048700008000020044B054A9B68C3F34233D35C15
:10488000034A1068D8407047003802401EA2000852
:10489000080000200F2303600B4B9A6802F003020C
:1048A00042609A6802F0F00282609A6802F4E05274
:1048B000C2609B68DB0803F4E0530361034B1B6891
:1048C00003F00F030B60704700380240003C0240C9
:1048D00070470268022380F83930136843F00103FF
:1048E0001360012380F83930002070470368DA68CC
:1048F00042F00102DA601A6842F001021A600020F8
:104900007047704770477047704703681A6991078E
:1049100010B504460ED5DA6892070BD56FF0020287
:104920001A619B6901229B07027677D0FFF7EAFFA5
:104930000023237623681A69500710D5DA685107D7
:104940000DD56FF004021A619B69022213F4407FB7
:104950002276204668D0FFF7D5FF00232376236810
:104960001A6912070FD5DA6810070CD56FF0080224
:104970001A61DB6904229907227620465AD0FFF794
:10498000C1FF0023237623681A69D20610D5DA689E
:10499000D0060DD56FF010021A61DB69082213F4FE
:1049A000407F227620464BD0FFF7ACFF00232376D2
:1049B00023681A69D10708D5DA68D20705D56FF0E0
:1049C00001021A612046FDF7ADF823681A69100646
:1049D00008D5DA68110605D56FF080021A61204605
:1049E00000F0B5F823681A69520608D5DA6850064F
:1049F00005D56FF040021A612046FFF785FF236856
:104A00001A69910622D5DA6892061FD56FF0200246
:104A100020461A61BDE8104000F098B8FFF771FF1A
:104A20002046FFF770FF83E7FFF76BFF2046FFF795
:104A30006AFF92E7FFF765FF2046FFF764FFA0E7F4
:104A4000FFF75FFF2046FFF75EFFAFE710BD0000F6
:104A50002E4A0368904212D0B0F1804F0FD0A2F5D9
:104A60007C4290420BD002F58062904207D002F562
:104A70008062904203D002F5784290421DD14A688C
:104A800023F070031343214A904204D1CA6823F4EF
:104A90004073134328E0B0F1804FF7D01C4A904296
:104AA000F4D002F580629042F0D002F5806290422C
:104AB000ECD002F578429042E8D0164A9042E5D018
:104AC00002F580629042E1D002F580629042DDD032
:104AD000A2F598329042D9D002F580629042D5D0AA
:104AE00002F580629042D1D003608B68C3620B688C
:104AF0008362064B984206D003F58063984202D049
:104B00000123436170470B690363F9E7000001402B
:104B1000000400400040014010B50446A0B190F8E8
:104B2000393003F0FF021BB980F83820FFF7D0FEC0
:104B3000022384F839302068211DFFF789FF012303
:104B400084F83930002010BD012010BD7047704737
:104B50002DE9F0470668C2683369C16923F4405300
:104B600013433361044683680069F2680343606954
:104B700022F41642034322F00C020B431343F3606A
:104B80007369A26923F440731343B1F5004F736155
:104B90007A4B7CD19E4203D003F580639E4244D180
:104BA000FFF768FE192505FB00F360684FF0640904
:104BB0004000B3FBF0F3B3FBF9F34FEA0318FFF740
:104BC00059FE636868435B00B0FBF3F7FFF752FEE2
:104BD000636868435B00B0FBF3F3B3FBF9F309FBD5
:104BE0001373DB003233B3FBF9F35B0003F4F877A4
:104BF000FFF740FE626868435200B0FBF2FAFFF72D
:104C000039FE636868435B00B0FBF3F3B3FBF9F371
:104C100009FB13A3DB003233B3FBF9F303F0070303
:104C200043443B44B360BDE8F087FFF713FE19250A
:104C300005FB00F360684FF064094000B3FBF0F33C
:104C4000B3FBF9F34FEA0318FFF704FE6368684308
:104C50005B00B0FBF3F7FFF7FDFD636868435B00A3
:104C6000B0FBF3F3B3FBF9F309FB1373DB0032334F
:104C7000B3FBF9F35B0003F4F877FFF7EBFD626831
:104C800068435200B0FBF2FAFFF7E4FDB9E79E4239
:104C900002D03B4B9E4240D1FFF7ECFD67681925DF
:104CA0004FF0640905FB00F3BF00B3FBF7F3B3FB60
:104CB000F9F31F01FFF7DEFD636868439B00B0FB5B
:104CC000F3F8FFF7D7FD636868439B00B0FBF3F38D
:104CD000B3FBF9F309FB13831B013233B3FBF9F385
:104CE00003F0F008FFF7C6FD626868439200B0FB6E
:104CF000F2FAFFF7BFFD636868439B00B0FBF3F374
:104D0000B3FBF9F309FB13A31B013233B3FBF9F334
:104D100003F00F0343EA080383E7FFF79BFD67688F
:104D200019254FF0640905FB00F3BF00B3FBF7F34F
:104D3000B3FBF9F31F01FFF78DFD636868439B0028
:104D4000B0FBF3F8FFF786FD636868439B00B0FB98
:104D5000F3F3B3FBF9F309FB13831B013233B3FB0A
:104D6000F9F303F0F008FFF775FD626868439200FD
:104D7000B0FBF2FAFFF76EFDBDE700BF0010014087
:104D800000140140F8B504460E4617461D4621683A
:104D90000B6836EA030301D10020F8BD6B1CF7D085
:104DA00095B92368DA6822F4D072DA605A6922F081
:104DB00001025A61202384F8393084F83A30002304
:104DC00084F838300320F8BDFDF7D0FBC01B8542C6
:104DD000DDD2E6E710B5044640B390F8393003F071
:104DE000FF021BB980F83820FCF772FF22682423E9
:104DF00084F83930D36823F40053D3602046FFF79A
:104E0000A7FE23681A6922F490421A615A6922F0B7
:104E10002A025A61DA6842F40052DA600020202344
:104E2000E06384F8393084F83A3010BD012010BDB9
:104E30002DE9F0411F4690F83930202B04460D46ED
:104E400090464FD100294AD0002A48D090F83830F7
:104E5000012B47D0012380F838300023C36321237E
:104E600080F83930FDF782FBA4F824800646A4F8C8
:104E70002680E38C9BB26BB93B46324640212046EC
:104E8000FFF780FFB0B9202384F8393084F8380068
:104E9000BDE8F081E38C013B9BB2E384A368B3F5EA
:104EA000805F32463B464FF0800120460ED1FFF72F
:104EB00069FF10B10320BDE8F0812B882268C3F39D
:104EC00008035360236943B90235D2E7FFF75AFF5D
:104ED0000028EFD123682A785A600135C9E70120FC
:104EE000BDE8F0810220BDE8F08190F83A30202B37
:104EF0001CD1C9B1C2B190F83830012B16D0C2858F
:104F0000828500232222C36380F83A2002688162EE
:104F1000516980F8383041F001015161D16841F4A4
:104F20009071D16018467047012070470220704789
:104F3000890141F02001064A0161013A05D0036967
:104F400013F02003F9D1184670470320704700BFC3
:104F5000410D030000F50062D0F8080810F00600CB
:104F600012D0936803F00603022B0CD0936803F071
:104F70000603062B07D0936803F00603042B14BF27
:104F80000020022070470320704730B54B780C7822
:104F9000D0F81C5800F50062012B1BD1A3409BB236
:104FA0002B4300F51060D36100EB44131A68120420
:104FB0000ED48A68C8781D68C2F30A0242F0805293
:104FC00042F4004242EA804040EA8450284318609C
:104FD000002030BD4FF48033A34000F530602B43F8
:104FE00000EB4410D36103681B04F1D48B68C978CB
:104FF0000268C3F30A0343F0805343F4004343EAD7
:10500000814313430360E3E7F7B54B780C78012B3A
:105010004B6977D1202600F5106516FB04542669EC
:10502000002B38D126F0FF5626F4C01626612669DB
:1050300046F4002626612669F60CF6042661012A4C
:1050400050D10C780E6905EB44146661CE78012EC0
:105050000FD1D0F808480F7814F4807F4FF0200467
:1050600014FB075427680CBF47F0005747F08057E0
:1050700027600F7805EB4715012E2C6844F0044497
:105080002C6005D100929BB23A46C96800F0EFF857
:10509000002003B0F0BDF60CF604266126698F6887
:1050A00026F0FF5626F4C0162661DE19013EB6FB37
:1050B000F7F7374ED4F810E006EAC74646EA0E0680
:1050C00026612769C3F312063E432661CE78012E7E
:1050D0005AD1266926F0C0462661266946F0005658
:1050E0002661ACE7CE78012EB3D0002BAED091F87C
:1050F00000E0D0F83478012404FA0EF43C43C0F800
:105100003448A3E700F5306505EB44142569ED0C40
:10511000ED042561256925F0FF5525F4C0152561AD
:105120008D68FBB92369C5F312051D432561236909
:1051300043F400232361012A04BFCB686361CB7869
:10514000012B0AD1D0F8083813F4807F23680CBFF4
:1051500043F0005343F080532360236843F004433B
:10516000236095E70A4E27692B44013BB3FBF5F317
:1051700006EAC3463E4326619BB226695D43C5F3FA
:10518000120535432561D6E7012AAED159E700BFA4
:105190000000F81F4B78012B70B50B784D6943D197
:1051A000202400F5106614FB03631C69CDB924F0BC
:1051B000FF5424F4C0141C611C6944F400241C61D5
:1051C0001C69E40CE4041C610D7806EB4513012A0C
:1051D0001C6844F004441C601BD10A695A61002019
:1051E00070BDE40CE4041C611C6924F0FF5424F439
:1051F000C0141C618C68A54288BF4C611C6944F4D2
:1052000000241C614C691D69C4F312042C431C6109
:10521000DAE74B69002BE2D0D0F834280123AB4009
:105220001343C0F83438DAE700F5306000EB431080
:105230000369DB0CDB040361036923F0FF5323F4F0
:10524000C01303618B6805B14B61046944F4002409
:1052500004610469C3F312032343012A036104BFF9
:10526000CB684361036843F004430360B7E710B5BC
:105270009DF808404CB9033300F5805023F0030338
:1052800000EB02320B44994201D1002010BD51F8CD
:10529000040B1060F7E7033222F003020A4400F522
:1052A0008050914201D108467047036841F8043BA1
:1052B000F7E74B780A78012B4FF020030BD100F56C
:1052C000106013FB02000368002B0BDB036823F064
:1052D0008043036006E000F5306013FB02000368C2
:1052E000002BF3DA036843F40013036000207047D7
:1052F0004B780A78012B0CBF00F5106000F5306088
:10530000202313FB0200036823F400130360CB780F
:10531000023B012B9EBF036843F0805303600020D3
:105320007047D0F8003823F4FE63C0F80038D0F896
:105330000038090101F4FE611943C0F8001800208B
:1053400070474269806910407047D0F8183800F5FE
:105350000060C0691840000C7047D0F8183800F59C
:105360000060C069184080B2704700F5306303EBFD
:10537000411100F500608A6840691040704710B51F
:10538000D0F81048D0F8343800EB4110CB4000F58D
:105390001060DB018068DBB22343184010BD406918
:1053A00000F001007047D0F8003923F4FF6323F0C8
:1053B0000703C0F8003900F500639A6802F006029E
:1053C000042A02BFD0F8002942F00302C0F80029E5
:1053D0005A6842F480725A600020704710B5002469
:1053E000C0F8104BD0F8104B44F40024C0F8104B18
:1053F000D0F8104B44F01804C0F8104BD0F8104B04
:10540000012900F5306344F0C04408BF4FF0802309
:10541000C0F8104B04BFC0F8142BC0F8003B0020AC
:1054200010BD00F56F71D0F8EC0300F0CDB81C236F
:1054300003FB0103D0F8EC03D3F8042200F0F1B829
:105440001C2303FB0103D0F8EC035A6C00F01BB9DA
:10545000D0F8EC0300F097B910B5C16804460031EC
:1054600018BF0121D0F8EC0300F07BF9D4F8EC036D
:10547000BDE8104000F056B910B50446D0F8EC0372
:1054800000F072F92268D2F8003E43F00103C2F83E
:10549000003E236A23B1034A136943F006031361F4
:1054A00010BD00BF00ED00E0D0F8EC0300F065B9DE
:1054B000D0F8EC0300F075B9D0F8EC0300F06FB948
:1054C000D0F8EC0300F06FB9D0F8EC0300F06DB940
:1054D00010B51C46D0F8200213462246FEF7A6FE61
:1054E00003289ABF014B185C022010BD82A200085D
:1054F00008B5D0F82002FEF70BFF03289ABF024B35
:10550000185C022008BD00BF82A2000808B5D0F8D0
:105510002002FEF729FF03289ABF024B185C0220E5
:1055200008BD00BF82A2000811F0800FD0F8203221
:105530004FF01C021BBF01F07F0102FB013102FB97
:10554000013191F83A0008BF91F8FA017047000064
:1055500008B5D0F82002FEF757FE03289ABF024B89
:10556000185C022008BD00BF82A2000808B5D0F870
:105570002002FEF7ADFE03289ABF024B185C022002
:1055800008BD00BF82A2000808B5D0F82002FEF7CF
:105590007BFE03289ABF024B185C022008BD00BFA7
:1055A00082A2000808B5D0F814320BB9022008BD59
:1055B0001B6898470028F9D108BD08B5D0F8143207
:1055C0005B689847002008BD38B5044600F50275B1
:1055D000284600F076FA012394F80812C4F8F43152
:1055E000B4F80E32C4F8F83101F01F03012B0ED0CD
:1055F00007D3022B10D001F080012046FFF778FF7F
:1056000003E02946204600F0E7F8002038BD29468F
:10561000204600F0DBF9F8E72946204600F0EEF9D5
:10562000F3E738B50446154611BBD0F8F431032B27
:105630000FD1D0F80C31D0F8102193420BD99B1A1E
:105640009A4228BF1A46C0F80C3192B2294600F09F
:1056500061FA002038BDD0F814321B6923B190F8EC
:10566000FC21032A00D19847204600F05BFAF0E7BE
:10567000D0F814329B69002BEBD090F8FC21032A60
:10568000E7D19847E5E770B5134604460E46002972
:105690003DD1D0F8F421022A0FD1C569026A9542A2
:1056A00014D9AA1AC261194692B200F02BFA3346F5
:1056B0001A4619462046FFF767FF94F80032012B7F
:1056C00002D1002384F80032002070BD8369B3FB4F
:1056D000F2F502FB153565B99A420AD8D0F8F821DF
:1056E000934206D22A4600F00DFAC4F8F8512B4630
:1056F000DEE7D4F81432DB682BB194F8FC21032ADE
:1057000001D120469847204600F017FAD5E7D0F897
:1057100014325B69002BD7D090F8FC21032AD3D137
:105720009847D1E738B5002204461146402540236A
:10573000FFF7CEFE2B46C4F81051002280212046F0
:10574000FFF7C6FE012384F8FC31D4F81832256235
:105750002BB1D4F8143221795B6820469847002099
:1057600038BD01740020704790F8FC3180F8FD319D
:10577000042380F8FC310020704790F8FD3180F858
:10578000FC310020704708B590F8FC21032A04D1B1
:10579000D0F81432DB6903B19847002008BD00201F
:1057A0007047002070470020704708B5012280F83C
:1057B000FC21D0F81422017952689047002008BDDE
:1057C00010B580210446FFF793FE20460021BDE876
:1057D0001040FFF78DBE000037B54B7804460D46EC
:1057E000092B79D8DFE813F0C900E5007800D9006B
:1057F00078006D000A007800B9008D004B881A0A05
:10580000013A062A68D8DFE802F0041C29676749D4
:105810005200D0F810321B68207C0DF10601984729
:10582000BDF80620002A67D0EB88002B64D09A428E
:1058300028BF1A46ADF806200146204600F055F96B
:105840005AE0027CD0F8143232B99B6A0DF106009E
:10585000984702234370E3E7DB6AF7E7DBB2052BE7
:105860003AD8DFE803F003070B0F1317D0F8103214
:105870005B68D1E7D0F810329B68CDE7D0F81032E2
:10588000DB68C9E7D0F810321B69C5E7D0F81032E1
:105890005B69C1E7D0F810329B69BDE7037CDBB9D7
:1058A000D0F814320DF106005B6B9847B8E7037C23
:1058B00093B9D0F814320DF106001B6B98470723FB
:1058C000C8E78B8843B9CB8833B990F8FC318D7821
:1058D000032B05F07F0503D12046FFF771FF0BE096
:1058E00080F8FE512946FFF733FE204600F01AF9F2
:1058F0002DB1022384F8FC31002003B030BD012318
:10590000F8E78978304D01292970E5D890F8FC3105
:10591000022B0CD0032BDFD1B1B9022380F8FC316C
:105920004160FFF74AFE204600F0FCF8E4E700295A
:10593000F9D001210323416080F8FC312046FFF7B4
:1059400031FE0228EFD1C7E741680129EBD0C9B287
:10595000FFF733FE29786160F0E7CA88012ABBD1DE
:1059600090F8FC31022B03D0032BB5D1011D64E765
:105970000146002341F8083F5FE790F8FC31023B05
:10598000012BA9D80123C360D0F804320BB1032343
:10599000C360022204F10C014FE74B88012BABD10D
:1059A000C4F80432D4F8143229469B68204698473C
:1059B000B9E790F8FC31023B012B8DD84B88012BC5
:1059C0009AD10023ECE700BF9202002038B590F88E
:1059D000FC31032B04460D460DD10B79012B0AD85F
:1059E000D0F814329B689847EB8813B9204600F032
:1059F00099F8002038BDFFF7E3FEFAE770B50A78A2
:105A00008E8802F06002202A04460D46F3B205D1CA
:105A1000D0F814329B689847002070BD4A78012A5C
:105A20001CD02AD3032AF7D190F8FC21022A40D0B7
:105A3000032A02D0FFF7C4FEEEE74A8822B95E06C9
:105A400002D01946FFF754FDD4F8143229469B685A
:105A500020469847204600F065F8DDE790F8FC21E5
:105A6000022A26D0032AE5D14A88002AD4D1590631
:105A7000F0D01946FFF74AFDE6E790F8FC21022A2C
:105A800017D0032AD6D103F07F0516F0800F00EB64
:105A90000515194614BF143505F58275FFF744FD49
:105AA00068B101232B6002222946204600F01DF830
:105AB000B2E75A06B0D01946FFF71AFDACE72860E6
:105AC000F1E70B7803704B784370CA788B7803EB5F
:105AD000022343804A790B7903EB02238380CA793E
